:020000040001F9
:10F000004889002015F401001DF401001FF40100DF
:10F0100021F4010023F4010025F4010000000000A8
:10F0200000000000000000000000000027F40100C4
:10F0300029F40100000000002BF401002DF4010070
:10F0400021F901002FF401002FF4010041FC01001F
:10F0500055FC01002FF40100F5F50100A5F90100B0
:10F060002FF401002FF4010001FF01002FF4010033
:10F070002FF401002FF401002FF401002FF4010000
:10F080002FF4010071F901002FF401002FF40100A9
:10F0900081FC01002FF4010089FC01002FF4010024
:10F0A0002FF401002FF401002FF401002FF40100D0
:10F0B0002FF401002FF40100000000000000000008
:10F0C0002FF401002FF401002FF4010069FC01006E
:10F0D0002FF401002FF401002FF4010000000000C4
:10F0E0000000000000000000000000000000000020
:10F0F0000000000000000000000000000000000010
:10F1000000000000000000000000000000000000FF
:10F1100000000000000000000000000000000000EF
:10F40000DFF80CD000F09AF800480047356702009A
:10F41000488900200648804706480047FEE7FEE787
:10F42000FEE7FEE7FEE7FEE7FEE7FEE7FEE7FEE7B4
:10F43000C9FC010001F40100004870477CE80200AB
:10F4400040EA01039B0703D009E008C9121F08C066
:10F45000042AFAD203E011F8013B00F8013B521EE6
:10F46000F9D27047D2B201E000F8012B491EFBD25D
:10F4700070470022F6E710B513460A4604461946BF
:10F48000FFF7F0FF204610BD10B5044604E00B78EE
:10F4900000F8013B03B1491C521EF8D2204610BDB2
:10F4A000421C10F8011B0029FBD1801A704730B5AF
:10F4B00004460020034600E05B1C934203D2E05C5C
:10F4C000CD5C401BF8D030BD034611F8012B00F88D
:10F4D000012B002AF9D1184670472DE9F05F054647
:10F4E000002092469B4688460646814640241BE003
:10F4F000284641464746224600F041F853465A46C0
:10F50000C01A914110D311461846224600F028F83F
:10F510002D1A67EB01084F4622460120002100F01A
:10F520001FF817EB00094E41201EA4F10104DFDC97
:10F53000484631462A464346BDE8F09F064C074DF3
:10F5400006E0E06840F0010394E8070098471034B3
:10F55000AC42F6D3FFF758FF08E9020028E90200A1
:10F56000202A04DB203A00FA02F100207047914083
:10F57000C2F1200320FA03F3194390407047202A78
:10F5800004DB203A21FA02F00021704721FA02F34D
:10F59000D040C2F12002914008431946704770B52F
:10F5A0008C1810F8015B15F0070301D110F8013B2E
:10F5B0002A1106D110F8012B03E010F8016B01F8B5
:10F5C000016B5B1EF9D12B0705D40023521E0DD40D
:10F5D00001F8013BFAE710F8013BCB1A921C03E05B
:10F5E00013F8015B01F8015B521EF9D5A142D8D393
:10F5F000002070BD2DE9F04F89B04FF000080020C9
:10F6000008904FF4807007900126002413E00798BB
:10F6100008F07EFE48B100BF81480068304020B14C
:10F62000079808F067FE48EA060876000798001D6C
:10F6300080B20790641C082CE9D34FF4BE7008F028
:10F6400067FE50B14FF4BE7008F054FE48F0004819
:10F6500008AA0121002008F033FE08F0FF0000B3E3
:10F66000012600241BE006EA0800B0B100BF6D4887
:10F6700050F82400C0F30420074600BF694850F842
:10F680002400C0F301408146204603F0A5F805465A
:10F6900015B149463846A84700BF7600641C082CBF
:10F6A000E1D308F0004000287ED0002006900590AD
:10F6B000002505E04FF0FF3004A941F825006D1C3E
:10F6C000002DF7D000BF0020069000246FE05648C0
:10F6D000005D0390039820F0C00753480057401C7A
:10F6E000002863D004A9384607F0BAFB00285DD093
:10F6F00003984FEA901A384603F0B6F8814603F0B3
:10F700006BF80290029810B9BAF1030F4BD1BAF11D
:10F71000030F11D1394605A80246CB0801F00701B5
:10F7200012F803C04FF0010E0EFA01FE4CEA0E0C67
:10F7300002F803C000BF00BF00BF00BF4FF0A041F0
:10F74000084600F5E06151F82710C1F3014900BFF8
:10F7500008A9384607F084FB8346BBF1000F02D0AE
:10F76000B9F1020F05D0BBF1000F1BD1B9F1030FA6
:10F7700018D1BAF1030F0FD1B9F1020F01D1032053
:10F7800000E0022001903846019908F027FD069814
:10F79000401CC0B2069000BF029818B151463846CE
:10F7A000029A904700BF00E036E000BF641C042CC2
:10F7B0008DD3069858B3012703AA0121002008F031
:10F7C0007FFD00250AE003A850F8250008A951F89C
:10F7D0002510884201D0002702E06D1C002DF2D0D8
:10F7E00000BF17B10020069010E000250CE003A830
:10F7F00050F8250008A941F8250005A850F8250073
:10F8000004A941F825006D1C002DF0D000BF06981A
:10F8100000287FF458AF00BF09B0BDE8F08F0000AA
:10F8200004630040106500407838002008B50020CF
:10F83000009068460BF08EFB9DF8000000F0010080
:10F8400008BD000000F01F0201219140024A430957
:10F8500042F823107047000080E200E000F01F0231
:10F8600001219140024A430942F8231070470000E9
:10F8700080E100E000F01F02012191404209920066
:10F8800002F1E022C2F80011704700F01F020121CE
:10F8900091404209920002F1E022C2F80011704743
:10F8A00000F01F0201219140024A430942F823104F
:10F8B0007047000000E200E010B5002807DA4A07B0
:10F8C000140E054A00F00F031B1FD45403E04A072F
:10F8D000130E024A135410BD18ED00E000E400E0DE
:10F8E00000BF00BF00BFBFF34F8F00BF00BF00BF0E
:10F8F0000948006800F4E06008490843001D064913
:10F90000086000BF00BF00BFBFF34F8F00BF00BF44
:10F9100000BF00BF00BFFDE70CED00E00000FA05EE
:10F9200010B54FF4807007F0A6FA60B14FF4807004
:10F9300007F0AAFA012007F0B1FA01200B4948703C
:10F94000002003F07DF94FF4827007F094FA58B16B
:10F950004FF4827007F098FA022007F09FFA012016
:10F960000249887003F06CF910BD000014380020C3
:10F9700010B500200949086000210948C0F8441169
:10F98000C0F84811C0F84C1100200549C1F8000129
:10F9900002493C3908600DF0C7FD10BD401101401F
:10F9A00000100140FEB54FF4827008F059FF0028A6
:10F9B00035D04FF4827008F05DFF794890F82B0045
:10F9C00018B1774890F82C0048B300208DF800005B
:10F9D00073484068019072480189ADF80810C0680A
:10F9E00020B900206E4981F829000FE06C48C068FA
:10F9F0006B4948600846808A08810020C860084634
:10FA000090F82B0010B9002008F04CFF6448016802
:10FA1000684688470020624981F82C0000BF604892
:10FA200090F82B0000286CD04FF4807008F018FF7D
:10FA3000002866D04FF4807008F01CFF5848C08A38
:10FA4000B0B957480089564991F82A10401A5449CC
:10FA5000C8820A4612890B46DB8AD21A0B465B68BB
:10FA600003EB42000A4692F82A1008F0ADFE41E08E
:10FA70004B48C08A4A4991F82A10884216DD484806
:10FA8000C08A474991F82A10401A4549C8820A4657
:10FA900012890B46DB8AD21A0B465B6803EB4200E5
:10FAA0000A4692F82A1008F08FFE23E03C48C08AEC
:10FAB0003B4991F82A1088420FD13948C06860B19B
:10FAC0000120374981F82C000020C8820A4692F8AC
:10FAD0002A10D06808F078FE0CE03148C08A30491E
:10FAE00091F82A10884205D101202D4981F82C0077
:10FAF0000020C8824FF4827008F0BCFE042008F099
:10FB0000D1FE4FF4887008F0ABFE78B14FF48870E6
:10FB100008F0B0FE0020224981F8290002208DF86B
:10FB20000000084601686846884700BF4FF48A70A5
:10FB300008F096FE40B14FF48A7008F09BFE00205A
:10FB4000174981F829002AE01548056924E0B5FA2B
:10FB500085F64FF00040F0408543B00000F58C740E
:10FB6000204608F07DFEB8B1204608F083FE012053
:10FB70008DF80000A4F58C70C0F3C7008DF8040068
:10FB8000A4F58C70012121EA90018DF8051004483C
:10FB900001686846884700BF002DD8D100BFFEBD70
:10FBA0008038002010B500BF0348007808B900F085
:10FBB00063FA00BF10BD0000B43F00202DE9F047FC
:10FBC000074688461646C24607EB47011B4800EB2E
:10FBD000C109D9F8140020B1012811D0022826D17A
:10FBE0001EE0484600F080FA0546B54201D20024E6
:10FBF00005E0344632465146484600F0BCFA18E06B
:10FC0000484600F071FA0546B54201D2284600E0A8
:10FC10003046044622465146484600F0ACFA08E019
:10FC200032465146484600F06DFA044601E0002491
:10FC300000BF00BF2046BDE8F0870000CC3F002099
:10FC400010B50249024806F0DBF810BDD03800209C
:10FC50000030004010B503494FF0402006F0D0F8C6
:10FC600010BD0000F838002010B5034C21460348B1
:10FC700006F0B4F810BD0000B0380020003002409B
:10FC800010B50DF067FB10BD70B50A48006868B18B
:10FC9000084800688047044600BF254625B100BFDC
:10FCA000284601F04FFB00BF00BF01E005F0E4FF74
:10FCB00070BD0000183200200148024908607047FA
:10FCC0000090D003C432002010B503F0DDFA10B16B
:10FCD0007D487E49486703F0EFFA28B17C48006808
:10FCE000C0F342307B49086003F010FB28B17A482A
:10FCF000006820F080707849086003F01FFB48B16D
:10FD00000020764908604FF08041C1F81001714928
:10FD1000091F086003F03CFB18B103206D496431F2
:10FD2000086003F04DFB68B105206D4908600120B3
:10FD30006B497831086000206949083108603F202C
:10FD4000091F086003F054FB002855D0654800687F
:10FD5000654908606348001D0068091D0860614826
:10FD600008300068091D08605E480C300068091DF5
:10FD700008605C4810300068091D0860594814305C
:10FD80000068091D0860574818300068564920313E
:10FD9000086054481C300068091D08605148203034
:10FDA0000068091D08604F4824300068091D08607C
:10FDB0004C4828300068091D08604A482C3000680B
:10FDC000091D0860474830300068474940310860E5
:10FDD000444834300068091D0860424838300068E3
:10FDE000091D08603F483C300068091D08603D4817
:10FDF00040300068091D086003F01CFA30B1344837
:10FE00001430006800F04F003849086032487438F8
:10FE1000006840F4700030497439086000BF00BFCA
:10FE200000BFBFF34F8F00BF00BF00BF00BF00BFC8
:10FE300000BFBFF36F8F00BF00BF00BF2C4800683A
:10FE400000F00100E0B301202A49086000BF2A4801
:10FE500000680028FBD02648006820F001004FF021
:10FE60001021C1F80C0200BF234800680028FBD015
:10FE700000202049086000BF1F4800680028FBD010
:10FE800000BF00BF00BF00BF00BFBFF34F8F00BF68
:10FE900000BF00BF1048F038006800F4E060174968
:10FEA0000843001D0C49F039086000BF00BF00BFC7
:10FEB000BFF34F8F00BF00BF00BF00BF00BFFDE713
:10FEC000FFE7FFF7F9FE10BD0DF0ADBA00C0074027
:10FED000440200103C050040FCED00E00C01004035
:10FEE000105600400404001020C50040E40E0040FD
:10FEF0000C12001004E5014000E401400000FA0586
:10FF00002DE9F04786B000203A4908608046002479
:10FF100050E0394830F814000A3081B2364820F8F1
:10FF2000141030F8141004EB44022E3800EB420099
:10FF3000408881423DDB304830F8141004EB440225
:10FF40002E3800EB42004088081A81B22A4820F877
:10FF5000141004EB44012E3810F81190A0F5AC7089
:10FF6000005D28B309F0030010B3244850F824A022
:10FF700004A8DAF81410884706464FF00108E0B2EA
:10FF80008DF808008DF80960324604A9881FFFF734
:10FF900057FA02A91A4801F0A1FA054600BF2F46F8
:10FFA00027B100BF384601F0CDF900BF00BF00BF48
:10FFB00000BF641C072CACDB0020019001A801F0FD
:10FFC000A7FCB8F1000F0DD00E4890F8830148B996
:10FFD00001200C4981F883010B4A0021084601F0F9
:10FFE00007FB05469DF8040001F098FC06B0BDE84B
:10FFF000F087000040A100407A46002080320020B7
:020000040002F8
:10000000D0E60200F444002061B402002DE9F04182
:1000100004460D461646682C01D00C2C01D106482A
:1000200000E006480746F3B22A462146384608F063
:100030004FF8BDE8F0810000D8E70200E0E70200D9
:100040002DE9F84304460D4616461F46682C01D09C
:100050000C2C01D1064800E006488046F3B22A463F
:1000600021464046009708F049F8BDE8F8830000B3
:10007000D8E70200E0E7020010B5124C0220206130
:10008000606111A0A0611349E1614FF40071216228
:100090000021A1626162E1620BA0A0640E49E164EB
:1000A000102121650021A1656165E1650BA1E01DBD
:1000B000FFF70AFA0AA12046FFF706FA2020A071EE
:1000C00010BD0000B43F00205465726D696E616C14
:1000D00000000000A43D0020A43F00205254540022
:1000E000534547474552000010B501460A69CB68A1
:1000F0009A4204D88C68641EE41AA01801E0D41A4D
:10010000601E10BD2DE9F0470446894617464FF0A2
:10011000000AE56800BFD4F81080A84503D9A8EB11
:100120000500461E04E0A5EB0800401CA1680E1A5D
:10013000A068401BB04201D9304601E0A068401BD6
:100140000646BE4201D2304600E0384606466168A7
:10015000481932464946FFF773F9B244B144BF1B10
:100160003544A068A84200D10025E560002FD2D117
:100170005046BDE8F0872DE9F0470446894615460C
:10018000E668A068871BAF4208D9616888192A46CB
:100190004946FFF755F97019E06010E0B84661680C
:1001A000881942464946FFF74BF9A5EB070809EBCA
:1001B000070142466068FFF743F9C4F80C80BDE8C8
:1001C000F08700000FB41CB50246002007AC0029E0
:1001D0000BD0491ECDE90021054B6A462146069801
:1001E00000F09EF8009A002111701CBC5DF814FB11
:1001F000830702000FB4084B10B504A902AA0398A4
:1002000000F08EF8044602A9002000F0C5FA20464E
:1002100010BC5DF814FB00009907020002E008C85A
:10022000121F08C1002AFAD170477047002001E070
:1002300001C1121F002AFBD170470000014620298E
:1002400008DA012088400A4A104008B101207047AE
:100250000020FCE7402909DAA1F12000012202FA7E
:1002600000F008B10120F2E70020F0E70120EEE7FE
:10027000FC06FFBC0146202908DA012088400A4A12
:10028000104008B1012070470020FCE7402909DA3E
:10029000A1F12000012202FA00F008B10120F2E7EA
:1002A0000020F0E70120EEE7FC06FFBC00BFEFF303
:1002B0001081084672B670470146082901D3002014
:1002C000704729B1012903D0042901D0052901D1A2
:1002D0000020F5E70120F3E72DE9F04107460D4640
:1002E00035B90E48006801F0FBFA02F013FA13E08A
:1002F00001200CF031F900224FF4803107480068EA
:1003000001F0C4FA044600BF264626B100BF3046BD
:1003100001F018F800BF00BFBDE8F081BCE70200A3
:100320002DE9FF4F8DB00F460546002606E0252833
:100330000BD0DDE90F1290476D1C761C2878002841
:10034000F5D111B03046BDE8F08F0024A246A14699
:100350000122EC4900E0044315F8013F203B02FA7A
:1003600003F00842F7D128782A2810D06FF02F0226
:100370002878A0F13001092914D80AEB8A0102EB90
:10038000410144F0020400EB010A6D1CF0E701CFCB
:100390005FEA000A03D544F40054CAF1000A44F0AD
:1003A00002046D1C28782E2817D115F8010F44F08F
:1003B00004042A280ED06FF02F022878A0F1300113
:1003C00009290AD809EB890102EB410100EB010977
:1003D0006D1CF2E757F8049B6D1C28786C280FD031
:1003E00006DC4C2817D068280DD06A2814D104E008
:1003F000742810D07A280FD10DE044F400140AE0DC
:1004000044F4801401E044F440146978814202D13C
:1004100004F580146D1C6D1C2A786E2A1FD00CDC2C
:10042000632A31D004DC002A8BD0582A11D1A3E0F2
:10043000642A68D0692A0CD165E0732A2ED004DCC6
:100440006F2A73D0702A04D19BE0752A6FD0782A66
:100450006ED01046DDE90F129047761C50E1C4F3D0
:100460000250022806D0032809D0042801CF09D061
:10047000066045E101CFF117C0E9006140E101CF1D
:1004800006803DE106703BE117F8040B8DF8000093
:1004900000208DF80100EB46012003E057F804BB73
:1004A0004FF0FF3061074FF0000102D40DE008F17A
:1004B0000101884649450FDA8045F8DB1BF8081032
:1004C0000029F4D108E008F1010188468142FADBF5
:1004D0001BF808100029F6D1DDE90F23AAEB08006C
:1004E0008146214600F036F9304400EB080604E06E
:1004F000DDE90F121BF8010B9047B8F10108F7D2A4
:1005000021464846F7E00A21C4F302534FF0000B9E
:100510000891022B04D001CFC117032B09D00AE0A8
:10052000FF1D27F00707F7E8020108E032E01FE0AF
:1005300020E000B2C117042B01D140B2C117031E45
:1005400071F1000307DA4FF0000CD0EB0C006CEBFC
:1005500001012D2302E0230504D52B238DF824303F
:10056000012303E0E30701D02023F7E7984658E092
:100570000A2110E010210EE010204FF0000B08902F
:100580000CE010214FF0000B44F004044FF0080978
:10059000089103E008214FF0000B0891C4F30253C7
:1005A000022B04D001CF0021032B06D006E0FF1D53
:1005B00027F00707F7E8020103E080B2042B00D11F
:1005C000C0B24FF0000823072BD5702A07D0DDF802
:1005D00020C08CF0100C5CEA0B0C05D00EE0402320
:1005E0008DF82430012308E050EA010306D03023BF
:1005F0008DF824308DF8252002239846DDF820C0A0
:100600008CF0080C5CEA0B0C0BD150EA010301D111
:10061000630706D530238DF824304FF00108A9F187
:100620000109582A04D038A20B9208AA0A920BE0BA
:100630003AA2F9E75B46089AFEF74FFF0B9B9B5CDB
:100640000A9A521E0A92137050EA0102F2D10A98D5
:10065000ADEB000000F1200B600702D524F48034DC
:1006600001E04FF00109D94502DDA9EB0B0000E0E4
:10067000002000EB0B0141440890AAEB010AE003C3
:1006800006D4DDE90F232146504600F063F8064406
:100690004FF0000908E009A911F80900DDE90F127F
:1006A000904709F10109761CC145F4DBE0030CD544
:1006B000DDE90F232146504600F04CF8064404E0E3
:1006C000DDE90F1230209047761C0899481E0890EB
:1006D0000029F5DC08E00A980A990078491C0A917B
:1006E000DDE90F129047761CBBF10001ABF1010B65
:1006F000F1DC21465046DDE90F2300F019F80644ED
:100700006D1C1BE609280100303132333435363791
:10071000383961626364656600000000303132334D
:1007200034353637383941424344454600000000ED
:100730002DE9F041044600251E461746880404D4DE
:1007400005E039462020B0476D1C641EF9D52846C7
:10075000BDE8F0812DE9F041044600251E46904693
:10076000C80301D5302700E02027880404D505E020
:1007700041463846B0476D1C641EF9D52846BDE891
:10078000F0814A68002A06D00A68531C0B6010707A
:100790004868401E486070470A68531C0B60107020
:1007A0007047000070B58AB0054642F20100ADF80E
:1007B00004008DF80650654A01A90120A0DF044617
:1007C00000BF264626B100BF304600F0BBFD00BF8B
:1007D00000BF202102A8FEF74CFE8DF80A50002031
:1007E0008DF81C0047F21000ADF808000120ADF8AC
:1007F0000C009DF8150020F00200801C8DF81500FB
:100800009DF8150020F0080008308DF815009DF8BF
:10081000150020F010008DF8150000208DF817004D
:100820008DF8180001208DF819008DF81A000020AD
:100830008DF81B00454908888A1C02A902F096F829
:10084000044600BF264626B100BF304600F07AFDC0
:1008500000BF00BF47F21100ADF808000720ADF857
:100860000C009DF8150020F00200801C8DF815008A
:100870009DF8150020F008008DF815009DF8150072
:1008800020F010008DF8150001208DF817000020D1
:100890008DF818008DF8140001208DF81900002043
:1008A0008DF81A008DF81B002849088801F10A020A
:1008B00002A902F05BF8044600BF264626B100BF3D
:1008C000304600F03FFD00BF00BF47F21200ADF818
:1008D00008001420ADF80C0001208DF814009DF8DC
:1008E000150020F00200801C8DF815009DF8150001
:1008F00020F008008DF815009DF8150020F010007C
:100900008DF8150001208DF8170000208DF81800D3
:100910008DF8140001208DF8190000208DF81A00C0
:100920008DF81B000949088801F1120202A902F0A2
:100930001DF8044600BF264626B100BF304600F031
:1009400001FD00BF00BF0AB070BD0000864200205C
:1009500070B58AB005464FF40050ADF804008DF82C
:100960000650C14A01A90120A0DF044600BF264667
:1009700026B100BF304600F0E5FC00BF00BF2021DB
:1009800002A8FEF776FD8DF80A5000208DF81C00B5
:100990004FF4E040ADF808000120ADF80C009DF8E0
:1009A000150020F00200801C8DF815009DF8150040
:1009B00020F0080008308DF815009DF8150020F093
:1009C000100010308DF8150000208DF81400012063
:1009D0008DF8170000208DF8180001208DF81900FF
:1009E0008DF81A008DF81B009F4908888A1C02A9FF
:1009F00001F0BCFF044600BF264626B100BF3046CA
:100A000000F0A0FC00BF00BF47F20200ADF80800F4
:100A10000120ADF80C009DF8150020F00200801CAC
:100A20008DF815009DF8150020F008008DF81500D0
:100A30009DF8150020F0100010308DF815000020F2
:100A40008DF814008DF817008DF8180001208DF82E
:100A5000190000208DF81A0001208DF81B00824932
:100A6000088801F1120202A901F080FF044600BFCC
:100A7000264626B100BF304600F064FC00BF00BF30
:100A800047F20100ADF808000120ADF80C009DF818
:100A9000150020F00200801C8DF815009DF815004F
:100AA00020F008008DF815009DF8150020F01000CA
:100AB00010308DF8150000208DF814008DF8170007
:100AC0008DF8180001208DF8190000208DF81A000B
:100AD00001208DF81B006449088801F10A0202A96F
:100AE00001F044FF044600BF264626B100BF304651
:100AF00000F028FC00BF00BF47F20300ADF808007B
:100B00000720ADF80C009DF8150020F00200801CB5
:100B10008DF815009DF8150020F0080008308DF8BC
:100B200015009DF8150020F010008DF8150000202C
:100B30008DF8140001208DF8170000208DF81800A2
:100B400001208DF819008DF81A0000208DF81B0087
:100B50004549088801F11A0202A901F007FF04467D
:100B600000BF264626B100BF304600F0EBFB00BFB9
:100B700000BF47F20400ADF808001420ADF80C00E7
:100B80009DF8150020F00200801C8DF815009DF8DE
:100B9000150020F0080008308DF815009DF81500AC
:100BA00020F010008DF8150001208DF814008DF84C
:100BB000170000208DF8180001208DF819008DF81D
:100BC0001A0000208DF81B002749088801F1220235
:100BD00002A901F0CBFE044600BF264626B100BFA5
:100BE000304600F0AFFB00BF00BF47F20500ADF894
:100BF00008001420ADF80C009DF8150020F002004C
:100C0000801C8DF815009DF8150020F008000830B4
:100C10008DF815009DF8150020F010008DF81500D6
:100C200001208DF814008DF8170000208DF81800B1
:100C300001208DF819008DF81A0000208DF81B0096
:100C40000949088801F12A0202A901F08FFE044631
:100C500000BF264626B100BF304600F073FB00BF40
:100C600000BF0AB070BD0000A4420020F0B589B0FA
:100C700004460E4694F82E0000F50450ADF800002E
:100C80008DF80260A21C69460120A0DF054600BF66
:100C90002F4627B100BF384600F054FB00BF00BF0D
:100CA000202101A8FEF7E5FB8DF8066000208DF8F5
:100CB000180094F82E0000F5E240ADF8040005207D
:100CC000ADF808009DF8110020F00200801C8DF89E
:100CD00011009DF8110020F0080008308DF8110077
:100CE0009DF8110020F010008DF8110000208DF803
:100CF000100001208DF813008DF814008DF81500F8
:100D00008DF8160000208DF817006088221D01A9BB
:100D100001F02CFE054600BF2F4627B100BF384624
:100D200000F010FB00BF00BF94F82E0000F5E44077
:100D3000ADF804001420ADF808009DF8110020F073
:100D400002008DF811009DF8110020F008008DF8C8
:100D500011009DF8110020F0100010308DF81100E6
:100D600001208DF8100000208DF813008DF814007C
:100D70008DF815008DF8160001208DF81700608899
:100D800004F10C0201A901F0F1FD054600BF2F4658
:100D900027B100BF384600F0D5FA00BF00BF94F875
:100DA0002E0000F5E640ADF804000720ADF808007D
:100DB0009DF8110020F002008DF811009DF811003F
:100DC00020F0080008308DF811009DF8110020F087
:100DD00010008DF8110000208DF810008DF8130020
:100DE00001208DF8140000208DF8150001208DF8E9
:100DF000160000208DF81700608804F1140201A984
:100E000001F0B4FD054600BF2F4627B100BF3846AC
:100E100000F098FA00BF00BF94F82E0000F5EA40F9
:100E2000ADF804001420ADF808009DF8110020F082
:100E300002008DF811009DF8110020F008008DF8D7
:100E400011009DF8110020F0100010308DF81100F5
:100E500001208DF8100000208DF813008DF814008B
:100E60008DF815008DF8160001208DF817006088A8
:100E700004F1240201A901F079FD054600BF2F46C7
:100E800027B100BF384600F05DFA00BF00BF94F8FC
:100E90002E0000F5E840ADF804001120ADF8080080
:100EA0009DF8110020F00200801C8DF811009DF8C3
:100EB000110020F008008DF811009DF8110020F0BD
:100EC00010008DF8110000208DF8100001208DF821
:100ED000130000208DF8140001208DF8150000206B
:100EE0008DF816008DF81700608804F11C0201A926
:100EF00001F03CFD054600BF2F4627B100BF384634
:100F000000F020FA00BF00BF09B0F0BD70B5054683
:100F10000C4605B10CB9002070BD28784008217836
:100F2000B0EB510F01D00020F6E70622611C681CCF
:100F3000FEF7BDFA08B90120EEE70020ECE7024613
:100F4000002104E0505C08B101207047491C0629CB
:100F5000F8D30020F9E7000010B504466CB108484A
:100F60000068A04209D806484068A04205D3204640
:100F700004F0FBFF08B1012010BD0020FCE70000D9
:100F8000E03200202DE9FC41044688461646002543
:100F900037880020308094F82D0058B13A46314609
:100FA000404601F075FA054600BF15B12846BDE878
:100FB000FC8100BFA07850B13A463146404600F06F
:100FC000D1FC054600BF0DB12846F0E700BFE07830
:100FD00060B1E17848B23B463246414602F0DAFD64
:100FE000054600BF0DB12846E1E700BF606868B163
:100FF000616891F900003B46324641460CF0FAFD2B
:10100000054600BF0DB12846D1E700BF2089002862
:101010000EDD43460622022104F10800CDE90067F7
:101020000CF0D2FE054600BF0DB12846BFE700BF59
:10103000208A00280EDD43460722032104F1100018
:10104000CDE900670CF0C0FE054600BF0DB1284693
:10105000ADE700BF208B00280EDD4346152214218A
:1010600004F11800CDE900670CF0AEFE054600BFA4
:101070000DB128469BE700BF206A58B13B46324677
:101080004146206A01F091FE054600BF0DB1284699
:101090008DE700BF606A58B13B4632464146606A00
:1010A00005F090FC054600BF0DB128467FE700BF64
:1010B00094F82C0000280BDD3B4632464146204682
:1010C0000BF0FEF9054600BF0DB128466FE700BFE3
:1010D000207858B13B4632464146204605F09DFDFA
:1010E000054600BF0DB1284661E700BF28465EE710
:1010F00070B504461448FFF722FF0546012C06D0C0
:10110000022C0BD0032C10D0042C1AD113E00F4862
:10111000407810B10DB1012070BD00BF0B48807840
:1011200010B10DB10220F7E700BF0848C07808B140
:101130000320F1E700BF0548007908B10420EBE780
:1011400000BF0020E8E700002D3100200033002020
:101150000146481C052290FBF2F302FB1300C0B2CB
:1011600070470146C87800F0040008B907207047AE
:101170000020FCE770B58CB004460D4616460020F2
:1011800005E0C0F10F01615C0DF80010401C102853
:10119000F7D30D2104A8FEF76CF9002005E02A5CC6
:1011A000C0F10F0304A9CA54401C0328F7D36846B2
:1011B00043DF002005E0C0F10F0208A9895C31542B
:1011C000401C0328F7D30CB070BD000010B50024FC
:1011D00007E00749096811F83400012106F0B6FB61
:1011E000641C044800788442F3D3002010BD000042
:1011F000B4310020B83100202DE9F84306460C46F2
:101200001746052F02D20720BDE8F88306F09CFCA4
:1012100038B906F069FC054600BF0DB12846F3E772
:1012200000BF164806601648047016480760002084
:10123000154908601549086015E006EBC408144814
:101240000068009098F802008DF8010098F80000FE
:10125000104A694606F0D0FB054600BF0DB128468E
:10126000D2E700BF00BF201EA4F10101CCB2E4D13F
:10127000094A0021094800F07FFAC5E7B43100208F
:10128000B8310020BC310020C0310020C431002022
:10129000A8E60200B1490200D52F0200A4E6020030
:1012A00008B504460D4616462B46224616A10420D4
:1012B000009607F014FAC8274FF47A7117FB01F073
:1012C00005F0E0FE00BF00BF00BF00BF00BF00BFD1
:1012D00000BF00BFBFF34F8F00BF00BF00BF174864
:1012E000006800F4E06016490843001D13490860D7
:1012F00000BF00BF00BFBFF34F8F00BF00BF00BFE4
:1013000000BF00BFFDE700003A44454255473A0A96
:101310006170705F6572726F723A2069643A3078FA
:10132000253038782070633A307825303878206955
:101330006E666F3A3078253038782E000CED00E07C
:101340000000FA053EB5044600200090019002908E
:1013500002946A46002144F20100FFF7A1FF3EBD5E
:1013600073B5064601A930467DDF044600BF254619
:1013700025B100BF2846FFF7E5FF00BF00BFBDF85D
:1013800004007CBD70B505462888102806D01128B9
:1013900008D03B280BD0562827D117E0A88814493D
:1013A000088022E04FF6FF70114908801DE01321EC
:1013B0000F48008876DF044600BF264626B100BFEE
:1013C0003046FFF7BFFF00BF00BF0EE01321084803
:1013D000008876DF044600BF264626B100BF3046AF
:1013E000FFF7B0FF00BF00BF00BF00BF70BD00002F
:1013F000C03200202DE9FC4107460E4618212B483B
:10140000FEF737F8172E01D2304600E017200246CB
:1014100039462648FEF738F825480023012201689E
:1014200002F0D0FC044600BFA046B8F1000F04D083
:1014300000BF4046FFF786FF00BF00BF00200090BE
:101440001B480623194A016802F0D8FD044600BF74
:10145000A046B8F1000F04D000BF4046FFF772FF6E
:1014600000BF00BF00BF9DF8040020F00F00401C2B
:1014700001909DF8040020F0F0001030019000BFB2
:101480000A48FEF70DF886B23246084901A87CDF0B
:10149000054600BFA846B8F1000F04D000BF404683
:1014A000FFF750FF00BF00BFBDE8FC81F4480020FB
:1014B000F0320020014600204A6810704A685070DF
:1014C0004A6890704A68D070704738B504460D4637
:1014D0006A462946204600F00AF838BD70B5044631
:1014E0000D4622892946204600F037F870BD2DE9C7
:1014F000FC5F04460F46904625684FF00009B4F89B
:1015000008B0A07A0190666800200090684600F05C
:10151000FFF9B07810B94FF0040908E031780BF109
:10152000040001FB00553046019901F029FDB9F195
:10153000000F0BD128881FFA80FAA8F800A02D1DF3
:10154000524629463846FDF77BFF00BF9DF8000054
:1015500000F0E4F94846BDE8FC9F2DE9FC5F054634
:1015600089469046032001902E684FF0010AAF7A19
:10157000B5F808B06C6800200090684600F0C8F923
:10158000A078B8420BD1E07810B94FF0000A03E020
:101590003946204601F0F4FC0420019001E00020CF
:1015A0000190BAF1000F1BD061780BF1040001FB30
:1015B00000662046394643785B1CDAB283785B1CB0
:1015C00083708A4201D1002300E01346437000BFBC
:1015D000C6F80080361D424649463046FDF730FFCA
:1015E0009DF8000000F09AF90198BDE8FC9F00000A
:1015F0002DE9F84307460C46904626480088844269
:1016000044DC4FF6FF7500200090684600F080F93A
:1016100000BF214890F800902048007805F0B0FB0A
:10162000484501D1012000E0002030B91B48057871
:10163000007805F0A5FB194908709DF8000000F03E
:101640006DF94FF6FF7085421ED01548006840F8CE
:1016500035808FB1002C0FDD124909680D4A1288C0
:1016600005FB021022463946FDF7EAFE0C480068E9
:1016700000EBC500848005E000200949096801EB02
:10168000C5018880002600E0042600E009263046D7
:10169000BDE8F883D2310020D0310020D1310020C4
:1016A000C8310020CC3100202DE9F0411AE0164865
:1016B0000478164800681649098804FB0105154896
:1016C000006800EBC40086881248006850F8347047
:1016D00031462846B8470C48007805F051FB0A49C6
:1016E000087000BF00BF002058B900BF0649087845
:1016F00009490978814201D1012100E00021002936
:10170000D5D0BDE8F0810000D0310020CC310020E0
:10171000D2310020C8310020D131002030B503463D
:10172000481C4FF6FF7505EAC004104600F003059B
:101730000DB9012500E000250DB9072030BD08488E
:1017400002601019074D28600020074D2870074DD2
:10175000287007480380074801800020EEE700005A
:10176000C8310020CC310020D1310020D031002000
:10177000D2310020D431002010B503460C4600BF02
:101780000B48406808B9082010BD00BF0AB90720FF
:10179000FAE70BB90720F7E71868007C08B10820C2
:1017A000F2E71968002008744C744A6100BFEBE747
:1017B000F03100202DE9F04104460D46264600BFD9
:1017C000082D01D1012000E00020074627B900BF05
:1017D0000020FFF7B7FD00BF00BFD6E90010884723
:1017E000BDE8F0817CB504460D4600940195034A9E
:1017F00008216846FFF7FCFE7CBD0000B51702001B
:101800002DE9F04107460D4614461E46204600F0DD
:10181000030109B9012100E0002111B90720BDE849
:10182000F0810CB90720FAE709F0CAFD11480660FB
:1018300000201149087048700846857044600020F7
:101840000E4908600E4908700E4908701420FDF713
:10185000F9FF07211420FEF72FF81420FEF70AF8ED
:10186000384609F083FD09F07BFD07490860002038
:10187000D5E700000C320020F0310020F8310020C4
:101880000832002009320020FC3100202DE9F0410F
:1018900004460E461746254600BF1048406810B95A
:1018A0000820BDE8F08100BF0CB90820F9E7052E3B
:1018B00001D20720F5E7686908B90820F1E7687CDC
:1018C000012801D1304600E0002080463B464246D8
:1018D000314628460BF0D8FDE3E70000F031002048
:1018E00070B50446254600BF0848406808B908207E
:1018F00070BD00BF0CB1686908B90820F8E7002086
:101900002874022128460BF0EEFDF1E7F0310020AB
:1019100010B50446204609F033FE10BD70B50446EC
:1019200025460E488068B0B1ADB9FEF7BFFC06464B
:101930000A4800680A490860084840684FF0E021FA
:10194000C1F804010020054988601EB900BF62B6D5
:1019500000BF00BF00BF00BF70BD0000F83B00200B
:1019600000E100E0F8B505460C4617462088001D4A
:10197000B84201D90C20F8BD684679DF064600BFA1
:101980000EB13046F7E700BF032021886854208855
:10199000401C20801920218868542088401C208009
:1019A00020884119BDF800000CF049F9218808444D
:1019B00020800020DFE7000030B58BB013480078AE
:1019C00000F0DCFC0546284609F00EFED8B101A85F
:1019D00000F034FC142201A906A8FDF731FD002413
:1019E0000DE007A931F814000849097800F0D4FC8B
:1019F00020B107A931F8140004F0D6FD641C069844
:101A0000A042EED800BF0BB030BD00004E31002028
:101A100010B50446637903F003022179208804F0AD
:101A200071FC10BD10B50446207918B9204600F0AD
:101A300007F803E02046FFF7EBFF00BF00BF10BD33
:101A40002DE9F04188B004460025208800F068FCAC
:101A50000746208803F088FA0646A0680790607A57
:101A60000690208800222349097800F0A7FC17B9C6
:101A700008B0BDE8F0816079C0F3800090B1072123
:101A8000304607F057FF0546BDB108208DF800002D
:101A90002088ADF80200ADF804600295684601F0B8
:101AA00075FD0AE020881449097800F075FC20B122
:101AB000304603F043FA804600BF03208DF80C0047
:101AC0002088ADF80E006079C0F380008DF810001A
:101AD000A079C0F380018DF811109DF81C108DF8CD
:101AE00012109DF818108DF8131003A801F04EFD88
:101AF00000BFBDE78E310020903100200EB50020E0
:101B00000290012202A96B200CF0D9FA002001906A
:101B1000012201A96C200CF0D2FA04A00068009008
:101B2000012269460A200CF0ABFA0EBD1600000037
:101B3000F0B591B004460D46207DD8B10020099043
:101B400000BF9DF8240020F00F00401C8DF82400F9
:101B50009DF8240020F0F00010308DF8240000BF24
:101B6000687B8DF825009DF8260020F00600801C7B
:101B70008DF826001C210AA8FDF77BFC9DF82800A3
:101B800020F00200801C8DF82800207D08B1012083
:101B900000E000209DF8281060F304118DF8281053
:101BA00000200B900D900E90207D08B109A800E058
:101BB00000200F900020109000BF01208DF80E0033
:101BC00042F61920ADF80C0000BF00200290A87B5F
:101BD0008DF80800E87B8DF809009DF80A0020F0D8
:101BE0000600801C8DF80A009DF80A0020F008000D
:101BF0008DF80A009DF80A0020F010008DF80A0008
:101C00009DF80A0020F001008DF80A00287B019061
:101C1000142104A8FDF72DFC03A8049002A8059048
:101C20000120ADF818000020ADF81A000120ADF831
:101C30001C0001A80890A088A31D04AA0AA9A2DF7D
:101C4000064616B1304611B0F0BDA868002855D040
:101C500000BF01208DF80E0042F60810ADF80C0010
:101C600000BF00200290287C8DF8080000BF9DF87E
:101C7000090020F00F008DF809009DF8090020F000
:101C8000F0008DF8090000BF9DF80A0020F0060062
:101C9000801C8DF80A009DF80A0020F008008DF8DD
:101CA0000A009DF80A0020F010008DF80A009DF847
:101CB0000A0020F001008DF80A006846A96800F0CB
:101CC00001FD0746142104A8FDF7D3FB03A80490E7
:101CD00002A80590ADF818700020ADF81A00BDF804
:101CE0001800ADF81C00CDF820D0E08804F10E02F9
:101CF00004A9A3DF06461EB13046A4E70020E08118
:101D00000020A0E770B5054602F0CCFC0446074869
:101D1000408A4FF6FF71884202D020460BF0D2FF76
:101D200014B920200AF016FA70BD00000C490020FA
:101D30002DE9F04192B080460D461F201190109081
:101D4000B8F1000F17D04046FFF70BFA044600BF6A
:101D50001CB1204612B0BDE8F08100BF11AA08A94D
:101D60004046FFF70FF9044600BF0CB12046F1E7EB
:101D700000BF08AE02E0002600201190ADB1284659
:101D80000BF0A9F9044600BF0CB12046E2E700BF02
:101D900010AA69462846FFF7F5F8044600BF0CB1C3
:101DA0002046D7E700BF6F4602E0002700201090D2
:101DB000BDF84000C3B2BDF84400C1B23A46304657
:101DC00072DFC7E72DE9F04704460F4615461E4669
:101DD000DDF8208004B115B90E20BDE8F0870120A0
:101DE0004849087000204849087020222946474881
:101DF000FDF726FB464806604648C0F800804FF6CF
:101E0000FF7045490880454800210160818081714B
:101E10003C214348FDF72DFB207841490870A0780C
:101E20008870E078C87060784870D4E90402C1E92D
:101E300004020846D4E90212C0E90212D4E90612EB
:101E4000C0E90612606AD8B1364835494862364959
:101E50008160606A00883249496A0880606A8088C7
:101E60002F49496A8880002005E0616A8968095C19
:101E70002D4A1154401C2A49496A89888142F4D864
:101E8000A06A20B329492A488160254988622749E8
:101E90002348806A8160A06A80882149896A888095
:101EA000A06A00881E49896A0880002005E0A16AAE
:101EB0008968095C1D4A1154401C1949896A89883E
:101EC0008142F4D894F82C00154981F82C00206A3E
:101ED00058B1184812490862206A4088096A488047
:101EE000206A00880E49096A0880606810B10C49B0
:101EF0006068486039460A48FFF71AFF814648463D
:101F00006BE70000283100202B3100200033002037
:101F10003C31002040310020383100202C3100209D
:101F2000203300205C3300206833002094330020ED
:101F3000883300203431002010B504462088102852
:101F400004D0112806D01B280CD107E0204606F04B
:101F5000FFFF08E0204607F009F804E0204607F0FC
:101F600075F800E000BF00BF10BD000070B5054669
:101F7000022D02D0032D15D100E000BF0B480078E0
:101F800078B10020094908700948007800F014F879
:101F9000044634B10748006818B12046054909686D
:101FA000884700E000BF00BF70BD0000293100205D
:101FB0002B310020403100207FB505464D48007888
:101FC00010B9082004B070BD4B48057001F04CFEFC
:101FD00020B10120494908700020F3E7484800215A
:101FE0000160818081714748407818B1424800788B
:101FF00001280DD04348807818B13F480078012867
:1020000006D04048807888B13B48007802280DD13E
:102010003D48006838B101203C49087008203A4921
:102020000968884702E00020384908702846FFF711
:102030005FF83149087034480068C0B1084600783C
:10204000032803D008460078042810D12D480078D2
:1020500068B12F48007850B900202E49087001203F
:102060002D490870072028490968884702E00020A8
:1020700029490870002000900190029003908DF88B
:1020800000008DF808001C48007805281CD2DFE805
:1020900000F01703080D120068460AF079FB0446A9
:1020A00013E068460AF084FB04460EE068460AF036
:1020B00095FB044609E068460AF0C0FB044604E0CC
:1020C00000201649087000E000BF00BF0A480078F1
:1020D00028B1684673DF04460CB1204672E70A480F
:1020E000006820B10D48007807490968884700203A
:1020F00068E70000283100202B3100202931002022
:102100002C310020003300203C31002033310020EE
:102110004431002046310020453100202A31002082
:1021200033B587B0044614B90E2009B030BD002580
:10213000207C9DF82010884236D000200590069023
:102140000120ADF814000020ADF8160008A8069094
:10215000E188608A05AAA4DF05461DB99DF8200024
:10216000207401E02846E0E7608A4FF6FF7188425C
:1021700019D0207DB8B10020019002900390049006
:10218000E088ADF8040001208DF80600BDF81600C7
:10219000ADF8080005A8039006980490608A01A98C
:1021A000A6DF054600E008252846BEE7F8B5044648
:1021B0000D4604B10DB90E20F8BD286820604FF619
:1021C000FF70608228792075FF20207400BF0120F5
:1021D0008DF8020041F60F00ADF8000000BF221D8F
:1021E00069460120A0DF06460EB13046E4E72946E5
:1021F0002046FFF79DFCDFE770B505460C4605B1AC
:1022000004B970BD2088102804D0112807D05028A8
:102210000FD109E02146284606F096FE0AE0214645
:10222000284606F09FFE05E02146284606F02AFFD4
:1022300000E000BF00BF00BFE3E7000010B50446A8
:102240000348027D011D204609F047FA10BD000039
:10225000B433002010B504460348C17D2246001D5A
:1022600009F024FA10BD0000B433002010B5044674
:102270000348017E2246001D09F018FA10BD000037
:10228000B433002070B504462088102804D01128EB
:102290001DD01A2840D11EE008F0FCFFA08808F0ED
:1022A00073FE20B900BF0420FFF74CF80EE0E07B7E
:1022B000022801D1012000E000200546A2882B461B
:1022C0001649A1F1120009F029FA00BF24E0A08804
:1022D00009F002F820E0207A0121B1EB101F01DAA9
:1022E000012000E000200346A2880C49491CA1F10E
:1022F000130009F013FA207A0221B1EB101F01DA62
:10230000012000E000200346A2880449891CA1F1B5
:10231000140009F003FA00BF00BF70BDCA330020EB
:1023200070B5044600250B48017D2246001D09F0CA
:10233000BDF960B10748817D2246001D09F0B6F95C
:1023400006460EB1022000E00120054600BF2846E7
:1023500070BD0000B433002010B500240AE0204610
:102360000BF000FD20B920460BF0F2FC204610BD1A
:10237000601CC4B2182CF2DB1820F8E710B5044634
:1023800020460BF0EFFC10B10248005D10BD0020AC
:10239000FCE70000CD33002070B505460C46204612
:1023A0000BF0E0FC30B10448015D2A46153809F015
:1023B0007DF970BD0020FCE7CD33002070B50546E7
:1023C0000C46164620460BF0CDFC30B103480119EF
:1023D00033462A46153809F0A1F970BDCD330020E7
:1023E00010B50246022000BF0B784C7843EA042364
:1023F00013800446401C0B5D93700446401C0B5D2B
:10240000D3700446401C0B5D13710446401C0B5DE9
:1024100053710446401C0B5D937110BD30B50246EC
:1024200013880B701C0A4C700224204695780446D1
:10243000401C0D55D5780446401C0D5515790446B1
:10244000401C0D5555790446401C0D5595790446A0
:10245000401C0D5530BD30B5024613880B701C0A68
:102460004C700224204695780446401C0D55D578C2
:102470000446401C0D5515790446401C0D555579F0
:102480000446401C0D5595790446401C0D5530BD41
:102490002DE9FC4105460C46174620880930B84214
:1024A00002D90C20BDE8FC8168466DDF064600BFFE
:1024B0000EB13046F6E700BF082021886854208816
:1024C000401C20801B20218868542088401C2080CC
:1024D00020882844DDF801100160BDF805108180D6
:1024E0002088801D20809DF80000400818B9002039
:1024F0002188685402E00120218868542088401C0B
:1025000020800020CEE700007FB5044600BF0120F8
:102510008DF80E0041F60A00ADF80C0000BF564AD7
:1025200003A90120A0DF054615B1284604B070BDFF
:10253000208800280DDD51480090228804F13C03DA
:1025400042F62920616800F095F905460DB128464C
:10255000ECE7208900280DDD49480090228904F12C
:102560003C0342F62420E16800F084F905460DB1F1
:102570002846DBE7208A00280DDD42480090228AA9
:1025800004F13C0342F62520616900F073F9054629
:102590000DB12846CAE7208B00280DDD3A4800908F
:1025A000228B04F13C0342F62720E16900F062F936
:1025B00005460DB12846B9E7208C00280DDD3348CB
:1025C0000090228C04F13C0342F62620616A00F060
:1025D00051F905460DB12846A8E7208D00280DDDEC
:1025E0002B480090228D04F13C0342F62820E16A3A
:1025F00000F040F905460DB1284697E7206B90B1F1
:1026000001A8216B0AF015FE224804F13C030822C0
:1026100001A9009042F6232000F02CF905460DB1E7
:10262000284683E700BF606B70B11B480090606B69
:10263000027904F13C03016842F62A2000F01AF9FD
:1026400005460DB1284671E7A06B90B101A8A16BBA
:1026500008F030F9114804F13C03072201A9009069
:1026600042F6502000F006F905460DB128465DE718
:1026700000BF00205AE7000034320020363200202C
:102680003E320020463200204E32002056320020DA
:102690005E320020663200206E320020763200204A
:1026A00070B504460D462846FCF7FAFE20806560AA
:1026B00070BD70B5044620460BF0BBFA054605F028
:1026C000010070BD2DE9F04105460E460024327828
:1026D0002146641C6A5472782146641C6A5400BF07
:1026E000022C01D1012000E00020074627B900BFDD
:1026F0000020FEF727FE00BF00BF2046BDE8F081A6
:102700000246002901DA002003E013680B4413603D
:102710000120704710B512480078012804D0032822
:1027200009D0052815D10DE0022009F015FF002081
:1027300009F012FF11E0042009F00EFF002009F05B
:102740000BFF0AE0062009F007FF002009F004FF54
:1027500003E0002009F000FF00BF00BF10BD000033
:10276000B032002030B502460B4602210EE08C004C
:1027700042FA04F404F00F00092802DD00F13704E6
:1027800001E000F13004C1F101055C550C1EA1F11E
:102790000101ECD130BD01468879012809D10879C1
:1027A000012806D1488842F60212904201D1012048
:1027B00070470020FCE700004FF0FF31054A42F867
:1027C0002010082804DBFF23A0F1080150325354E5
:1027D00070470000283800200146024850F82100C8
:1027E00070470000283800202DE9F04F03460C46C2
:1027F0004FF0FF390AB1002000E0082084460AB1FA
:10280000082000E00C208046614624E0154850F87E
:102810002100401CF0B91D460846274616464FFACF
:1028200080FBDFF840A00AF1300A0AF805B0DFF8B3
:1028300034A04AF820704EB94FFA85FBA0F1080A7F
:10284000DFF820E00EF1500E0EF80AB000BF4FFA8C
:1028500081F902E0491C4145D8D300BF4846BDE894
:10286000F08F00002838002001460148405670478C
:10287000583800202DE9F0438FB007460D46144626
:102880001E46DDF8588000BF0DB1012000E0002099
:102890008146B9F1000F04D100BF0020FEF752FDC0
:1028A00000BF00BF00BF002C01DD012000E00020C0
:1028B0008146B9F1000F04D100BF0020FEF742FDB0
:1028C00000BF00BF1C2107A8FCF7D3FD9DF81C002A
:1028D00020F00200801C8DF81C00002008900A9057
:1028E0000B900C900D9000BF01208DF83A00ADF8D0
:1028F000387000BF0020019030788DF804007078A7
:102900008DF805009DF8060020F00600801C8DF86B
:1029100006009DF8060020F008008DF806009DF8DE
:10292000060020F010008DF806009DF8060020F04B
:1029300001008DF80600142102A8FCF79AFD0EA8EC
:10294000029001A80390ADF810400020ADF81200ED
:10295000ADF814400695434602AA07A9024800882C
:10296000A2DF0FB0BDE8F0833432002070B590B024
:1029700006460C461546A07818B901208DF80E00C1
:1029800002E0A0788DF80E002088ADF80C00002041
:102990000290607C02A909F081FFA07C0DF1090181
:1029A00009F07CFFE07B08B1012000E000209DF8E9
:1029B0000A1060F3C3018DF80A10207C08B10120D1
:1029C00000E000209DF80A1060F304118DF80A1051
:1029D000207B08B1012000E000209DF80A1060F380
:1029E00000018DF80A10207D08B1022000E00120CE
:1029F0009DF80A1060F342018DF80A101C2109A805
:102A0000FCF737FD607BC0F3001018B9607BC0F3A2
:102A10004010F8B100200090E07C0DF1010109F0B8
:102A20003DFF00BF9DF8000020F00F00401C8DF816
:102A300000009DF8000020F0F00010308DF800003C
:102A400000BF9DF8020020F00600801C8DF80200F7
:102A5000CDF838D0607B8DF82400A07B8DF8250060
:102A6000142104A8FCF705FD03A8049002A8059012
:102A7000A088ADF81C00A06820B1E088ADF818006F
:102A8000A0680890A069002849D000200190A069A2
:102A90000088ADF82C00A0694088ADF82E00A06930
:102AA00040680A9001A80D90A169087B01A909F06E
:102AB000F5FEA169487B0DF1050109F0EFFEA06963
:102AC000807A08B1012000E000209DF8061060F334
:102AD000C3018DF80610A069C07A08B1012000E09A
:102AE00000209DF8061060F304118DF80610A0690F
:102AF000007A08B1012000E000209DF8061060F384
:102B000000018DF80610A069807B08B1022000E06A
:102B100001209DF8061060F342018DF80610E0696F
:102B200008B1E0690C902B4604AA09A93046A2DF3F
:102B300010B070BD014639B10448884204D8044839
:102B4000884201D9012070470020FCE7D0320020E4
:102B50000033002070B505460E46002407E055F806
:102B6000340003F002FA08B9002070BD641CB442BE
:102B7000F5D30120F9E700000A49496C81B1094900
:102B8000096C084A02EBC1010160114691F840103E
:102B9000491C01F0070111641146496C491E51643A
:102BA000704700009C3C0020064902688A4203D01E
:102BB000016808310160704702493839016000BF7F
:102BC000F9E70000D43C00200178022902D0017806
:102BD00003290BD106490A6C817D1144044A116412
:102BE00011464A6C817D511A014A516470470000B8
:102BF0009C3C00202DE9F04104460D464FF6FF763F
:102C0000304684420AD14FF48071284607F0D0FB49
:102C10000646B6F5807F0FD126460DE0FF2C0BDC73
:102C20002146284607F0B4FB07460FB1204601E0D5
:102C30004FF6FF70064600BF3046BDE8F081000049
:102C400070B505460DB9094C01E0084C083409E09F
:102C5000204603F092F9064606B904E0284671685A
:102C6000884700BFF4E700BF70BD00001C3800209B
:102C700030B589B0044601A9204603F007FF0020C3
:102C80008DF80400204601F0F8FD0546202201A938
:102C900028460BF0AEF909B030BD10B504460CB1B2
:102CA000207D00B910BDE169A160217B102322685D
:102CB00013FB01201A46211D0BF09BF900BFF1E721
:102CC0002DE9F04782461F480068002836D01D488D
:102CD0000068056808F044FB07461B480468214665
:102CE00038460AF0ECFAC61C1848007808B908F013
:102CF00049FBAE4201D2284600E03046044424F0AD
:102D00007F44204608F026FB08F02AFB804639461F
:102D100040460AF0D4FA00F10309394620460AF089
:102D2000CEFA814509D908F01BFB814608F012FB59
:102D30002F2004F05BF90AF043FC01E008F040FBAF
:102D4000BDE8F087F8310020FC310020103200206F
:102D500001460888062808DB0888B0F5486F06DDBC
:102D600008884FF6FF72904201D0072070474888CC
:102D7000062808DB4888B0F5486F06DD48884FF61E
:102D8000FF72904201D00720F0E708884FF6FF72EB
:102D9000904208D04888904205D008884A889042DE
:102DA00001DD0720E2E70020E0E72DE9F0410646DB
:102DB0000D46144698462088801D404502D90C20B7
:102DC000BDE8F0813046FFF7C3FF074600BF0FB1F3
:102DD0003846F5E700BF0520218868542088401C4C
:102DE00020801220218868542088401C208022885E
:102DF000511930880AF023FF218808442080228856
:102E0000511970880AF01BFF218808442080002097
:102E1000D6E700003EB504462088FFF71BFAD0B184
:102E2000208810490978FFF7B7FA28B920880022CE
:102E30000D490978FFF7C2FA2088ADF80200052095
:102E40008DF800002088FFF711FA8DF8040068461D
:102E500000F09CFB05E02088012241F2060100F011
:102E6000B7F93EBD8F3100208E310020F0B503460A
:102E70000C4612B94FF0FF3001E01068C043014624
:102E8000002012E01D5C694008250BE001F00106FE
:102E900016B14FF0FF3600E00026064F3E4086EAAE
:102EA00051016D1E002DF1D1401CA042EAD3C84350
:102EB000F0BD00002083B8ED2DE9F04188B0044654
:102EC0000E46174698460E9D20212046FCF7D1FA63
:102ED00004AA3146286807F0CBFF286820602673D3
:102EE000E781A4F8108026B9286800F5805060605A
:102EF0000AE0721ED1B26A46286807F0B9FFDDE920
:102F000000010844606000BFD5E900010844616821
:102F1000411AA1600120207508B0BDE8F08110B50C
:102F200064244FF47A7114FB01F004F013F800BF2D
:102F3000FEF7BAFB10BD70B506460D460EB1012076
:102F400070BD287920B1012809D0022813D10FE0E3
:102F5000284608F083F80446022028710DE0284630
:102F600000F074FD04460A2C01D141F61D5404E022
:102F700041F61D5401E00F2400BF00BF2046DFE7EB
:102F800003785B1CDAB283785B1E83708A4201D1BE
:102F9000002300E013460370704770B504460D46E9
:102FA00028782070681C07F0DDFF6080E81C07F0BF
:102FB000DFFF606070BD70B504460D462878207054
:102FC000681C07F0CFFF6080E81C07F0CBFFA080F3
:102FD00070BD00002DE9F0478146002532E01C4815
:102FE000006800EBC5042178012000FA01F61948B9
:102FF0000068304020B317480068B04315490860A6
:10300000207804F067FD07462178012088401249A6
:1030100009680840217807FA01F188420FD16078E9
:10302000012800D100E00020784080F001086068AD
:1030300020B108F0FF0120786268904700BF00BF10
:10304000681CC5B2054800788542C8DBBDE8F0873A
:10305000B4310020C4310020C0310020B83100203C
:1030600070B505460C4614B900200549087005489E
:10307000006820B121462846024A1268904770BD78
:10308000A8310020AC31002010B504462046FFF7DF
:10309000F9F8204607F0D2F92046FEF773F92046EA
:1030A000FEF74AFF204601F0CBFD204608F052FD16
:1030B000204608F09DFD204608F09AFF204607F0C4
:1030C0003FFC2088112806D174DF044802F034FA4E
:1030D0000AF008F800BF00BF10BD00003032002029
:1030E00070B5044620793D2802D141F23D0001E04F
:1030F0004FF48850054620880022294603F002F943
:1031000070BD10B50446204600F0C2FF2046FEF711
:103110002DFF10BD014614480078144A12789042E1
:103120001DD011480078401C0F4A107010460078DE
:10313000022801D1002010700D480B4A127850F877
:10314000220008600B4A086812681044094A10609F
:103150001046006820F07F4010600120704700207A
:10316000086000BFFAE700000832002009320020A2
:1031700000320020FC31002070B500221146B7203B
:103180000AF0B3FF02F0A6FE04463CB900BF0325D7
:1031900000BF0320FEF7D6F800BF00BF70BDF0B53A
:1031A00015220320014600231C461D4600BF1707B9
:1031B0003E4643EA440747EA800747EA052747EACD
:1031C000014C06F5E06747F822C000BF00BFF0BD24
:1031D000FEB504460D461646094A07CA8DE80700A3
:1031E000ADF80240ADF804508DF8066000220548A5
:1031F00001782046FFF7E2F8684600F0C7F9FEBD07
:1032000048E502008E31002038B504460AF0EAFE97
:10321000214668460AF01FFD0422694621200AF073
:1032200064FF0AF066FE38BD10B50446A08928DFA9
:1032300010BD000013480078062820D11148001D59
:10324000007800F00F00D0B90E480830007800F088
:10325000F000302801D1012070470A48083000787A
:1032600000F0F000402801D10120F5E705480830C2
:10327000007800F0F000502801D10120ECE7002098
:10328000EAE70000E00F00F00A48007806280ED1B7
:103290000848001D007800F00F0040B905480830CC
:1032A000007800F0F000302801D1012070470020A4
:1032B000FCE70000E00F00F013480078062820D15A
:1032C0001148001D007800F00F00D0B90E480830FA
:1032D000007800F0F000302801D1012070470A4842
:1032E0000830007800F0F000402801D10120F5E717
:1032F00005480830007800F0F000502801D1012086
:10330000ECE70020EAE70000E00F00F00A48007850
:1033100006280ED10848001D007800F00F0040B9C3
:1033200005480830007800F0F000302801D1012075
:1033300070470020FCE70000E00F00F01348007821
:10334000062820D11148001D007800F00F00D0B9E8
:103350000E480830007800F0F000302801D101203C
:1033600070470A480830007800F0F000402801D18A
:103370000120F5E705480830007800F0F0005028FB
:1033800001D10120ECE70020EAE70000E00F00F0A7
:103390000A48007806280ED10848001D007800F081
:1033A0000F0040B905480830007800F0F0003028E0
:1033B00001D1012070470020FCE70000E00F00F081
:1033C0000A48007806280ED10848001D007800F051
:1033D0000F0040B905480830007800F0F0003028B0
:1033E00001D1012070470020FCE70000E00F00F051
:1033F0000A48007806280ED10848001D007800F021
:103400000F0040B905480830007800F0F00050285F
:1034100001D1012070470020FCE70000E00F00F020
:103420000278072A34D2DFE802F03304071020299B
:10343000300000220A702CE001220A7003898B817F
:103440008388CB81C2688A6023E002220A700389E4
:103450008B818388CB81C2688A60027C062A01D175
:10346000012300E000230B7413E003220A70C388D9
:103470008B810389CB81C2688A600AE004220A70CA
:10348000C3888B810023CB8103E005220A7000E012
:1034900000BF00BF7047000070B50546002409E07A
:1034A000064850F8240020B1044850F8241028465B
:1034B0008847641C082CF3D370BD0000043C002036
:1034C0003EB505460C46DCB1112C19D00020009009
:1034D00001900290ADF8025001940D2C03D10B2005
:1034E0008DF8000008E0862C03D10A208DF800003A
:1034F00002E009208DF80000684600F057F800BF90
:103500003EBD000070B50546002405E0044850F8B3
:10351000241028468847641C002CF7D070BD00009A
:103520004831002070B50546002405E0044850F8F5
:10353000241028468847641C002CF7D070BD00007A
:103540005431002070B50546002405E0044850F8C9
:10355000241028468847641C022CF7D370BD000055
:10356000F0E4020070B50546002405E0054850F877
:10357000241028468847641C034800788442F5DB01
:1035800070BD0000C83700208A31002070B50546A4
:10359000002405E0044850F8241028468847641C9D
:1035A000022CF7D370BD000010E5020070B505468F
:1035B000002405E0044850F8241028468847641C7D
:1035C000002CF7D070BD000054E50200F0B50346B2
:1035D00000241FE0124E306806689E4203D9066838
:1035E000F61A06601AE006689B1B0668344400263B
:1035F00006600B4E35680A4FC6693E60C66846B124
:103600000E1926F07F464660C66886601668C66159
:10361000156000BF024800680028DBD100BFF0BD84
:10362000F83100201FB50446606808B9012000E0A9
:1036300000200390207806287BD2DFE800F0820388
:1036400004304F7B00BFA08900F025FA18B9E0894B
:1036500007F013FE10B3A08900F018FAADF80200CD
:10366000E08907F007FE8DF804002078012807D1D3
:10367000606808B9002000E003208DF8000006E033
:10368000606808B9012000E004208DF8000060683F
:103690000390A0680290684606F00AFA52E0A089FA
:1036A00000F0F9F918B9E08907F0E7FDA8B1A089A1
:1036B00000F0ECF9ADF80200E08907F0DBFD8DF8D1
:1036C0000400606808B9022000E005208DF80000C1
:1036D000A0680290684606F0EBF933E0A08900F09C
:1036E000DAF928B3E08918BBA08900F0CFF9ADF86A
:1036F0000200E08907F0BEFD8DF80400FF208DF880
:103700000400606838B906208DF80000BDF802009A
:1037100006F0E4FB02E007208DF8000000200E49CF
:1037200008700E49087006F023FB684606F0C0F9E1
:1037300008E006E008208DF80000684606F0B8F9B9
:1037400000E000BF00BF0448007820B1002002491B
:10375000087006F00DFB1FBD6531002066310020AA
:1037600010B588B00446022000F000FA10B902201B
:1037700008B010BD4FF6FF70844201D10420F7E776
:1037800005208DF8040001208DF80800ADF80A40EE
:103790000022114601A805F095FC18B107F078FA4F
:1037A0000020E5E70820E3E710B58CB0142107A856
:1037B000FBF75FFE022000F0D9F928B107A8FFF758
:1037C0006BFE00200CB010BD012000F0CFF908B155
:1037D0000020F7E7012000F0D5F900F099FB05F093
:1037E00093FD04460CB90B20ECE7062C0AD102200D
:1037F00000F0C8F9012000F09FF907A8FFF74CFE80
:103800000020DFE701208DF800000C2C1AD2DFE841
:1038100004F01906190719141915190B100C00BF1B
:1038200000208DF804000EE000BF03208DF8040096
:1038300009E002208DF8040005E000BF01208DF8AA
:10384000040000E000BF00BF00221146684605F0FA
:1038500039FC07F01DFA0020B4E7000038B5044633
:103860000CB9052038BD6946204607F01BFCE0B1C5
:103870000F48BDF8001000EB01108089002812DD10
:10388000A07A80B10A48BDF8001000EB01108089D1
:10389000401E0749BDF8002001EB0211888100207D
:1038A000A072002502E0062500E00A252846D9E797
:1038B000E43C00207FB514461D462B46224601A954
:1038C000684607F087FB04B070BD37B50C46154657
:1038D0002B4622466946002007F07CFB3EBD37B5EB
:1038E0000C4615462B4622460021684607F072FB1F
:1038F0003EBD024602B109B9052070471068086054
:103900000020FAE738B504460D4604B10DB905208C
:1039100038BD6946204607F0C5FBA8B161680B4871
:10392000BDF8002000EB02108089401C074ABDF85A
:10393000003002EB03129081296060680C306860EF
:103940000120A0720020E3E70A20E1E7E43C002028
:1039500070B504460D460CB9052070BD0323002246
:10396000294620460AF096FCF7E770B504460D4656
:1039700002230022294620460AF08CFC70BD70B557
:1039800005460E4614460CB9052070BD022322469A
:10399000314628460AF07EFCF7E700000146094A56
:1039A0001278082A01D10C200AE0074A054B1B783F
:1039B00042F82310034A1278521C024B1A7000205E
:1039C00070470000D9310020043C0020F8B50446BF
:1039D0000D46022000F0CAF808B90220F8BD0CB963
:1039E0000520FBE7694628460AF040FD06461EB959
:1039F000BDF80000208065803046EFE770B50446D2
:103A0000022000F0B3F808B9022070BD0CB90520FF
:103A1000FBE72088022801DD0420F6E720880A4918
:103A200001EB001671896088C01C081A08D421882F
:103A300060880AF00DFD002020806080002500E0F5
:103A400004252846E1E70000E43C00203EB504469A
:103A50000C4B6A460021A01D07F0BCFA05465DB973
:103A6000019807F08DFB0546012006498988064A22
:103A700002EB0111887303E00248002101604160FC
:103A800028463EBDE8310020E43C00200146A1F577
:103A9000404080B270470146B1F5404F05DB4FF61C
:103AA000FE70814201DC012070470020FCE700002D
:103AB0002DE9F04F85B0044688461646144850F864
:103AC0002670144850F826A00020207097F8019026
:103AD000012500BF3A786946504607F0E3F900F047
:103AE000FF0BBBF1000F00D10DE060196946FA69C8
:103AF00090472078401C207005EB0900C5B2A8EB68
:103B00000900A842E6DC00BF284605B0BDE8F08FFA
:103B1000803200204848002010B50446A07EFF28CF
:103B200002D0A07E04F0B6FB002060762071201D3C
:103B30002168884710BD0000024909788143014A85
:103B400011707047D831002010B50446207818282D
:103B500002D1FEF701FC207010BD10B5044620789C
:103B6000182802D1FEF7F8FB207010BD014604486A
:103B70000078084008B1012070470020FCE70000F1
:103B8000D8310020024909780143014A1170704779
:103B9000D831002030B504461088C01C984201D9A5
:103BA0000C2030BD0220158848551088401C10801C
:103BB0000120158848551088401C108015884C55E8
:103BC0001088401C10800020EBE700002DE9F04138
:103BD00006460C4615460027B846862C03D0112C05
:103BE00001D0002C35D1862C03D14FF000080127DD
:103BF00009E0112C03D14FF00108002703E014B9AC
:103C00004FF000080027C5B13A4613480178304606
:103C1000FEF7D4FB4246114801783046FEF7CEFB52
:103C200000220F4801783046FEF7C8FB00220D48FD
:103C300001783046FEF7C2FB0BE03A4608480178AF
:103C40003046FEF7BBFB4246064801783046FEF799
:103C5000B5FBBDE8F0810000A5310020A4310020B3
:103C6000A1310020A031002008B5684600F0BAF963
:103C7000009808B1012008BD0020FCE7FEB53FE038
:103C800001A92748FDF721FC0546042D00D138E0A5
:103C90009DF8040000EB4001224810F8114004F0A8
:103CA000010038B19DF805209DF804000DF10601D2
:103CB00007F032FF04F0020008B39DF805209DF8DC
:103CC000043018493C3101EB43100DF106010AF0B4
:103CD000C0F9064608F020F89DF80500B0420DD066
:103CE00000BF01A90E48FDF7F0FB0546002DF8D0F6
:103CF000002008F02FFA012008F0BEFA00BF00BF34
:103D0000BEE700BF002000906846FDF701FE0020DE
:103D1000054981F883019DF80000FDF7FFFDFEBD18
:103D2000D0E602004C460020F44400202DE9F0418A
:103D300005460C462046E11704EB11510F130026EF
:103D400005E02846FFF760FA05F58055761CBE426F
:103D5000F7DBBDE8F08110B504464FF40051206850
:103D6000FFF7E4FF10BD10B54FF480510020FFF7BE
:103D7000DDFF10BD10B5002821D0114B0022001F1F
:103D8000196803E0814203D80A4649680029F9D13D
:103D900052B11368841A9C4204D100681844106020
:103DA000104602E0506000E0186039B102680B1A5A
:103DB000934203D10B681A4402604968416010BD08
:103DC000C8320020F8B505460C4616461F461C486A
:103DD000007800F0010008B90120F8BD2846FEF780
:103DE000A9FE08B90220F8E70CB90320F5E7C4F3EF
:103DF0000B0008B10620F0E72868A04204D804EBC5
:103E000006306968884201D90520E6E70EB904202A
:103E1000E3E7684606F080FE08B90720DDE7009872
:103E2000476000980560022000990872C4F30F30C3
:103E3000009988810098068206F036FF0020CCE7C2
:103E40001232002070B505460C46204606F098FE5A
:103E500070BD000070B504460D460F48006820F0A4
:103E600001000D4908602DB90846006820F00200E5
:103E7000086009E009A1032004F00BFC0648006873
:103E800040F0020004490860606818B129462046E5
:103E90006268904770BD0000B03100203A494E463C
:103EA0004F3A47656E65726174696E672066616935
:103EB0006C7572650D0A000070B505460C4624B19C
:103EC000224602A1042004F0EEFB70BD3A444542B4
:103ED00055473A6572726F723A2066735F65767401
:103EE0005F68616E646C65722C20726573756C74AA
:103EF0003A25642E0A0000004FF010204169481C4A
:103F000008B1084670474FF0805040690003F9E758
:103F10002DE9F0412B482C49401A04092948401A40
:103F20000509FFF7E9FF06462848007800F0010080
:103F300010B10020BDE8F081002008E0224A02EB29
:103F400000110A6812B14A6802B16D1E401CA042FD
:103F5000F4D300202BE01C4901EB00124FF0000CC1
:103F6000C7B2002117E0DFF8608008EB0113D3F837
:103F70000080B8F1000F05D0D3F80480B8F1000F2D
:103F800000D007E093F80D80E04502DD93F80DC006
:103F9000CFB200BF491CA142E5D30B4901EB071288
:103FA0005660117BA6EB013111601668401CA842D7
:103FB000D1D30648007840F0010004490870002081
:103FC000B8E7000000330020D03200201232002079
:103FD0000348406E042801D1012070470020FCE70F
:103FE000203D0020014609B9032070470248406E79
:103FF00008600020F9E70000203D00202DE9F8438B
:1040000005460C4616461F46DDF820801F480078FE
:1040100000F0010010B90120BDE8F8832846FEF742
:1040200089FD08B90220F7E706B10CB90320F3E7D0
:1040300006F0030010B904F0030008B10620EBE716
:104040002868A04204D804EB87016868884201D23E
:104050000520E1E70FB90420DEE7684606F05CFDC5
:1040600008B90720D8E70098C0F8048000980560D8
:104070000120009908720098C660009804610098B9
:10408000878206F011FE0020C6E7000012320020F1
:1040900070B504461748006E00EB4000154901EB6F
:1040A000C0051548007800F0020068B1022C02D06B
:1040B000032C08D103E0284604F08CFF03E02846D7
:1040C00004F072FF00BF12E00B48007800F004001B
:1040D00068B10948007820F00400074908700548D5
:1040E000406E20B10846007840F00200087006F0EB
:1040F00099FD70BD203D00201232002070B50546AC
:104100000DB1012070BD1848007B18B10020164980
:10411000087301E000F0D4F81348007808281DD295
:10412000DFE800F01C04080C101C141800F03CF828
:10413000044615E000F0B2F8044611E000F08EF8F5
:1041400004460DE000F044F8044609E000F01CF9D4
:10415000044605E000F028F9044601E00F2400BF02
:1041600000BF2046CEE70000043D00200C48008937
:10417000401C0B49088100204880087300BF0CE0F8
:10418000084901EB0011097809B9012200E0002279
:1041900003490A310A54411C88B20228F0DB7047F7
:1041A000043D0020E43C002010B5084800F032F83F
:1041B00040B900200549891E08704880486041F6D2
:1041C0001D5010BD00F06AF8FBE70000063D00201E
:1041D00070B50D4845880D4800EB0510808968B919
:1041E0000A4800EB05100023012241680848FFF748
:1041F000E9FD044604200449087002E000F08CF850
:104200000446204670BD0000043D0020E43C002030
:10421000E032002010B501460022002015E00D4BD1
:104220001B5C83B100240B4B1C540B4B03EB0013A2
:104230009B8943B9084B03EB00139B7B012B02D1F5
:104240000880012203E0431C98B20228E7DB00BF8C
:10425000104610BD0E3D0020E43C0020F8B50C488F
:1042600044680C4800680B49898800EB8105608828
:10427000C01C86B203200649087000200090084642
:104280003346294642680448FFF7B8FEF8BD0000EF
:10429000043D0020E0310020E032002010B5074945
:1042A0004888091D06F03CFF18B1FFF7D7FF044608
:1042B00002E0FFF78DFF0446204610BD043D0020BC
:1042C00010B514480078082820D2DFE800F0041F59
:1042D0001F0A1016171BFFF749FF01200D49087030
:1042E00015E000F06DF802200A4908700FE000F0B8
:1042F00029F806200749087009E000BF0720054992
:10430000087004E001200349087000E000BF00BF0E
:1043100010BD0000043D002010B5052006490870BE
:1043200002200649888008460023012201680448CB
:10433000FFF748FD10BD0000043D0020E0310020E3
:10434000E03200200D4908680D4949880D4A02EB0A
:1043500001114968094A116009494988094A02EB73
:104360000111486005498988054A5288054B03EBCD
:10437000021211810221014A91807047E031002030
:10438000043D0020E43C002010B5062004490870DC
:104390004988044A02EB0111486804F093FF10BDFC
:1043A000043D0020E43C002010B5072003490870BC
:1043B0000020486004F096FF10BD0000043D00207E
:1043C000054A50684288D21C91B2044A92880A4435
:1043D000024B9A8070470000043D0020E03100202D
:1043E0003EB504462088502821D0522802D05428B7
:1043F00025D103E0A08802F0D7F820E006208DF850
:104400000000A08800F0B0FDADF80200A088ADF873
:104410000400BDF8020000F00BFBA08800220C494C
:104420000978FDF7CBFF6846FFF76CF807E0A01DA1
:10443000FEF7B1F910B1A08802F006F900BF00BF85
:10444000FDF7BAFA09F058FC07F080FF3EBD000006
:104450004F3100203EB504466088ADF80200207858
:1044600020B101280FD002282BD116E000208DF8B2
:1044700000006846FFF746F8608800F09FFC05469C
:1044800002F092F81DE001208DF80000A088ADF840
:1044900004006846FFF736F813E0207980B16088A1
:1044A00000F08CFC05464FF6FF70854207D00122D4
:1044B000054801782846FDF781FF07F047FF00BF58
:1044C00000BF00BF3EBD00004F31002010B50446C4
:1044D000207801280DD1608802F066F8608800F02D
:1044E0007FFB28B16088012203490978FDF766FF48
:1044F00000E000BF00BF10BD4F31002010B501F03B
:1045000017FCFDF729FF12490870FDF725FF114937
:104510000870FDF721FF10490870FDF71DFF0F49D6
:1045200008700B48007818280BD00A480078182823
:1045300007D009480078182803D0084600781828C2
:1045400001D1032010BD0120054908700020F9E7C2
:104550004D3100204E3100204F31002050310020DD
:104560004C31002010B504462078072803D160881C
:1045700002F06AF800E000BF00BF10BD7CB5044641
:104580002546062269463B2006F023FC684606F0D5
:104590007BFC28800DF1020006F076FC688001A803
:1045A00006F072FCA8807CBD7CB504460D462868E8
:1045B0000090A888ADF80400BDF90010204601F075
:1045C00057FBBDF90210A01C01F052FBBDF904100D
:1045D000201D01F04DFB06207CBD7CB504460D4638
:1045E00028680090A888ADF80400BDF900102046A6
:1045F00001F03EFBBDF90210A01C01F039FBBDF932
:104600000410201D01F034FB06207CBD7CB504465F
:104610000D4628680090A888ADF80400BDF9001088
:10462000204601F025FBBDF90210A01C01F020FB83
:10463000BDF90410201D01F01BFB06207CBD38B520
:1046400005460C4620880090BDF80010284609F069
:10465000ECFA022038BD38B505460C46208800909B
:10466000BDF80010284609F0E0FA022038BD38B540
:1046700004460D4628680090BDF80010204609F059
:10468000D4FABDF80210A01C09F0CFFA042038BDFE
:1046900070B505460C4626683146284609F0E3FA0F
:1046A000042070BDF8B56946002003F051FB0646B2
:1046B000BDF9005005EB4505A5F28E306421484355
:1046C000E42190FBF1F4642C01DA204600E0642040
:1046D0000446002C01DA002000E020460446E0B247
:1046E000F8BD0000FEB505468C2002900020012395
:1046F00002AA29210090164803F000FD044600BFDD
:10470000264626B100BF3046FCF71CFE00BF00BFA6
:1047100096264FF47A7116FB01F002F0FFFC00BF01
:10472000022301AA29210A4803F0D2FC044600BF53
:10473000264626B100BF3046FCF704FE00BF00BF8E
:104740009DF804009DF8051040EA01202880FEBD78
:10475000E0E7020038B5044603226946E52006F08A
:1047600043FB9DF801009DF8001040EA01202080E5
:1047700038BD7CB50446254607226946032006F06D
:1047800012FB684606F087FB28800DF1020006F058
:1047900082FB688001A806F07EFBA8807CBD704784
:1047A0007047704770477047704770471CB50446A4
:1047B00000200190032201A9A82006F0FFFA01A819
:1047C00006F0D6FB206004A0006800900122694634
:1047D000212009F069FC1CBD110000007CB50446D5
:1047E000254606226946432006F0F3FA684606F09D
:1047F0004BFB28800DF1020006F046FB688001A803
:1048000006F042FBA8807CBD10B504462046FFF7A9
:10481000B5FE062010BD10B504462046FFF7DEFFAA
:10482000062010BD10B504462046FFF7A2FF062063
:1048300010BD10B504462046FFF754FF022010BDFE
:1048400010B50446204600F02DF8022010BD70B5CA
:10485000044625462846FFF77DFFA81C00F013F804
:10486000042070BD10B504462046FFF79FFF0420CA
:1048700010BD0021016041607047014642F2040012
:1048800000EB4110704738B5044603226946E32027
:1048900006F0AAFA9DF801009DF8001040EA0120F8
:1048A000208038BD7CB50546012201A93920FBF7DF
:1048B000ADFB04462CB122460DA1042003F0F3FE0B
:1048C0007CBD012269463820FBF7A0FB04462CB1D1
:1048D000224611A1042003F0E6FEF1E79DF8000056
:1048E0009DF8041040EA0120288000BFE8E700009E
:1048F0003A44454255473A676574555653656E7359
:104900006F7244617461312C206572726F723A204B
:1049100025642E0A000000003A44454255473A6794
:104920006574555653656E736F7244617461322CB1
:10493000206572726F723A2025642E0A0000000012
:1049400010B504460B4801782046FDF725FD70B1EF
:1049500000210AE001EB4100074A02EB8000408899
:10496000A04201D1C8B210BD491C0829F2D3FF20D2
:10497000F9E700005F310020E833002010B5002483
:104980000DE004EB4401084A02EB81014888074925
:104990000978FDF701FD08B9E0B210BD641C082CD0
:1049A000EFD3FF20F9E70000E83300205F3100205B
:1049B0002DE9F04105460F46012000FA05F418489C
:1049C0000068FCF78DFF06460EB1BDE8F081154882
:1049D00000682040E0B9284603F07CF828B112486E
:1049E000006820431049086004E00F480068A043B5
:1049F0000D4908600B48006820430A4908600022FE
:104A00000A48016806480068FCF740FF064604E0D3
:104A100004480068A0430349086000BFD5E70000D0
:104A2000A4E60200C4310020C0310020BC310020C7
:104A30001CB50446044903C9CDE9000100226946BA
:104A4000204604F0B6FE1CBDE8E4020010B501F0FB
:104A500075F9012001490870002010BD583100206F
:104A60002DE9FC478146484600F07EFA05460026BF
:104A700000274FF003084FF0010A4FF6FF70854200
:104A80000CD06A460821284604F05CFE04462CB986
:104A90000198861D8788D0F8008000BF00BF43467C
:104AA0003A4631464846A9DF0446042C01D1112478
:104AB00015E0082C01D1002411E00B2C0FD14FF090
:104AC000000A08F0020010B14FF0010807E006B933
:104AD00027B1002600274FF0030800E003240B2C29
:104AE000DDD0BAF1000F00D10B242046BDE8FC87D1
:104AF0002DE9FC478046404600F036FA07464FF65F
:104B0000FF70874203D143F20200BDE8FC874FF0FB
:104B100001094FF0000A00BF4FF0000A4A46511C3D
:104B20001FFA81F96B460821384604F04DFE044611
:104B300004BB019D032028602A1DA91D40462B6847
:104B4000AADF04462CB90821384604F0F3FE0446D7
:104B50000FE00C2C02D14FF0010A02E0052C00D12D
:104B600000240821384604F0C9FE064606B1032495
:104B700000BF02E0072C00D10C24BAF1000FCBD10A
:104B800000BF2046C1E700007FB504462078012819
:104B90001BD12079012818D1608802AA012104F0D4
:104BA000D1FD054685B902208DF800006088ADF87A
:104BB000020003A808B1012000E000208DF80400E5
:104BC0006846FEF7AFFC00BF00BF044800884FF600
:104BD000FF71884201D007F0EFFB7FBD5A31002002
:104BE0007CB50446204600F0BFF906466A4601211E
:104BF000304604F0A7FD05460DB100207CBD0198AC
:104C00000078FBE770B505464FF6FF7600BF4FF61C
:104C1000FF720A4801882846A7DF044643F20300D2
:104C2000844204D105480088401C0449088043F2AE
:104C300003008442EBD0204670BD00005C310020B0
:104C400010B5044621460248FDF7D6FA10BD000013
:104C50000C490020014688884FF6FF72904203D02D
:104C6000088808B1012070470020FCE73EB50446E3
:104C70000D4620780221B1EB500F01D000203EBD3F
:104C8000B4F80100ADF80800E0788DF80A00A188BA
:104C9000ADF80010A0798DF8020001AA69462846F7
:104CA000FCF768FA032201A902A8FAF700FC08B988
:104CB0000120E4E70020E2E770B506460C463046E6
:104CC000FFF73EFE0546FF2D0CD005EB45000649DB
:104CD00001EB8000416821600189A180807AA07188
:104CE000002070BD0520FCE7E833002070B590B0CF
:104CF00004462088102801D010B070BD3422211D38
:104D000003A8FAF79DFB4FF6FF759DF810000321ED
:104D1000B1EB500F35D004F031FF9DF81000400882
:104D200020B1012803D0022828D114E000BF09E0F7
:104D3000019800F1110104A8FCF7E8F810B1BDF8E2
:104D4000085006E06A4602A9072004F0E9FE0028A0
:104D5000EED100BF13E008E00198411C04A8FFF762
:104D600085FF10B1BDF8085006E06A4602A9072089
:104D700004F0D6FE0028EFD100BF00E000BF00BF66
:104D800000BFBDF80C0004A901F0A8FF06464FF6CD
:104D9000FF7085420FD0BDF80C00294600F088F85E
:104DA000BDF80C00ADF8060001208DF8040001A844
