:020000040000FA
:10000000A022002049040000510400001504000053
:1000100055040000570400005904000000000000CF
:100020000000000000000000000000005B04000071
:100030005D040000000000005F0400006104000097
:10004000E506000063040000ED0900006304000001
:100050006304000001050000630400006304000065
:1000600063040000630400006304000063040000F4
:1000700063040000630400006304000063040000E4
:1000800063040000630400006304000063040000D4
:1000900063040000630400006304000063040000C4
:1000A000630400006304000063040000D909000039
:1000B0006304000063040000000000000000000072
:1000C0006304000063040000630400006304000094
:1000D00063040000630400006304000000000000EB
:1000E0000000000000000000000000000000000010
:1000F0000000000000000000000000000000000000
:1001000000000000000000000000000000000000EF
:1001100000000000000000000000000000000000DF
:10040000DFF80CD000F056F800480047C50D00009A
:10041000A0220020094B1EF0040F1CBFEFF309803F
:100420001847EFF308800649064A884201D89042EF
:1004300002D88D464FF0000018470000D904000094
:10044000A0220020A002002006488047064800475E
:10045000FEE7FEE7FEE7FEE7FEE7FEE7FEE7FEE774
:10046000FEE7FEE73D0700000104000040EA01034B
:100470009B0703D009E008C9121F08C0042AFAD25A
:1004800003E011F8013B00F8013B521EF9D270471E
:10049000D2B201E000F8012B491EFBD270470022C6
:1004A000F6E710B513460A4604461946FFF7F0FF73
:1004B000204610BD064C074D06E0E06840F0010301
:1004C00094E8070098471034AC42F6D3FFF79CFF3E
:1004D00094180000B418000000F000F8BFF34F8F2C
:1004E00005480168054A01F4E06111430160BFF36A
:1004F0004F8F00BFFDE700000CED00E00400FA059F
:100500002DE9F05F5D4CD4F804015D4D012690B1FA
:10051000D4F8000380070ED55A4800F0B9FF687878
:1005200040B905F1100000F023FF5748C66006608F
:100530000020A8606E70D4F81801544F08B3D4F8A6
:10054000000340061DD552480068C0F3C800A0F162
:1005500002084C48143000F09BFF3878302803D054
:10056000387850280BD00BE0D5F804C0BCF1000F50
:1005700007D04346454A0221E868E04701E02E7073
:10058000E661D4F81001DFF808A14FF0100BAAF1D2
:10059000140AD0B1D4F80003C00616D539480C307F
:1005A00000F076FFC4F808B3CAF800700AF104013D
:1005B000C1F800B0E661D5F804C0BCF1000F04D06A
:1005C00000231A460321E868E047D4F84C01DFF81D
:1005D000C4904FF00D0838B3D4F80003000323D5BE
:1005E0002848483000F054FF2648143000F050FFEF
:1005F0002448243000F04CFFCAF800702449103918
:10060000C1F800B0E6614FF48860C4F804032149E2
:100610000831C1F80080C9F800806F6827B1002355
:100620001A461946E868B847D4F8280160B1D4F8EA
:100630000003400508D5174F0837386811482430A3
:1006400000F026FFC7F80080D4F81C01002813D062
:10065000D4F8000300060FD5D9F800704C460948BD
:10066000183000F015FFF80704D0287810B1266084
:1006700000202870C4F80080BDE8F09F00500040C2
:10068000580000200451004000B00140200200202A
:10069000245500400454004000F01F020121914005
:1006A0004009800000F1E020C0F88012704700F09F
:1006B0001F02012191404009800000F1E020C0F8B4
:1006C000001170474907090E002806DA00F00F00F4
:1006D00000F1E02080F8141D704700F1E02080F860
:1006E000001470472DE9F0414FF48077384600F050
:1006F0000EFE0124104EA50748B1384600F00EFE4C
:100700000120C5F808037470002000F0F1F94FF4DF
:100710008277384600F0FBFD00280BD0384600F009
:10072000FDFD0220C5F80803B470BDE8F0410120CA
:1007300000F0DEB9BDE8F081EC010020F0B598488A
:100740000023021D01780125101D4FF08056062957
:1007500007D11478240704D10478C4F30314032CBC
:1007600002D0062904D00FE08F4F8E4C7C670EE03C
:100770001478240708D10478C4F30314032C06D09A
:10078000042C04D0052C02D0062907D00EE0D6F8A0
:100790004442864FC4F342343C6002E0147824079C
:1007A00004D10478C4F30314032C02D0062906D024
:1007B00011E07F4C276827F0807727600EE01478DF
:1007C000240708D10478C4F30314032C06D0042CA6
:1007D00004D0052C02D006290AD011E04FF0804445
:1007E000C4F80C31C4F81031704C241F236002E0AF
:1007F0001478240704D10478C4F30314032C02D022
:10080000062905D00CE0694F032464373C600AE0F8
:100810001478240704D10478C4F30314032C02D001
:1008200006290DD014E0634F05243C60614C7834F8
:100830002560604C083423603F243F1D3C6002E08B
:100840001478240704D10478C4F30314052C02D0CF
:10085000062957D068E058490968584A1160564936
:10086000091D0968121D1160534908310968121DDC
:10087000116051490C310968121D11604E49103147
:100880000968121D11604C4914310968121D11606C
:10089000494918310968494A2032116046491C31DA
:1008A0000968121D1160444920310968121D116048
:1008B000414924310968121D11603F4928310968F6
:1008C000121D11603C492C310968121D11603A4912
:1008D00030310968394A403211603749343109688A
:1008E000121D1160344938310968121D11603249F6
:1008F0003C310968121D11602F4940310968121DF1
:10090000116002E0117809070ED10078C0F30310DE
:10091000032803D0042801D0052805D1D6F85802B1
:10092000274900F04F00086021487438016841F4FD
:1009300070010160BFF34F8FBFF36F8F4FF0102135
:10094000D1F80002002803DBD1F80402002822DAE3
:100950001C4A15601C480468002CFCD01524C1F802
:1009600000420568002DFCD0C1F80442016800294E
:10097000FCD0136001680029FCD0BFF34F8F0C48F6
:10098000F0380168114A01F4E06111430160BFF3DE
:100990004F8F00BFFDE70F490D480860F0BD000014
:1009A000E00F00F00DF0ADBA00C007403C0500407C
:1009B000FCED00E0105600400404001020C500408B
:1009C000E40E004004E5014000E401400400FA05A3
:1009D0000090D0037000002010B500F02DF90249FE
:1009E0000020C1F8400110BD00B001400448017F63
:1009F00004480029024901D000F03EBE00F0ADBD20
:100A0000000200200020004002E008C8121F08C1B8
:100A1000002AFAD170477047002001E001C1121F7F
:100A2000002AFBD170470000BFF34F8F05480168D3
:100A3000054A01F4E06111430160BFF34F8F00BF2D
:100A4000FDE700000CED00E00400FA050EB5002102
:100A50000091CDE901106A4644F20100FFF7E4FF7E
:100A60000EBD00F003B800F009B8000072B60248ED
:100A70000168491C01607047540000200349086860
:100A8000401E086000D162B670470000540000208C
:100A90000249085C012100F0E7BC0000801800005A
:100AA0000249085C002100F0DFBC00008018000053
:100AB0007CB50024084E25460122305D00950023B8
:100AC0001146019500F0BEFC641C042CF4D3BDE873
:100AD0007C4000F003B800008018000010B500242E
:100AE0002046FFF7D5FF641C042CF9D310BD00008D
:100AF00070B5084C050009D010342168002907D0D2
:100B000008682060496828468847F6E70834F4E713
:100B100070BD0000EC01002070B5254CA0421ED134
:100B2000F1B1012936D0022928D0032917D1072095
:100B300000F09CF9002812D194F8680094F869102C
:100B400088420CD194F86A00002808D10023D4E927
:100B500001501A460321A847012084F86A0070BD9D
:100B6000052000F083F90028F9D1A068646800230B
:100B7000A446BDE870401A4601216047104619009E
:100B8000EDD00028EBD00278302AE8D1BDE87040E3
:100B900000F08CB9082000F069F928B9A06800239A
:100BA00064681A460221A047BDE8704000F018BAF8
:100BB00030020020F0B51C490B68091D09681B4A6A
:100BC0000224C2F804431A4CC2F80443DAB2C3F355
:100BD0000724C3F30743027082EA040583F0880602
:100BE000447075408370C57001710D0A0E0C45711B
:100BF0000F0E867169407E40C771714001720321FA
:100C0000417211040B4A41EA042119431160416801
:100C1000C07909BA21F0FF010143101F01600549A5
:100C200044200C310860F0BD50040010005000401A
:100C30008000080094550040FEB513480068134C2E
:100C400010F0030F4FF0000501D0A560FEBDA068B5
:100C5000401CA0600728F9D90D480126066100F064
:100C600073FBBFF35F8F0B480560BFF35F8F0660B8
:100C7000666826B100231A460121E068B047657016
:100C80006846FFF797FFFEBD3C5400405800002027
:100C900000B00140FC5F004070B50C00054613D069
:100CA0000A4800F0F5FB0A480560094940F6FF7064
:100CB0000C3100EAC400086006481021C0F8041393
:100CC0000121C160002070BD0C2070BD105100409A
:100CD00010550040005000403EB51C4AD1605060A5
:100CE0006846FFF767FF0A21684600F07FFA174859
:100CF000174910300025C0E9005100F065FB04469B
:100D00001448056013490120091D0860114A042197
:100D10000C3211600F4A64213C3211600E49C1F857
:100D200000020004C1F804031B20FFF7B5FC0621F4
:100D30001B20FFF7C7FC1B20FFF7B9FC1CB1852C5B
:100D400001D003203EBD00203EBD00005800002021
:100D50008114000004B5014000B00140094910B5FC
:100D60000D2008600520FFF797FC06210520FFF7FE
:100D7000A9FC0520FFF79BFC0349012088600020A7
:100D800010BD00000454004000500040054910B55B
:100D900001200860012000F0C9FA0028FAD10249B8
:100DA000487010BD04000040EC01002002681346AA
:100DB00002E08A4204D01268002AFAD10B60016076
:100DC0007047000008B54FF480700090FFF770FE88
:100DD00000210C4800F042FA08B1FFF737FE6946DF
:100DE000094800F0C1FC0848009900F017FA08B162
:100DF000FFF72CFE00F0EEF908B1FFF727FE20BF49
:100E0000FDE7000085100000E000002010B51C4642
:100E1000934200D914462246FFF728FB204610BD16
:100E200010B51C46934200D914460A462146FFF7E6
:100E30002FFB204610BD00000B4900F110021346A5
:100E40004A610A6913448B6128B14FF47C73CB610A
:100E50004FF4806301E00023CB61C01C1044800884
:100E60000B6281F8690070473002002070B50D4DAB
:100E70000D4A00212C7800BF01EB4103D65CA6424D
:100E80000AD113445B78834206D101EB4100104440
:100E900080782870002070BD491C0F29ECD30820F1
:100EA00070BD0000300200207400002070B50446C0
:100EB000022920D10620FFF7D9FF00281BD10E49B7
:100EC00064784B69A2002046934208D88D69103D92
:100ED000954204D3C968C3EB8400084403E000F0E2
:100EE00017F8054838301021FFF7D6FE2046BDE838
:100EF000704000F099B870BD3002002003490268CC
:100F00004A6242688A620089888570473002002000
:100F10002DE9F041264F8400102529463846FFF779
:100F2000BEFAA7F138067069A0420BD9021B31192D
:100F30002B4638462431FFF769FFD0F110050444F1
:100F4000074432D0B069A0420CD970693169201AC7
:100F50000A1AF1682B4601443846FFF757FF2D1A4D
:100F600004440744002D20D0F069A04209D9021B97
:100F70002B4600213846FFF753FF2D1A044407443F
:100F800013D0306AA04208D9021B2B46FF213846F5
:100F9000FFF746FF2D1A074407D02B463846BDE819
:100FA000F0411A460021FFF73BBFBDE8F081000089
:100FB0006802002070B50C460546914201D90C200C
:100FC00070BD0120FFF752FF08B1082070BD05B9C0
:100FD00000240248C0E90354002070BD3002002004
:100FE00070B5002103230A460C460E4801260CE08A
:100FF00006FA03F50D43E9B25B1E05D5831883F8A5
:10100000481007230021521C641C90F86950A54227
:10101000EEDC024482F84810002100F8681F81705D
:1010200070BD000030020020F0B5C208514200EB54
:10103000C1010024124BC1F107010125042813D37B
:1010400005FA01F603EB020CF7B29CF848603E4249
:1010500004D0BE438CF848602E4600E0002693F88A
:1010600068703E4483F86860491E01D50721521C10
:10107000401C10F0FF0002D0641C042CDEDBF0BD2D
:1010800030020020012904D0022905D10020FFF7F9
:10109000FFBC0020FFF704BD70472DE9F8439046E0
:1010A000894607004FF0000606D0B8F1000F03D0C4
:1010B0003D680DB1002422E00E20BDE8F88324B184
:1010C000611C884207D1402106E0012801D080211F
:1010D00002E0C02100E00021D8F800006B46801B30
:1010E00000904A46286800F01FF80028E5D10098D3
:1010F000B9F1000F064400D08144641C2D1DB8686E
:10110000A042DCD80020C8F80060D6E7D0E9013260
:101110009A4201D304207047036843F82210816883
:10112000491C8160002070472DE9F8431446984619
:101130000A4605004FF000074AD06878297A461819
:10114000B61D00B1761C8CB332F0C00002D007206F
:10115000BDE8F883D8F80000B04201D20420F7E7D8
:1011600022702B78601C1A4322702A7A00F8012B17
:1011700021460746041D687828B104F8010B087859
:1011800040F0080008702A7A2046E968FFF76EF9F7
:10119000287A6A7804442AB120466968FFF766F91C
:1011A00068780444D8F80000801B00902B697BB15C
:1011B0006A462146686998470028C9D114B1009849
:1011C00000BA3860009831180020C8F80010BFE756
:1011D0000E20BDE710B50420FFF748FE08B1082037
:1011E00010BDBDE81040FFF7B9BD000010B5040008
:1011F00003D00A2901D00C2010BD0320FFF736FED2
:1012000008B1082010BD2CB14FEA0400FFF776FEAC
:10121000002010BD0048F9E78918000010B54FF410
:101220007772FFF7C7FE040013D10B480322016950
:1012300000F8342FFE2902D84170022005E0FF2279
:1012400042700A0A8270C1700420FFF7F5FDFFF7B3
:10125000C7FE204610BD00003002002070B50E46CB
:10126000050005D00020FFF701FE18B1082070BD71
:10127000072070BD0B4C0C48C4E901561434FFF72D
:101280003DFEFF20A076E076E120207711206077F8
:101290007C20A0770F20E077BDE87040014903482B
:1012A000FFF71ABD3002002089180000190B00005A
:1012B0002DE9F0410446007A164698B1420611D451
:1012C00002060FD462686AB122695AB1E3684BB171
:1012D00046B185186D1CB9B13268AA4204D2042007
:1012E000BDE8F0810720FBE722784F1C00EBC2101D
:1012F0000870227A38466168FFF7B8F8207AD4E996
:1013000003123844FFF7B2F800203560E8E700F137
:1013100080400068002800D00120704708B500F127
:101320008040002101600068009008BD05490968FF
:1013300040F4803001F00111814201D10120704759
:10134000002070470C04004010B50020FFF789FB17
:1013500006484168491E4160406808B9FFF716FD1C
:10136000BDE810400020FFF77EBB0000EC0100202C
:1013700070B5144D0446687838B114B16168002026
:1013800088470020FFF76DFB13E00020FFF769FBA3
:1013900024B10C4821460830FFF708FD686840B9C1
:1013A0004FF48070FFF7BAFF01208107C1F80403F2
:1013B00008606868401C6860BDE870400020FFF766
:1013C00052BB0000EC01002070B50E4C00252078C7
:1013D00008B1852513E00021A16061602161E16011
:1013E0004FF0E020D0F80001012610F0010F03D1EA
:1013F0000721002000F00AF80348066026702846FE
:1014000070BD0000EC010020180500404907090EDE
:10141000002806DA00F00F0202F1E02282F8141D23
:1014200003E000F1E02282F8001400F01F02012125
:1014300091404009800000F1E020C0F88012C0F81F
:101440000011704770B541EA4201DDE904564FF0E2
:10145000A04441EA830141EA052104EB800041EA0E
:101460000641C0F8001770BD01224FF0A043824032
:1014700011B1C3F808257047C3F80C257047000068
:10148000002802D101490120086070470050004047
:1014900008B5002101600068009008BD4058002890
:1014A00000D00120704708B50022425040580090FB
:1014B00008BDD0F80403084000D001207047405810
:1014C000002800D00120704708B500224250405843
:1014D000009008BD70B50546C87D0C4600284FF445
:1014E000847128460AD0FFF7DEFFD5F81805627E22
:1014F000E1688854607E401C607670BDFFF7D3FFC2
:10150000D5F8180570BD1FB501238DF800308DF892
:1015100008100192D0E90012684690471FBD70B5CF
:101520000C4605464FF48E71FFF7BDFFA18AA068F7
:10153000415CA08A401CA082C5F81C1570BD1FB577
:1015400000228DF800208DF80810816801918275C5
:10155000D0E90012684690471FBD2DE9FF470C46B1
:1015600005464FF40071FFF7A4FF01274FF40178FF
:10157000002618B34FF4927949462846FFF78EFFAC
:10158000E0B149462846FFF78EFFC5F80883A07EE4
:1015900000B96F6002208DF80000D5F88004C5F80E
:1015A00080040390E07D8DF80800E0680190E67506
:1015B0002676D4E900126846904727E004212846A1
:1015C000FFF777FF10B34FF484712846FFF766FFEB
:1015D000E0B121462846FFF77DFFE07D617E88422D
:1015E00014D1207E38B1617EE268E0752069E06048
:1015F0002676667607E0A07E00B96F60C5F808839E
:10160000E675617EE2682046FFF77DFF4FF48E7835
:1016100041462846FFF742FF88B1A08AA17D884253
:1016200004D221462846FFF77AFF08E041462846C3
:10163000FFF739FFA17D11B12046FFF780FF4FF47E
:10164000A27841462846FFF729FF002812D04146DC
:101650002846FFF728FFA07E00B12F60E07D00281C
:1016600008D0E675617EE26804B02046BDE8F04728
:10167000FFF749BFBDE8FF872DE9FF410C464FF456
:10168000927705463946FFF71AFF0026C0B1394662
:101690002846FFF719FF02208DF80000D5F88004D6
:1016A000C5F880040390D5F83C058DF80800E06883
:1016B0000190E6752676D4E900126846904724E04A
:1016C0004FF4887739462846FFF7F9FEE8B13946E6
:1016D0002846FFF7F9FED5F83C05C1B2E07D884207
:1016E00013D1207E60B1E268D5F8000220F020001E
:1016F000C5F80002207EE0752069E060267601E0F2
:10170000E675E2682046FFF7FEFE4FF4A277394601
:101710002846FFF7D4FE68B139462846FFF7D4FEC5
:10172000E07D38B1E675D5F83C05E268C1B22046E7
:10173000FFF7E9FE4FF4907631462846FFF7BFFEEB
:1017400000280FD031462846FFF7BEFEA07D0028B6
:1017500008D0D5F84C0504B0C1B22046BDE8F04130
:10176000FFF7EDBEBDE8FF8170B586B00C460546BB
:10177000254E142225496846FEF778FE1422694654
:101780002348FEF773FEA6F148013046FFF7BEFC82
:1017900008B1FFF75BF91D491B4E1422143168464E
:1017A000FEF764FE1A48142269461430FEF75EFE06
:1017B000A6F130013046FFF7A9FC08B1FFF746F962
:1017C0001249114E142228316846FEF74FFE104888
:1017D000142269462830FEF749FEA6F1180130466A
:1017E000FFF794FC08B1FFF731F922462946064875
:1017F000FFF753FC002804D006B0BDE87040FFF7A7
:1018000025B906B070BD0000480000202418000073
:10181000A400002048656C6C6F20576F726C6421C7
:10182000656E0000000000002018000002000000AB
:10183000141800000C000000000000006D180000EB
:1018400002000000601800000D0000000000000011
:101850007E180000020000006F1800000F0000005A
:1018600048616C6C6F2056657264656E214E4F57EF
:101870006974616A20C59A77696563696521504C0E
:10188000111213140D0E0F1054000102030405066B
:1018900007080900B418000000000020A4000000A0
:1018A000080A000058190000A4000020FC210000D4
:1018B000180A000001000000000000000100000004
:1018C00088180000B1120000A400002001000000F0
:1018D000000000000100000088180000B1120000A4
:1018E000B80000200100000000000000010000001E
:1018F00088180000B1120000CC000020E001002098
:1019000003000000000000000000000000000000D4
:1019100000000000000000000000000000000000C7
:10192000000000000090D003040605040803040929
:10193000020507040508030509020305040309025B
:10194000000001010301010102020403020A000276
:0819500001020209020000007F
:0400000500000401F2
:00000001FF
