:020000040000FA
:10000000F80B0020D5000000EF000000F100000018
:1000100000000000000000000000000000000000E0
:10002000000000000000000000000000F3000000DD
:100030000000000000000000F5000000F7000000D4
:10004000F9000000F901000045030000F90000007C
:10005000F900000000000000F9000000F9000000B5
:10006000F9000000F9000000F9000000F9000000AC
:10007000F9000000F9000000F9000000F90000009C
:10008000F9000000F9000000F9000000F90000008C
:100090004D020000F9000000F9000000F900000026
:1000A000F9000000F900000000000000000000005E
:1000B0000000000000000000000000000000000040
:1000C0000348854600F046F8004800470D0600004A
:1000D000F80B00200321094802680A43026008481F
:1000E00002680A4302600748804707480047FEE766
:1000F000FEE7FEE7FEE7FEE7FEE70000240500401E
:1001000054050040A5020000C100000003460B4357
:100110009B0703D009E008C9121F08C0042AFAD2BD
:1001200003E00B780370401C491C521EF9D2704743
:10013000D2B201E00270401C491EFBD2704700227F
:10014000F6E710B513460A4604461946FFF7F0FFD6
:10015000204610BD064C0125064E05E0E36807CC9D
:100160002B430C3C98471034B442F7D3FFF7ACFF55
:100170000812000028120000C106C90E01208840A4
:10018000014908607047000080E100E0C106C90E27
:1001900001208840014908607047000000E100E04C
:1001A000C106C90E0120884001490860704700005F
:1001B00000E200E08307FF22DB0E9A408907090E68
:1001C000994000280BDA0007000F08388308084818
:1001D0009B001818C36993430B43C361704783089E
:1001E00004489B001B181868904308431860704728
:1001F00000ED00E000E400E0F8B5114C2068114E7D
:100200000027002803D07068C00700D02760E0688E
:100210000D4D002807D07068000704D5E760E86836
:10022000002800D080472069002807D07068C006E9
:1002300004D52761A868002800D08047F8BD0000D9
:1002400000110040001300403C0000207CB5144C1D
:10025000206A01902078002820D00120FFF78CFF31
:100260006568002666600120FFF790FFA1690029FC
:1002700014D0E80702D0684606708847A80705D55D
:10028000012069460870A16968468847680705D556
:10029000022069460870A169684688477CBD000055
:1002A0003C00002010B500F08DF9002805D01F4952
:1002B0001D484860C8131E4988611E48018CC9B298
:1002C00001290BD1828C120708D1028D1206120F60
:1002D000042A03D1828D1206120F0AD0012921D1DE
:1002E000818C09071ED1018D0906090F0A2904D046
:1002F00007E0114A01219160F5E7828D1206120F85
:1003000005D00D290ED1808D0006000F0AD10B48B3
:100310000168012904D00A49016001680129FCD162
:10032000C021416110BD0000DFFF07C00005004093
:10033000006C0040C00F00F00006004000EC0640DA
:100340007593000010B50249024800F01FFE10BD71
:10035000A40000200020004002E008C8121F08C1CD
:10036000002AFAD170477047002001E001C1121F36
:10037000002AFBD1704710B500F044F800BA10BD58
:10038000BFF34F8F04490348C860BFF34F8F00BFCE
:10039000FDE700000400FA0500ED00E00EB50021C5
:1003A000029000916A4601910148FFF7E9FF0EBDF6
:1003B0000140000010B50349085C012100F0A0FBDA
:1003C00010BD0000001200007CB50024074E254639
:1003D000305D0122009500231146019500F05CFB81
:1003E000641C042CF4D300F003F87CBD0012000060
:1003F00010B500242046FFF7DDFF641C042CF9D360
:1004000010BD00000168094A0809114010400901A7
:100410000843074A81081040114080000143054A03
:100420004808114010404900084370470F0F0F0F54
:1004300033333333555555550448002101600121AC
:100440008205116001680029FCD07047000100405E
:1004500010B51CA08AB0006808901BA000681BA102
:10046000099003C90791069018221A496846FFF7B8
:100470004DFE06216846C1810024047501210170EA
:100480000172154801906846447000F08BF900280D
:1004900015D108A800F046FA002810D109A800F0EC
:1004A00059FA00280BD1082106A800F06BFA0028A1
:1004B00005D10A48032101704470447100200AB03C
:1004C00010BD0000E7E7E7E7C2C2C2C2E7C2C3C48B
:1004D000C5C6C7C8E8110000B1060000140000201E
:1004E000F8B5112000F0F8FA1E4C6060122000F000
:1004F000F3FAA060132000F0EFFAE060142000F09F
:10050000EBFA2061214662681431002A03D14B794D
:1005100001252B434B71A368002B03D14D79022693
:1005200035434D71E568002D03D14E7904273E43D4
:100530004E71002803D14E7908273E434E71D218E0
:1005400052191018032803D0012020700020F8BD94
:100550000020C8700348143000F03AFA0028F5D0A3
:10056000F8BD00000000002010B503221146112044
:1005700000F0A6FA03221146122000F0A1FA03228D
:100580001146132000F09CFA03221146142000F0BB
:1005900097FA0A497D200A4A0968C00000BF00BFD7
:1005A00000BF00BF00BF00BF00BF00BF914200D02E
:1005B00000BF401EF2D1FFF707FF10BD78000020FA
:1005C0000024F4001048018CC9B2012917D1818C94
:1005D000090714D1018D09060A0F03D1828D120675
:1005E000120F0ED0090F012903D1828D1206120FAE
:1005F00007D0032903D1808D0006000F01D0002011
:100600007047012070470000C00F00F0FFF714FF93
:10061000FFF71EFF002801D0FFF7C0FEFFF7A4FF81
:1006200000F06CFBFFF75CFF002801D0FFF7B6FE7F
:100630000C4C20780028FCD0112000F04DFA012845
:10064000F7D1122000F048FA0128F2D1132000F06F
:1006500043FA0128EDD1142000F03EFA0128E8D138
:1006600000F054FC0000002010B50F200C4980025F
:1006700088600C490020487000F058FB24210A488B
:10068000FFF75DFD084809210A38FFF758FD1420DF
:10069000FFF772FD054903200860002010BD00002F
:1006A00000F501403C000020CE0300200012004075
:1006B00070B500782D4D002855D0012802D00228B1
:1006C00051D102E000F056F84DE0294800F0EEF874
:1006D0000028FAD0264C69686079C007C017401C12
:1006E000002904D00021884203D1012102E0012128
:1006F000F9E70021152000F0F7F96079A968800773
:10070000C017401C002904D00021884203D10121D8
:1007100002E00121F9E70021162000F0E5F96079F7
:10072000E9684007C017401C002904D00021884216
:1007300003D1012102E00121F9E70021172000F097
:10074000D3F9607929690007C017401C002904D03B
:100750000021884203D1012102E00121F9E70021B3
:10076000182000F0C1F90120287070BD00000020A1
:100770007C00002010B50948007800280CD001202A
:10078000FFF7FAFC06480021816201624162012004
:10079000FFF7FCFC002010BD082010BD3C0000202D
:1007A0000002002070B5050068D0354C2078002884
:1007B00003D0FFF759FF00285FD16868A0611822B5
:1007C00029463048FFF7A2FC0025656024212E4809
:1007D000FFF7B5FC2C4809210A38FFF7B0FC00F000
:1007E0008BFC00F0A3FA27490020284A1831252362
:1007F000434386005B18401C93510828F7DB2349CC
:10080000214A00202C317A3A2523434386005B1885
:10081000401C93510828F7DB1D48042101618560C5
:100820001D491C4808601E481C4901621D4941625F
:100830001A49091D81621B49091DC1621649C03947
:1008400001631649F03941631349BC398163164984
:10085000C1630C4E707C8107890F0120FFF7AAFC51
:10086000B07C8107890F1420FFF7A4FC1420FFF748
:100870008DFC657001202070002070BD0E2070BDC1
:100880003C000020C0000020CE0300200002002019
:1008900000A500400202000000A20040001100403C
:1008A00040F5014000A000400010004070B5054632
:1008B0001A48007800282AD0002D2AD0184CA06AA7
:1008C000002828D00120FFF757FC606A80002158DB
:1008D0000A782A7021584978697021588978A97056
:1008E0002158097929712158681D491DFFF70EFC0F
:1008F000606A401C6062082801D300206062A06A20
:10090000401EA0620120FFF741FC002070BD0820BE
:1009100070BD0E2070BD052070BD00003C000020A1
:100920005403002010B50A494978002901D011204C
:1009300010BD00280AD00146054804222830FFF7E0
:10094000E5FB012000F0B6FB002010BD0E2010BD1D
:100950003C00002010B50A494978002901D0112037
:1009600010BD00280AD00146054804222C30FFF7AC
:10097000CDFB022000F09EFB002010BD0E2010BD1C
:100980003C00002010B50C4610494978002901D0E0
:10099000112010BD002803D0092C03D3072010BD5F
:1009A0000E2010BD0146094822463030FFF7AEFB4D
:1009B0000648082128300A1BFF210474D1408174A5
:1009C000042000F077FB002010BD00003C00002058
:1009D000F8B52D4F0646387800280BD0002E0BD0E6
:1009E000307800280DD020280BD8284D29780029F0
:1009F00004D008E00820F8BD0E20F8BDE97C88424C
:100A000001D90920F8BD224CA06A082801D304208E
:100A1000F8BD6878002805D1F078002802D0287D3C
:100A2000002824D00120FFF7A7FB206A25228000A0
:100A300020583146FFF76AFB72781648815C491CE2
:100A40008907890F8154206A8200A258401C1171C5
:100A50002062082801D300202062A06A401CA06206
:100A60000120FFF793FB6878002802D009E00620F8
:100A7000F8BD287C002804D17878002801D100F046
:100A8000C1F90020F8BD00003C000020C00000209B
:100A900000020020C403002070B552000A439900F0
:100AA000049D0A432902059E0A43310405240A4392
:100AB000240780000721001909024018026070BD58
:100AC00089001204052311431B0780000722C01868
:100AD000120280180160704702490969C140C807C5
:100AE000C00F7047000500500122824003480029D2
:100AF00001D082607047C26070470000000500505E
:100B0000012282400348002901D082607047C26000
:100B100070470000000500504058002800D0012018
:100B200070470322120280184068084000D001205C
:100B30007047000010B5FF20134914300860134CB3
:100B4000616A1348016013498A89823A4260124AF5
:100B50000120D060114A0020106050600723104A25
:100B60009B025360531493600E4AD06008780028AB
:100B700001D1216988470D490B4848600C48A060A5
:100B80000320607010BD0000001200403C000020F7
:100B900040A50040C000002000A0004040A100404F
:100BA00000F5014000110040A203002000150040A4
:100BB000ED0B000010B50B4C60680121084360602C
:100BC00000F0CCF90848806A002805D01420FFF70F
:100BD000E7FA00F017F910BD002060701420FFF74D
:100BE000DFFA10BD3C00002000020020F8B507200D
:100BF000354F8002B8603548C2683549354EC889DE
:100C0000354C0125002A36D0344A1268002A32D0E9
:100C100075606A03BA6062682A4362600E46E169E1
:100C2000401A401C206200F099F9307800280FD05B
:100C30002B48007800280BD02A48C06A0021C0B297
:100C400000F0A0F8002803D0606804210843606029
:100C50002548806A002808D0307C012805D014205F
:100C6000FFF79EFA00F0CEF8F8BD00206070142067
:100C7000FFF796FAF8BDE1694A1EE2610AD2756093
:100C800001214903B960401C2062606802210843C9
:100C90006060EAE7FF2015491C300860606921693F
:100CA000007888470E490F48223941601048A060FB
:100CB000022060703560000378600E4840680028AC
:100CC000D8D00D480560F8BD00F501400011004086
:100CD000C000002000A000403C00002000140040A4
:100CE000A203002000150040000200200012004076
:100CF000350B000040A100400010004009490020D1
:100D0000CA6912090D2A04D1C8690007000F002220
:100D1000CA61D022401C0243CA61034900018871A4
:100D20007047000000050040140000200549002025
:100D3000086248628862FF31553108624862886201
:100D4000704700000002002030B5FF220523CD7D52
:100D5000002409321B02C318002D8450986905D065
:100D60004B7ECA68D054487E401C487630BD1FB5C3
:100D700001246B461C701972019206C868469047A0
:100D80001FBD0000F8B51C4C0746A06A0E46082897
:100D900030D21A4A2046006A137821464E31002587
:100DA0008000012B04D05378002B07D0D27C02E0C6
:100DB0000A78202A1ED823581A7001E0225815708C
:100DC0002058891C0278401DFFF7A0F9206A810095
:100DD000625857700A4A92686358401C9A7061586A
:100DE00008280E71206200D32562A06A401CA06210
:100DF0000120F8BD0020F8BD54030020C0000020F1
:100E000040150040F8B5354C012525623448354F72
:100E1000416A8900415861613878002802D0012870
:100E200040D10EE008782169884761692E480A7927
:100E30000270002242700A78801C491DFFF766F993
:100E400016E0C878002821D0387D00281ED0002662
:100E500025480A7802700A79334652006B401A43DB
:100E600042700A78801C491DFFF750F9002E0FD000
:100E7000FF201E491C3008601D4911204860F88978
:100E8000E0611C48A060022060700BE00126DFE7F3
:100E9000FF211648143101601548102141601648A1
:100EA000A0606570616915484A78C2624A7829462F
:100EB0009140016309492831C97C81600A49416038
:100EC0000F49022008600120FFF760F90D4900205A
:100ED0004860886008610C480560F8BD3C0000204F
:100EE00000020020C000002080030020001200400B
:100EF00000130040350B0000B50B0000001500404A
:100F000080E200E00011004000100040044C606AE4
:100F10006062FFF76DFA012020602068FEE70000A4
:100F200000050040FF221D32002383508B8A8A680F
:100F3000D25C8B8A5B1C8B82052109024018C2613E
:100F400070471FB500226B461A70197281680191B3
:100F5000827506C8684690471FBD000010B50A4C50
:100F6000A06A00280FD00120FFF706F9A06A401EF2
:100F7000A062606A401C6062082801D300206062A1
:100F80000120FFF703F910BD00020020F0B50C4668
:100F9000012185B005464902FFF7C3FD032109027F
:100FA0006F180026002826D0FF2125312846FFF79C
:100FB000B3FD00281FD0FF2025302E508120800057
:100FC000B860A07E002801D1012068600221684637
:100FD00001700920C0012918086808600390E17DAC
:100FE00068460172E0680190E675267606CC684690
:100FF000083C90472DE004212846FFF792FD002889
:1010000027D0FF2109312846FFF786FD002820D090
:1010100021462846FFF798FEE07D617E884218D180
:10102000207E002807D0617EE268E0752069E060DC
:10103000267666760AE0A07E002801D1012068604D
:1010400081208000B860E675617EE2682046FFF787
:101050008EFEFF271D3739462846FFF75DFD002825
:101060000FD0A08AA17D884204D221462846FFF7EE
:1010700059FF06E0EE51A17D002902D02046FFF77E
:1010800060FFFF27453739462846FFF745FD002812
:101090000ED0EE51A07E002801D001202860E07D16
:1010A000002805D0E675617EE2682046FFF75FFE06
:1010B00005B0F0BD70B504460D4DC00703D00D4816
:1010C000FFF759F9E861A00704D50A48001DFFF7AA
:1010D00052F92862600709D506480830FFF792F9EF
:1010E000686204480C30FFF78DF9A86270BD0000FB
:1010F000001500406400002010B500F041F81949C7
:1011000019480B7A03614024184A002B0BD0012B9D
:1011100004D0022B04D0032B06D104E0302300E0DE
:10112000FA23536200E054620B78002B03D0012BAA
:1011300003D10F4B00E00F4B13614B7A4363022B3B
:1011400002D0012B04D008E00B4BC3630B4B03E030
:10115000FF23C363FF2308338363C87C1169884777
:1011600010BD0000C0000020001500403C00002021
:10117000C111000095110000FFFF000021100100C7
:1011800002480349807AC86070470000C000002010
:10119000001500400849074A4A61084A0302527C88
:1011A000521E12041A4302430120000602438A61C0
:1011B000704700000001010000150040640000209D
:1011C0000648054941610649064A497C491E090409
:1011D00011438161704700000600030000150040C4
:1011E0006400002020000001010000000000000059
:1011F00001020000FA0003000001022000000000CC
:1012000015161718111213142812000000000020E0
:101210007C00000058030000A41200007C000020A5
:101220007C0B0000680300000000000000000000CC
:1012300000000000000000000000000002000000AC
:10124000000100000000000000000000000000009D
:10125000000000000000000000000000000000008E
:10126000000000000000000000000000000000007E
:10127000000000000000000000000000000000006E
:10128000000000000000000000000000E7E7E7E7C2
:10129000C2C2C2C2E7C2C3C4C5C6C7C80805FF02EE
:0412A0000024F40032
:04000005000000C136
:00000001FF
