:020000040007F3
:10300000C05A0020493407005134070053340700E8
:1030100055340700573407005934070000000000FA
:103020000000000000000000000000005B3407000A
:103030005D340700000000005F34070061340700C2
:103040006334070063340700633407006334070008
:1030500063340700633407006334070063340700F8
:1030600063340700633407006334070063340700E8
:1030700063340700DD4D0700633407006334070045
:1030800063340700414E07006334070063340700D0
:10309000D54E070063340700D94E0700633407009C
:1030A00063340700633407006334070063340700A8
:1030B00063340700633407000000000000000000D4
:1030C0006334070063340700633407006334070088
:1030D0006334070063340700633407000000000016
:1030E00000000000000000000000000000000000E0
:1030F00000000000000000000000000000000000D0
:1031000000000000000000000000000000000000BF
:1031100000000000000000000000000000000000AF
:10340000DFF80CD000F0B8F800480047416D070025
:10341000C05A0020056885F308884068FF2464B21C
:10342000EFF30585002D01D1A64600472546064647
:1034300021273FBAF0B40024002500260027F0B46D
:10344000F92040B200470000064880470648004780
:10345000FEE7FEE7FEE7FEE7FEE7FEE7FEE7FEE744
:10346000FEE7FEE7FD4E070001340700202A04DBDB
:10347000203A00FA02F1002070479140C2F1200387
:1034800020FA03F31943904070470000004870474A
:10349000DCB1070040EA01039B0703D009E008C93B
:1034A000121F08C0042AFAD203E011F8013B00F809
:1034B000013B521EF9D27047D2B201E000F8012B55
:1034C000491EFBD270470022F6E710B513460A46A4
:1034D00004461946FFF7F0FF204610BD421C10F8C5
:1034E000011B0029FBD1801A704730B5044600202B
:1034F000034600E05B1C934203D2E05CCD5C401BC2
:10350000F8D030BD034611F8012B00F8012B002A3A
:10351000F9D1184670472DE9F05F05460020924624
:103520009B4688460646814640241BE02846414685
:103530004746224600F032F853465A46C01A914197
:1035400010D3114618462246FFF790FF2D1A67EB5D
:1035500001084F46224601200021FFF787FF17EBA5
:1035600000094E41201EA4F10104DFDC484631462B
:103570002A464346BDE8F09F064C074D06E0E0684A
:1035800040F0010394E8070098471034AC42F6D3AA
:10359000FFF73AFF5CB607007CB60700202A04DB81
:1035A000203A21FA02F00021704721FA02F3D040BC
:1035B000C2F1200291400843194670472DE9F043BB
:1035C0008BB08046129D15F9046B009614461F4679
:1035D00089462B4602A81146424600F0BAFC02A8D2
:1035E0000146129A00F0A5FC4046414602AA129BF1
:1035F00000F08FFC2046214602AA129B00F089FCB5
:103600002B46384639464A46009600F0A2FC02A8EE
:103610003946129A00F08DFC02A8014642462B461C
:10362000009600F096FC02A8014622462B46009622
:1036300000F08FFC2046214642462B46009600F0C3
:1036400088FC484649462246129B00F062FC204610
:10365000414602AA2B46009600F07BFC38463946CC
:103660002246129B00F055FC384639464A462B4606
:10367000009600F06EFC204602A9324600F0EEFFF4
:103680000BB0BDE8F083F0B589B01C4607460E4686
:103690001546684611461A4600F04BFC3846394636
:1036A0006A46234600F035FC684669462A462346AA
:1036B00000F02FFC304631466A46234600F029FCD4
:1036C00009B0F0BD1AB1013A8B5C8354FAE7704738
:1036D0002DE9F0478846B3F902101F460825CB1D97
:1036E000202493FBF5F51F31954291FBF4F44FFA3A
:1036F00084F928BF15460646494600F075FA2A4661
:1037000030464146FFF7DEFFB7F90230ED009D423B
:1037100020D9ED1A06EB840100228E420AD251F81C
:10372000040D20FA05F313430B60C5F1200300FAE2
:1037300003F2F2E72437384631464A4600F060FA91
:10374000012807D0304631463A464B46BDE8F0479F
:1037500001F08EB9BDE8F0872DE9F04793F90060DC
:1037600092B004468946104631461546984600F008
:1037700071FA002840F0978002A84946424600F0BE
:10378000D8FB43460AA8214602AA00F0C2FB02A8C1
:103790000146424600F0CDFB4346484649462A468C
:1037A00000F0B7FB08F1040728462946424600F01E
:1037B000C0FB204621462A463B46009600F0F8FA18
:1037C000284629462A463B46009600F0F1FA28464C
:1037D00021462A463B46009600F0BBFB2046214688
:1037E0002A46434600F095FB2846214622463B46A2
:1037F000009600F0DDFA20463B46009621462A4618
:1038000000F0D6FA2368DB07204613D5334621465D
:103810003A4600F0BDF931468246204600F011FFDD
:1038200006F18043013B54F8230040EACA7044F893
:10383000230002E0314600F004FF284621464246BC
:1038400000F077FB284629460AAA3B46009600F07E
:1038500080FB284629460AAA3B46009600F079FBE1
:103860000AA801462A463B46009600F072FB204615
:1038700021460AAA434600F04CFB02A802463B46FA
:103880002146009600F065FB20462946324600F0AE
:10389000E5FE28464946324600F0E0FE484602A9C9
:1038A000324600F0DBFE12B0BDE8F08700487047FA
:1038B000ACB507002DE9F04FEFB01E46789C05909F
:1038C00023780493B4F9023092461F33202293FBED
:1038D000F2F3DBB206939DF9187094F9012007F119
:1038E000FF3926AB002543F829506EAB03EB890363
:1038F0004EA88B46314643F8805C43F8605CFFF786
:10390000E1FE94F9012056A8B118FFF7DBFE9DF9FE
:1039100010604EA8314600F09DF98046002840F026
:103920002F8156A8314600F095F90546002840F051
:10393000258104F1240840464EA93A4600F060F97A
:10394000012840F01D81404656A93A4600F058F93A
:103950000128089040F014813B461EA856A9424613
:1039600000F03FFA0DF1380C6046594652462346A6
:103970004CF82950CDF80CC0FFF7AAFEDDF80CC0BA
:103980000097604661461EAA4346CDF824C00DF557
:10399000BC7900F0ACFA4346009716A84EA91EAABF
:1039A00000F0A5FA48463246059900F057FEB300EC
:1039B000039309EB030B039A059B5846991832466B
:1039C00000F04CFE04F144031946324636A8079332
:1039D00000F044FE04EB860132463EA8443104F177
:1039E000040A00F03BFE494600961EA836AA53463C
:1039F00000F0AFFA4A465B4636A83EA90094FFF7AE
:103A0000DDFD1EA801463346524600F0EAF91EAA23
:103A1000484659462346FFF736FEDDF824C0079B8B
:103A20000B936046059B0C933946CDF814C00A955C
:103A3000CDF8349000F0E3FD3946054616A800F0B5
:103A4000DEFDA842B8BF284685B2DDF814C06F1E5F
:103A50003FB26046394601F03BF8394610F10009A3
:103A600016A818BF4FF0010901F032F8002814BF62
:103A70000223002343EA09090DF1280B32465BF8C3
:103A8000297026A8394600F0E9FD039B3246F91853
:103A90002EA800F0E3FD31461EA800F0A5F8023D77
:103AA000089B1E93AEB237B2002F44DB23461EAAFA
:103AB000D4F8A45026A82EA9A84739460EA801F08C
:103AC00007F83946051C16A818BF012501F000F8B3
:103AD000002814BF022300231D430AAB53F82570AE
:103AE00037B39DF9105036A839462A4600F0B6FD86
:103AF000039B3EA8F9182A4600F0B0FD36A83EA95F
:103B00001EAA2346FFF7BFFD46A826A936AA53469C
:103B1000009500F01EFA36A83EA926AA2EAB009406
:103B2000FFF74CFD1EA8014646AA234600F0F1F916
:103B3000013EB6B2B7E79DF910501EA801465246A5
:103B40002B4600F04EF9234626A82EA91EAAFFF701
:103B50009AFD9DF91840404626A9224600F050F8EB
:103B6000012805D026A801464246234600F080FFE2
:103B700026A84EA92A4600F058F802E0404600E088
:103B800028466FB0BDE8F08F000000000000000084
:103B9000C3F10803DB0070B501330446002003A520
:103BA0005B1920C940CAAD1920C4184720C940CAB2
:103BB000754120C420C940CA754120C420C940CAEB
:103BC000754120C420C940CA754120C420C940CADB
:103BD000754120C420C940CA754120C420C940CACB
:103BE000754120C4404170BD10B5002253B28B42D4
:103BF00005DA1BB2002440F823400132F6E710BD7D
:103C000010B5013AD2B253B2002B09DB1BB250F807
:103C1000234051F823309C4204D8F2D2FF2002E026
:103C2000002000E0012040B210BD013A30B5D2B210
:103C3000002453B2002B09DB1BB2013A51F8235088
:103C400050F823306B401C43D2B2F2E7B4FA84F050
:103C5000400930BD10B500231A465CB28C4204DA2C
:103C600050F8244001332243F7E7B2FA82F04009CA
:103C700010BD00002DE9F043A3B09846019112ABAE
:103C80004146074610469146009300F0B8FCC0EB51
:103C9000881086B2454C33B21C40002CBEBF04F1E4
:103CA000FF3464F01F040134202593FBF5F5EDB2D9
:103CB0006DB2A4B202A8294624B2FFF795FF28B23C
:103CC00002AB002C03EB800010DD002213464345BD
:103CD00010D259F8235005FA04F10A4340F8232082
:103CE000C4F1200225FA02F20133F0E749464246C8
:103CF00000F0B4FC0FFA88F502AB4FEA4509012445
:103D000003EB8505330444D40022114653B24B45DE
:103D100022DA0DF1880E0EEB840E0DF1880C18B22C
:103D20005EF888EC0CEB83035EF820E053F8803CEF
:103D3000C3EB0E035B1A734502D08CBF0121002137
:103D4000C4F1010E0DF1880C0CEB8E0E01325EF801
:103D500088EC4EF82030D9E7621A544202A8414656
:103D6000544100F06EFC22AA08F1FF3302EB8303FA
:103D700002EB8802284652F8801C53F8802C013E42
:103D800042EAC172414643F8802CB6B200F059FCB9
:103D9000B8E722AB03EB8404384654F8881C42464B
:103DA00000F05CFC23B0BDE8F08300BF1F00008082
:103DB00070B59DF910401D4623460646FFF7E8FE04
:103DC00030B9284631462246FFF71AFF012807D0AE
:103DD000304631462A462346BDE8704000F048BED2
:103DE00070BDF0B50646A1B00F4608461946154607
:103DF0001C46FFF72FFF20B130462146FFF7F4FEA7
:103E000073E068463946224600F028FC08A8294697
:103E1000224600F023FC10A82146FFF7E5FE01230F
:103E200018A821461093FFF7DFFE684608A922462E
:103E3000FFF7E6FE002853D0009BDA0704D468465B
:103E4000214600F0FEFB26E0089BDB0704D408A80F
:103E5000214600F0F6FB3DE000281EDD08AA2346BF
:103E60006946684600F004FE6846214600F0E9FB1A
:103E700010A818A92246FFF7C3FE002805DA10A8EB
:103E800001462A462346FFF783FE10A8014618AADA
:103E9000234600F0EDFD10A81DE008A86A46234661
:103EA000014600F0E5FD08A8214600F0CAFB18A86D
:103EB00010A92246FFF7A4FE002805DA18A801463B
:103EC0002A462346FFF764FE18A8014610AA234697
:103ED00000F0CEFD18A82946224600F0DBFEA4E73C
:103EE000304610A9224600F0B9FB21B0F0BD70B5F4
:103EF00090B006469DF950401D466846234600F0A6
:103F00003AF8304669462A462346FFF7B3FE10B01A
:103F100070BD30B51C4691B0054693F90030684637
:103F200000F029F8D4F8AC3028466946984711B01B
:103F300030BD30B5144691B0054692F90020684670
:103F400000F099FBD4F8AC3028466946984711B088
:103F500030BD70B59DF910401D462346064600F061
:103F600087FD38B1304631462A462346BDE87040C9
:103F7000FFF70EBE70BD2DE9F04F08B400F10C0044
:103F800002F10C0218C9C0CAA3FB06BC40F804BB6E
:103F90004FF0000AA3FB07B91CEB0B0C49F1000919
:103FA000A4FB06BE1CEB0B0C59EB0E094AF1000AF0
:103FB00040F804CBA4FB07CE19EB0C094AEB0E0A20
:103FC000A0E80006A0F11C00A2F11402B2E8C001B2
:103FD00020C9A3FB06BC40F804BB4FF0000AA3FBBA
:103FE00007B91CEB0B0C49F10009A4FB06BE1CEB46
:103FF0000B0C59EB0E094AF1000A40F804CB4FF0C4
:10400000000BA3FB08CE19EB0C095AEB0E0A4BF17F
:10401000000BA4FB07CE19EB0C095AEB0E0A4BF16F
:10402000000BA5FB06CE19EB0C095AEB0E0A4BF15F
:10403000000B40F8049B08C94FF0000CA4FB08E9F2
:104040001AEB0E0A5BEB090B4CF1000CA5FB07E920
:104050001AEB0E0A5BEB090B4CF1000CA3FB06E913
:104060001AEB0E0A5BEB090B4CF1000CD0F800E0E8
:104070001AEB0E0A5BF1000B4CF1000C40F804AB9C
:1040800010C94FF0000EA5FB089A1BEB090B5CEB67
:104090000A0C4EF1000EA3FB079A1BEB090B5CEB1D
:1040A0000A0C4EF1000EA4FB069A1BEB090B5CEB0D
:1040B0000A0C4EF1000ED0F800901BEB090B5CF1DE
:1040C000000C4EF1000E40F804BB40CA4FF000094E
:1040D000A5FB06AB1CEB0A0C5EEB0B0E49F10009CD
:1040E000A3FB08AB1CEB0A0C5EEB0B0E49F10009BD
:1040F000A4FB07AB1CEB0A0C5EEB0B0E49F10009AD
:10410000D0F800A01CEB0A0C5EF1000E49F100098A
:1041100040F804CB80CA4FF0000AA5FB07BC1EEB99
:104120000B0E59EB0C094AF1000AA3FB06BC1EEB6F
:104130000B0E59EB0C094AF1000AA4FB08BC1EEB5C
:104140000B0E59EB0C094AF1000AD0F800B01EEB37
:104150000B0E59F100094AF1000A40F804EB4FF048
:10416000000BA3FB07CE19EB0C095AEB0E0A4BF11F
:10417000000BA4FB06CE19EB0C095AEB0E0A4BF10F
:10418000000B40F8049BA4FB07E91AEB0E0A4BEB6B
:10419000090BA0E8000C08BC052B00F02E820C686F
:1041A0001568A0F11400A1F11401A2F1140206682F
:1041B00051F8047B52F8048B4FF0000EA4FB089AD0
:1041C000A5FB07BC19EB06094AF1000A19EB0B091C
:1041D0005AEB0C0A4EF1000E40F8049B06681AEBED
:1041E000060A5EF1000E51F8047B52F8048B4FF082
:1041F0000009A4FB08BC1AEB0B0A5EEB0C0E49F19C
:104200000009A5FB07BC1AEB0B0A5EEB0C0E49F18B
:10421000000940F804AB06681EEB060E59F10009D0
:1042200051F8047B52F8048B4FF0000AA4FB08BC41
:104230001EEB0B0E59EB0C094AF1000AA5FB07BC5B
:104240001EEB0B0E59EB0C094AF1000A40F804EB87
:10425000066819EB06095AF1000A51F8047B52F876
:10426000048B4FF0000EA4FB08BC19EB0B095AEBB2
:104270000C0A4EF1000EA5FB07BC19EB0B095AEB1B
:104280000C0A4EF1000E40F8049B06681AEB060A71
:104290005EF1000E51F8087B52F8088B4FF00009D0
:1042A000A4FB08BC1AEB0B0A5EEB0C0E49F10009EB
:1042B000A5FB07BC1AEB0B0A5EEB0C0E49F10009DB
:1042C00040F804ABA4FB05BC1BEB0E0B4CEB090C3C
:1042D000A0E80018062B00F090810C681568A0F18A
:1042E0001800A1F11801A2F11802066851F8047B28
:1042F00052F8048B4FF0000EA4FB089AA5FB07BCF4
:1043000019EB06094AF1000A19EB0B095AEB0C0AE2
:104310004EF1000E40F8049B06681AEB060A5EF1A7
:10432000000E51F8047B52F8048B4FF00009A4FBF7
:1043300008BC1AEB0B0A5EEB0C0E49F10009A5FB59
:1043400007BC1AEB0B0A5EEB0C0E49F1000940F8B2
:1043500004AB06681EEB060E59F1000951F8047B08
:1043600052F8048B4FF0000AA4FB08BC1EEB0B0EA6
:1043700059EB0C094AF1000AA5FB07BC1EEB0B0E1A
:1043800059EB0C094AF1000A40F804EB066819EBF6
:1043900006095AF1000A51F8047B52F8048B4FF0D9
:1043A000000EA4FB08BC19EB0B095AEB0C0A4EF1EA
:1043B000000EA5FB07BC19EB0B095AEB0C0A4EF1DA
:1043C000000E40F8049B06681AEB060A5EF1000E28
:1043D00051F8047B52F8048B4FF00009A4FB08BC91
:1043E0001AEB0B0A5EEB0C0E49F10009A5FB07BCAA
:1043F0001AEB0B0A5EEB0C0E49F1000940F804AB16
:1044000006681EEB060E59F1000951F8087B52F8B8
:10441000088B4FF0000AA4FB08BC1EEB0B0E59EBF7
:104420000C094AF1000AA5FB07BC1EEB0B0E59EB69
:104430000C094AF1000A40F804EBA4FB05BC1BEB95
:10444000090B4CEB0A0CA0E80018072B00F0D580F4
:104450000C681568A0F11C00A1F11C01A2F11C025E
:10446000066851F8047B52F8048B4FF0000EA4FB51
:10447000089AA5FB07BC19EB06094AF1000A19EBDB
:104480000B095AEB0C0A4EF1000E40F8049B06682B
:104490001AEB060A5EF1000E51F8047B52F8048B09
:1044A0004FF00009A4FB08BC1AEB0B0A5EEB0C0EE4
:1044B00049F10009A5FB07BC1AEB0B0A5EEB0C0ED9
:1044C00049F1000940F804AB06681EEB060E59F1ED
:1044D000000951F8047B52F8048B4FF0000AA4FB4A
:1044E00008BC1EEB0B0E59EB0C094AF1000AA5FBA8
:1044F00007BC1EEB0B0E59EB0C094AF1000A40F801
:1045000004EB066819EB06095AF1000A51F8047B1E
:1045100052F8048B4FF0000EA4FB08BC19EB0B09FA
:104520005AEB0C0A4EF1000EA5FB07BC19EB0B0968
:104530005AEB0C0A4EF1000E40F8049B06681AEB89
:10454000060A5EF1000E51F8047B52F8048B4FF01E
:104550000009A4FB08BC1AEB0B0A5EEB0C0E49F138
:104560000009A5FB07BC1AEB0B0A5EEB0C0E49F128
:10457000000940F804AB06681EEB060E59F100096D
:1045800051F8047B52F8048B4FF0000AA4FB08BCDE
:104590001EEB0B0E59EB0C094AF1000AA5FB07BCF8
:1045A0001EEB0B0E59EB0C094AF1000A40F804EB24
:1045B000066819EB06095AF1000A51F8087B52F80F
:1045C000088B4FF0000EA4FB08BC19EB0B095AEB4B
:1045D0000C0A4EF1000EA5FB07BC19EB0B095AEBB8
:1045E0000C0A4EF1000E40F8049BA4FB05BC1BEB2B
:1045F0000A0B4CEB0E0CA0E80018BDE8F08F013957
:10460000C9B24BB2002B0BDA013111F0FF0315D008
:1046100059B201F18043013B50F82320002304E00C
:1046200050F82330002BEAD0EEE712B152080133E4
:10463000FBE7481E03EB401080B200E0184600B2D2
:10464000704700EB81010023884206D251F8042D07
:1046500043EA52030B60D307F6E7704730B50024F6
:1046600063B2934206DA1BB2013451F8235040F88A
:104670002350F5E730BD2DE9F04F06B47CC9A2FB0D
:1046800002BC40F804BB4FF00009A2FB03AB1CEBDB
:104690000A0C5BF1000849F100091CEB0A0C58EB0D
:1046A0000B0849F1000940F804CB4FF0000AA2FBC7
:1046B00004BC1BEB0B0B5CEB0C0C4AF1000A18EB77
:1046C0000B0859EB0C094AF1000AA3FB03BC18EBD9
:1046D0000B0859EB0C094AF1000A40F8048B4FF023
:1046E000000CA2FB058BA3FB041E18EB01085BEB7F
:1046F0000E0B4CF1000C18EB08085BEB0B0B4CEBB2
:104700000C0C18EB09085BEB0A0B4CF1000C40F8A1
:10471000048B4FF0000AA2FB0689A3FB051E18EBD1
:10472000010859EB0E094AF1000A18EB080859EB89
:1047300009094AEB0A0AA4FB041E18EB010859EB0D
:104740000E094AF1000A18EB0B0859EB0C094AF163
:10475000000A40F8048B4FF0000CA3FB068BA4FB6F
:10476000051E18EB01085BEB0E0B4CF1000C18EB6F
:1047700008085BEB0B0B4CEB0C0C18EB09085BEB24
:104780000A0B4CF1000C40F8048B4FF00008A4FB1E
:10479000061A49185AEB0A0A48F100081BEB010BEC
:1047A0005CEB0A0C48F10008A5FB051A1BEB010B9A
:1047B0005CEB0A0C48F1000840F804BB4FF0000B1A
:1047C000A5FB061A49185AEB0A0A4BF1000B1CEB21
:1047D000010C58EB0A084BF1000B40F804CBA6FB88
:1047E000061A18EB01085BEB0A0BA0E8000906BCEF
:1047F00001F11401052A00F034810B68A0F11400C6
:10480000A1F1140151F804EBA3FB0E4551F804EBA0
:10481000A3FB0E76ED1951F804EBA3FB0E8756EBC4
:10482000080651F804EBA3FB0E9857EB090751F863
:1048300008EBA3FB0EA958EB0A0859F100094FF049
:10484000000A24196D4176417F4158EB080859EB65
:1048500009095AF1000AD0F800E014EB0E0440F800
:10486000044BD0F800E055EB0E0540F8045BD0F89F
:1048700000E056EB0E0640F8046BD0F800E057EB72
:104880000E0740F8047BD0F800E058EB0E0840F823
:10489000048B59F100095AF1000AA3FB034514EBFC
:1048A000090445EB0A0530C0062A00F0DA800B68DF
:1048B000A0F11800A1F1180151F804EBA3FB0E457B
:1048C00051F804EBA3FB0E76ED1951F804EBA3FBB2
:1048D0000E8756EB080651F804EBA3FB0E9857EB36
:1048E000090751F804EBA3FB0EA958EB0A0851F88D
:1048F00008EBA3FB0EBA59EB0B095AF1000A4FF073
:10490000000B24196D4176417F4158EB080859EBA3
:1049100009095AEB0A0A5BF1000BD0F800E014EB2E
:104920000E0440F8044BD0F800E055EB0E0540F8BB
:10493000045BD0F800E056EB0E0640F8046BD0F8AC
:1049400000E057EB0E0740F8047BD0F800E058EB8E
:104950000E0840F8048BD0F800E059EB0E0940F83F
:10496000049B5AF1000A5BF1000BA3FB034514EB17
:104970000A0445EB0B0530C0072A72D00B68A0F182
:104980001C00A1F11C0151F804EBA3FB0E4551F8EA
:1049900004EBA3FB0E76ED1951F804EBA3FB0E8795
:1049A00056EB080651F804EBA3FB0E9857EB0907EA
:1049B00051F804EBA3FB0EA958EB0A0851F804EBDD
:1049C000A3FB0EBA59EB0B0951F808EBA3FB0ECB76
:1049D0005AEB0C0A5BF1000B4FF0000C24196D41EF
:1049E00076417F4158EB080859EB09095AEB0A0A4E
:1049F0005BEB0B0B5CF1000CD0F800E014EB0E0449
:104A000040F8044BD0F800E055EB0E0540F8045B8D
:104A1000D0F800E056EB0E0640F8046BD0F800E04A
:104A200057EB0E0740F8047BD0F800E058EB0E0877
:104A300040F8048BD0F800E059EB0E0940F8049BD5
:104A4000D0F800E05AEB0E0A40F804AB5BF1000B23
:104A50005CF1000CA3FB034514EB0B0445EB0C05C8
:104A600030C0BDE8F08F0000000000000000000032
:104A7000C3F10803DB0070B50133002403A500BFB8
:104A80005B1920C940CAAD1B20C0184720C940CAC5
:104A9000B54120C020C940CAB54120C020C940CA84
:104AA000B54120C020C940CAB54120C020C940CA74
:104AB000B54120C020C940CAB54120C020C940CA64
:104AC000B54120C06441B4FA84F0400970BD00BF14
:104AD0004A11012301F01F0150F822008B401840B9
:104AE00070470000F0B50C4689B008220646FFF773
:104AF000B5FDE36A0393236B0493636B0593A36B88
:104B00000693E36B0793002769466A4608236846C5
:104B1000029701970097FFF73BF8314605466A4632
:104B200008233046FFF734F8236B0393636B049339
:104B3000A36B0593E36B0693054469466A46082315
:104B400068460797FFF724F8314605446A4608236C
:104B50003046FFF71DF8236A0093636A0193A36A46
:104B60000293A36B0693E36B0793054431466A46B1
:104B700008233046059704970397FFF709F8636AFF
:104B80000093A36A0193E36AA26B0293636B03939E
:104B900004920693E26B236A05920544079331461B
:104BA0006A4608233046FEF7F3FFE36A0093236B5F
:104BB0000193636B0293236A0693A36A07930544E8
:104BC00031466A4608233046059704970397FFF756
:104BD0004FFF236B0093636B0193A36B0293E36B13
:104BE0000393636A0693E36A07932D1A31466A4674
:104BF0000823304605970497FFF73AFF636B00934D
:104C0000A36B0193E36B0293236A0393636A049398
:104C1000A36A0593236B07932D1A31466A4608232E
:104C200030460697FFF724FFA36B0093E36B0193D5
:104C3000636A0393A36A0493E36A0593636B079320
:104C40002D1A314630466A46082302970697FFF729
:104C50000FFF2D1A16D5304631460D4A0823FEF7B0
:104C600097FF4519F7D410E0094831460822FEF7AE
:104C7000C7FF012809D030463146054A0823FFF70F
:104C8000F7FE2D1A002DEFD0F5E709B0F0BD00BFFB
:104C9000B0B50700F8B5036813F0010506460F46E6
:104CA000144605D001463A462346FEF771FF0546F5
:104CB00030462146FFF7C5FC45B104F18042013A78
:104CC00056F8223043F0004346F82230F8BD2DE973
:104CD000F04115468AB00446884602A800212022E9
:104CE000FEF7F3FB2E780323204641462A462F1D6C
:104CF00076B20293FFF71DF92046214602AA3B46F1
:104D00000096FFF726F92046214642462B46FFF73C
:104D100000F900962046214605F184023B46FFF744
:104D200047F80AB0BDE8F08100F01F020121914070
:104D30004009800000F1E020C0F88012704700F0C8
:104D40001F02012191404009800000F1E020C0F8DD
:104D50008011704700F01F0201219140400980003E
:104D600000F1E020C0F80011704700F01F0201219F
:104D700091404009800000F1E020C0F80011704728
:104D800000F01F02012191404009800000F1E02065
:104D9000C0F8001270474907090E002806DA00F033
:104DA0000F0000F1E02080F8141D704700F1E020B2
:104DB00080F8001470470000BFF34F8F054801686A
:104DC000054A01F4E06111430160BFF34F8F00BF5A
:104DD000FDE700000CED00E00400FA053EB50024FC
:104DE0008DF80040684600F0B5FE05F0AFFEC8B98A
:104DF00010480F490268AAB1D1F8081311F0010F49
:104E000010D00460006802900B4800688DF8040020
:104E100001A90A4804F072FB084804F059FB08B1E4
:104E200004F056F99DF8000000F0B8FE3EBD000009
:104E300000D0004000D1004008D5004020B007005D
:104E400007480021C0F84011C0F84411C0F84811CB
:104E5000C0F84C11C0F80011C0F8041105F00EBFE5
:104E60000010014003480078002801D100F094B9F7
:104E700070470000483A002070B50E46144900EB18
:104E8000400001EBC0051446E86A183520B101283E
:104E90000FD0022805D113E0284600F0B1F9A04256
:104EA00001D2002411E022463146284600F0E0F904
:104EB0000BE0284600F0A4F9A042F4D20446F2E741
:104EC0003146284600F0A7F90446204670BD000090
:104ED000483A002005F04ABE074810B5406830B196
:104EE0008047002807D0BDE8104000F0DDBCBDE8D9
:104EF000104001F00BBE10BD842C0020F0B5984886
:104F00000023021D01780125101D4FF0805606294F
:104F100007D11478240704D10478C4F30314032CB4
:104F200002D0062904D00FE08F4F8E4C7C670EE034
:104F30001478240708D10478C4F30314032C06D092
:104F4000042C04D0052C02D0062907D00EE0D6F898
:104F50004442864FC4F342343C6002E01478240794
:104F600004D10478C4F30314032C02D0062906D01C
:104F700011E07F4C276827F0807727600EE01478D7
:104F8000240708D10478C4F30314032C06D0042C9E
:104F900004D0052C02D006290AD011E04FF080443D
:104FA000C4F80C31C4F81031704C241F236002E0A7
:104FB0001478240704D10478C4F30314032C02D01A
:104FC000062905D00CE0694F032464373C600AE0F1
:104FD0001478240704D10478C4F30314032C02D0FA
:104FE00006290DD014E0634F05243C60614C7834F1
:104FF0002560604C083423603F243F1D3C6002E084
:105000001478240704D10478C4F30314052C02D0C7
:10501000062957D068E058490968584A116056492E
:10502000091D0968121D1160534908310968121DD4
:10503000116051490C310968121D11604E4910313F
:105040000968121D11604C4914310968121D116064
:10505000494918310968494A2032116046491C31D2
:105060000968121D1160444920310968121D116040
:10507000414924310968121D11603F4928310968EE
:10508000121D11603C492C310968121D11603A490A
:1050900030310968394A4032116037493431096882
:1050A000121D1160344938310968121D11603249EE
:1050B0003C310968121D11602F4940310968121DE9
:1050C000116002E0117809070ED10078C0F30310D7
:1050D000032803D0042801D0052805D1D6F85802AA
:1050E000274900F04F00086021487438016841F4F6
:1050F00070010160BFF34F8FBFF36F8F4FF010212E
:10510000D1F80002002803DBD1F80402002822DADB
:105110001C4A15601C480468002CFCD01524C1F8FA
:1051200000420568002DFCD0C1F804420168002946
:10513000FCD0136001680029FCD0BFF34F8F0C48EE
:10514000F0380168114A01F4E06111430160BFF3D6
:105150004F8F00BFFDE70F490D480860F0BD00000C
:10516000E00F00F00DF0ADBA00C007403C05004074
:10517000FCED00E0105600400404001020C5004083
:10518000E40E004004E5014000E401400400FA059B
:105190000090D003982C002010B5124C0220206102
:1051A000606111A0A061A4F50470E0614FF400708B
:1051B00020620020A06260620BA1A164E062A4F101
:1051C0001001E16410212165A0656065E06509A119
:1051D000E01DFEF797F908A12046FEF793F920207D
:1051E000A07110BD483A00205465726D696E616C03
:1051F00000000000525454005345474745520000F8
:105200000269C1688A4203D88068401A104400E0ED
:10521000501A401E70472DE9F047C468174689466A
:1052200006464FF000083069A04201D9051B02E094
:10523000B168201A0D1AB0686D1E001BA84200D874
:105240000546BD4200D33D4670682A462044494683
:10525000FEF720F9B0687F1B2C44A844A944A04263
:1052600000D10024F460002FDDD14046BDE8F08776
:105270002DE9F041C6680446174688468068851BBC
:105280006068BD4206D93044FEF704F9F019E060C9
:10529000BDE8F0812A463044FEF7FCF87E1B08EB9F
:1052A000050132466068FEF7F5F8E660F0E70000B9
:1052B0000FB41CB50A46521ECDE9000207A9054BE2
:1052C0006A46069800F02AF8009A002111701CBC6A
:1052D0005DF814FB7F57070002E008C8121F08C1E1
:1052E000002AFAD170477047002001E001C1121F67
:1052F000002AFBD1704700000121202803DA8140F9
:105300000548014003E0402802DA2038814009B115
:105310000120704700207047FC06FFBC2DE9FF4FBD
:105320008DB00F460546002606E025280BD0DDE9A6
:105330000F1290476D1C761C28780028F5D111B00B
:105340003046BDE8F08F0024A246A1460122EC4978
:1053500000E0044315F8013F203B02FA03F0084245
:10536000F7D128782A2810D06FF02F022878A0F1E2
:105370003001092914D80AEB8A0102EB410144F0FB
:10538000020400EB010A6D1CF0E701CF5FEA000A9E
:1053900003D544F40054CAF1000A44F002046D1C21
:1053A00028782E2817D115F8010F44F004042A2874
:1053B0000ED06FF02F022878A0F1300109290AD809
:1053C00009EB890102EB410100EB01096D1CF2E7D9
:1053D00057F8049B6D1C28786C280FD006DC4C28ED
:1053E00017D068280DD06A2814D104E0742810D092
:1053F0007A280FD10DE044F400140AE044F480143C
:1054000001E044F440146978814202D104F580142B
:105410006D1C6D1C2A786E2A1FD00CDC632A31D0DB
:1054200004DC002A8BD0582A11D1A3E0642A68D06A
:10543000692A0CD165E0732A2ED004DC6F2A73D060
:10544000702A04D19BE0752A6FD0782A6ED010465E
:10545000DDE90F129047761C50E1C4F30250022898
:1054600006D0032809D0042801CF09D0066045E101
:1054700001CFF117C0E9006140E101CF06803DE1B5
:1054800006703BE117F8040B8DF8000000208DF842
:105490000100EB46012003E057F804BB4FF0FF305A
:1054A00061074FF0000102D40DE008F101018846C8
:1054B00049450FDA8045F8DB1BF808100029F4D1C4
:1054C00008E008F1010188468142FADB1BF8081068
:1054D0000029F6D1DDE90F23AAEB08008146214619
:1054E00000F036F9304400EB080604E0DDE90F1265
:1054F0001BF8010B9047B8F10108F7D22146484646
:10550000F7E00A21C4F302534FF0000B0891022B7D
:1055100004D001CFC117032B09D00AE0FF1D27F0EB
:105520000707F7E8020108E032E01FE020E000B2E0
:10553000C117042B01D140B2C117031E71F1000342
:1055400007DA4FF0000CD0EB0C006CEB01012D23BF
:1055500002E0230504D52B238DF82430012303E03A
:10556000E30701D02023F7E7984658E00A2110E02E
:1055700010210EE010204FF0000B08900CE01021DD
:105580004FF0000B44F004044FF00809089103E0C9
:1055900008214FF0000B0891C4F30253022B04D0F2
:1055A00001CF0021032B06D006E0FF1D27F00707DF
:1055B000F7E8020103E080B2042B00D1C0B24FF043
:1055C000000823072BD5702A07D0DDF820C08CF007
:1055D000100C5CEA0B0C05D00EE040238DF8243053
:1055E000012308E050EA010306D030238DF824306F
:1055F0008DF8252002239846DDF820C08CF0080C99
:105600005CEA0B0C0BD150EA010301D1630706D50C
:1056100030238DF824304FF00108A9F10109582AF0
:1056200004D038A20B9208AA0A920BE03AA2F9E73A
:105630005B46089AFDF76FFF0B9B9B5C0A9A521E14
:105640000A92137050EA0102F2D10A98ADEB000001
:1056500000F1200B600702D524F4803401E04FF004
:105660000109D94502DDA9EB0B0000E0002000EBA9
:105670000B0141440890AAEB010AE00306D4DDE9DE
:105680000F232146504600F063F806444FF000090E
:1056900008E009A911F80900DDE90F12904709F1A6
:1056A0000109761CC145F4DBE0030CD5DDE90F23CD
:1056B0002146504600F04CF8064404E0DDE90F12A4
:1056C00030209047761C0899481E08900029F5DC88
:1056D00008E00A980A990078491C0A91DDE90F123E
:1056E0009047761CBBF10001ABF1010BF1DC2146C8
:1056F0005046DDE90F2300F019F806446D1C1BE647
:105700000928010030313233343536373839616297
:10571000636465660000000030313233343536375B
:105720003839414243444546000000002DE9F0412C
:10573000044600251E461746880404D405E0394671
:105740002020B0476D1C641EF9D52846BDE8F081C5
:105750002DE9F041044600251E469046C80301D5B8
:10576000302700E02027880404D505E0414638466C
:10577000B0476D1C641EF9D52846BDE8F0814A6823
:10578000002A06D00A68531C0B6010704868401E3F
:105790004860704786B00B21ADF8141002218DF8D7
:1057A000001001228DF801208DF8020003208DF8F1
:1057B00003008DF8041059208DF80500FE208DF8A7
:1057C000060005A90DF109007DDF002818D1BDF8FC
:1057D00014000B2808D8411C8DF807100921093046
:1057E0008DF8081080B206E00C208DF80700082024
:1057F0008DF808001420C1B200231A46684672DFF3
:1058000006B070477FB5164D287A800702D5002074
:1058100004B070BD00240094019402940620039407
:10582000FFF7B8FF0028F3D18DF808402820ADF825
:105830000A008DF800400194ADF80C40684673DF13
:105840000028E5D14FF0A0414FF40030C1F80C051D
:10585000122003F061FCA86840F00200A860D6E7BF
:10586000382C00200B46024602A1012003F0C3FDA4
:10587000FFF7A2FA3A4552524F523A726563656990
:105880007665642061206661756C74212069643AD4
:10589000203078253038782C2070633A20307826F4
:1058A0003038780D0A000000024603A1012003F001
:1058B0009BFDFFF781FA00003A4552524F523A726F
:1058C0006563656976656420616E206572726F72CA
:1058D0003A20307825303878210D0A002DE9F84F2C
:1058E000254C8146924660880E46814241D8002769
:1058F0004FF6FF788DF80070684600F02BF922789B
:105900006078A188884201DA401C00E00020C0B223
:10591000904204D19DF8000000F040F927E065783E
:105920006078884201DA401C00E0002060709DF839
:10593000000000F033F9454519D0A068B9F1000F17
:1059400040F835A00DD066B16188E068324605FBAD
:1059500001004946FDF79EFDA06800EBC50086806A
:1059600002E000EBC50087800020BDE8F88F04202E
:10597000FBE70920F9E70000502C002010B50E4C81
:1059800003E0401C00E00020207020786178814214
:1059900010D022786188E068A36802FB010003EB65
:1059A000C20153F83220898890472078A188884224
:1059B000E9DAE6E710BD0000502C002030B5CB003E
:1059C00008339DB293074FF0000401D0072030BD8B
:1059D000044B9A602A44DA605C701C70588099808D
:1059E000002030BD502C0020074B5B6823B12AB14A
:1059F00020B10068037C1BB1082070470720704766
:105A00004174426100207047702C002010B504469C
:105A1000082902D00020FFF747FFD4E90010BDE8B5
:105A2000104008471CB5044ACDE90001082168462A
:105A3000FFF754FF1CBD00000D5A07002DE9F04789
:105A4000074698461446894690074FF0000526D130
:105A50002CB304F0B1FD134E06F11000C6F80C8013
:105A60000570457080F802904460756035707570FF
:105A70001420FFF759F907211420FFF78CF914209F
:105A8000FFF768F90848076007211120FFF783F93D
:105A90000548001F0068B0600020BDE8F0870720BF
:105AA000FBE70000602C0020081501402DE9FC47B1
:105AB000DFF87890D9F8043073B368B3052902D2BF
:105AC0000720BDE8FC87436933B3437C012B25D015
:105AD000002704460025884616468DF80050684683
:105AE00000F038F801A805F05FF9C8B10121017094
:105AF0000F4944600968C0E90218C0E904769DF8BE
:105B0000040089F801009DF8000000F047F8142017
:105B1000FFF736F92846D4E70820D2E70F46D8E742
:105B200004259DF8000000F039F8F3E7702C002000
:105B3000041501400649496839B130B1416921B1C4
:105B400000210174022105F075B80820704700009B
:105B5000702C002030B5EFF3108172B60D4A9468B6
:105B6000012324B10370002900D162B630BD9360D7
:105B70004FF0E023D3F88051074C25401560C3F85F
:105B80008041D3F8844154605A17C3F8842100221D
:105B90000270E8E7A8370020FC06FFBC0B498A68C2
:105BA000002A11D000280FD1EFF3108072B60B68D5
:105BB0004FF0E022C2F800314B68C2F804310022F5
:105BC0008A60002800D162B670470000A837002024
:105BD00070B5054601461C220F48FDF75BFC0F4CD3
:105BE00000262670286830B1016861604068A060B6
:105BF000201D7ADF02E00948001D7BDF00280AD162
:105C00004FF6FF7060806670BDE87040044A002166
:105C10000448FFF7E9BE70BD68320020242C002044
:105C200049AD0700B4AF070070B51E4C06880023CD
:105C30001B49E289102E15D01B4D112E1CD0122E9F
:105C400029D0502E17D130F8061F914213D1418927
:105C5000022910D10C3000F016F988B1BDE870406F
:105C600000F008BA84884C800469CC6040690861FF
:105C70004B70002AF2D070BD4FF6FF7048804B7019
:105C80002868FFF757FF0028F5D0A1690029F2D056
:105C9000BDE8704008478268CA60C0680861DDE7F7
:105CA000242C002068320020B4AF070001480068AF
:105CB000FFF740BFB4AF070030B585B004002AD06D
:105CC000164D4FF6FF702246288001208DF81200F5
:105CD0004FF65960ADF8100004A90120A0DF00289C
:105CE00017D10F4B0FCB8DE80F00A11C684663DF67
:105CF00000280ED1204600F04FFD002809D1204693
:105D000000F0CAFA002804D1A86840F00100A86099
:105D1000002005B030BD0E20FBE70000382C00202D
:105D2000BCAF070070B5184C0025A068410701D52D
:105D3000002070BD40F00400A06014A1032003F017
:105D40004FFB214801F04CF920A1032003F048FB50
:105D50002088A0F57F41FF3904D0132176DF0500AC
:105D6000E7D10CE0207A800709D574DF0028E0D164
:105D7000112003F0D1F9A06840F00200A060FFF705
:105D800095FF284670BD0000382C00203A494E4649
:105D90004F3A57616974696E6720666F7220627549
:105DA000666665727320746F20626520636C65613E
:105DB000726564206265666F726520646973636FE3
:105DC0006E6E6563740D0A00C0D401003A494E46F8
:105DD0004F3A446973636F6E6E656374696E670DE5
:105DE0000A00000000B587B0112003F08DF91220E1
:105DF00003F08AF9112003F08FF9122003F08CF9D7
:105E0000012000F045F800282BD1174804F0EEFDE2
:105E1000002826D100F044FE002822D11348FFF7C5
:105E20004BFF00281DD11C216846FDF74CFB40F6B6
:105E3000CD4001904FF48040029003208DF80C007B
:105E40000020ADF80E008DF8100009480690684655
:105E5000FFF7BEFE002804D107B05DF804EBFFF7A2
:105E6000D1BC07B000BD0000755E0700D432002031
:105E70007160070010B50446FFF7D6FE2046BDE866
:105E8000104003F095BB007800F00100704700005F
:105E900000B5154989B00968079118B102F078FC7E
:105EA00000281ED1114A12A1032003F09DFA0F48C9
:105EB00013DF002815D1164B5022164907A804F00D
:105EC00015FE08B1FFF7F0FC01216A46084604F010
:105ED000E7FD002805D11720ADF81000684604F052
:105EE0008FFD09B000BD0000B8AF0700003007000B
:105EF0003A494E464F3A766563746F722074616218
:105F00006C653A203078253038780D0A00000000A2
:105F1000D9AA0700843200200249085C012103F05D
:105F200002B90000ACAF07000249085C002103F091
:105F3000FAB80000ACAF07007CB50024084E254637
:105F40000122305D009500231146019503F0CAF847
:105F5000641C042CF4D3BDE87C4000F003B80000BE
:105F6000ACAF070010B500242046FFF7D5FF641C36
:105F7000042CF9D310BD002901DA00207047026813
:105F8000114401600120704710B543689C184460BB
:105F900021B905E013F8010B01F8010B521EF9D2EB
:105FA000012010BD38B10549814204D8044981421D
:105FB00001D9012070470020704700009C2C002070
:105FC000AC2C00202DE9F05F26484168F1B3DFF8E2
:105FD00098B00E688146DBF8004087688078E11B46
:105FE00021F07F45ED1CB0B9DFF880804FF48030A0
:105FF000C8F84403C8F804031120FEF795FE1120E9
:10600000FEF7A8FE4FF0010AC8F800A02F2001F00B
:1060100073F889F802A0B54200D23546124BE81950
:106020003C3320F07F401860DBF800105A46091B13
:1060300021F07F41001B20F07F40C91C81420FD915
:10604000106818602F2001F057F800E004E0BDE868
:10605000F05F1120FEF794BEBDE8F05F04F0ACBA2B
:10606000BDE8F09F602C00200415014000100140A5
:10607000FFF71ABCF8B5134800F086FD114D002655
:10608000114C0C3D30B16169B9B101208DF80000AF
:10609000684611E0287820B1616971B18DF800601F
:1060A000F6E7687858B1A168084800220068FFF751
:1060B000FDFC10B1A16901B188472E70F8BD61687F
:1060C000F2E70000302C002068320020B4AF070057
:1060D000F0B54FF0FF3622B11268D24300230A4DCB
:1060E0000DE03246FAE7C45C62400824D70700D0CE
:1060F00037462F4087EA5202641EF7D15B1C8B4261
:10610000F1D3D043F0BD00002083B8EDF0B51469A1
:1061100006468DB020681546271DE0B1022920D023
:106120000A2000906B4609AA304604F042F9002884
:106130000FD009A901A8009A04F00EF801AE96E864
:106140000F0005AE86E80F00236869683A4605A887
:1061500098470DB0F0BD0DB03046BDE8F04004F0FA
:106160006FB86946304604F001F80028F1D0236882
:1061700069683A46684698470028EAD0029800289D
:10618000F5D1019870600120E3E753685B7813F064
:10619000C00303D0402B03D00020704700F002B8AA
:1061A000FFF7B4BF2DE9FF410B4651680646144680
:1061B0004878334D00F00F0210F0300055F82250AF
:1061C00006D0102806D0202808D0302856D13EE02E
:1061D00022694DE061690120087047E0022B28D157
:1061E000042A26D84FF0010869463046676903F053
:1061F000BDFF00281AD009E00B79226913FB0022A9
:106200006846A84770B13878401C3870029820B1B1
:10621000616838784A799042EED3019870600298AC
:1062200060BB02E04FF00008F7E7404604B0BDE86D
:10623000F081D4E904300F79027817FB02334979F1
:106240008A421BD2521C02701A46616810E008781C
:106250006169072A087009D1606801792069FDF732
:1062600032F960682169806803F09BFF22696168E8
:1062700004B03046AC46BDE8F04160470020D5E7A9
:1062800034B1070010B5034800F0F0FEBDE810403F
:10629000FFF774BBA086010010B58EB004461C2128
:1062A0006846FDF710F9142108A8FDF70CF99DF8D0
:1062B0000010002041F0180107908DF80010A1781F
:1062C0008DF836100121ADF834109DF81C1004F142
:1062D0000C0321F0FF018DF81C109DF81D1008AA79
:1062E00021F00F01491C21F0F00110318DF81D1033
:1062F0009DF81E1021F00601891C41F011018DF856
:106300001E100DA9089107A909911721ADF82C10AD
:106310000C9020886946A2DF0EB010BD024881684B
:10632000491E816070470000002C00201FB51148F5
:1063300000F15C01826B684603F00EFF0E489DE899
:106340000E0080E80E000C490C480E4AC8600C494B
:106350000020086048600C49074803F086FC10B133
:10636000012004B010BD09A1032003F039F800207A
:10637000F7E700001C36002038320020999F070004
:106380001C2C0020AC2C002040AF07003A494E46A0
:106390004F3A48616E646C65723A20496E76616C62
:1063A00069642070726F746F636F6C2062756666CB
:1063B00065722073747265616D0D0A002DE9F047F6
:1063C00098465FEA0209054600F104044FF0000612
:1063D00028D0B8F1000F25D094F85F007D4F18B198
:1063E00094F86000002843D1207AD8B1E0683428BE
:1063F00018D100204FF44052217C11E004EB8003BF
:10640000B2F80CC05B69634509D194F8250060B10E
:10641000012813D002280DD003281DD10AE0401C0A
:106420008142EBDC0A20BDE8F08720780028F9D013
:10643000BE6803E020780028F4D0FE6866A13346E9
:106440000320626802F0D7FF94F8250048B10228C3
:106450000BD003280CD108E069A1032002F0C0FF93
:10646000E0E76068B042DDD302E06068B042D9D9AD
:1064700095F870000028D5D16A486949016020214B
:10648000416069A1032002F0ABFF388F514A83B20B
:106490005C326BA1032002F089FF69A1032002F0A6
:1064A0009FFF6AA1032002F09BFF1FFA88F34A4670
:1064B00063A1032002F07AFF61A1032002F090FFA4
:1064C000584B42464946052000F04CFD0028A9D112
:1064D000534805F1720195F871200E462030FCF703
:1064E000D9FF60A1032002F07BFF15F8713F32460F
:1064F00053A1032002F05AFF51A1032002F070FFC4
:10650000484847490838203101602A7842605AA13A
:10651000032002F069FF434B424A083B5D490420D7
:1065200000F046FD08B105207DE75BA1032002F0E5
:1065300057FF3C4D00201C3D286194F8251041B3C5
:10654000012933D05A480229C0F5FC2027D003295D
:1065500082D194F82C10002982D094F826100029BA
:10656000FAD0A26A216B53182B6132B329B381424E
:106570000DD8202204F13F012948FCF78BFF286940
:10658000D8B1284A0021103A01F010FDB8B104201A
:1065900049E794F834000028DED0A06B0BE094F8B3
:1065A0002C100029D8D0216B2961E0E794F826004F
:1065B0000028D1D0A06A2861DBE7032033E73DA1A2
:1065C0000320EA6802F010FF43A1032002F008FF55
:1065D000012028E71C3600203A494E464F3A5265C2
:1065E000712076657273696F6E3A2025642C205095
:1065F000726573656E743A2025640D0A0000000010
:106600003A494E464F3A556E6B6E6F776E2046573D
:106610002075706461746520747970650D0A0000DE
:10662000D83100201C2C00203A494E464F3A496E82
:10663000697420636F6D6D616E643A0D0A0000002D
:106640003A494E464F3A0D0A000000003A494E467C
:106650004F3A705F496E697420636F6D6D616E644F
:106660003A0D0A003A494E464F3A5369676E6174D3
:106670007572650D0A0000003A494E464F3A73693B
:10668000676E6174757265206C656E3A2025640DC5
:106690000A000000A4AF07003A494E464F3A496D40
:1066A0006167652076657269666965640D0A000038
:1066B000003007003A494E464F3A577269746520D8
:1066C000616464726573732073657420746F203025
:1066D00078253038780D0A003A494E464F3A4446FC
:1066E000552070726576616C6964617465205355DC
:1066F000434345535346554C210D0A0010B582784B
:10670000012A01D0052010BD0D4A0CCAFFF756FE24
:106710000446012805D00BA1032002F061FE2046AB
:1067200010BD0FA1032002F05BFE13A1032002F0B5
:1067300057FE002002F046FB0028F0D00A2010BDD2
:106740001C2C00203A494E464F3A50726576616CD7
:106750006964617465204641494C4544210D0A0035
:106760003A494E464F3A50726576616C696461747D
:1067700065204F4B2E0D0A003A494E464F3A536161
:1067800076696E6720696E697420636F6D6D616EE6
:10679000642E2E2E0D0A000010B58EB004461C216A
:1067A0006846FCF790FE142108A8FCF78CFE9DF8C3
:1067B0000010002041F0040107908DF80010A1782E
:1067C0008DF836100221ADF834109DF81C1008AA7F
:1067D00021F0FF018DF81C109DF81D1021F00F0114
:1067E000491C21F0F00110318DF81D109DF81E108C
:1067F00021F00601891C41F001018DF81E100DA940
:10680000089107A909911421ADF82C100C9020884B
:10681000231D6946A2DF0EB010BD0000044A09B96D
:10682000002313705268002A00D010477047000000
:10683000482C0020F8B51C4617460D46060018D017
:10684000BDB1B4B100F0AEF9A8B1284600F0AAF984
:1068500088B1204600F0A6F968B1FDF727F800904E
:1068600023463A4629463046FDF724F828B1002051
:10687000F8BD0E20F8BD1020F8BD0B20F8BD0000BB
:106880000E4910B50A784C780023A24212D0521C4F
:10689000D2B20A70022A00D10B70084A0B78183263
:1068A00052F8232002608868104420F07F408860FE
:1068B000012010BD0360002010BD0000602C0020EE
:1068C000F8B506461A481F46154600780C46C0071C
:1068D00008D03046FFF766FB30B13CB1200507D049
:1068E0000620F8BD0120F8BD0220F8BD0320F8BD48
:1068F0003068A04204D8716804EB0530884201D9A1
:106900000520F8BD7DB1684603F0DEFC68B1009853
:106910000221C0E900670172210B8181058203F029
:1069200027FD0020F8BD0420F8BD0720F8BD0000B9
:10693000802C002070B50E4C06460D00206820F01B
:10694000010020600FD00BA1032002F049FD206858
:1069500040F0020020607268002A07D029463046C5
:10696000BDE87040104720F00200F3E770BD000062
:10697000442C00203A494E464F3A47656E65726195
:1069800074696E67206661696C7572650D0A000036
:106990000348017841F001010170002070470000B8
:1069A000802C00200348406E042801D0002070474E
:1069B00001207047B43700202DE9F84307461D48F1
:1069C000DDF820801E46007815460C46C0070CD026
:1069D0003846FFF7E7FA50B15DB154B145EA04001B
:1069E000800708D00620BDE8F8830120FBE70220DD
:1069F000F9E70320F7E73868A04204D8786804EB89
:106A00008601884201D20520EDE77EB1684603F099
:106A10005BFC68B100980121C0E900780172C0E90F
:106A20000354868203F0A4FC0020DCE70420DAE7AC
:106A30000720D8E7802C002070B5174A1749044674
:106A4000106E0B7800EB400002EBC0009D0715D5DF
:106A5000022C02D0032C1BD102E002F061FF17E0F0
:106A60004A78521CD2B24A70032A11D900224A70C5
:106A7000082103F0F7FD03F011FC09E0580707D5E2
:106A800023F004000870526E12B140F0020008704A
:106A9000BDE8704003F034BCB4370020802C0020E7
:106AA00010B586B000249DF80000019420F00F007E
:106AB000401C20F0F00010308DF80000029403A874
:106AC0006DDF00281CD19DF80D00401C8DF80D00D5
:106AD00003A86CDF002813D107220AA168467CDFD7
:106AE00000280DD10C20ADF804001820ADF80600E8
:106AF000ADF808404FF4C870ADF80A0001A87ADF7D
:106B000006B010BD4466755465737400F8B51D4C2D
:106B10002078002834D0206928B10026E06820B110
:106B2000002526B113E00126F8E70125F9E7607892
:106B3000002825D1684648DF052803D020B1FEF79C
:106B4000B3FE04E0012602E02169009888479DB960
:106B50006078002814D16088ADF800006946A0680C
:106B600061DF052803D020B1FEF79EFE04E0012579
:106B700002E0D4E902018847002ED8D0002DD0D001
:106B8000F8BD0000842C0020054940880A88904206
:106B900004D34988884201D80120704700207047FB
:106BA000282C0020800701D000207047012070476A
:106BB00070B5054608680C464A688668284631461E
:106BC00003F010FA6068286104F10C0068617078C5
:106BD0000221B1EB901F01D1241D2C6170BD00007A
:106BE0002DE9F043264CA4F110092278D9F804804D
:106BF00099F80350404694F801C0D9F8086031E094
:106C000002EB42036168521C01EBC301A378D2B2CC
:106C1000934200D100220B78022B02D0032B21D10A
:106C20001DE003464F68194603E0B94203D00B4606
:106C3000C969B9B1F9E7A9B18B4205D1C06918B9E1
:106C4000104E0125B56000260F68C969D96149B1A8
:106C50000B683B440B6005E00174C06900E0002153
:106C60000028F9D19445CBD1C9E9010689F8035030
:106C7000404502D00120BDE8F0830020FBE7000082
:106C8000702C0020001001402DE9F0412A4F0446ED
:106C9000002607F11005D7F804803EE002D0204618
:106CA000E4691DE02878696800EB4002401CC0B22E
:106CB00001EBC2012870AA78904200D12E700A78A8
:106CC0004868012A2BD1027C4ABB8A684260CA68A4
:106CD00082600A69C26049698161F97801B14660E0
:106CE0004368BA68DFF854C0991A21F07F416145C2
:106CF00002D28268114406E0D11A826821F07F41F5
:106D00008A4202D9511A016000E006604660012102
:106D100086600174C66103F06FFF002CBED1287835
:106D200069788842BED17968414502D00120BDE82A
:106D3000F0810020FBE70000602C0020FFFF7F00B7
:106D400010B5002002F07CFB0EA1032002F048FBEE
:106D5000FFF7F2F80220FFF7E7F810490E48C1F8F4
:106D6000000700F0CDF808B1FEF79EFD4FF440504B
:106D7000806800F01FF80AA1032002F031FB002018
:106D800010BD00003A494E464F3A496E736964653A
:106D9000206D61696E0D0A000C0003004000005078
:106DA0003A494E464F3A4166746572206D61696E8C
:106DB0000D0A000010B50446024613A1032002F09C
:106DC00013FB01F0E5FC08B11FA112E029A103208B
:106DD00002F006FB4FF0E0214FF0FF30C1F88001D8
:106DE00022462CA1032002F0FFFA204613DF28B12F
:106DF00034A1BDE81040032002F0F2BA2046BDE8FD
:106E00001040FCF707BB00003A494E464F3A527516
:106E10006E6E696E67206E72665F626F6F746C6F04
:106E2000616465725F6170705F7374617274207702
:106E300069746820616464726573733A20307825E0
:106E40003038780D0A0000003A494E464F3A466104
:106E5000696C65642072756E6E696E67206E72660D
:106E60005F6466755F6D62725F696E69745F73649B
:106E70000D0A00003A494E464F3A44697361626C0C
:106E8000696E6720696E74657272757074730D0A2D
:106E9000000000003A494E464F3A53657474696EDB
:106EA0006720534420766563746F72207461626C4E
:106EB0006520626173653A203078253038780D0A94
:106EC000000000003A494E464F3A4661696C6564DD
:106ED0002072756E6E696E672073645F736F66747F
:106EE0006465766963655F766563746F725F74610C
:106EF000626C655F626173655F7365740D0A0000A3
:106F000010B507A1032002F06BFA01F025FB040085
:106F100004D10BA1032002F063FA204610BD00004B
:106F20003A494E464F3A496E206E72665F626F6F05
:106F3000746C6F616465725F696E69740D0A00003C
:106F40003A494E464F3A4166746572206E72665FEA
:106F5000626F6F746C6F616465725F696E69740DE6
:106F60000A00000070B59CB01C4615460E46052868
:106F700002D006201CB070BD6068202801D0092016
:106F8000F8E7684603F048FC0028F3D12A4631466A
:106F9000684603F001FD0028ECD101226846216813
:106FA00003F0B1FB0028E5D1202060600020E1E77C
:106FB00030B4042802D0062030BC7047486840280E
:106FC00002D15868402801D00920F5E71B68D2E9B2
:106FD000004508682A46214630BCFFF72BBC00005C
:106FE00000283ED01F49204A096800BF00BF00BFEB
:106FF00000BF00BF00BF00BF00BF91422FD000BF45
:1070000000BF00BF00BF00BF00BF00BF00BF00BF88
:1070100000BF00BF00BF00BF00BF00BF00BF00BF78
:1070200000BF00BF00BF00BF00BF00BF00BF00BF68
:1070300000BF00BF00BF00BF00BF00BF00BF00BF58
:1070400000BF00BF00BF00BF00BF00BF00BF00BF48
:1070500000BF00BF00BF00BF00BF00BF00BF401E99
:10706000C3D17047982C00200024F40000283ED0A3
:107070001F49204A096800BF00BF00BF00BF00BF12
:1070800000BF00BF00BF91422FD000BF00BF00BFB4
:1070900000BF00BF00BF00BF00BF00BF00BF00BFF8
:1070A00000BF00BF00BF00BF00BF00BF00BF00BFE8
:1070B00000BF00BF00BF00BF00BF00BF00BF00BFD8
:1070C00000BF00BF00BF00BF00BF00BF00BF00BFC8
:1070D00000BF00BF00BF00BF00BF00BF00BF00BFB8
:1070E00000BF00BF00BF00BF00BF401EC3D170473C
:1070F000982C00200024F40000283ED01F49204A8C
:10710000096800BF00BF00BF00BF00BF00BF00BFD5
:1071100000BF91422FD000BF00BF00BF00BF00BF23
:1071200000BF00BF00BF00BF00BF00BF00BF00BF67
:1071300000BF00BF00BF00BF00BF00BF00BF00BF57
:1071400000BF00BF00BF00BF00BF00BF00BF00BF47
:1071500000BF00BF00BF00BF00BF00BF00BF00BF37
:1071600000BF00BF00BF00BF00BF00BF00BF00BF27
:1071700000BF00BF00BF401EC3D17047982C002045
:107180000024F4002DE9F14FDFF8E8804FF4405A75
:107190004FF48054D8F83000DAF80810D8F824609A
:1071A00001EB000B351A34A1032002F019F9A146B6
:1071B0004C46A54200D82C4600220121584601F039
:1071C00049F8002822D1002322465846009901F0B0
:1071D0003BF900281AD122465846009901F0ACFA32
:1071E000070006D05A462D490320009B02F003F900
:1071F0000BE000220121009801F02CF8070007D0D5
:1072000027A10320009A02F0EFF83846BDE8F88F76
:10721000D8F8301000202144C8F8301001F0D2FD19
:107220000098A344204400902D1BC1D10022314678
:10723000DAF80800FEF74CFFD8F828200546444647
:10724000AA4208D125A1032002F0CAF80120A661B4
:10725000C4E9075004E003462849032002F0CBF8B4
:107260000448243001F05CFABDE8F84F002001F03A
:10727000A9BD00001C3600203A494E464F3A456EE3
:10728000746572206E72665F6466755F6170705FB0
:10729000636F6E74696E75650D0A0000B8B3070000
:1072A0003A494E464F3A417070207570646174657A
:1072B0003A204661696C7572652065726173696E0A
:1072C00067207061676520617420616464723A2090
:1072D0003078253038780D0A000000003A494E46D3
:1072E0004F3A53657474696E6720617070206173E2
:1072F0002076616C69640D0A0000000018B5070073
:1073000010B511A1032002F06BF8184C206A012877
:1073100001D017A10CE0E06978B14FF44050A169A9
:1073200080680022FEF7D4FEE169814205D01AA1EF
:10733000032002F055F8002010BD1EA1032002F02A
:107340004FF8012010BD00003A494E464F3A456EB5
:10735000746572206E72665F6466755F6170705FDF
:1073600069735F76616C69640D0A00001C36002049
:107370003A494E464F3A52657475726E2066616C9A
:10738000736520696E2076616C696420617070207D
:10739000636865636B0D0A003A494E464F3A526581
:1073A0007475726E2066616C736520696E2043523D
:1073B000430D0A003A494E464F3A52657475726E53
:1073C00020747275652E204170702077617320766D
:1073D000616C69640D0A0000F8B50E460A68184928
:1073E000496B0D18541A4FF44050009482682B4694
:1073F00014A1032002F007F822462946214801F093
:107400009BF988B123462A461F49032001F0F3FF68
:107410002146284601F09EF9040003D01BA1032059
:1074200001F0DEFF2046F8BD21A1032001F0D8FFC6
:10743000304601F075F9002001F0C4FC0446F1E784
:107440001C3600203A494E464F3A566572696679B5
:10745000696E6720424C3A20416464723A20307869
:10746000253038782C205372633A20307825303814
:10747000782C204C656E3A203078253038780D0A0B
:107480000000000000300700FCB307003A494E46F8
:107490004F3A5265717565737420746F20636F7015
:1074A0007920424C206661696C65640D0A00000019
:1074B0003A494E464F3A426F6F746C6F6164657221
:1074C000207761732076657269666965640D0A00CC
:1074D0002DE9F0470E4609785C4C0127DFF87091E2
:1074E00015464FF4807A04F15C08072976D2DFE86C
:1074F00001F0A504264C21A59B0056A1032001F014
:107500006FFFB06820B1504504D90420BDE8F08772
:107510000320FBE758A1032001F062FF4B48002540
:1075200089F8025020213830FBF7CDFF2563B06881
:10753000A06388E058A1032001F052FF20E05DA184
:10754000032001F04DFFB268E06BA36B1118994264
:1075500007D96860206CA8605EA1032001F040FF9D
:10756000D6E740447168FBF795FFE06BB168374A96
:107570000844E063D6E901014032FEF7A9FD20642A
:10758000E06B6860206CA8605DE05FA1032001F003
:1075900027FFD4E90E01814205D064A1032001F048
:1075A0001FFF0820B2E76AA1032001F019FF99F834
:1075B00002004D4608B10120A8E7208F424683B261
:1075C0006BA1032001F0F2FE69A1032001F008FF86
:1075D000FEF7ACFE012802D0052097E72EE06748B1
:1075E00090F8741061B166A1032001F0F9FE6C49B6
:1075F000A1F21450FFF782F8074601280DD022E0CF
:10760000007828B167A1032001F0EAFE0A271AE0FA
:107610006DA1032001F0E4FEDEE777A1032001F075
:10762000DFFE0120A8700EE07DA1032001F0D8FE4E
:10763000206CA860E06BC5E900A004E084A10320F1
:1076400001F0CEFE0227384660E700001C3600201D
:10765000002C00203A494E464F3A4265666F7265EB
:10766000204F502063726561746520636F6D6D619A
:107670006E640D0A000000003A494E464F3A5661CA
:107680006C696420436F6D6D616E64204372656147
:1076900074650D0A000000003A494E464F3A5661A3
:1076A0006C696420436F6D6D616E64204352430DBD
:1076B0000A0000003A494E464F3A4265666F7265CD
:1076C000204F5020777269746520636F6D6D616E15
:1076D000640D0A003A494E464F3A4572726F722E57
:1076E00020496E697420636F6D6D616E64206C61FA
:1076F00072676572207468616E2065787065637466
:1077000065642E200D0A00003A494E464F3A426504
:10771000666F7265204F50206578656375746520CB
:10772000636F6D6D616E640D0A0000003A494E464C
:107730004F3A45786563757465207769746820668B
:1077400061756C7479206F66667365740D0A00004C
:107750003A494E464F3A56616C696420636F6D6DCD
:10776000616E6420657865637574650D0A000000BC
:107770003A494E464F3A0D0A00000000AC2C00205A
:107780003A494E464F3A48616E646C696E672073A1
:1077900069676E656420636F6D6D616E640D0A00CC
:1077A000383200203A494E464F3A48616E646C695F
:1077B0006E6720756E7369676E656420636F6D6DAB
:1077C000616E640D0A0000003A494E464F3A446526
:1077D000636F64656420636F6D6D616E64206275B4
:1077E0007420697420686173206E6F20636F6E74FB
:1077F000656E7421210D0A003A494E464F3A536591
:107800007474696E672044465520666C6167207405
:107810006F20696E697469616C697A65640D0A002C
:107820003A494E464F3A56616C696420436F6D6D1C
:10783000616E643A204E52465F4446555F4F424A5D
:107840004543545F4F505F53454C4543540D0A0028
:107850003A494E464F3A496E76616C696420436FEF
:107860006D6D616E64204F7065726174696F6E0D2D
:107870000A00000070B505464FF440500CA1846822
:10788000032001F0ADFD124901F118000A69012A37
:1078900008D04A6932B189690C3001F6FF716FF383
:1078A0000B010C442A462146BDE8704000F012B896
:1078B0003A494E464F3A456E746572206E72665F65
:1078C0006466755F636F6E74696E75650D0A00009E
:1078D0001C3600202DE9F04105468068002416463C
:1078E000884601280DD00127A52817D0AA282DD019
:1078F000AC2834D01EA1032001F072FD2046BDE863
:10790000F08123A1032001F06BFD26484069012886
:10791000F4D14046FFF736FC0446EFE722A10320EE
:1079200001F05EFD4046294601F0E4F8040004D071
:1079300022A1032001F054FD06E0284600F0F0FEED
:10794000002001F03FFA04463760D7E725A1032065
:1079500001F046FD29464046FFF73EFDDCE726A143
:10796000032001F03DFD2946404601F073F8EAE7A7
:107970003A494E464F3A53696E676C653A20496EF4
:1079800076616C69642062616E6B0D0A0000000014
:107990003A494E464F3A56616C6964204170700D09
:1079A0000A0000001C3600203A494E464F3A566104
:1079B0006C69642053440D0A000000003A494E46A9
:1079C0004F3A53442075706461746520636F6E7420
:1079D000696E756174696F6E206661696C65640DAE
:1079E0000A0000003A494E464F3A56616C696420DD
:1079F000424C0D0A000000003A494E464F3A536986
:107A00006E676C653A2056616C6964205344202B84
:107A100020424C0D0A0000002DE9F84F15460C00DD
:107A20004FF0010B1ED02078C64FC74E4FF480593F
:107A30004FF0000807286ED2DFE800F06D0461FE09
:107A4000FD6DFC00C1A1032001F0CAFCA2684AB18F
:107A500010050AD0786D31691044884205D0C249BA
:107A6000012064E00320BDE8F88F4A4504D9BFA196
:107A7000032001F0B5FC4CE0B07850B17B6D30696B
:107A8000991881420AD90090C349032001F0BBFC38
:107A900042E0C2A1032001F0A3FC3DE0CFA10320FE
:107AA00001F09EFCF86CB864A0687864786D386565
:107AB00038637178491C01F003017170A6F80480E5
:107AC000B168491CB160A168F26801F6FF71104409
:107AD000090BC94A00F0BEFB40B1B068C7A1401E07
:107AE000B060032001F07CFC0520BCE7B86C00907E
:107AF000CA4903203B6D7A6C01F085FC1AE1386DB0
:107B00006860B86CA860B07830B1A168B1F5807FCA
:107B100004D90420A7E70FE10820A4E7386D7A6DA7
:107B20000844801A7A6C904204D9BDA1032001F068
:107B300057FC97E7834A60684832FEF7C9FAB86491
:107B4000386DA268DFF8F8A2104438656860B86C38
:107B5000A860B088A268B9461118FF2905D87778BF
:107B600061680AEB0723184445E0C0F5807173781B
:107B70008FB20AEB032210443A466168FBF78AFC95
:107B8000B0889D4B384480B2B080A168C01CC91B2E
:107B9000A160616839446160D9F83010F2684F46DD
:107BA00011440091B1688208491CB1607178009855
:107BB0000AEB012100F048FC00285BD0B068A1A1CD
:107BC000401EB060B2880320009B01F014FCF86CEA
:107BD000B864786D38656860F86CA8607078401C8F
:107BE00000F003007070A6F80480A268002A85D017
:107BF0000AEB00206168FBF74DFC2089B18808443E
:107C0000B0800004000CF2D0D9F85420D9F830101C
:107C1000D9F844308A1A02444C469A4229D3F26871
:107C20008F18B168491CB1607178C01C82080AEBDA
:107C3000012102E075E033E03BE06F4B384600F095
:107C400003FC10B3B0683B46401EB060B2887DA113
:107C5000032001F0D0FBE06CA064606D20656860DB
:107C6000E06CA8607078401C00F003007070A6F80B
:107C700004805FE0B28880A10320009B01F0BBFB81
:107C8000B188386B08443863A8E73B46B2887AA1CC
:107C9000032001F0B0FBB188206B08442063E1E7CA
:107CA0007DA1032001F09CFB386D6860B86CA86072
:107CB00040E07FA1032001F093FBD7E914017A6C27
:107CC000431A934204D081A1032001F094FB23E7DF
:107CD00089A1032001F084FBC7F84480386D7865E2
:107CE000B86CF864002001F06DF808B10A20BAE61B
:107CF000386D316988421DD186490320B26801F090
:107D000073FB01E001F0E2F9B0680028FAD182A12A
:107D1000032001F065FB4A48B03800F045FD83467A
:107D200008E084A1032001F05BFBB86CA860386D0B
:107D3000C5E90090584696E686A1032001F050FB65
:107D40000220ECE71C360020002C00203A494E4669
:107D50004F3A4265666F7265204F502063726561CD
:107D600074650D0A000000002CB207003A494E4627
:107D70004F3A496E76616C69642073697A65206652
:107D80006F72206F626A6563742028746F6F206C55
:107D900061726765290D0A00BCB207003A494E4678
:107DA0004F3A547279696E6720746F20637265610F
:107DB00074652064617461206F626A656374207702
:107DC0006974686F75742076616C696420696E6986
:107DD0007420636F6D6D616E640D0A003A494E4602
:107DE0004F3A56616C696420446174612043726546
:107DF0006174650D0A0000001D6307003A494E4694
:107E00004F3A4572617365206F7065726174696F76
:107E10006E206661696C65640D0A000078B2070027
:107E20003A494E464F3A57726974652072657175CA
:107E300065737420746F6F206C6F6E670D0A00009D
:107E4000D82D00203A494E464F3A21212120466143
:107E5000696C65642073746F72696E672025642095
:107E60004220617420616464726573733A203078D3
:107E7000253038780D0A00003A494E464F3A53747F
:107E80006F72696E6720256420422061743A203049
:107E900078253038780D0A003A494E464F3A426507
:107EA000666F7265204F50206372630D0A000000F8
:107EB0003A494E464F3A4265666F7265204F5020F0
:107EC000657865637574650D0A0000003A494E4691
:107ED0004F3A496E76616C69642064617461206810
:107EE0006572653A206578703A2025642C20676FAA
:107EF000743A2025640D0A003A494E464F3A5661BD
:107F00006C696420446174612045786563757465AB
:107F10000D0A0000E0B107003A494E464F3A446F5F
:107F2000696E6720706F737476616C6964617465E3
:107F30000D0A00003A494E464F3A56616C6964207A
:107F400044617461205265616420696E666F0D0A38
:107F5000000000003A494E464F3A496E76616C691E
:107F6000642044617461204F7065726174696F6E42
:107F70000D0A000010B54FF0A040D0F81005000C1D
:107F800010F0010F0DD00848816D012901D00020AB
:107F900010BD00218165084600F014FF08B1FDF70F
:107FA00083FC012010BD00001C3600202DE9F047A5
:107FB00006464FF010208A464FF440594169D9F8DF
:107FC000080090460F1A36A10320A7F5405701F08C
:107FD00007FAB74201D23BA13EE047A1032001F0DE
:107FE000FFF94B4C4BA10320226901F0FDF94FA191
:107FF0000320A369226A01F0FEF956A10320636AF7
:10800000E26A01F0F8F9D9F80810C8F80010206AFF
:1080100004F118054FF00009012805D0C4F81090AC
:1080200056A1C4F8149020E03A465DA1032001F067
:10803000DBF92868334600F6FF706FF30B003F1A38
:108040003A4662A1032001F0D6F90120BE4216D9BA
:10805000BAF1000F06D066A1032001F0C1F9042097
:10806000BDE8F087C4E904096BA1032001F0B8F969
:10807000C5F80490C5F8089000202E60F0E7C4E928
:108080000490A069D8F8001000F6FF706FF30B00A1
:108090001F4D01442435C8F8001067A10320E5E70F
:1080A0003A494E464F3A456E746572206E72665F6D
:1080B0006466755F66696E645F63616368650D0A17
:1080C000000000003A494E464F3A4E6F20776179E2
:1080D00020746F2066697420746865206E6577204F
:1080E0006669726D77617265206F6E20646576696E
:1080F00063650D0A000000003A494E464F3A42615E
:108100006E6B20636F6E74656E740D0A0000000064
:108110001C3600203A494E464F3A42616E6B20743D
:108120007970653A2025640D0A0000003A494E46F0
:108130004F3A42616E6B203020636F64653A2030A5
:1081400078253032783A2053697A653A2025640DD3
:108150000A0000003A494E464F3A42616E6B2031A8
:1081600020636F64653A203078253032783A2053A6
:10817000697A653A2025640D0A0000003A494E46A6
:108180004F3A4E6F2070726576696F75732C20754B
:1081900073696E672062616E6B20300D0A0000000B
:1081A0003A494E464F3A667265655F73697A652053
:1081B0006265666F72652062616E6B2073656C65C7
:1081C00063743A2025640D0A000000003A494E46C7
:1081D0004F3A667265655F73697A653A2025642C4B
:1081E0002073697A655F7265713A2025640D0A0013
:1081F0003A494E464F3A4661696C7572653A206459
:1082000075616C2062616E6B207265737472696354
:1082100074696F6E0D0A00003A494E464F3A456E3A
:10822000666F7263696E672073696E676C65206242
:10823000616E6B0D0A0000003A494E464F3A557385
:10824000696E67207365636F6E642062616E6B0D8B
:108250000A0000002DE9FF41054617460E460B4671
:108260004FF000082A4628A1032001F0C4F82F4C43
:108270002068410723D5810707D52DA1032001F0F0
:10828000AFF80A2004B0BDE8F08140F001002060A2
:10829000B2B23B4629462F48FEF712FB5FEA0008C0
:1082A00008D002462CA1032001F09EF8206820F09F
:1082B000010002E0206840F00100206021E0280574
:1082C00005D02CA1032001F08BF80620DAE7C5F3D6
:1082D0000F34284601F0C6F805F58055761EF8D112
:1082E0007FB12A480168D0E90220CDE90220CDE91A
:1082F0000017280BADF80840ADF80A0000216846C9
:10830000B8474046BEE700003A494E464F3A4572EC
:108310006173696E673A203078253038782C206E8A
:10832000756D3A2025640D0A00000000442C0020E1
:108330003A494E464F3A45726173653A2046616943
:108340006C7572652073696E6365206C6173740D62
:108350000A0000009C2C00203A494E464F3A4572D4
:10836000617365206661696C65643A2025640D0A55
:10837000000000003A494E464F3A496E76616C69FA
:108380006420616464726573730D0A00CCAF0700EA
:1083900010B501000C4C4FF0000013D00BA10320CE
:1083A00001F01EF8FEF7F4FA08B113A104E01B482F
:1083B00002F0D2FB28B11AA1032001F011F8082025
:1083C00010BD0421216010BD442C00203A494E46C6
:1083D0004F3A2D2D2D2D2D2D2D206E72665F64664A
:1083E000755F666C6173685F696E69742D2D2D2DE4
:1083F0002D2D2D0D0A0000003A494E464F3A4E6F82
:108400007420696E697469616C697A696E67207439
:108410006865207468696E670D0A0000396A070094
:108420003A494E464F3A4E6F7420696E69746961DD
:108430006C697A696E6720746865207468696E6714
:1084400020320D0A000000002DE9FF411746264AA0
:1084500006461D4610680024430723D5830707D529
:1084600022A1032000F0BCFF0A2004B0BDE8F08187
:1084700040F00100106090460A46BBB231462448E5
:108480000095FEF799FA040005D0024621A10320C9
:1084900000F0AAFF20E0D8F8001041F00101C8F870
:1084A000001019E031B12EB141EA0600800703D077
:1084B0000620DAE70320D8E787B13A46304600F0D5
:1084C000E9FF4DB10020CDE90260CDE9000501468C
:1084D000ADF80C706846A8472046C6E714A10320F3
:1084E00000F07EFF0420C0E7442C00203A494E46AD
:1084F0004F3A466C6173683A204661696C757265E3
:108500002073696E6365206C6173740D0A0000004E
:108510009C2C00203A494E464F3A466C6173683AAB
:10852000206661696C65642025640D0A0000000006
:108530003A494E464F3A466C6173683A20496E7626
:10854000616C6C6964206C656E67746820284E5697
:108550004D43290D0A00000038B5002000902BA1E2
:10856000032000F03DFF00F0E5FB6846FFF782F9CD
:10857000012420B12DA1032000F032FF0094FFF769
:10858000F9FC28B136A1032000F02AFF009417E07F
:108590000098A8B9FEF7B4FE90B1FEF7B1FE48B15D
:1085A0004FF4405439A10320A26800F01DFFA068D9
:1085B000FEF700FC3CA1032000F012FF002038BDB4
:1085C000414B424A05210020FDF738FA08B1FDF77A
:1085D0006BF93E4A142178320820FDF7EFF908B113
:1085E000FDF762F900F018FD040005D038A1032062
:1085F00000F0F6FE204638BD00F0D0F941A103207E
:1086000000F0EEFEFDF7BAF9FCE700003A494E46ED
:108610004F3A496E207265616C206E72665F6466C7
:10862000755F696E69740D0A000000003A494E4694
:108630004F3A436F756C64206E6F7420636F6E7475
:10864000696E756520444655206F70657261746966
:108650006F6E3A203078253038780D0A000000001F
:108660003A494E464F3A4170706C69636174696F64
:108670006E2073656E7420626F6F746C6F616465D9
:108680007220726571756573740A00003A494E462E
:108690004F3A4A756D70696E6720746F3A20307872
:1086A000253038780D0A00003A494E464F3A416667
:1086B000746572207265616C206E72665F646675A7
:1086C0005F696E69740D0A00255A0700F8320020B0
:1086D0003A494E464F3A436F756C64206E6F742072
:1086E000696E6974616C697A6520444655207472BC
:1086F000616E73706F72743A203078253038780D5F
:108700000A0000003A494E464F3A57616974696E53
:108710006720666F72206576656E74730D0A0000BF
:108720000021016041608160024801634163016191
:10873000416170471C3600201FB5054B01AC920803
:108740001B6A009384E80700684618DF04B010BD78
:10875000DCAF07001FB58908002201AB009283E857
:108760000700684618DF04B010BD00001FB592086E
:10877000930502D0092004B010BD044B1B68009380
:108780000392CDE90110684618DFF4E7DCAF07007B
:108790001FB5044B0FCB8DE80F00684618DF04B0FF
:1087A00010BD0000ECAF07002DE9F047054690F83A
:1087B0003D000126DFF8189103280DD00A26454F09
:1087C0007869002824D0012829D043A1032000F093
:1087D00007FE0A20BDE8F0873D4C4B481C34234679
:1087E000206020206060D9E903120520FEF7BAFB63
:1087F00000B10A26202205F13F012068FAF775FE34
:108800000028DCD041A1032000F0EAFD0526D6E7D0
:1088100044A1032000F0E4FD2E4C183405E049A1EA
:10882000032000F0DDFD2B4C24344FF00008012E16
:1088300005D0C4F808804046C4F8048032E049A15D
:10884000032000F0CDFD95F8250070B101280ED071
:1088500002280ED003280FD05FF00A0695F85F00BB
:1088600078B195F8600060B118E0012002E0A52021
:1088700003E0AA20A060F1E7AC20A060A86A7863BA
:10888000ECE795F8250020B1022805D0032805D192
:1088900002E06868B86001E06868F860B86C606021
:1088A000D9F8100020600B4820213830FAF70BFE71
:1088B0000848FF22B2215C30FAF7FEFD3648C7F8BF
:1088C000308000F07FFA00B10A26304682E70000CF
:1088D000002C00201C3600203A494E464F3A496E83
:1088E0007465726E616C206572726F722C20696E95
:1088F00076616C69642063757272656E7420626162
:108900006E6B0D0A00000000D83100203A494E4637
:108910004F3A48617368206661696C7572650D0A2B
:10892000000000003A494E464F3A43757272656E38
:10893000742062616E6B2069732062616E6B2030FF
:108940000D0A00003A494E464F3A43757272656E01
:10895000742062616E6B2069732062616E6B2031DE
:108960000D0A00003A494E464F3A537563636573EA
:108970007366756C6C792072756E207468652070F2
:108980006F737476616C69646174696F6E2063687B
:1089900065636B210D0A0000D598070070B50120B2
:1089A000FFF7F6FC00281BD10E4D0F4CA860A06B02
:1089B000A8B1FDF7BBFC90B1206A50B9A06940B1E5
:1089C000084A00210C322861FFF7F0FA0120A87054
:1089D00005E0E06A18B9A06908B1606AF0E7002014
:1089E00070BD0000002C00201C36002010B50C7853
:1089F0000F4B012C01D0062C07D10C79012C03D090
:108A0000022C01D0072010BD1C701B78012B07D051
:108A1000022B09D007A1032000F0E2FC052010BDC5
:108A2000BDE81040FEF754BDBDE81040FEF7F4BFAE
:108A3000002C00203A494E464F3A496E76616C69E7
:108A400064207265717565737420747970650D0AA0
:108A50000000000070B50D4606460CA1032000F092
:108A6000BFFC2946304600F045F8040001D011A1B2
:108A700006E029463046FEF7AFFC040004D015A1FD
:108A8000032000F0ADFC204670BD00003A494E4680
:108A90004F3A456E746572206E72665F6466755FEC
:108AA00073645F626C5F636F6E74696E75650D0AE7
:108AB000000000003A494E464F3A53442B424C3A8C
:108AC00020534420636F7079206661696C65640D82
:108AD0000A0000003A494E464F3A53442B424C3A62
:108AE00020424C20636F7079206661696C65640D6B
:108AF0000A0000002DE9FE4FDFF8FCB080465F461B
:108B0000DBF83000DBF8341000F58054081A00F66A
:108B1000FF70060B360340F6FF7000EB9600050B66
:108B20002D0336A1032000F05BFC386B796B00EB62
:108B3000080A41B1884206D13CA1032000F050FC54
:108B40000020BDE8FE8F4FF440503FA182890320F2
:108B500000F04AFC04EB0509CDE900490AEB0503E6
:108B60009846524642A10320029500F055FC2A4641
:108B700051462046FFF7FAFD070004D0534622462F
:108B80004B49009513E0CDE9004943465246494917
:108B90000320029500F040FC2A4651462046FFF78C
:108BA000CBFD070008D044495346224600950320D8
:108BB00000F029FC3846C4E7CDE900494346524657
:108BC0003EA10320029500F027FC4C46C246B54268
:108BD00001D9002600E0761B48A1032000F000FC2C
:108BE000DBF834100020891BCBF8301000F0EAF8D5
:108BF000002EAFD1A5E700001C3600203A494E46B2
:108C00004F3A456E746572206E72665F626F6F7464
:108C10006C6F616465725F6466755F73645F636FD8
:108C20006E74696E75650D0A000000003A494E4683
:108C30004F3A534420616C726561647920636F70B0
:108C40006965640D0A0000003A494E464F3A557076
:108C5000646174696E672053442E204F6C64205306
:108C600044207665723A203078253034780D0A0039
:108C70003A494E464F3A436F7079696E67205B30D0
:108C800078253038782D3078253038785D20746F2D
:108C9000205B3078253038782D3078253038785D75
:108CA0003A204C656E3A203078253038780D0A002D
:108CB000D4B4070040B407008CB407003A494E46CC
:108CC0004F3A56616C696461746564203078253070
:108CD00038782D30782530387820746F203078251A
:108CE0003038782D3078253038783A2053697A65D5
:108CF0003A203078253038780D0A00003A494E463F
:108D00004F3A46696E6973686564207769746820B4
:108D1000746865205344207570646174652E0D0A73
:108D200000000000002258210148FDF7D1B90000E1
:108D30002036002070B515A1032000F051FB1D491D
:108D400000204FF4AE7508702A461B491B48FAF7FD
:108D5000A1FB1A4C2068401C04D0FFF7E3FF2168F8
:108D6000814212D01649032000F03AFB29461348ED
:108D7000FAF7A9FB01206060002000F023F800282A
:108D800003D0BDE87040FCF78FBD70BD3A494E4638
:108D90004F3A72756E6E696E67206E72665F6466BA
:108DA000755F73657474696E67735F696E69740D5E
:108DB0000A000000482C002000F007001C360020AC
