:020000040000FA
:10000000E00B0020D5000000EF000000F100000030
:1000100000000000000000000000000000000000E0
:10002000000000000000000000000000F3000000DD
:100030000000000000000000F5000000F7000000D4
:10004000F9000000F901000045030000F90000007C
:10005000F900000000000000F9000000F9000000B5
:10006000F9000000F9000000F9000000F9000000AC
:10007000F9000000F9000000F9000000F90000009C
:10008000F9000000F9000000F9000000F90000008C
:100090004D020000F9000000F9000000F900000026
:1000A000F9000000F900000000000000000000005E
:1000B0000000000000000000000000000000000040
:1000C0000348854600F046F800480047390500001F
:1000D000E00B00200321094802680A430260084837
:1000E00002680A4302600748804707480047FEE766
:1000F000FEE7FEE7FEE7FEE7FEE70000240500401E
:1001000054050040A5020000C100000003460B4357
:100110009B0703D009E008C9121F08C0042AFAD2BD
:1001200003E00B780370401C491C521EF9D2704743
:10013000D2B201E00270401C491EFBD2704700227F
:10014000F6E710B513460A4604461946FFF7F0FFD6
:10015000204610BD064C0125064E05E0E36807CC9D
:100160002B430C3C98471034B442F7D3FFF7ACFF55
:10017000DC100000FC100000C106C90E0120884000
:10018000014908607047000080E100E0C106C90E27
:1001900001208840014908607047000000E100E04C
:1001A000C106C90E0120884001490860704700005F
:1001B00000E200E08307FF22DB0E9A408907090E68
:1001C000994000280BDA0007000F08388308084818
:1001D0009B001818C36993430B43C361704783089E
:1001E00004489B001B181868904308431860704728
:1001F00000ED00E000E400E0F8B5114C2068114E7D
:100200000027002803D07068C00700D02760E0688E
:100210000D4D002807D07068000704D5E760E86836
:10022000002800D080472069002807D07068C006E9
:1002300004D52761A868002800D08047F8BD0000D9
:100240000011004000130040280000207CB5144C31
:10025000206A01902078002820D00120FFF78CFF31
:100260006568002666600120FFF790FFA1690029FC
:1002700014D0E80702D0684606708847A80705D55D
:10028000012069460870A16968468847680705D556
:10029000022069460870A169684688477CBD000055
:1002A0002800002010B500F023F9002805D01F49D0
:1002B0001D484860C8131E4988611E48018CC9B298
:1002C00001290BD1828C120708D1028D1206120F60
:1002D000042A03D1828D1206120F0AD0012921D1DE
:1002E000818C09071ED1018D0906090F0A2904D046
:1002F00007E0114A01219160F5E7828D1206120F85
:1003000005D00D290ED1808D0006000F0AD10B48B3
:100310000168012904D00A49016001680129FCD162
:10032000C021416110BD0000DFFF07C00005004093
:10033000006C0040C00F00F00006004000EC0640DA
:100340007593000010B50249024800F089FD10BD08
:10035000900000200020004002E008C8121F08C1E1
:10036000002AFAD170477047002001E001C1121F36
:10037000002AFBD1704710B500F044F800BA10BD58
:10038000BFF34F8F04490348C860BFF34F8F00BFCE
:10039000FDE700000400FA0500ED00E00EB50021C5
:1003A000029000916A4601910148FFF7E9FF0EBDF6
:1003B0000140000010B50349085C012100F02EFB4C
:1003C00010BD0000D41000007CB50024074E254667
:1003D000305D0122009500231146019500F0FEFAE0
:1003E000641C042CF4D300F003F87CBDD41000008E
:1003F00010B500242046FFF7DDFF641C042CF9D360
:1004000010BD00000168094A0809114010400901A7
:100410000843074A81081040114080000143054A03
:100420004808114010404900084370470F0F0F0F54
:1004300033333333555555550448002101600121AC
:100440008205116001680029FCD07047000100405E
:1004500000B518A08BB00068089017A0006817A11D
:10046000099003C907910690182216496846FFF7BC
:100470004DFE012168464B220170D200828101723B
:1004800011480190002168464170017500F016F98D
:1004900000280DD108A800F0D1F9002808D109A83A
:1004A00000F0E4F9002803D1082106A800F0F6F9CD
:1004B0000BB000BDE7E7E7E7C2C2C2C2E7C2C3C4F0
:1004C000C5C6C7C8BC1000004906000070B50521AC
:1004D00008200F23090703220724240285006D1832
:1004E0002D192A60401C9842F8D9FFF76DFF70BDA6
:1004F0001048018CC9B2012917D1818C090714D188
:10050000018D09060A0F03D1828D1206120F0ED03B
:10051000090F012903D1828D1206120F07D003297A
:1005200003D1808D0006000F01D00020704701200C
:1005300070470000C00F00F0FFF7C8FFFFF77CFF17
:10054000FFF786FF002801D0FFF728FFFFF73CFFE9
:10055000274C284D284E294F0020E070244800F0F9
:10056000D9F9002834D1A079410703D04007400FC2
:10057000042801D9012100E00021152000F042FAF1
:10058000A0794007400F012801D9052801D9012190
:1005900000E00021162000F035FAA0794007400F56
:1005A000022801D9062801D9012100E000211720E5
:1005B00000F028FAA0794007400F032801D8012154
:1005C00000E00021182000F01DFAA079401CA07165
:1005D0003168284600BF00BF00BF00BF00BF00BF9A
:1005E00000BF00BFB94200D000BF401EF2D1B3E748
:1005F0000000002050C30000640000200024F4002C
:1006000010B50F200C49800288600C49002048700A
:1006100000F002FB24210A48FFF791FD0848092158
:100620000A38FFF78CFD1420FFF7A6FD05490320CB
:100630000860002010BD000000F5014028000020E7
:10064000BA0300200012004010B5044600780028CC
:100650000ED0012802D002280AD104E000F016F8DA
:1006600000F042F904E0074800F0ACF80028FAD0A6
:100670000F2105480903C16021790907090C816030
:1006800010BD0000680000200005005010B50948AA
:10069000007800280CD00120FFF76EFD06480021ED
:1006A0008162016241620120FFF770FD002010BDF0
:1006B000082010BD28000020EC01002070B50500C6
:1006C00068D0354C2078002803D0FFF799FF002828
:1006D0005FD16868A061182229463048FFF716FDEF
:1006E0000025656024212E48FFF729FD2C480921AB
:1006F0000A38FFF724FD00F069FC00F08DFA274965
:100700000020284A18312523434386005B18401CEB
:1007100093510828F7DB2349214A00202C317A3AEB
:100720002523434386005B18401C93510828F7DBC0
:100730001D480421016185601D491C4808601E4850
:100740001C4901621D4941621A49091D81621B4908
:10075000091DC1621649C03901631649F039416368
:100760001349BC3981631649C1630C4E707C810703
:10077000890F0120FFF71EFDB07C8107890F14202F
:10078000FFF718FD1420FFF701FD657001202070B0
:10079000002070BD0E2070BD28000020AC0000209D
:1007A000BA030020EC01002000A500400202000076
:1007B00000A200400011004040F5014000A00040B0
:1007C0000010004070B505461A48007800282AD06D
:1007D000002D2AD0184CA06A002828D00120FFF74D
:1007E000CBFC606A800021580A782A702158497829
:1007F000697021588978A97021580979297121587F
:10080000681D491DFFF782FC606A401C6062082871
:1008100001D300206062A06A401EA0620120FFF7A1
:10082000B5FC002070BD082070BD0E2070BD0520F5
:1008300070BD0000280000204003002010B50A49C8
:100840004978002901D0112010BD00280AD00146A6
:10085000054804222830FFF759FC012000F094FBE2
:10086000002010BD0E2010BD2800002010B50A4940
:100870004978002901D0112010BD00280AD0014676
:10088000054804222C30FFF741FC022000F07CFBDD
:10089000002010BD0E2010BD2800002010B50C4611
:1008A00010494978002901D0112010BD002803D03B
:1008B000092C03D3072010BD0E2010BD01460948A6
:1008C00022463030FFF722FC0648082128300A1B58
:1008D000FF210474D1408174042000F055FB0020F6
:1008E00010BD00002800002010B5084840780028FE
:1008F00001D0112010BD0648806A002803D000F006
:10090000F7F9002010BDFF20013010BD28000020A5
:10091000EC010020F8B52D4F0646387800280BD0A2
:10092000002E0BD0307800280DD020280BD8284D71
:100930002978002904D008E00820F8BD0E20F8BD71
:10094000E97C884201D90920F8BD224CA06A082818
:1009500001D30420F8BD6878002805D1F07800287C
:1009600002D0287D002824D00120FFF705FC206A52
:100970002522800020583146FFF7C8FB72781648C0
:10098000815C491C8907890F8154206A8200A25822
:10099000401C11712062082801D300202062A06A47
:1009A000401CA0620120FFF7F1FB6878002802D00C
:1009B00009E00620F8BD287C002804D178780028BA
:1009C00001D100F095F90020F8BD000028000020BA
:1009D000AC000020EC010020B003002070B55200F4
:1009E0000A439900049D0A432902059E0A433104E3
:1009F00005240A4324078000072100190902401832
:100A0000026070BD012282400348002901D082604B
:100A10007047C2607047000000050050012282400C
:100A20000348002901D082607047C260704700000F
:100A3000000500504058002800D0012070470322D4
:100A4000120280184068084000D001207047000062
:100A500010B5FF20134914300860134C616A134825
:100A6000016013498A89823A4260124A0120D060AB
:100A7000114A0020106050600723104A9B02536007
:100A8000531493600E4AD0600878002801D1216980
:100A900088470D490B4848600C48A06003206070EF
:100AA00010BD0000001200402800002040A50040BA
:100AB000AC00002000A0004040A1004000F5014033
:100AC000001100408E03002000150040090B0000BB
:100AD00010B50B4C606801210843606000F0A8F974
:100AE0000848806A002805D01420FFF759FB00F061
:100AF000FFF810BD002060701420FFF751FB10BDFF
:100B000028000020EC010020F8B50720354F8002B6
:100B1000B8603548C2683549354EC889354C01251D
:100B2000002A36D0344A1268002A32D075606A032F
:100B3000BA6062682A4362600E46E169401A401C4E
:100B4000206200F075F9307800280FD02B4800782B
:100B500000280BD02A48C06A0021C0B200F088F8F3
:100B6000002803D060680421084360602548806A3B
:100B7000002808D0307C012805D01420FFF710FB96
:100B800000F0B6F8F8BD002060701420FFF708FBF5
:100B9000F8BDE1694A1EE2610AD27560012149038C
:100BA000B960401C20626068022108436060EAE787
:100BB000FF2015491C30086060692169007888476A
:100BC0000E490F48223941601048A0600220607031
:100BD0003560000378600E4840680028D8D00D4882
:100BE0000560F8BD00F5014000110040AC00002098
:100BF00000A0004028000020001400408E030020C8
:100C000000150040EC01002000120040510A0000D5
:100C100040A10040001000400549002008624862E1
:100C20008862FF315531086248628862704700006F
:100C3000EC01002030B5FF220523CD7D00240932D0
:100C40001B02C318002D8450986905D04B7ECA68DA
:100C5000D054487E401C487630BD1FB501246B46F9
:100C60001C701972019206C8684690471FBD0000AB
:100C7000F8B51C4C0746A06A0E46082830D21A4A1E
:100C80002046006A137821464E3100258000012B52
:100C900004D05378002B07D0D27C02E00A78202AB7
:100CA0001ED823581A7001E0225815702058891C4C
:100CB0000278401DFFF72AFA206A810062585770B7
:100CC0000A4A92686358401C9A70615808280E714D
:100CD000206200D32562A06A401CA0620120F8BDFA
:100CE0000020F8BD40030020AC000020401500406B
:100CF000F8B5354C012525623448354F416A8900E5
:100D0000415861613878002802D0012840D10EE0B6
:100D100008782169884761692E480A7902700022A3
:100D200042700A78801C491DFFF7F0F916E0C87878
:100D3000002821D0387D00281ED0002625480A78BA
:100D400002700A79334652006B401A4342700A78A7
:100D5000801C491DFFF7DAF9002E0FD0FF201E4935
:100D60001C3008601D4911204860F889E0611C486A
:100D7000A060022060700BE00126DFE7FF2116482B
:100D8000143101601548102141601648A06065705B
:100D9000616915484A78C2624A78294691400163E0
:100DA00009492831C97C81600A4941600F49022004
:100DB00008600120FFF7EAF90D49002048608860CB
:100DC00008610C480560F8BD28000020EC010020F7
:100DD000AC0000206C030020001200400013004013
:100DE000510A0000D10A00000015004080E200E036
:100DF0000011004000100040FF221D3200238350EC
:100E00008B8A8A68D25C8B8A5B1C8B8205210902E3
:100E10004018C26170471FB500226B461A701972E4
:100E200081680191827506C8684690471FBD000021
:100E300010B50A4CA06A00280FD00120FFF79CF9DA
:100E4000A06A401EA062606A401C6062082801D34C
:100E5000002060620120FFF799F910BDEC0100202D
:100E6000F0B50C46012185B005464902FFF7E7FDC4
:100E7000032109026F180026002826D0FF21253102
:100E80002846FFF7D7FD00281FD0FF2025302E5021
:100E900081208000B860A07E002801D10120686018
:100EA0000221684601700920C001291808680860FD
:100EB0000390E17D68460172E0680190E675267650
:100EC00006CC6846083C90472DE004212846FFF7F1
:100ED000B6FD002827D0FF2109312846FFF7AAFDDB
:100EE000002820D021462846FFF7A4FEE07D617E41
:100EF000884218D1207E002807D0617EE268E07524
:100F00002069E060267666760AE0A07E002801D19E
:100F10000120686081208000B860E675617EE2682B
:100F20002046FFF79AFEFF271D3739462846FFF770
:100F300081FD00280FD0A08AA17D884204D22146DD
:100F40002846FFF759FF06E0EE51A17D002902D0A7
:100F50002046FFF760FFFF27453739462846FFF751
:100F600069FD00280ED0EE51A07E002801D001209E
:100F70002860E07D002805D0E675617EE2682046A5
:100F8000FFF76BFE05B0F0BD70B504460D4DC00710
:100F900003D00D48FFF7EFF9E861A00704D50A4830
:100FA000001DFFF7E8F92862600709D506480830F8
:100FB000FFF728FA686204480C30FFF723FAA862AA
:100FC00070BD0000001500405000002010B500F07A
:100FD00041F8194919480B7A03614024184A002B3B
:100FE0000BD0012B04D0022B04D0032B06D104E03C
:100FF000302300E0FA23536200E054620B78002BA8
:1010000003D0012B03D10F4B00E00F4B13614B7A40
:101010004363022B02D0012B04D008E00B4BC363C7
:101020000B4B03E0FF23C363FF2308338363C87CB8
:101030001169884710BD0000AC0000200015004079
:10104000280000209510000069100000FFFF00003C
:101050002110010002480349807AC86070470000EF
:10106000AC000020001500400849074A4A61084AC0
:101070000302527C521E12041A430243012000064E
:1010800002438A6170470000000101000015004022
:10109000500000200648054941610649064A497C3E
:1010A000491E0904114381617047000006000300D6
:1010B0000015004050000020200000010100000049
:1010C0000000000001020000FA00030000010220FD
:1010D000000000001516171811121314FC10000060
:1010E00000000020680000005803000064110000A8
:1010F00068000020780B0000680300000800000072
:1011000000010000001100000000000000000000CD
:1011100000000000000000000000000000000000CF
:1011200000000000000000000000000000000000BF
:1011300000000000000000000000000000000000AF
:10114000000000000000000000000000E7E7E7E703
:10115000C2C2C2C2E7C2C3C4C5C6C7C80805FF022F
:041160000024F40073
:04000005000000C136
:00000001FF
