:020000040000FA
:10000000002A0020B9060000C10600008506000095
:10001000C5060000C7060000C90600000000000079
:10002000000000000000000000000000CB060000FF
:10003000CD06000000000000CF060000D106000041
:10004000830A0000D3060000E10B0000D306000085
:10005000D3060000D306000001080000D30600000C
:10006000D3060000D3060000D3060000D30600002C
:10007000D3060000D3060000D3060000D30600001C
:10008000D3060000910A0000D3060000D30600004A
:10009000B50A0000D3060000D3060000D306000016
:1000A000D3060000D3060000D3060000D3060000EC
:1000B000D3060000D306000000000000000000008E
:1000C000D3060000D3060000D3060000D3060000CC
:1000D000D3060000D3060000D3060000FD0B00008D
:1000E000D3060000D3060000D3060000D3060000AC
:1000F00000000000D3060000000000000000000027
:1001000000000000000000000000000000000000EF
:1001100000000000000000000000000000000000DF
:1001200000000000000000000000000000000000CF
:1001300000000000000000000000000000000000BF
:10040000DFF80CD000F0CAF900480047D9310000ED
:10041000002A002030B4044654E8000F0D4644E89A
:100420000053002BF8D1156030BC704730B404463F
:1004300054E8000F40EA010544E80053002BF7D1CF
:10044000156030BC704730B4044654E8000F00EA31
:10045000010544E80053002BF7D1156030BC70470C
:1004600030B4044654E8000F80EA010544E8005324
:10047000002BF7D1156030BC704730B4044654E807
:10048000000F00EB010544E80053002BF7D1156085
:1004900030BC704730B4044654E8000FA0EB0105AF
:1004A00044E80053002BF7D1156030BC70470000C2
:1004B00030B4044654E8000F0D4644E80053002BC6
:1004C000F8D1156030BC704730B4044654E8000FD2
:1004D00040EA010544E80053002BF7D1156030BC19
:1004E000704730B4044654E8000F00EA010544E8C0
:1004F0000053002BF7D1156030BC704730B4044670
:1005000054E8000F80EA010544E80053002BF7D1BE
:10051000156030BC704730B4044654E8000F00EB5F
:10052000010544E80053002BF7D1156030BC70473B
:1005300030B4044654E8000FA0EB010544E8005332
:10054000002BF7D1156030BC7047000030B4044672
:1005500054E8000F0D4644E80053002BF8D1156015
:1005600030BC704730B4044654E8000F40EA01053F
:1005700044E80053002BF7D1156030BC704730B40D
:10058000044654E8000F00EA010544E80053002B3C
:10059000F7D1156030BC704730B4044654E8000F02
:1005A00080EA010544E80053002BF7D1156030BC08
:1005B000704730B4044654E8000F00EB010544E8EE
:1005C0000053002BF7D1156030BC704730B404469F
:1005D00054E8000FA0EB010544E80053002BF7D1CD
:1005E000156030BC7047000030B4044654E8000F7A
:1005F0000D4644E80053002BF8D1156030BC70471D
:1006000030B4044654E8000F40EA010544E80053C2
:10061000002BF7D1156030BC704730B4044654E865
:10062000000F00EA010544E80053002BF7D11560E4
:1006300030BC704730B4044654E8000F80EA01052E
:1006400044E80053002BF7D1156030BC704730B43C
:10065000044654E8000F00EB010544E80053002B6A
:10066000F7D1156030BC704730B4044654E8000F31
:10067000A0EB010544E80053002BF7D1156030BC16
:1006800070470000094B1EF0040F1CBFEFF30980F8
:100690001847EFF308800649064A884201D890427D
:1006A00002D88D464FF0000018470000C509000031
:1006B000002A0020000A002006488047064800471C
:1006C000FEE7FEE7FEE7FEE7FEE7FEE7FEE7FEE702
:1006D000FEE7FEE7B90A0000010400000048704789
:1006E000B062000040EA01039B0703D009E008C99B
:1006F000121F08C0042AFAD203E011F8013B00F8E7
:10070000013B521EF9D27047D2B201E000F8012B32
:10071000491EFBD270470022F6E710B513460A4681
:1007200004461946FFF7F0FF204610BD421C10F8A2
:10073000011B0029FBD1801A70472DE9F05F0546A7
:10074000002092469B4688460646814640241BE090
:10075000284641464746224600F041F853465A464D
:10076000C01A914110D311461846224600F028F8CD
:100770002D1A67EB01084F4622460120002100F0A8
:100780001FF817EB00094E41201EA4F10104DFDC25
:10079000484631462A464346BDE8F09F064C074D81
:1007A00006E0E06840F0010394E807009847103441
:1007B000AC42F6D3FFF728FE746400009464000096
:1007C000202A04DB203A00FA02F100207047914011
:1007D000C2F1200320FA03F3194390407047202A06
:1007E00004DB203A21FA02F00021704721FA02F3DB
:1007F000D040C2F1200291400843194670470000E2
:100800002DE9F04F00268FB0DFF8B081B146029697
:100810004FF48075012437460396284603F0C4FE42
:1008200038B1D8F80403204203D0284603F0B2FEC2
:1008300026432D1D64007F1CADB2082FEDD34FF46D
:10084000BE74204603F0B0FE48B1204603F0A2FE7D
:1008500046F0004602AA0221002003F061FE584C37
:1008600016F0FF0F15D00127002537420DD008EBF9
:100870008501D1F81005D1F81015C0F3062054F801
:100880002520C1F3014102B190477F006D1C082D66
:10089000EBD3002E7DDA0020CDF82890411E0DF11B
:1008A000080B08AACDF82C9042F82010401C914665
:1008B0000228F9D300252E46A01910F8607F90F980
:1008C000000027F0C008401C49D008A9404602F0AB
:1008D00017FD88B34FEA971A404602F00FF854F814
:1008E00020701FB1BAF1030F03D00FE0BAF1030F6C
:1008F00035D10AA84FEAD80208F00703815C4FF00F
:10090000010C0CFA03FC41EA0C01815406A8CDF855
:10091000188003F07FFD069900EB8100D0F80007F6
:1009200002A9C0F301400690404602F0E9FC00280D
:10093000069802D0022802D011E003280FD1BAF1A4
:10094000030F08D10698022832D00221404603F056
:1009500015FD6D1CEDB217B151464046B847761CE7
:10096000042EA9D3002D20D004AA0221002003F0D8
:10097000D7FD00205A4604A952F8206051F82030D3
:10098000B34217D000200AAE4FEA090351F8207095
:1009900000E00AE042F8207056F8207043F820701A
:1009A000401C0228F2D3002D84D10FB0BDE8F08F97
:1009B0000321CBE7401C0228DED3F6E700600040AD
:1009C000040200200446826909A1012004F022F8F3
:1009D00003F054FF03F056FF0028FBD10D480460DC
:1009E0000D480068C00700D000BE204600F016F891
:1009F000484152444641554C543A4552524F523A5E
:100A0000486172646661756C742050433A25780DB4
:100A10000A000000D4000020F0ED00E0BFF34F8F8B
:100A200005480168054A01F4E06111430160BFF324
:100A30004F8F00BFFDE700000CED00E00400FA0559
:100A400000F01F02012191404009800000F1E020E8
:100A5000C0F88012704700F01F0201219140400948
:100A6000800000F1E020C0F80011704700F01F0284
:100A7000012191404009800000F1E020C0F80012FF
:100A8000704710B502F09CFDBDE8104002F034BE86
:100A900007480021C0F84011C0F84411C0F84811BF
:100AA000C0F84C11C0F80011C0F8041104F05CBE8D
:100AB0000010014004F0F4BD30B54FF0805000212B
:100AC000D0F830210124082A02D1D0F8343113B1F2
:100AD000082A09D00BE04FF08042C2F80C11C2F88E
:100AE0001011334A116005E0D0F8343113B1082AEF
:100AF00004D006E0304B2F4A1A6005E0D0F83431BC
:100B000013B1082A04D006E02C4BFB221A6005E042
:100B1000D0F8343113B1082A08D00EE090F85832DA
:100B20002748026863F30302026002E0D0F8340150
:100B300018B9244A4FF4007010602348026842F448
:100B400070020260BFF34F8FBFF36F8F4FF0102220
:100B5000D2F80002002803DBD2F80402002822DACF
:100B60001A4B1C601A480468002CFCD01224C2F8EE
:100B700000420568002DFCD0C2F804420268002A39
:100B8000FCD0196001680029FCD0BFF34F8F0E48DC
:100B90007C3801680F4A01F4E06111430160BFF342
:100BA0004F8F00BFFDE70D490B48086030BD0000C6
:100BB00038050040488103008C56004018F500407D
:100BC000E40E00404096024088ED00E004E501405C
:100BD00000E401400400FA050090D003E800002082
:100BE0000448017F04480029024901D004F0EFBE07
:100BF00004F05EBE6C020020002000402DE9F05F92
:100C00004E48D0F8045300242E46DFF834B14FF09C
:100C10000108DFF8309113E096FAA6F0B0FA80F7F9
:100C2000B80000F58070824604F048F928B15046BB
:100C300004F04CF908FA07F0044308FA07F0864379
:100C4000002EE9D1B2464E463069C6F810A02840C1
:100C50000443B078F0BBA0025AD5394940F2A979D3
:100C6000091FC1F80090DBF80020584612F0FF0C75
:100C700002D0026802EA0C0C40F2AA7EC1F800E041
:100C8000026812F0FF0201D003681A4040F2AB7311
:100C90000B60036813F0FF0301D007683B4040F28C
:100CA000AC770F60076817EA0C0709D0D6F814C0B4
:100CB0004CEA070CC6F814C0C1F80090076007683A
:100CC00040F2AD770F600768174009D0726942EAB9
:100CD000074200E01CE07261C1F800E007600268B2
:100CE00040F2AE720A6002681A400CD0D30701D0FD
:100CF00044F40004D30601D544F0010440F2AB7380
:100D00000B6002600068706910B105F080700443E8
:100D1000DFF8349054B194FAA4F0B0FA80F759F89F
:100D20002700804708FA07F08443F3E704F032FF16
:100D30003069054288D1BDE8F09F00000070024094
:100D400004780240980000202861000070470000ED
:100D500070B5134804680460BFF36F8FBFF34F8F03
:100D6000BFF36F8FBFF34F8F0E4841690C430021D3
:100D7000012641610DE000BF94FAA4F0B0FA80F5BD
:100D8000284601F080FC06FA05F18C43294605F05F
:100D9000ABF8002CF0D1BDE8704004F0FBBE0000C1
:100DA0006C74024098000020F8B50D480468204695
:100DB00004F098F8BFF36F8FBFF34F8F094D0A4EC1
:100DC000E00504D5A86A0090716868468847A005C8
:100DD00004D5E86A0090716868468847F8BD00004D
:100DE00000740240F460000098000020F8B51A4832
:100DF00000681A4DC6B2687801F082FE012404FA38
:100E000000F12889EA68C04380B21043014202D051
:100E1000687804F0E3FF06F080006870002001F0BD
:100E20006FFE04FA00F6802001F06AFE04FA00F07A
:100E300006430A48F1430C3002F05CFA802001F0CE
:100E40005FFE8440A86804430548AC60406A009097
:100E5000696868468847F8BD8074024098000020A1
:100E6000F460000010B5054C607801F049FE0146C1
:100E70006078BDE8104005F037B800009800002009
:100E800038B5002000900B480068ADF802008820BB
:100E900001F036FE012505FA00F4082001F030FECD
:100EA000054985402C43886804438C60496868463E
:100EB000884738BD207502409800002070B50B4867
:100EC00004680460BFF36F8FBFF34F8F012609E002
:100ED00094FAA4F0B0FA80F5284601F0D4FB06FAA3
:100EE00005F08443002CF3D170BD0000687402400B
:100EF00038B5064C0020607004F0D6FF0448406806
:100F0000009061686846884738BD0000980000205E
:100F1000F46000000F4910B500208870802001F0B7
:100F200023FE04464C2003F0F3FF6069002810D133
:100F3000204605F007F800280BD1802001F0E0FDE5
:100F4000012181400348C943BDE810400C3002F044
:100F5000D1B910BD98000020812003F029BE822065
:100F600003F026BE832003F023BE842003F020BEBE
:100F7000852003F01DBE862003F01ABE872003F0F3
:100F800017BE882003F062BE38B5104C0020A07058
:100F900001F0EAFD416911B904F0D4FF20B1BDE8C8
:100FA00038404C2003F0B4BF002001F0A9FD01211E
:100FB00081400648C9430C3002F09CF90448C068DF
:100FC000009061686846884738BD0000980000209E
:100FD000F4600000012003F071BE022003F06EBE39
:100FE000032003F06BBE042003F068BE052003F06D
:100FF00065BE062003F062BE072003F05FBE082036
:1010000003F028BF0FB41CB50A46521ECDE90002FA
:1010100007A9054B6A46069800F018F8009A0021C7
:1010200011701CBC5DF814FBAF14000002E008C88E
:10103000121F08C1002AFAD170477047002001E052
:1010400001C1121F002AFBD1704700002DE9FF4F9C
:101050008DB00F460546002606E025280BD0DDE9B9
:101060000F1290476D1C761C28780028F5D111B01E
:101070003046BDE8F08F0024A246A1460122EC498B
:1010800000E0044315F8013F203B02FA03F0084258
:10109000F7D128782A2810D06FF02F022878A0F1F5
:1010A0003001092914D80AEB8A0102EB410144F00E
:1010B000020400EB010A6D1CF0E701CF5FEA000AB1
:1010C00003D544F40054CAF1000A44F002046D1C34
:1010D00028782E2817D115F8010F44F004042A2887
:1010E0000ED06FF02F022878A0F1300109290AD81C
:1010F00009EB890102EB410100EB01096D1CF2E7EC
:1011000057F8049B6D1C28786C280FD006DC4C28FF
:1011100017D068280DD06A2814D104E0742810D0A4
:101120007A280FD10DE044F400140AE044F480144E
:1011300001E044F440146978814202D104F580143E
:101140006D1C6D1C2A786E2A1FD00CDC632A31D0EE
:1011500004DC002A8BD0582A11D1A3E0642A68D07D
:10116000692A0CD165E0732A2ED004DC6F2A73D073
:10117000702A04D19BE0752A6FD0782A6ED0104671
:10118000DDE90F129047761C50E1C4F302500228AB
:1011900006D0032809D0042801CF09D0066045E114
:1011A00001CFF117C0E9006140E101CF06803DE1C8
:1011B00006703BE117F8040B8DF8000000208DF855
:1011C0000100EB46012003E057F804BB4FF0FF306D
:1011D00061074FF0000102D40DE008F101018846DB
:1011E00049450FDA8045F8DB1BF808100029F4D1D7
:1011F00008E008F1010188468142FADB1BF808107B
:101200000029F6D1DDE90F23AAEB0800814621462B
:1012100000F036F9304400EB080604E0DDE90F1277
:101220001BF8010B9047B8F10108F7D22146484658
:10123000F7E00A21C4F302534FF0000B0891022B90
:1012400004D001CFC117032B09D00AE0FF1D27F0FE
:101250000707F7E8020108E032E01FE020E000B2F3
:10126000C117042B01D140B2C117031E71F1000355
:1012700007DA4FF0000CD0EB0C006CEB01012D23D2
:1012800002E0230504D52B238DF82430012303E04D
:10129000E30701D02023F7E7984658E00A2110E041
:1012A00010210EE010204FF0000B08900CE01021F0
:1012B0004FF0000B44F004044FF00809089103E0DC
:1012C00008214FF0000B0891C4F30253022B04D005
:1012D00001CF0021032B06D006E0FF1D27F00707F2
:1012E000F7E8020103E080B2042B00D1C0B24FF056
:1012F000000823072BD5702A07D0DDF820C08CF01A
:10130000100C5CEA0B0C05D00EE040238DF8243065
:10131000012308E050EA010306D030238DF8243081
:101320008DF8252002239846DDF820C08CF0080CAB
:101330005CEA0B0C0BD150EA010301D1630706D51F
:1013400030238DF824304FF00108A9F10109582A03
:1013500004D038A20B9208AA0A920BE03AA2F9E74D
:101360005B46089AFFF7E9F90B9B9B5C0A9A521EB1
:101370000A92137050EA0102F2D10A98ADEB000014
:1013800000F1200B600702D524F4803401E04FF017
:101390000109D94502DDA9EB0B0000E0002000EBBC
:1013A0000B0141440890AAEB010AE00306D4DDE9F1
:1013B0000F232146504600F063F806444FF0000921
:1013C00008E009A911F80900DDE90F12904709F1B9
:1013D0000109761CC145F4DBE0030CD5DDE90F23E0
:1013E0002146504600F04CF8064404E0DDE90F12B7
:1013F00030209047761C0899481E08900029F5DC9B
:1014000008E00A980A990078491C0A91DDE90F1250
:101410009047761CBBF10001ABF1010BF1DC2146DA
:101420005046DDE90F2300F019F806446D1C1BE659
:1014300009280100303132333435363738396162AA
:10144000636465660000000030313233343536376E
:101450003839414243444546000000002DE9F0413F
:10146000044600251E461746880404D405E0394684
:101470002020B0476D1C641EF9D52846BDE8F081D8
:101480002DE9F041044600251E469046C80301D5CB
:10149000302700E02027880404D505E0414638467F
:1014A000B0476D1C641EF9D52846BDE8F0814A6836
:1014B000002A06D00A68531C0B6010704868401E52
:1014C0004860704770B50D460646144608A10120D5
:1014D00003F07AFA03F0D2F903F0D4F90028FBD133
:1014E000224629463046BDE8704000F019B8000099
:1014F0004150505F4552524F523A4552524F523A24
:10150000466174616C0D0A000EB5ADF80010CDE9AE
:1015100001206A46002144F20100FFF7D3FF0EBD0F
:1015200008B501238DF800309DF80030144B186089
:1015300059609A606FF48041401807D001280FD19C
:10154000DA60D86800889861D86807E01A6118697D
:101550008068586118690088986118694068D86186
:10156000186858689868D868186958699869D86977
:1015700072B600BF9DF800000028FBD162B608BD1E
:10158000C404002070B505460648046807E02946F3
:10159000204601F0BBF9204600F02AF90446002C51
:1015A000F5D170BD4800002070B5064609480625F3
:1015B00004680AE03146204601F0A8F905460628ED
:1015C00005D1204600F014F90446002CF2D128463B
:1015D00070BD000048000020F8B5040004D138A117
:1015E0004FF4EB7001F044F8606820B934A140F288
:1015F000D71001F03DF86068006820B930A14FF4C1
:10160000EC7001F035F82068006820B12CA140F2A0
:10161000D91001F02DF802F037FD10B902F03EFDAF
:1016200020B927A140F2DD1001F022F800250FE0DB
:10163000002705E0007800F083FC08B11120F8BD18
:101640003946781CC7B2304600F082F80028F1D144
:101650002946681CC5B2204600F0A2F80600E7D172
:1016600000250DE0002703E00078214600F06EFC25
:101670003946781CC7B2304600F06AF80028F3D12A
:101680002946681CC5B2204600F08AF80600E9D158
:10169000194D40F2032607E0A04203D108A13046CD
:1016A00000F0E6FF2868056828680028F4D1134890
:1016B0002C606946C0680090204601F027F9F8BD0B
:1016C0002E2E5C2E2E5C2E2E5C2E2E5C2E2E5C2E54
:1016D0002E5C636F6D706F6E656E74735C6C6962A7
:1016E0007261726965735C757362645C6170705F6E
:1016F000757362642E63000048000020F85F0000EC
:101700002DE9F0410E461D461746194601F036F9FF
:10171000020014D0002421462B680EE0101990F826
:1017200001C0B44507D18F4203D101782960BDE8DB
:10173000F081491CC9B200780444A342EED80020CD
:10174000F5E70000014800687047000048000020ED
:1017500070B50D46040003D10649C22000F088FF91
:101760006078A84201D8002070BDA07820442844A9
:1017700070BD0000B462000070B50D46040003D1D6
:101780000649C22000F074FF6078A84201D800200A
:1017900070BDA0782044284470BD0000B4620000F1
:1017A00070B50D46040003D106498F2000F060FF9C
:1017B000207AA84201D8002070BD05EB450009340D
:1017C000204470BDB462000070B50D46040003D122
:1017D00006498F2000F04CFF207AA84201D8002053
:1017E00070BD05EB45000934204470BDB4620000B3
:1017F00010B5040004D104494FF4867000F038FF9E
:101800002068006810BD0000B420000010B504007E
:1018100004D104A14FF4867000F02AFF206800680C
:1018200010BD00002E2E5C2E2E5C2E2E5C2E2E5C0B
:101830002E2E5C2E2E5C636F6D706F6E656E7473F2
:101840005C6C69627261726965735C757362645C19
:101850006170705F757362642E68000070B504007B
:1018600004D11CA140F26B2000F002FF606820B997
:1018700018A14FF41B7000F0FBFE6068006820B9EF
:1018800014A140F26D2000F0F3FE02F0FDFB10B950
:1018900002F004FC20B90FA140F26F2000F0E8FE36
:1018A0002068406820B10BA140F2722000F0E0FEF9
:1018B000164D40F2792608E0A04203D105A130463A
:1018C00000F0D6FE286805682D1D28680028F3D191
:1018D0002C6070BD2E2E5C2E2E5C2E2E5C2E2E5C6F
:1018E0002E2E5C2E2E5C636F6D706F6E656E747342
:1018F0005C6C69627261726965735C757362645C69
:101900006170705F757362642E6300004C0000208C
:1019100010B5040004D111A14FF4217000F0A8FE0D
:1019200002F0B2FB10B902F0B9FB20B90BA140F2F2
:10193000862000F09DFE17480BE0A14207D12168E8
:1019400049680160206800214160084610BD0868B0
:10195000001D01680029F0D1052010BD2E2E5C2E3F
:101960002E5C2E2E5C2E2E5C2E2E5C2E2E5C636F3B
:101970006D706F6E656E74735C6C696272617269B2
:1019800065735C757362645C6170705F75736264CB
:101990002E6300004C0000200C4808B58178002917
:1019A00013D040784008C0070FD008480121001D1F
:1019B0006A46FEF73BFD002807D105490120086073
:1019C000BDE80840582003F097BA08BD5000002039
:1019D0000875024010B520B909A140F2594000F045
:1019E00047FE16498878401C10F0FF00887006D129
:1019F000BDE8104002A140F25C4000F039BE10BDCD
:101A00002E2E5C2E2E5C2E2E5C2E2E5C2E2E5C2E10
:101A10002E5C636F6D706F6E656E74735C6C696263
:101A20007261726965735C757362645C6170705F2A
:101A3000757362645F636F72652E630050000020EF
:101A400010B520B908A140F2614000F011FE154C1C
:101A5000A07820B904A140F2634000F009FEA0780C
:101A6000401EA07010BD00002E2E5C2E2E5C2E2E6F
:101A70005C2E2E5C2E2E5C2E2E5C636F6D706F6E56
:101A8000656E74735C6C69627261726965735C75B2
:101A90007362645C6170705F757362645F636F72C0
:101AA000652E630050000020044B1B7823F01003C8
:101AB000052B01D00820704702F01EBA500000200C
:101AC0002DE9FE435F4C0E4607460A7806250321A2
:101AD00020784FF000094FF002080A2A69D2DFE8A7
:101AE00002F0680507112A976B737D86217060E00C
:101AF00020B955A140F2A63000F0BAFD207840F0A0
:101B0000100015E04F480021001D6A46FEF79BFCBF
:101B100010B15C2003F0F0F9207830F0100004D10F
:101B200049A140F2B23000F0A3FD207800F0EF00B0
:101B3000207000253DE004208DF8000003250DF104
:101B4000010002F0D5FA9DF8010010F01F0006D048
:101B5000012809D002280DD0032828D11AE06946AF
:101B6000384603F0EBFA18E09DF80500694600F0EE
:101B7000CDFB12E09DF8050010F0FF0F05D09DF899
:101B80000500694600F098F907E03E48694600F014
:101B900031F902E06846FFF707FD05004DD006E089
:101BA00002F0A3FA05E000BF02F096FA01E002F0AD
:101BB000C7FA2846BDE8FE8320B123A140F2BE301B
:101BC00000F056FD0120B3E7012804D01EA140F229
:101BD000C53000F04DFD84F80090AAE72A4884F84B
:101BE0000080006810F0010FA3D02170A1E720F061
:101BF0001000022804D814A140F2D63000F038FDBD
:101C00002078C00601D5122092E784F8008090E782
:101C1000B07830B1802804D00BA140F2E63000F05B
:101C200027FD0849F07808310A6822B1C1F8009010
:101C300049689047B1E70E25B9E703F041FF002856
:101C4000B2D0ADE7500000202E2E5C2E2E5C2E2E42
:101C50005C2E2E5C2E2E5C2E2E5C636F6D706F6E74
:101C6000656E74735C6C69627261726965735C75D0
:101C70007362645C6170705F757362645F636F72DE
:101C8000652E63003C60000038040040024A0146B3
:101C9000D2E90002104700005001002070B50C4648
:101CA000054602F013FAA84201D0102070BD034887
:101CB000D4E90012C0E90212002070BD50000020DB
:101CC00070B5044615460E46000704D00BA140F23D
:101CD0003F4000F0CDFC1848007820F01003052BA1
:101CE00005D0042B03D0032B01D0082070BD2A4659
:101CF00031462046BDE8704002F0FEB82E2E5C2E24
:101D00002E5C2E2E5C2E2E5C2E2E5C2E2E5C636F97
:101D10006D706F6E656E74735C6C6962726172690E
:101D200065735C757362645C6170705F7573626427
:101D30005F636F72652E6300500000207CB5C08821
:101D400014460E46A04201D2054600E015468442E4
:101D500007D2802002F012F8B4FBF0F100FB114032
:101D600078B100200D49C870CDE90065002000F071
:101D7000BDFB0B4A69468020FFF7A2FF040002D09A
:101D800007E00120EEE7064980200839FFF786FFCB
:101D90000446002000F0D8FB20467CBD5000002007
:101DA0001460000008B14021016001487047000044
:101DB000980100200A782AB10022026042600A706D
:101DC000012070470020704710B502F06FF908B18C
:101DD00000F068FBBDE8104001F0C2BE10B501F094
:101DE00001FF03480168C1F340010029FAD010BD8A
:101DF000380400402DE9F84380260D468046002730
:101E00001BE0F9B24046FFF7CBFC90F801906E79E9
:101E1000040003D12749DA2000F02AFCA078617879
:101E20000219002004E0145CB44203D0401CC0B28C
:101E30008142F8D8484504D17F1C98F80800B84280
:101E4000DFD898F80800B8421FD0A87820B1012840
:101E500018D0032819D10EE06846FFF7A3FF044607
:101E6000304601F0EDFF208002222146681CFFF77A
:101E700065FFBDE8F883B5F8030030B9304601F0DE
:101E8000C5FF14E0B5F8030008B10620F1E73046BD
:101E900002F02CFE012803D00121304602F032FE70
:101EA00006F00F00082802D2304601F0D1FF0020D2
:101EB000DFE70000B462000010B50C4600F00AF83D
:101EC000006820B12146BDE8104000F01FBD102081
:101ED00010BD000010B5010600F00F0407D5092C55
:101EE00003D308A1BB2000F0C3FB144807E0092C72
:101EF00003D304A1C12000F0BBFB1048483000EB25
:101F0000C40010BD2E2E5C2E2E5C2E2E5C2E2E5C60
:101F10002E2E5C2E2E5C636F6D706F6E656E74730B
:101F20005C6C69627261726965735C757362645C32
:101F30006170705F757362642E6300000801002099
:101F400010B5FFF7C7FF006810BD000070B50D4663
:101F50000646FFF7BFFF0446056015B168680068D4
:101F600007E00EB1802E03D103A1E52000F080FB35
:101F70000020606070BD00002E2E5C2E2E5C2E2E88
:101F80005C2E2E5C2E2E5C2E2E5C636F6D706F6E41
:101F9000656E74735C6C69627261726965735C759D
:101FA0007362645C6170705F757362642E630000BD
:101FB00070B5314C0546206820B930A140F20310BD
:101FC00000F056FB2878062851D2DFE800F0031D08
:101FD000251D282D64683CB14FF49476294620468F
:101FE00000F094FC5CB906E024A140F20B10BDE8BF
:101FF000704000F03DBB2FA1304600F039FB206857
:102000004468002CEAD170BD2846FFF73FFE284601
:10201000BDE87040FFF7B6BA2846FFF7B3FA284686
:10202000BDE87040FFF732BEA878FFF753FF0446C3
:10203000006820B911A140F2311000F019FB60686E
:1020400020B90EA14FF4997000F012FBD4E9000200
:10205000294690470028D6D0A8780107D3D000F0B1
:102060000F010829CFD2BDE8704001F0CFBE03A117
:102070004FF4A170BBE70000480000202E2E5C2E1C
:102080002E5C2E2E5C2E2E5C2E2E5C2E2E5C636F14
:102090006D706F6E656E74735C6C6962726172698B
:1020A00065735C757362645C6170705F75736264A4
:1020B0002E6300002E2E5C2E2E5C2E2E5C2E2E5CAF
:1020C0002E2E5C2E2E5C636F6D706F6E656E74735A
:1020D0005C6C69627261726965735C757362645C81
:1020E0006170705F757362642E6800002DE9F041C5
:1020F00007461878002416460D460A2830D2DFE835
:1021000000F0050E3C4211164C5966725988104673
:1021100000F012FF002863D0E869816829E00321FC
:10212000104651E02946384603F04AF823E09878F3
:1021300000060FD5D87820B905222946384603F085
:1021400013FF70680028E7D00321304600F0C6F87E
:10215000002445E0E869C06810B1D87810B106E005
:1021600006243DE004222946384603F0FDFEE869D6
:10217000C16838468847044632E00221104600F024
:10218000BDF8002228E00221104600F0A7F8012245
:102190002946384603F0E8FEBEE73846FFF75EFB07
:1021A00004001DD13846FFF715FC0021304600F031
:1021B000A5F815E03846FFF7ABFB040010D1384610
:1021C000FFF73EFC0021304600F088F808E00121CE
:1021D000104600F093F802222946384603F0C4FE68
:1021E0002046BDE8F0810121104600F077F8032277
:1021F000F2E710B500F050FD007C10BD10B50C46A4
:1022000000F04AFDC068E04040F30000401C10BDF3
:102210002DE9F843984617460E46814600F03CFDEE
:10222000044609F1100531464846FFF7E7FF30B193
:102230003146284600F032F8050007D102E01120AF
:10224000BDE8F88314498C2000F012FAC5E9007843
:1022500006B13E70012104F10C00B1406A46FEF760
:10226000CFF920686FEA900040F30000401C02D0D4
:10227000FFF792FB0EE020686FEAD00040F3000009
:10228000401C90F0010F05D031464846BDE8F843A8
:1022900000F014BE0020D3E7C863000070B50D46FF
:1022A000040004D106494FF4EB7000F0E1F96069D5
:1022B000A84201D8002070BD206900EBC50070BDA8
:1022C0008063000010B5040004D103494FF4BA70D4
:1022D00000F0CEF9A06910BD20640000012208B50D
:1022E0008A40D1436A46FEF74AF908BD012208B583
:1022F0008A40D1436A46FEF790F908BD0A4608B500
:10230000012191406A46FEF72DF908BD2DE9F04103
:10231000144C07468846206820B913A140F22730A4
:1023200000F0A6F9256817E02E7A00240EE0214679
:102330002846FFF735FA0078B84205D141462846CD
:10234000BDE8F04100F0E2BA641CE4B2B442EED35E
:102350002846FFF74DFA0546002DE5D11020BDE8CF
:10236000F0810000480000202E2E5C2E2E5C2E2EC8
:102370005C2E2E5C2E2E5C2E2E5C636F6D706F6E4D
:10238000656E74735C6C69627261726965735C75A9
:102390007362645C6170705F757362642E630000C9
:1023A000F8B5194801F024FE00282CD11748002167
:1023B0000160416048211648FEF7ADF914484821F4
:1023C0004830FEF7A8F9134D00240DE0002703E084
:1023D00000782946FFF7BAFD3946781CC7B2304667
:1023E000FFF7B6F90028F3D12146601CC4B2284695
:1023F000FFF7D6F90600E9D1074869460068009062
:10240000284600F083FAF8BDB11F00004800002004
:10241000080100203C600000F85F000038B58878B3
:102420000C4608B1062038BD6846FFF7BBFC0146E4
:10243000002008800222601CFFF780FC38BD0000ED
:1024400038B51548154D01244068009055F8340002
:1024500018B144F0800001F017FC641CE4B2092CB0
:10246000F4D30E4D0124483555F8340010B1204600
:1024700001F00AFC641CE4B2092CF5D36846FFF7AE
:1024800005FC6846FFF77EF80548406800B101206A
:1024900001F05AFE38BD0000F85F0000080100207E
:1024A00048000020064808B58068009001F090FEC2
:1024B0006846FFF767F86846FFF7E8FB08BD0000CD
:1024C000F85F0000074918B1052803D300207047C2
:1024D00008687047044A105C0028FAD051F82000C0
:1024E0007047000074000020E060000010B502F0AA
:1024F000B5FD012803D004A1282000F0B9F8BDE8FB
:10250000104000F04FB800002E2E5C2E2E5C2E2EB8
:102510005C2E2E5C2E2E5C2E2E5C636F6D706F6EAB
:10252000656E74735C6C69627261726965735C7507
:1025300074696C5C6170705F7574696C5F706C61FC
:1025400074666F726D2E630010B502F087FD01286E
:1025500003D004A1362000F08BF8BDE8104000F055
:1025600029B800002E2E5C2E2E5C2E2E5C2E2E5CAA
:102570002E2E5C2E2E5C636F6D706F6E656E7473A5
:102580005C6C69627261726965735C7574696C5CBC
:102590006170705F7574696C5F706C6174666F7286
:1025A0006D2E630072B602480168491C01607047D5
:1025B000D000002003490868401E086000D162B6C0
:1025C00070470000D000002070B5054608680C4632
:1025D000411C04D001F086FF206801F0C5FE606850
:1025E000411C02D0002101F0B6FE28791F4901EB01
:1025F00040102968007F0028A069C1F8240523D075
:10260000607D227D29681043C1F86C05D4E9001271
:102610002868C0F80C15C0F8142522E0A068411CF9
:1026200002D0002101F097FEE068411C04D001F0C7
:1026300059FFE06801F098FED4E902122868C0F85A
:102640000825C0F8101570BD607D217D2A680843FB
:10265000C2F86C05D4E900122868C0F81425C0F847
:102660000C15207D0128D9D070BD00006C0200201F
:102670001CB56A46ADF800000191002144F2020049
:10268000FEF720FF1CBD102802D31038C0B27047DF
:1026900040F080007047000038B50446042803D39A
:1026A0000AA16720FFF7E4FF1448005D0090684628
:1026B00001F07CFED0F810050099C84010F0010030
:1026C00000D0012080F0010038BD00002E2E5C2ECD
:1026D0002E5C2E2E5C2E2E5C2E2E5C2E2E5C636FBE
:1026E0006D706F6E656E74735C626F617264735C43
:1026F000626F617264732E6300000000F45F00007B
:102700007CB50024064E25460022305D032300954B
:102710001146019501F0E4FD641C042CF4D37CBD4A
:10272000F45F000038B50446042803D30BA1402011
:10273000FFF79EFF1548005D0090684601F036FEE9
:10274000D0F80425009B0121994021EA0203C0F83A
:1027500008351140C0F80C1538BD00002E2E5C2E37
:102760002E5C2E2E5C2E2E5C2E2E5C2E2E5C636F2D
:102770006D706F6E656E74735C626F617264735CB2
:10278000626F617264732E6300000000F05F0000EE
:1027900010B50446042803D305A12820FFF768FFDD
:1027A0000F480121005DBDE8104001F0A5BE00000A
:1027B0002E2E5C2E2E5C2E2E5C2E2E5C2E2E5C2E53
:1027C0002E5C636F6D706F6E656E74735C626F61AB
:1027D0007264735C626F617264732E630000000048
:1027E000F05F000010B50446042803D305A12220A1
:1027F000FFF73EFF0F480021005DBDE8104001F0EB
:102800007BBE00002E2E5C2E2E5C2E2E5C2E2E5CAF
:102810002E2E5C2E2E5C636F6D706F6E656E747302
:102820005C626F617264735C626F617264732E6369
:1028300000000000F05F00007CB50024084E254633
:102840000122305D009500231146019501F048FDFD
:10285000641C042CF4D3BDE87C4000F003B80000F5
:10286000F05F000010B500242046FFF791FF641CC4
:10287000042CF9D310BD002901DA0020704702684A
:10288000114401600120704770B5461C0D460124BB
:102890000020FFF72BFE114A10682860D2E90010D3
:1028A0009568081A2B1A701C5B1C98420FD963B1EB
:1028B0000B480C4B294000681B6802EB810163F355
:1028C0009F20C8601068401C1060002401E0881937
:1028D00010600020FFF738FE204670BDE4050020A0
:1028E00008620000E4000020034803C8814201D1CF
:1028F0000120704700207047E40500200249084489
:1029000090F93000704700000402002070B50D46B9
:10291000040003D10BA17320FFF7AAFE606818B969
:1029200008A17420FFF7A4FE6068006818B905A12B
:102930007520FFF79DFE6068294602682046BDE8C5
:10294000704010472E2E5C2E2E5C2E2E5C2E2E5CA0
:102950002E2E5C2E2E5C636F6D706F6E656E7473C1
:102960005C6C69627261726965735C757362645CE8
:102970006170705F757362642E63000070B50D4600
:10298000040003D10BA18620FFF772FE606818B91E
:1029900008A18720FFF76CFE6068406818B905A1A0
:1029A0008820FFF765FE6068294642682046BDE83A
:1029B000704010472E2E5C2E2E5C2E2E5C2E2E5C30
:1029C0002E2E5C2E2E5C636F6D706F6E656E747351
:1029D0005C6C69627261726965735C757362645C78
:1029E0006170705F757362642E63000070B5084C8F
:1029F000050009D010342168002907D0086820603C
:102A0000496828468847F6E70834F4E770BD0000B7
:102A1000F00100202DE9F05F26484168F1B3DFF8AE
:102A200098B00E688146DBF8004087688078E11B2B
:102A300021F07F45ED1CB0B9DFF880804FF4803085
:102A4000C8F84403C8F804031120FDF7F9FF11206A
:102A5000FEF701F84FF0010AC8F800A02F2000F09F
:102A6000BBFC89F802A0B54200D23546124BE819EA
:102A70003C3320F07F401860DBF800105A46091BF9
:102A800021F07F41001B20F07F40C91C81420FD9FB
:102A9000106818602F2000F09FFC00E004E0BDE803
:102AA000F05F1120FDF7E2BFBDE8F05F02F0E4BA8D
:102AB000BDE8F09FB0000020041501400010014067
:102AC0000E4910B50A784C780023A24212D0521C4D
:102AD000D2B20A70022A00D10B70084A0B78183261
:102AE00052F8232002608868104420F07F408860FC
:102AF000012010BD0360002010BD0000B0000020C8
:102B000010B50446010600F00F00092804D306A101
:102B10004FF4C070FFF7ACFD6FEA0460C10F2046B0
:102B200061F31F1010BD00002E2E5C2E2E5C2E2E89
:102B30005C2E2E5C2E2E5C2E2E5C636F6D706F6E85
:102B4000656E74735C647269766572735F6E7266CB
:102B50005C757362645C6E72665F6472765F7573D7
:102B600062642E630000000070B50546000605F0A3
:102B70000F0402D5092C09D301E0092C08D308A1C0
:102B80004FF4B770FFF774FD280601D5144801E033
:102B90001348FC38C4EBC40100EB810070BD000099
:102BA0002E2E5C2E2E5C2E2E5C2E2E5C2E2E5C2E5F
:102BB0002E5C636F6D706F6E656E74735C647269AA
:102BC000766572735F6E72665C757362645C6E725A
:102BD000665F6472765F757362642E630000000046
:102BE0008803002010B50446010600F00F000928F4
:102BF00004D3034940F25110FFF73AFD204610BDBF
:102C0000985D00002DE9F041214C05460021267811
:102C10002048FFF7F3FA18B10020E070A070607050
:102C200015F0010F01D0032100E00021002000F089
:102C3000C1F8C5F3400008B1032100E000210120E4
:102C400000F0B8F8C5F3C0004FF0FF3708B101211C
:102C500000E03946032000F0ADF8C5F3800000B174
:102C600001273946022000F0A5F8607830B9A07835
:102C700020B9E07810B92078B04207D0BDE8F04123
:102C80000423034A00210348FFF7C2BABDE8F081DC
:102C900035000020BC5F000010B5040003D10649D8
:102CA0002720FFF7E5FC206818B903492820FFF723
:102CB000DFFC2068083010BDC863000038B5054649
:102CC00000F05AF8FFF7E8FF044600F10C03017C1E
:102CD00001208840C1436A461846FDF79EFCE06823
:102CE00040B190FAA0F0B0FA80F12846BDE8384033
:102CF00000F0E4B803212046FFF7F8FA002038BDC1
:102D00007CB5044600F038F8054620460021FEF761
:102D10005BFD0121FEF730FD047805F11000FFF79F
:102D2000D1FA01680091406801900022694620466E
:102D3000FEF7BAFE7CBD000070B50D46060004D15A
:102D40000C494FF49470FFF793FC25B9094940F200
:102D50002910FFF78DFC304600F00EF800F110044A
:102D6000FFF79AFF02462B4621463046BDE87040E9
:102D7000FFF7BCB9C863000010B5040003D10349D4
:102D80003520FFF775FC204610BD0000C863000029
:102D900070B50C00054604D105494FF4A570FFF746
:102DA00067FC2846FFF7E8FF41692160006970BDB4
:102DB000C8630000134A10B5531C941C00290DD0A1
:102DC00068B101280FD0134602281B7812D00328BF
:102DD00004D101290BD023F00100107010BD187828
:102DE0000844187010BD20780844207010BD43F0CE
:102DF0000100F2E7012902D023F00200EDE743F0E1
:102E00000200EAE73500002010B50C46FFF7B4FFDA
:102E1000E17800F041F830B1D0E90012601CBDE863
:102E20001040FEF78BBF062010BD00007FB50D4699
:102E3000FFF7A2FF04461030FFF744FA0268E97872
:102E400011700168491C00914068401E01900020EB
:102E5000FFF74CFB002269461046FEF731FF0500E4
:102E600008D1074802A90068CDE902040020FEF756
:102E700015FF05460020FFF767FB04B0284670BD2C
:102E8000E061000010B508B1032010BD08460A6BD0
:102E900004219047002010BD70B50D46040003D1F9
:102EA00005494120FFF7E4FB04F110002946BDE885
:102EB0007040FFF7F3B90000C8630000F0B585B0BB
:102EC0000D460646FFF7E8FE044630460021FEF7B1
:102ED0007BFC0021FEF750FC077803212046FFF71A
:102EE00005FA202D03D313495020FFF7C1FBE068FA
:102EF0002946E84010F001001AD03046FFF7CCFF19
:102F000001680191406802900020FFF7EFFA00226B
:102F100001A93846FEF7C8FD060005D125742046F4
:102F200008216A46FDF76CFB0020FFF70DFB3046D9
:102F300005B0F0BDC863000010B5027A02B392007C
:102F4000B1FBF2F302FB1311D1B9416819B10321AE
:102F5000FFF7C4F914E001686FEA910141F3000141
:102F6000491C02D0FEF718FD0AE000686FEAD000A5
:102F700040F30000401C90F0010F01D0012010BD73
:102F8000002010BD10B5062925D2DFE801F00308A6
:102F90000A0F1316BDE810400020FFF7F9BB002010
:102FA00000E00120BDE81040FFF71CBCBDE8104068
:102FB000FFF758BC08A1932009E0FFF71AF904466F
:102FC0000220FFF7AFFB002C05D003A19D20BDE838
:102FD0001040FFF74DBB10BD2E2E5C2E2E5C2E2E0A
:102FE0005C6D61696E2E630070B50E460446007913
:102FF00018494FF4A27501EB4010017F2068A1B180
:103000004FF4887101F06CFD4FF49071206801F06D
:1030100067FD4FF49271206801F062FD2946206837
:1030200001F05EFD0C49206809E04FF48E7101F05B
:1030300046FD2946206801F042FD08492068C0F895
:103040000413206800F01CFB3146BDE8704000F01E
:10305000EFBA00006C0200201003020080000200A2
:103060000268134602E08A4204D01268002AFAD1AC
:103070000B600160704700002DE9F043264CA4F17D
:1030800010092278D9F8048099F80350404694F842
:1030900001C0D9F8086031E002EB42036168521CBC
:1030A00001EBC301A378D2B2934200D100220B7886
:1030B000022B02D0032B21D11DE003464F68194695
:1030C00003E0B94203D00B46C969B9B1F9E7A9B128
:1030D0008B4205D1C06918B9104E0125B560002694
:1030E0000F68C969D96149B10B683B440B6005E0C1
:1030F0000174C06900E000210028F9D19445CBD1CA
:10310000C9E9010689F80350404502D00120BDE815
:10311000F0830020FBE70000C00000200010014009
:103120002DE9F0412A4F0446002607F11005D7F893
:1031300004803EE002D02046E4691DE028786968FA
:1031400000EB4002401CC0B201EBC2012870AA781B
:10315000904200D12E700A784868012A2BD1027C57
:103160004ABB8A684260CA6882600A69C26049696B
:103170008161F97801B146604368BA68DFF854C0EC
:10318000991A21F07F41614502D28268114406E01C
:10319000D11A826821F07F418A4202D9511A016016
:1031A00000E006604660012186600174C66102F09D
:1031B000BDFA002CBED1287869788842BED17968E2
:1031C000414502D00120BDE8F0810020FBE700006E
:1031D000B0000020FFFF7F0000F0D0F920B139A23D
:1031E0004FF4A971FEF790F9002000F05DFA20B1CC
:1031F00034A24FF4AA71FEF787F9002001F03EFCDB
:1032000020B130A240F25711FEF77EF931A1032020
:1032100001F0DAFBFFF710FBFFF772FAFFF7C0F8D7
:1032200020B128A240F25F11FEF76EF92F48FEF799
:10323000D3F920B123A24FF4B271FEF765F92B4800
:103240000024001F00F0E4FA294D41F28838287864
:10325000844206D0041E02D0FFF7F2F801E0FEF728
:10326000B3FD0020FFF718FA06460120FFF714FA15
:1032700046EA40060220FFF70FFA46EA80060320DE
:10328000FFF70AFA46EAC006404600F05FF8002061
:10329000FFF702FA07460120FFF7FEF947EA400769
:1032A0000220FFF7F9F947EA80070320FFF7F4F956
:1032B00047EAC000864201D1FFF7A4FC01F0E2FA20
:1032C000C5E700002E2E5C2E2E5C2E2E5C6D6169F3
:1032D0006E2E63004150503A494E464F3A48656C55
:1032E0006C6F20555342210D0A000000BC5F0000A6
:1032F0003400002008B56A46FDF7F3F8009808BDD1
:10330000C20800F007030120895C9840084070471C
:1033100000F180400068002800D00120704708B507
:1033200000F18040002101600068009008BD0000AD
:103330000549096840F4803001F00111814201D152
:1033400001207047002070470C04004000283ED048
:103350001F49204A096800BF00BF00BF00BF00BF6F
:1033600000BF00BF00BF91422FD000BF00BF00BF11
:1033700000BF00BF00BF00BF00BF00BF00BF00BF55
:1033800000BF00BF00BF00BF00BF00BF00BF00BF45
:1033900000BF00BF00BF00BF00BF00BF00BF00BF35
:1033A00000BF00BF00BF00BF00BF00BF00BF00BF25
:1033B00000BF00BF00BF00BF00BF00BF00BF00BF15
:1033C00000BF00BF00BF00BF00BF401EC3D1704799
:1033D000E80000200024F40000283ED01F49204AC5
:1033E000096800BF00BF00BF00BF00BF00BF00BF33
:1033F00000BF91422FD000BF00BF00BF00BF00BF81
:1034000000BF00BF00BF00BF00BF00BF00BF00BFC4
:1034100000BF00BF00BF00BF00BF00BF00BF00BFB4
:1034200000BF00BF00BF00BF00BF00BF00BF00BFA4
:1034300000BF00BF00BF00BF00BF00BF00BF00BF94
:1034400000BF00BF00BF00BF00BF00BF00BF00BF84
:1034500000BF00BF00BF401EC3D17047E80000207E
:103460000024F400064810B5007820B905A140F208
:103470004D10FFF7FDF8BDE810400120FFF758BFE1
:10348000F00100202E2E5C2E2E5C2E2E5C2E2E5C4B
:103490002E2E5C2E2E5C636F6D706F6E656E747376
:1034A0005C647269766572735F6E72665C636C6F82
:1034B000636B5C6E72665F6472765F636C6F636B86
:1034C0002E63000070B51C4C0546207820B91BA166
:1034D0004FF48F70FFF7CCF8607838B115B1696898
:1034E000002088470020FFF701F813E00020FEF7D6
:1034F000FDFF25B1104829460830FFF7B1FD60688F
:1035000040B94FF48070FFF70AFF01208107C1F82E
:10351000040308606068401C60600020FFF714F836
:103520006068002806D1BDE8704004A14FF49D708A
:10353000FFF79EB870BD0000F00100202E2E5C2E1B
:103540002E5C2E2E5C2E2E5C2E2E5C2E2E5C636F3F
:103550006D706F6E656E74735C647269766572739C
:103560005F6E72665C636C6F636B5C6E72665F64E9
:1035700072765F636C6F636B2E63000070B50E4CE8
:103580000025207808B1852513E00021A160616045
:103590002161E1604FF0E020D0F80001012610F039
:1035A000010F03D10721002000F042F80348066014
:1035B0002670284670BD0000F0010020180500406C
:1035C0002DE9F0414FF480773846FFF7A1FE012442
:1035D000104EA50748B13846FFF7A1FE0120C5F8F7
:1035E000080374700020FFF701FA4FF48277384621
:1035F000FFF78EFE00280BD03846FFF790FE022022
:10360000C5F80803B470BDE8F0410120FFF7EEB93A
:10361000BDE8F081F001002000F01F02012191407F
:103620004009800000F1E020C0F8801170470000E0
:1036300070B50D460446082904D310494FF4847030
:10364000FFF716F86807000E002C06DA04F00F01E9
:1036500001F1E02181F8140D03E004F1E02181F88B
:10366000000404F01F01012088406109890001F174
:10367000E021C1F88002C1F8000170BDF8620000CD
:10368000000B40B270470121B1EB507F01D1012006
:103690007047002070470121B1EB507F01D101201C
:1036A000704700207047000070B5104C217809B1B8
:1036B000852070BD00B90E480E4A017801F0010165
:1036C00011600C4900780831C0F3400008604FF0E9
:1036D000E020D0F80001012510F0010F03D10721EF
:1036E0000020FFF7A5FF2570002070BD8800002096
:1036F000F06000007805004070B54FF08040D0F8D1
:103700000453324C68070CD54FF4847001F0C8F9AB
:1037100038B1606818B92EA1CD20FEF7A9FF606806
:103720008047A8060DD54FF48A7001F0B9F940B171
:10373000A06818B926A1D420FEF79AFFA16800203E
:10374000884768060DD54FF48C7001F0A9F940B197
:10375000A06818B91EA1DA20FEF78AFFA16801202F
:10376000884728060DD54FF48E7001F099F940B1C5
:10377000E06818B916A1E220FEF77AFFE1680020A0
:103780008847E8050DD54FF4907001F089F940B1F4
:10379000E06818B90EA1E820FEF76AFFE168012091
:1037A0008847A80510D54FF4927001F079F90028E8
:1037B0000AD0E06818B906A1EE20FEF759FFE168CB
:1037C000BDE870400220084770BD0000880000205E
:1037D0002E2E5C2E2E5C2E2E5C2E2E5C2E2E5C2E23
:1037E0002E5C636F6D706F6E656E74735C6472696E
:1037F000766572735F6E72665C706F7765725C6E11
:1038000072665F6472765F706F7765722E63000018
:1038100000B5024600F00EF81068002807D00449F1
:10382000C8604FF080414FF46070C1F8040300BDE0
:10383000880000204FF080414FF46070C1F8080309
:1038400001490020C86070478800002010B5044678
:10385000B0F5000F03D307497720FEF709FF4FF0BB
:10386000E020816982698A1A22F07F42A242F9D35C
:1038700010BD00003C63000070B50B4D04460B4EBC
:1038800028680B49B0FBF6F0B1FBF0F0A04203D280
:1038900008498220FEF7ECFE2868B0FBF6F0604392
:1038A000BDE87040FFF7D2BFE800002040420F00A3
:1038B000FFFF7F003C6300004FF0E0206FF07F418E
:1038C00041610521016170472DE9F04190460D00ED
:1038D000064603D118A1EE20FEF7CAFE3079264F26
:1038E00007EB4014E07E10B10820BDE8F081687F4E
:1038F000207729463046FEF767FE5FEA08006060E1
:103900002969216003D0297F3046FFF76DFB3079AC
:1039100007EB4010007F0028306801D0082100E04C
:103920000421C0F800150020E0752076A075012163
:10393000E176A076D9E700002E2E5C2E2E5C2E2E8E
:103940005C2E2E5C2E2E5C2E2E5C636F6D706F6E67
:10395000656E74735C647269766572735F6E7266AD
:103960005C756172745C6E72665F6472765F7561BD
:1039700072742E63000000006C0200202DE9F047F5
:103980000E460179DFF82881044608EB41151746F9
:10399000E87E012804D047A140F27B10FEF768FEC4
:1039A00027B944A14FF4BE70FEF762FE26B941A1CB
:1039B00040F27D10FEF75CFE217908EB4110007F9C
:1039C00018B13046FFF75FFE30B1204600F092F8A4
:1039D00020B11120BDE8F0871020FBE7AF7500276C
:1039E000AE60AF8221793E4608EB41154FF00108E9
:1039F000287F0028206825D04FF49079494601F0AF
:103A00006FF84FF4AC7A5146206801F069F82068ED
:103A1000A97DAA68C0F84425C0F848152068C0F8F8
:103A200008806868F0B94946206801F054F880467B
:103A30005146206801F04FF858EA0001F3D058BB16
:103A4000AF750FE04FF48E7A514601F038F82068D8
:103A5000C0F808802946206801F004FF69684FF427
:103A6000807089B13046B5E75146206801F022F8F0
:103A700010B9A88A4845F7D1A88A484505D02946F3
:103A8000206801F0EFFE00E08146A88AA97D884207
:103A9000EAD3A88A484501D10F26D1E751462068CC
:103AA00001F008F80028F9D02068C0F80C80C7E7BA
:103AB0006C0200202E2E5C2E2E5C2E2E5C2E2E5C98
:103AC0002E2E5C2E2E5C636F6D706F6E656E747340
:103AD0005C647269766572735F6E72665C75617242
:103AE000745C6E72665F6472765F756172742E6369
:103AF000000000000079044901EB4010807D00289F
:103B000000D00120704700006C02002070B5044610
:103B100000791149002601EB401520682A7FC0F882
:103B20000065686888B1207901EB4010007F0028AB
:103B3000206801D0094901E008498C39C0F8081310
:103B40002068FFF79DFDFFF767FD204601F0ECF9C7
:103B5000EE766E6070BD00006C0200201003020063
:103B600010B50D4C207820B90CA140F28450FEF71E
:103B70007FFD00F02DFB1949D1F80403C1F80803BB
:103B8000174900200860BFF36F8FBFF34F8FA070FD
:103B90000120207010BD0000980000202E2E5C2E09
:103BA0002E5C2E2E5C2E2E5C2E2E5C2E2E5C636FD9
:103BB0006D706F6E656E74735C6472697665727336
:103BC0005F6E72665C757362645C6E72665F64726F
:103BD000765F757362642E6300000000007002401F
:103BE0000075024070B5154C2078012804D014A14E
:103BF00040F26B50FEF73CFD4FF40065284601F0A3
:103C000071F91F4901200860BFF36F8FBFF34F8F19
:103C10001C4801680905FCD5284601F063F91849DC
:103C200080201C31086040F2FF10A0600020E0609E
:103C3000A07060700220207070BD0000980000200D
:103C40002E2E5C2E2E5C2E2E5C2E2E5C2E2E5C2EAE
:103C50002E5C636F6D706F6E656E74735C647269F9
:103C6000766572735F6E72665C757362645C6E72A9
:103C7000665F6472765F757362642E630000000095
:103C800000750240007402407CB50646FEF7AAFFAC
:103C900000F00F050446082D04D924494FF48C6028
:103CA000FEF7E6FC20064FF0010401D5204801E0B4
:103CB0001F48001D016804FA05F211430160BFF3BB
:103CC0006F8FBFF34F8F304600F0DAF81949C1F813
:103CD0000403300729D0300627D40020FEF706FC65
:103CE0003046FEF70DFF8440134881680C43846022
:103CF0003046FEF739FF044606F00F0008280DD2C3
:103D000000200090024601906946304600F0F4F829
:103D100020B10AA140F2EF50FEF7AAFC0320A076E2
:103D2000BDE87C400020FEF70FBC7CBDD44D0000F8
:103D30001075024000700240980000202E2E5C2E6C
:103D40002E5C2E2E5C2E2E5C2E2E5C2E2E5C636F37
:103D50006D706F6E656E74735C6472697665727394
:103D60005F6E72665C757362645C6E72665F6472CD
:103D7000765F757362642E630000000010B5FEF775
:103D8000F3FE008B10BD000070B50C00054602D09C
:103D9000601E044204D00DA140F2CE50FEF768FC34
:103DA00005F00F00082805D3284602F0BDF8A04210
:103DB00007D201E0402C04D904A14FF4BA60FEF709
:103DC00057FC2846FEF7D0FE048370BD2E2E5C2ED5
:103DD0002E5C2E2E5C2E2E5C2E2E5C2E2E5C636FA7
:103DE0006D706F6E656E74735C6472697665727304
:103DF0005F6E72665C757362645C6E72665F64723D
:103E0000765F757362642E630000000010B5FEF7E4
:103E1000E9FE044600F00F00082804D3064940F2EA
:103E20008940FEF725FC054944F480700860BFF323
:103E30006F8FBFF34F8F10BDD44D00001875024037
:103E400010B5FEF7CFFEBDE8104000F09BBE0000AD
:103E500010B5FEF7C7FE044600F00F00082804D393
:103E6000054940F29140FEF703FC04480460BFF3AB
:103E70006F8FBFF34F8F10BDD44D000018750240F7
:103E800070B50546000605F00F0402D5092C09D3CC
:103E900001E0092C08D307A14FF49470FEF7E8FB6A
:103EA000280601D5134801E012480930015D0120C0
:103EB000884070BD2E2E5C2E2E5C2E2E5C2E2E5C2D
:103EC0002E2E5C2E2E5C636F6D706F6E656E74733C
:103ED0005C647269766572735F6E72665C7573623C
:103EE000645C6E72665F6472765F757362642E6383
:103EF00000000000B46100002DE9F04716460D46B1
:103F00000746FEF7FDFD804625B923A140F2056076
:103F1000FEF7AEFB0020FEF7E9FA2F48390704D17F
:103F200041788F4201D0102430E001898146C94395
:103F3000C06889B20124014304FA08F4214201D087
:103F4000112423E0384600F01DFE08B10F241DE0C7
:103F50003846FEF709FE002126B1D6E90023C0E964
:103F6000002300E00160D5E90023C0E90223D5E980
:103F70000023C0E904238176D9F80C100C43C9F85A
:103F80000C40164900248020C1F800020020FEF7F2
:103F9000DBFA2046BDE8F0872E2E5C2E2E5C2E2EFE
:103FA0005C2E2E5C2E2E5C2E2E5C636F6D706F6E01
:103FB000656E74735C647269766572735F6E726647
:103FC0005C757362645C6E72665F6472765F757353
:103FD00062642E63000000009800002004E000E00E
:103FE00010B5FEF7FFFDBDE8104000F011BF000066
:103FF0002DE9F0410446FFF75FFC2CB1214D2878F4
:1040000020B10820BDE8F0810720FBE70020FFF782
:1040100059FA00BFFFF726FA0028FBD06C60012098
:10402000002428704602254644F0800707F00F0060
:10403000082801D3314600E040213846FFF7A4FEAE
:104040003846FEF791FD8576641C4561E4B2C56093
:10405000092CE9D35FF0000404F00F00082801D315
:10406000314600E040212046FFF78EFE2046FEF755
:104070007BFD8576641C4561E4B2C560092CEBD3F9
:104080000020BFE79800002003480078022801D3F1
:1040900001207047002070479800002002480078F7
:1040A000002800D0012070479800002000B5FFF7DD
:1040B000EBFF38B10448D0F8000110F0800F01D0B8
:1040C000012000BD002000BD04E000E00148407870
:1040D000704700009800002010B54C2000F018FF39
:1040E000BDE81040502000F013BF4C2000F010BF7E
:1040F0000021016041601149096801700F49091DE3
:10410000096841700D49083109680C4A0C3212687F
:1041100041EA02214180094910310968074A1432F5
:10412000126841EA02218180044918310968034A72
:104130001C32126841EA0221C1807047807402403B
:10414000542000F0E5BE00000C4810B500780228AD
:1041500004D00BA140F29250FEF78AFA1949184890
:10416000C1F80403184A01208021C2F80011174940
:104170000860BFF36F8FBFF34F8F10BD9800002012
:104180002E2E5C2E2E5C2E2E5C2E2E5C2E2E5C2E69
:104190002E5C636F6D706F6E656E74735C647269B4
:1041A000766572735F6E72665C757362645C6E7264
:1041B000665F6472765F757362642E630000000050
:1041C0000714E0030070024004E000E004750240C0
:1041D0000B4810B50078022804D00AA14FF4B6604D
:1041E000FEF746FA01F060FE164900200860BFF3B2
:1041F0006F8FBFF34F8F14498020C1F8800110BD2D
:10420000980000202E2E5C2E2E5C2E2E5C2E2E5C16
:104210002E2E5C2E2E5C636F6D706F6E656E7473E8
:104220005C647269766572735F6E72665C757362E8
:10423000645C6E72665F6472765F757362642E632F
:10424000000000000475024004E000E01CB50446D4
:10425000000604D511A140F28260FEF709FA20465B
:10426000FEF74EFC0146012088401C49896808423F
:1042700012D004F00F0008280ED200200090024651
:10428000019069462046FFF737FE002804D003A1BD
:1042900040F28B60FEF7ECF91CBD00002E2E5C2E68
:1042A0002E5C2E2E5C2E2E5C2E2E5C2E2E5C636FD2
:1042B0006D706F6E656E74735C647269766572732F
:1042C0005F6E72665C757362645C6E72665F647268
:1042D000765F757362642E63000000009800002012
:1042E0002DE9FF411C46DDE90A7815460E46684671
:1042F00000F05CF846EA450141EA840141EA072200
:1043000042EA0841009A00EB8200C0F80017BDE8BD
:10431000FF812DE9FF411C46DDE90A7815460E466E
:10432000684600F0ABF846EA450141EA840141EAFB
:10433000072242EA0841009A00EB8200C0F8001709
:10434000BDE8FF811CB5002100910B4601220191BF
:10435000FFF7DFFF1CBD1CB500220B460092114683
:104360000192FFF7D6FF1CBD1CB5002100910B4642
:10437000012201911146FFF7CCFF1CBD13B50C467D
:10438000684600F047F8009900EB8101D1F800275A
:1043900022F44032C1F80027009900EB8100D0F8E8
:1043A000001741EA0441C0F800171CBD10B50446CF
:1043B0000068302804D308A14FF4DA70FEF758F9EA
:1043C0002068202802D24FF0A04010BD00F01F004E
:1043D00020600F4810BD00002E2E5C2E2E5C2E2E6D
:1043E0005C2E2E5C2E2E5C2E2E5C636F6D706F6EBD
:1043F000656E74735C647269766572735F6E726603
:104400005C68616C5C6E72665F6770696F2E6800D5
:104410000003005010B504460068302804D308A1FA
:104420004FF4DA70FEF724F92068202802D24FF00A
:10443000A04010BD00F01F0020600F4810BD00001C
:104440002E2E5C2E2E5C2E2E5C2E2E5C2E2E5C2EA6
:104450002E5C636F6D706F6E656E74735C647269F1
:10446000766572735F6E72665C68616C5C6E7266B4
:104470005F6770696F2E68000003005010B5044636
:104480000068302804D308A14FF4DA70FEF7F0F882
:104490002068202802D24FF0A04010BD00F01F007D
:1044A00020600F4810BD00002E2E5C2E2E5C2E2E9C
:1044B0005C2E2E5C2E2E5C2E2E5C636F6D706F6EEC
:1044C000656E74735C647269766572735F6E726632
:1044D0005C68616C5C6E72665F6770696F2E680005
:1044E0000003005001B56846FFF7C8FF009A01219C
:1044F0009140C0F8081508BD38B501240090684601
:1045000031B1FFF753FF00998C40C0F8084538BD22
:10451000FFF74CFF00998C40C0F80C4538BD0000F7
:104520007CB5154604460C4A6618022ED2E90002F4
:10453000CDE9000204D909A14FF43370FEF798F8D1
:10454000694605E051F82400D0F81005641C01C547
:10455000A642F7D87CBD0000E86000002E2E5C2E3D
:104560002E5C2E2E5C2E2E5C2E2E5C2E2E5C636F0F
:104570006D706F6E656E74735C647269766572736C
:104580005F6E72665C68616C5C6E72665F677069B4
:104590006F2E6800034908B50844002101600068D7
:1045A000009008BD0060004002494058012800D03A
:1045B000002070470060004000487047314600000E
:1045C00030B5184C054689B0207828B1607885420E
:1045D00002D1002009B030BD202213496846FCF703
:1045E00081F800208DF8140006200090082001902A
:1045F00005200390072002904FF0EB7006900948C9
:10460000001DFFF783FA0DB1002200E0074A0548BC
:104610006946001DFFF758F90028DBD10120207002
:104620006570D6E7D8000020E8610000A1580000BE
:104630002DE9F04FC1B00D004FF0000140914D98B1
:104640004B991C46174601EB000B01D00A2000E0F5
:104650000020804600F054FD00287CD16E46BCB995
:10466000409840AA3118284601F0E2F8002872D09C
:104670003846FCF75BF8C22800D9C22005464098AE
:104680002A4630443946FCF72DF84098284440909B
:104690004FF0200A409901EB080231320DEB010581
:1046A0000DEB0206002002E005F801AB401C40457E
:1046B000FAD300275C4508D305F801AB05F801AB38
:1046C00005F801AB06F801AB2DE04B98844202D20D
:1046D0004A98005D02E0211A4C98405C2B468146C6
:1046E00002460121880022FA00F000F00F0009289C
:1046F00001D9373000E03030C1F1010C491E03F818
:104700000C00EFD29D1C05F801ABFBF7E7FF016839
:1047100011F8090010F03E0F01D0484600E02E20AD
:1047200006F8010B641C7F1C102FC3D30D203070C2
:104730000A20707085F800A04099684641444331D2
:10474000409100F0E3FC30B100F0DAFC18B9002031
:1047500040905C459ED341B02046BDE8F08F2DE9E6
:10476000F043C7B000251C46904689464E9F4595AC
:1047700000F0C6FC00287AD1459805AE311845AA4C
:10478000484601F055F8002835D0072F27D2DFE83A
:1047900007F004121B35424F5D004046FBF7C6FF91
:1047A000054645982918FF2919D830442A4641461C
:1047B000FBF798FF13E045982368C0F580713044FB
:1047C0004246FCF71FFC09E06068009045982368AA
:1047D000C0F5807130444246FCF714FC054629467A
:1047E00045A8FEF748F8459978B3B1F5807F3ED8E3
:1047F00005A800F08BFC47B0BDE8F083D4E90101C7
:10480000CDE9000145982368C0F5807130444246E7
:10481000FCF7F8FBE2E7201D07C88DE80700459884
:104820002368C0F5807130444246FCF7EBFBD5E7C6
:10483000201D0FC88DE80F0045982368C0F58071D2
:1048400030444246FCF7DEFBC8E710E004F1080004
:1048500001AD0FC885E80F00606800904598236897
:10486000C0F5807130444246FCF7CCFBB6E700202F
:10487000C1E70000004870475F4700000120FFF7D4
:104880009FBE00002DE9F04F87B0FEF72DF818B15C
:10489000002007B0BDE8F08F454ED6E9014704EA95
:1048A000070006EB8000A146641CC5680CE000BF51
:1048B000C5F3891000EB9550044404EA070006EBA9
:1048C0008000A146C568641CA807F1D005F003006C
:1048D0004FF0000B022805D0AA0A01A8C5F38313E4
:1048E000002153E004EA070006EB800004F1010A0E
:1048F0000AEA0704C268381B80004FEA9558001D79
:10490000C5F38913804521D929490C3138B106EB0B
:10491000840400F0FF0CA8EB00000C3404E00C460B
:10492000002108F0FF0C0846C0B2CDE90210CDE925
:10493000004CD6F81444C5F3C2005946A047404580
:1049400011D108F103080AEB98042AE0002106EBD4
:1049500084000C300090CDE901810391C5F3C200C1
:10496000D6F81444EAE760F38F1509EA070006EB6E
:104970008000C56016E000BF04EA070C06EB8C0C53
:10498000491CDCF80CC040F804CB641C9942F3D3FA
:10499000C5F3C2000093D6F8105401AB5946A8479E
:1049A00000B17460FDF7A0FF80F0010071E7000026
:1049B000E4050020034AFF23936000231360536043
:1049C00000F054B8E40500202DE9F8430F4F884665
:1049D0000446002569462846BE68FDF755FF0028B5
:1049E00012D00B480021406861F38200009964F303
:1049F000C50001EA060265F3891007EB820268F33D
:104A00009F20491CD0600091BDE8F883E405002098
:104A1000086200002DE9F843124D8846044601273C
:104A2000914669463846AE68FDF72EFF002817D03C
:104A30000D480021806861F38200009964F3C5008D
:104A400001EA060267F3891005EB820268F39F20F2
:104A5000491CD0600091314005EB8101C1F80C90F8
:104A6000BDE8F883E405002008620000024A02F570
:104A7000826203C270470000E405002070B506465C
:104A80000020FFF79DFD040008D1FFF795FD0546C6
:104A9000FFF7F0FE32462946FFF78CFF204670BD37
:104AA00000F180410868002210B101200A607047BF
:104AB000104670474058002800D00120704708B5C4
:104AC000002242504058009008BDD0F8040308402E
:104AD00000D0012070474058002800D001207047C6
:104AE00008B5002242504058009008BD10B5002182
:104AF00000F008F802480068C0F3012010BD000073
:104B00000C75024040EA012003490860BFF36F8F33
:104B1000BFF34F8F704700000C75024040EA012040
:104B200003490860BFF36F8FBFF34F8F70470000DA
:104B30000C75024030B5050600F00F030E4C03EB78
:104B4000830004EB80000AD5082B03D30B480160D7
:104B5000001D09E0C0F80016C0F8042630BD082B7F
:104B600004D307480160001D026030BDC0F8001783
:104B7000C0F8042730BD000000700240A07602405B
:104B8000A077024000F00F0108290DD20206074964
:104B90004FEA007001EB906002D5D0F8200401E0EC
:104BA000D0F84404012800D0002070470070024073
:104BB00010B50446000604D413A14FF42370FDF78A
:104BC00057FD04F00F00082804D30FA140F28D20F8
:104BD000FDF74EFD1C49002088702046FDF7C4FFFC
:104BE000416900290FD101F0ADF900280BD1204611
:104BF000FDF786FF012181401348C943BDE81040FD
:104C00000C30FEF777BB10BD2E2E5C2E2E5C2E2EA8
:104C10005C2E2E5C2E2E5C2E2E5C636F6D706F6E84
:104C2000656E74735C647269766572735F6E7266CA
:104C30005C757362645C6E72665F6472765F7573D6
:104C400062642E63000000009800002038B504461E
:104C5000000604D416494FF42970FDF709FD04F04D
:104C60000F00082804D2124940F2A520FDF700FDEC
:104C7000104D0020A8702046FDF776FF41690029FD
:104C800015D101F05FF9002811D12046FDF738FF5A
:104C900001218140C94305F10C00FEF72BFB0648BA
:104CA000806800908DF8024069686846884738BD82
:104CB000985D000098000020F46000002DE9F84F96
:104CC0000446000604D531A140F2E320FDF7D0FCF4
:104CD00004F00F05082D04D32CA14FF43970FDF713
:104CE000C7FC3A4E4FF0000A204686F802A0FDF7B6
:104CF0003BFF817E032921D04169DFF8D4904FF03A
:104D00000108002930D02046FFF76AF907462046FF
:104D1000FFF734F8874211D22046FDF7F1FE08FA7A
:104D200000F0C14306F10C00FEF7E4FAD9F81400D4
:104D300000908DF80240716868468847200601D4CB
:104D4000082D04D323A140F22F40FDF791FC2F4AF8
:104D500002EB8501C1F8A0A4BFF36F8FBFF34F8FA3
:104D6000BDE8F84F00F016BF01F0ECF80028E5D1DF
:104D70002046FDF7C5FE08FA00F0C14313480C3089
:104D8000FEF7B8FAD9F81000D2E700002E2E5C2EFC
:104D90002E5C2E2E5C2E2E5C2E2E5C2E2E5C636FD7
:104DA0006D706F6E656E74735C6472697665727334
:104DB0005F6E72665C757362645C6E72665F64726D
:104DC000765F757362642E63000000009800002017
:104DD000F46000002E2E5C2E2E5C2E2E5C2E2E5C9F
:104DE0002E2E5C2E2E5C636F6D706F6E656E74730D
:104DF0005C647269766572735F6E72665C68616C22
:104E00005C6E72665F757362642E680000700240AB
:104E100010B50446000604D50B4940F22240FDF7C8
:104E200027FC04F00F00082808D304D0064940F2FC
:104E30002540FDF71DFC0548006810BD044901EB45
:104E40008000D0F8A00410BDD44D0000C074024012
:104E50000070024038B5044600F00F00082804D264
:104E6000134940F21330FDF703FC124D0020A870E7
:104E70002046FDF779FE817E032918D0416900297B
:104E800015D101F05FF8002811D12046FDF738FE5A
:104E900001218140C94305F10C00FEF72BFA0648B9
:104EA000806900908DF8024069686846884738BD7F
:104EB000985D000098000020F4600000024940580E
:104EC000002800D0012070470070024004490844C7
:104ED00000210160BFF36F8FBFF34F8F7047000059
:104EE0000070024003490860BFF36F8FBFF34F8F1C
:104EF0007047000000740240044908440121016029
:104F0000BFF36F8FBFF34F8F7047000000700240F8
:104F10000449084401210160BFF36F8FBFF34F8F35
:104F2000704700000070024070B5034600791B49CD
:104F300001EB40101968027F4FF0FF30002AD1F8D2
:104F40000C25D1F81465D1F80855D1F8104504D0D6
:104F5000C1F80C05C1F8140503E0C1F81405C1F847
:104F60000C051968C1F80805C1F81005501C02D0DD
:104F70001046FFF7E7F9701C02D03046FFF7E2F960
:104F8000601C02D02046FFF7DDF9681C04D02846DB
:104F9000BDE87040FFF7D6B970BD00006C0200207C
:104FA00010B558B1124C012814D0022818D0BDE811
:104FB000104010A14FF49470FDF75ABB11A10320CB
:104FC000FFF702FDFFF760F800280FD1BDE81040A1
:104FD000FCF704BF13A10320FFF7F6FC002004E058
:104FE00018A10320FFF7F0FC0120207010BD000085
:104FF000340000202E2E5C2E2E5C2E2E5C6D6169FE
:105000006E2E63004150503A494E464F3A55534236
:1050100020706F7765722064657465637465640DD4
:105020000A0000004150503A494E464F3A5553420B
:1050300020706F7765722072656D6F7665640D0AFA
:10504000000000004150503A494E464F3A555342F5
:105050002072656164790D0A00000000EFF305809D
:10506000C005C00D01D001207047EFF3148040F35C
:105070000000401C7047000070B5012670044FF01E
:10508000E0210025C1F88001084C4010C4F8480315
:10509000C4F8080366602F20FEF79EF9A660044C52
:1050A0002F20A560FEF798F9A57070BD0010014093
:1050B000B000002070B50546C87D0C4600284FF4AE
:1050C000847128460AD0FFF7FAFCD5F81805627EED
:1050D000E1688854607E401C607670BDFFF7EFFC8D
:1050E000D5F8180570BD1FB501238DF800308DF877
:1050F00008100192D0E90012684690471FBD0000D9
:105100000148FEF7F7BC0000DC00002070B50D463A
:105110000A46014601240648FBF7E4FAEAB20449CC
:105120000448FEF72BFC00B10024204670BD0000AF
:10513000E4040020DC0000200020704770B50C461D
:10514000050004D10FA140F22930FDF791FA24B9EE
:105150000CA140F22A30FDF78BFA61780806C1F302
:10516000411006D530B921462846BDE8704000F010
:10517000CBB908B1062070BD21462846BDE8704075
:1051800000F0ECB92E2E5C2E2E5C2E2E5C2E2E5CAA
:105190002E2E5C2E2E5C636F6D706F6E656E747359
:1051A0005C6C69627261726965735C757362645C80
:1051B0006170705F757362645F636F72652E630008
:1051C000F8B51C4615460F00064604D1414940F289
:1051D0001310FDF74DFA25B93E494FF48A70FDF7DB
:1051E00047FA24B93B4940F21510FDF741FA6078BF
:1051F000214600F01F00022830460ED0FDF70EF9C0
:10520000002814D0062812D160780106C0F341109E
:105210003FD530B101285BD11EE0BDE8F840FCF776
:10522000E9BDA17806253046062901D02846F8BDFB
:1052300000210091E27821796B46FCF761FA0100C8
:1052400001D0009A04E020792228EFD1D7E9021298
:10525000601CFCF773FDF8BDA2782046012A04D03B
:10526000022A0AD0032A33D10BE0017901292FD178
:10527000F96930460A6821461FE0012205F108015C
:1052800002E0012205F10901601CBDE8F840FCF7CD
:1052900055BDE8B101281BD1A27830462146092A24
:1052A00004D00A2A0DD00B2A12D10DE00A79022A65
:1052B0000ED1FA6913685BB1526801B0BDE8F040E5
:1052C00010472079287201E0E07868720020F8BD6C
:1052D0000620F8BD806300002DE9F043087987B00F
:1052E0000D46012804D0022805D003287ED1AAE06B
:1052F00012225D49AFE009240027FCF723FA064695
:105300004FF4FC7840F2F9191AE0706818B957A107
:105310004046FDF7ADF97068406818B953A148469A
:10532000FDF7A6F9706802A94268304690470298D6
:105330000444307A3844C7B23046FCF767FA064670
:10534000002EE2D158480771A0F110074480B978C7
:1053500019B1C17941F02001C17105A8FCF722FD06
:1053600006460598042804D240A140F20E20FDF71D
:105370007FF93869306078697060387E3072182142
:105380004A48FBF7C8F9B5F80700A04200D8044620
:10539000464D092C3AD9FCF7D5F9074628604068F4
:1053A00020B932A140F21D20FDF762F9786840680B
:1053B00020B92EA140F21E20FDF75AF978683B492A
:1053C0004268083138469047686006F10900093C98
:1053D000C5E90340059835490938686103A800F01C
:1053E00077FB30B921A140F22D2000E039E0FDF734
:1053F0003FF90498059909300396049088420AD928
:105400001AA140F23220FDF733F904E000202860B1
:10541000E860CDE903640020FDF768F8124A03A9AB
:10542000083A8020FCF74CFC040005D10E4980208E
:105430001839FCF733FC04460020FDF785F82046B8
:1054400007B0BDE8F083E878B5F80510FDF73AF845
:10545000010006D00A7807B0681CBDE8F043FCF7ED
:105460006DBC0620ECE70000246000002E2E5C2EB0
:105470002E5C2E2E5C2E2E5C2E2E5C2E2E5C636FF0
:105480006D706F6E656E74735C6C69627261726967
:1054900065735C757362645C6170705F7573626480
:1054A0005F636F72652E630060000020D8010020EA
:1054B00038B50D466846FCF775FC0446009802288E
:1054C00004D20F4940F2D310FDF7D2F8002020801B
:1054D0000C48C079400603D5207840F001002070C8
:1054E0000848103840784008C00703D0207840F0C2
:1054F0000200207002222146681CFCF71FFC38BD08
:10550000845100006000002008B58A7822B1062A84
:1055100006D0082A15D107E0BDE80840FFF7C8BF4C
:10552000BDE80840FFF7D8BE0B466846FCF73AFCDA
:1055300001460948007820F01000052803D004280F
:1055400003D0062008BD012000E0002008700122E1
:10555000581CFCF7F3FB08BD5000002030B4174A7C
:105560008C7853780A2C1ED2DFE804F01D191D1226
:105570001D051D1D1D241078032806D0042804D005
:10558000052802D0082030BC7047042010700FE0BE
:10559000B1F80300012806D143F0020007E0B1F89A
:1055A0000300012801D00620EDE723F0020050702F
:1055B0000020E8E730BC00F003B8000050000020F5
:1055C0002DE9F05F33480278052A04D0042A02D07E
:1055D0000820BDE8F09FC87818B1012804D0072042
:1055E000F7E74FF0040A4DE04FF0050AFCF7AAF880
:1055F000064645E096F808B000253DE01EB926496C
:105600008F20FDF735F8317AA94201D8002004E057
:1056100006F1090005EB45010844814690F8018038
:10562000002425E05FEA090703D11B49C220FDF7EA
:105630001FF87978A14201D8002702E0B8783844F1
:10564000071900213878FFF769FA14480068C0F399
:105650000120012803D038780121FFF75FFA38785C
:1056600000F00F01082901D2FEF7F2FB641CE4B23E
:105670004445D7D36D1CEDB25D45BFD33068066895
:10568000002EB7D103480278524501D080F800A01F
:1056900000209EE750000020B46200000C7502401C
:1056A0002DE9F84F204C00256846D4E901B6FDF7F6
:1056B00007FA8046FDF7E0FC0746A946B8F1000F5F
:1056C00025D00023009ACC46606819E0076801469F
:1056D000974202D9BA1A026014E0C1F800C0D1F8AA
:1056E0000C80D21BC8693B448A46B8F1000F07D032
:1056F000F71827F07F47C1E90178CAF81C500D461A
:105700000028E3D160602846FDF70AFD04E0284642
:10571000FDF706FD00B917B15846FDF77BF984F88F
:105720000390BDE8F88F0000B00000200D4B10B5CD
:10573000596831B102680C68A24204D8A21A0A6002
:10574000C161586010BD0B4603E00B46C969121BCE
:1057500021B10C689442F8D3A41A0C600260C161B4
:10576000D86110BDB00000202DE9F0411F4D6C68DC
:10577000002C38D01E4800270068A968B846401A97
:1057800020F07F462068B04218D82246361A0744D7
:10579000E469107C80B182F81080EB684BB1D2E9EB
:1057A0000501984740B113A240F24D11FBF7ACFE42
:1057B00002E0D2E905108847002CE3D12978687807
:1057C000814206D1401CC0B26870022801D185F820
:1057D000018006486978183040F82170BDE8F04132
:1057E0001420FBF743B9BDE8F0810000B0000020B1
:1057F000041501402E2E5C2E2E5C2E2E5C2E2E5C6F
:105800002E2E5C2E2E5C636F6D706F6E656E7473E2
:105810005C6C69627261726965735C74696D6572F2
:105820005C6170705F74696D65722E6300000000CA
:1058300010B5144602004FF001000CD00846136862
:1058400006A24FF48071FBF7DDFB01462046BDE860
:105850001040FDF710B80021216010BD5B253038E5
:10586000645D000070B50C4605464FF48E71FFF77D
:1058700026F9A18AA068415CA08A401CA082C5F8D4
:105880001C1570BD1FB500228DF800208DF8081082
:10589000816801918275D0E90012684690471FBD6A
:1058A0000078012801D1014988707047D800002094
:1058B0002DE9FF470C4605464FF40071FFF705F947
:1058C00001274FF40178002618B34FF49279494626
:1058D0002846FFF7EFF8E0B149462846FFF7EFF812
:1058E000C5F80883A07E00B96F6002208DF8000023
:1058F000D5F88004C5F880040390E07D8DF8080099
:10590000E0680190E6752676D4E900126846904773
:1059100027E004212846FFF7D8F810B34FF484712C
:105920002846FFF7C7F8E0B121462846FFF7C2FB3B
:10593000E07D617E884214D1207E38B1617EE268CC
:10594000E0752069E0602676667607E0A07E00B903
:105950006F60C5F80883E675617EE2682046FFF750
:10596000C2FB4FF48E7841462846FFF7A3F888B172
:10597000A08AA17D884204D221462846FFF772FF03
:1059800008E041462846FFF79AF8A17D11B120466C
:10599000FFF778FF4FF4A27841462846FFF78AF8D0
:1059A000002812D041462846FFF789F8A07E00B1B2
:1059B0002F60E07D002808D0E675617EE26804B0C3
:1059C0002046BDE8F047FFF78EBBBDE8FF872DE915
:1059D000FF410C464FF4927705463946FFF77BF8B6
:1059E0000026C0B139462846FFF77AF802208DF824
:1059F0000000D5F88004C5F880040390D5F83C0574
:105A00008DF80800E0680190E6752676D4E900126A
:105A10006846904724E04FF4887739462846FFF7D8
:105A20005AF8E8B139462846FFF75AF8D5F83C0548
:105A3000C1B2E07D884213D1207E60B1E268D5F822
:105A4000000220F02000C5F80002207EE0752069E9
:105A5000E060267601E0E675E2682046FFF743FB4A
:105A60004FF4A27739462846FFF735F868B1394632
:105A70002846FFF735F8E07D38B1E675D5F83C05E6
:105A8000E268C1B22046FFF72EFB4FF49076314614
:105A90002846FFF720F800280FD031462846FFF7A8
:105AA0001FF8A07D002808D0D5F84C0504B0C1B27D
:105AB0002046BDE8F041FFF7E5BEBDE8FF810000EC
:105AC00002480068002800D00120704758000020DC
:105AD0002DE9F84F074608680C464FF0000A68B1F8
:105AE00020690026A0B1804660690090C4F810A02B
:105AF000E5680098854237D9054635E0E06800281A
:105B000037D0C1F80CA0C7F800A0C7F804A02FE058
:105B10006846FCF747F98046EAE7A068C8B1A842A2
:105B200000D92846814608EB06004A466168FAF724
:105B3000D9FDA168A5EB0905B1EB0901A160E268F7
:105B40004E44A2EB0900E060626802EB090060606D
:105B50000AD12068FBF75AFE206060B141684A68AC
:105B600004F1080190476060002DD6D1C7E9008696
:105B70000120BDE8F88F002EF8D08020FEF7FEF857
:105B8000B6FBF0F100FB11600028EFD0C4F80CA0C8
:105B9000ECE700002DE9F84F6C488178002956D1D8
:105BA0004FF0010A80464DE090FAA0F0B0FA80F084
:105BB0008146FCF768FD0546FCF7D6FF00F11006AC
:105BC000446928061AD505F00F000828284609D38D
:105BD00000F0AAF9A0420AD25DA140F21440FCF7FD
:105BE00047FD04E0FEF7CAF8844200D9044684B3B6
:105BF0003068FDF750FD68B3376842E04CB3306859
:105C0000FDF749FD20B952A140F22540FCF730FDD7
:105C10002846FEF7E5F980B2A042E7D92846FCF70E
:105C2000A3FF022181760AFA09F0C14347480C30EC
:105C3000FDF760FB5648006B00908DF802507968C4
:105C4000684688474746D7E902100840ACD1BDE80E
:105C5000F88F00E001E0002713E0402C04D93CA1BC
:105C600040F24140FCF704FD280604D438A140F27C
:105C70004340FCF7FDFC474F224638463168FAF7AF
:105C800031FD88F802A0D8F808200AFA09F18A4301
:105C9000C8F80820224639462846FEF74BFF4FF445
:105CA000827A05F00F0700BF4FF4AF79D046404627
:105CB000FFF70CF9280602D5092F08D301E0092FB8
:105CC00007D335A14846FCF7D3FC280601D50420AC
:105CD00000E0282000EB8700FFF71AF90220FDF70B
:105CE000CBFD4046FFF7EAF80028E0D01420FDF78E
:105CF000C3FDDFF8E48002E00220FDF7BDFDD8F827
:105D000000008006F8D50120FDF7B6FD280602D573
:105D1000092F09D301E0092F09D31FA14FF4807087
:105D2000FCF7A6FC280602D519489C3001E018486B
:105D3000AE3030F81700FFF7C1F80028B4D0306853
:105D4000204430607068001B706080E7980000207D
:105D50002E2E5C2E2E5C2E2E5C2E2E5C2E2E5C2E7D
:105D60002E5C636F6D706F6E656E74735C647269C8
:105D7000766572735F6E72665C757362645C6E7278
:105D8000665F6472765F757362642E630000000064
:105D9000F4600000840400202E2E5C2E2E5C2E2E3B
