:020000040000FA
:10000000D02B0020150400001D0400001F04000078
:10001000210400002304000025040000000000006B
:1000200000000000000000000000000027040000A5
:1000300029040000000000002B0400002D04000033
:100040002F0400005D0800006D0E00002F0400006A
:100050002F0400002F040000790500002F04000089
:10006000090E00002F0400002F0400002F040000E0
:100070002F0400002F0400002F0400002F040000B4
:100080002F040000650A00002F0400002F04000068
:10009000890A00008D0A00002F0400002F040000D0
:1000A0002F0400002F0400002F0400002F04000084
:1000B0002F0400002F0400000000000000000000DA
:1000C0002F0400002F0400002F0400002F04000064
:1000D0002F0400002F0400002F0400000000000087
:1000E0000000000000000000000000000000000010
:1000F0000000000000000000000000000000000000
:1001000000000000000000000000000000000000EF
:1001100000000000000000000000000000000000DF
:10040000DFF80CD000F086F800480047D52D00003A
:10041000D02B00200648804706480047FEE7FEE74D
:10042000FEE7FEE7FEE7FEE7FEE7FEE7FEE7FEE7A4
:100430006D0B00000104000000487047A866000032
:1004400040EA01039B0703D009E008C9121F08C056
:10045000042AFAD203E011F8013B00F8013B521ED6
:10046000F9D27047D2B201E000F8012B491EFBD24D
:1004700070470022F6E710B513460A4604461946AF
:10048000FFF7F0FF204610BD421C10F8011B0029A9
:10049000FBD1801A704730B504460020034600E0C7
:1004A0005B1C934203D2E05CCD5C401BF8D030BDB6
:1004B0002DE9F05F0546002092469B468846064699
:1004C000814640241BE0284641464746224600F02C
:1004D00042F853465A46C01A914110D31146184665
:1004E000224600F029F82D1A67EB01084F462246F4
:1004F0000120002100F020F817EB00094E41201EDA
:10050000A4F10104DFDC484631462A464346BDE8F3
:10051000F09F0000064C074D06E0E06840F0010344
:1005200094E8070098471034AC42F6D3FFF76CFF0D
:10053000B8660000D8660000202A04DB203A00FAE2
:1005400002F1002070479140C2F1200320FA03F32A
:10055000194390407047202A04DB203A21FA02F028
:100560000021704721FA02F3D040C2F120029140ED
:1005700008431946704700002DE9F04700268CB06B
:10058000DFF86091B0464FF4807501243746069637
:10059000284603F025FB38B1D9F80403204203D0E4
:1005A000284603F013FB26432D1D64007F1CADB2CB
:1005B000082FEDD34FF4BE74204603F011FB48B171
:1005C000204603F003FB46F0004606AA0121002066
:1005D00003F0E8FA444D16F0FF0F15D00127002470
:1005E00037420DD009EB8401D1F81005D1F8101570
:1005F000C0F3042055F82420C1F3014102B1904713
:100600007F00641C082CEBD3002E67DA4FF0FF301C
:10061000CDE9088000263446281910F8507F90F95B
:10062000000027F0C008401C44D009A9404602F051
:10063000B7FC58B34FEA9719404601F087FB55F8CD
:1006400020701FB1B9F1030F03D00FE0B9F1030F10
:1006500030D108A84FEAD80208F00703815C4FF0B8
:10066000010C0CFA03FC41EA0C0181544FF0A0414B
:1006700001EB8800D0F8000706A9C0F3014A404604
:1006800002F08EFC18B1BAF1020F03D012E0BAF1F9
:10069000030F0FD1B9F1030F08D1BAF1020F1BD02C
:1006A0000221404603F062FA761CF6B217B14946C1
:1006B0004046B847641C042CAED3002E0ED06A46C8
:1006C0000121002003F06EFA06990098884205D0B7
:1006D0000690089809909DE70321E2E70CB0BDE879
:1006E000F0870000006000401C02002002F050BCB7
:1006F0002DE9F74F354D4FF48039174680460024D9
:10070000C5F80893324EB07800281CBF3148FFF777
:10071000EDFFB8F1000F04BF2F48FFF7E7FF706847
:1007200000281CBF2D48FFF7E1FFC6F80480DFF862
:10073000B0B038004FF0000A4FF00107ABF10408E9
:100740002FD0012808BFD8F8004006D0022813BFD8
:10075000244825480468FFF7C9FFB770C5F840A1D1
:100760000198204480B2C8F80000D8F800806F6477
:10077000DBF80060D5F8400100281CBF1B48FFF7DC
:10078000B5FF444514D8A64228BFB04598BF1848C5
:1007900002D800BFFFF7AAFFC5F8049303B0BDE875
:1007A000F08F6F64DBF800402F64C5F840A1D4E7F8
:1007B00046452CBF00200120B44294BF01210021F6
:1007C000884208BF0B48E7D1E4E700000080004002
:1007D000B4000020730004007500040076000400DB
:1007E0004485004089000400488500409B000400C7
:1007F000B0000400C900040000F01F020121914074
:100800004009800000F1E020C0F88012704700F03D
:100810001F02012191404009800000F1E020C0F852
:100820000011704700F01F02012191404009800033
:1008300000F1E020C0F8001270474907090E0028B7
:1008400006DA00F00F0000F1E02080F8141D704778
:1008500000F1E02080F80014704700002DE9F05FFF
:10086000734C20696778401C2061607D00281CBFA4
:100870007048FFF73BFF2046217800256E4C6F4EF5
:100880004FF003094FF002084FF0FF3A4FF0010B11
:10089000032946D1D4F80C11002942D0012F06D0EB
:1008A000022F37D0BDE8F05F6548FFF71FBF07464E
:1008B000006903281CBF6348FFF718FF87F8008012
:1008C000B869401CB861C4F80052C4F808A34FF0DE
:1008D000E020C0F88082C4F80C51C4F80051C4F87C
:1008E0001051C4F8045187F801907D603D7530685F
:1008F000017D51B154490968B975C4F81C51C4F857
:1009000018B0524A4FF480611160C068002842D18B
:10091000BDE8F09F006901281CBF4D48FFF7E6FEC7
:1009200076E0032F7FD00821012F37D0022F6FD020
:100930004278484B002703EB0212137B002B1EBFAB
:10094000D4F80C31002B0127927A0270C4F80052BF
:10095000032A61D0C4F808A34FF0E021C1F88082D7
:10096000C4F80C5180F80190C4F80051C4F810513B
:10097000C4F804514560057530680069002818BF47
:100980008047002F08BFBDE8F09F306880680028CE
:1009900008BFBDE8F09FBDE8F05F00470269012A8B
:1009A00020D0022A18BFBDE8F09FC4F80C51C4F84B
:1009B0001051C4F80051C4F800526FF00102C4F89D
:1009C0000823C4F8041380F800904560057530686A
:1009D0000069002818BF8047306880680028DAD195
:1009E000BDE8F09FC4F80051C4F80451C4F808A34E
:1009F000C4F804B33168097D19B1174A4FF4806116
:100A000011601649C0680860BDE8F09F0BE0FFE781
:100A1000BDE8F05F04F0BCBA6FF00802C4F8082328
:100A2000C4F80413A0E7BDE8F05F0D48FFF75EBE11
:100A3000B808002090010A0000100040BC0000200F
:100A4000A9010A009F010A004815004008F501406D
:100A5000A4010A00F465000004F5014004150040FB
:100A6000D6010A0007480021C0F84011C0F844111F
:100A7000C0F84811C0F84C11C0F80011C0F80411BA
:100A800005F0F6BA0010014005F06EBA2DE9F0410C
:100A9000012080F31088344DD5F884000027002809
:100AA0005DD0D5F8800000EB400005EB80000179B7
:100AB00061F30704417961F30F24817961F31744ED
:100AC000C17961F31F6481688289C08962F30F066E
:100AD00060F31F46D5F88400401EC5F88400D5F8A1
:100AE0008000401CC5F88000D5F880000A2833D269
:100AF000002080F310882B6832462046984701205A
:100B000080F31088D5F8840048B3D5F8800000EB56
:100B1000400005EB8000017961F30704417961F33E
:100B20000F24817961F31744C17961F31F648168EF
:100B30008289C08962F30F0660F31F46D5F88400EE
:100B4000401EC5F88400D5F88000401CC5F8800020
:100B5000D5F880000A28CBD3C5F88070C8E70020FC
:100B600080F31088BDE8F081DC080020F0B59848DB
:100B70000023021D01780125101D4FF08056062923
:100B800007D11478240704D10478C4F30314032C88
:100B900002D0062904D00FE08F4F8E4C7C670EE008
:100BA0001478240708D10478C4F30314032C06D066
:100BB000042C04D0052C02D0062907D00EE0D6F86C
:100BC0004442864FC4F342343C6002E01478240768
:100BD00004D10478C4F30314032C02D0062906D0F0
:100BE00011E07F4C276827F0807727600EE01478AB
:100BF000240708D10478C4F30314032C06D0042C72
:100C000004D0052C02D006290AD011E04FF0804410
:100C1000C4F80C31C4F81031704C241F236002E07A
:100C20001478240704D10478C4F30314032C02D0ED
:100C3000062905D00CE0694F032464373C600AE0C4
:100C40001478240704D10478C4F30314032C02D0CD
:100C500006290DD014E0634F05243C60614C7834C4
:100C60002560604C083423603F243F1D3C6002E057
:100C70001478240704D10478C4F30314052C02D09B
:100C8000062957D068E058490968584A1160564902
:100C9000091D0968121D1160534908310968121DA8
:100CA000116051490C310968121D11604E49103113
:100CB0000968121D11604C4914310968121D116038
:100CC000494918310968494A2032116046491C31A6
:100CD0000968121D1160444920310968121D116014
:100CE000414924310968121D11603F4928310968C2
:100CF000121D11603C492C310968121D11603A49DE
:100D000030310968394A4032116037493431096855
:100D1000121D1160344938310968121D11603249C1
:100D20003C310968121D11602F4940310968121DBC
:100D3000116002E0117809070ED10078C0F30310AA
:100D4000032803D0042801D0052805D1D6F858027D
:100D5000274900F04F00086021487438016841F4C9
:100D600070010160BFF34F8FBFF36F8F4FF0102101
:100D7000D1F80002002803DBD1F80402002822DAAF
:100D80001C4A15601C480468002CFCD01524C1F8CE
:100D900000420568002DFCD0C1F80442016800291A
:100DA000FCD0136001680029FCD0BFF34F8F0C48C2
:100DB000F0380168114A01F4E06111430160BFF3AA
:100DC0004F8F00BFFDE70F490D480860F0BD0000E0
:100DD000E00F00F00DF0ADBA00C007403C05004048
:100DE000FCED00E0105600400404001020C5004057
:100DF000E40E004004E5014000E401400400FA056F
:100E00000090D0037C00002070B5144E4FF4803069
:100E1000C6F808030025C6F84051114C6068002848
:100E200004BF1048FFF762FCA5706268012365608B
:100E300073640D480168001F00681430B1F5804FDD
:100E400004D2B0F5404F88BF637004D881422CBFF4
:100E5000012000206070BDE8704010470080004015
:100E6000B4000020EC000400448500400448017FE9
:100E700004480029024901D005F00BBA05F07AB9FF
:100E800074020020002000400FB41CB50A46521E18
:100E9000CDE9000207A9054B6A46069800F018F84C
:100EA000009A002111701CBC5DF814FB3313000084
:100EB00002E008C8121F08C1002AFAD17047704723
:100EC000002001E001C1121F002AFBD17047000081
:100ED0002DE9FF4F8DB00F460546002606E0252878
:100EE0000BD0DDE90F1290476D1C761C2878002886
:100EF000F5D111B03046BDE8F08F0024A246A146DE
:100F00000122EC4900E0044315F8013F203B02FABE
:100F100003F00842F7D128782A2810D06FF02F026A
:100F20002878A0F13001092914D80AEB8A0102EBD4
:100F3000410144F0020400EB010A6D1CF0E701CF0F
:100F40005FEA000A03D544F40054CAF1000A44F0F1
:100F500002046D1C28782E2817D115F8010F44F0D3
:100F600004042A280ED06FF02F022878A0F1300157
:100F700009290AD809EB890102EB410100EB0109BB
:100F80006D1CF2E757F8049B6D1C28786C280FD075
:100F900006DC4C2817D068280DD06A2814D104E04C
:100FA000742810D07A280FD10DE044F400140AE020
:100FB00044F4801401E044F440146978814202D181
:100FC00004F580146D1C6D1C2A786E2A1FD00CDC71
:100FD000632A31D004DC002A8BD0582A11D1A3E037
:100FE000642A68D0692A0CD165E0732A2ED004DC0B
:100FF0006F2A73D0702A04D19BE0752A6FD0782AAB
:101000006ED01046DDE90F129047761C50E1C4F314
:101010000250022806D0032809D0042801CF09D0A5
:10102000066045E101CFF117C0E9006140E101CF61
:1010300006803DE106703BE117F8040B8DF80000D7
:1010400000208DF80100EB46012003E057F804BBB7
:101050004FF0FF3061074FF0000102D40DE008F1BE
:101060000101884649450FDA8045F8DB1BF8081076
:101070000029F4D108E008F1010188468142FADB39
:101080001BF808100029F6D1DDE90F23AAEB0800B0
:101090008146214600F036F9304400EB080604E0B2
:1010A000DDE90F121BF8010B9047B8F10108F7D2E8
:1010B00021464846F7E00A21C4F302534FF0000BE3
:1010C0000891022B04D001CFC117032B09D00AE0ED
:1010D000FF1D27F00707F7E8020108E032E01FE0F4
:1010E00020E000B2C117042B01D140B2C117031E8A
:1010F00071F1000307DA4FF0000CD0EB0C006CEB41
:1011000001012D2302E0230504D52B238DF8243083
:10111000012303E0E30701D02023F7E7984658E0D6
:101120000A2110E010210EE010204FF0000B089073
:101130000CE010214FF0000B44F004044FF00809BC
:10114000089103E008214FF0000B0891C4F302530B
:10115000022B04D001CF0021032B06D006E0FF1D97
:1011600027F00707F7E8020103E080B2042B00D163
:10117000C0B24FF0000823072BD5702A07D0DDF846
:1011800020C08CF0100C5CEA0B0C05D00EE0402364
:101190008DF82430012308E050EA010306D0302303
:1011A0008DF824308DF8252002239846DDF820C0E4
:1011B0008CF0080C5CEA0B0C0BD150EA010301D156
:1011C000630706D530238DF824304FF00108A9F1CC
:1011D0000109582A04D038A20B9208AA0A920BE0FF
:1011E0003AA2F9E75B46089AFFF762F90B9B9B5C12
:1011F0000A9A521E0A92137050EA0102F2D10A981A
:10120000ADEB000000F1200B600702D524F4803420
:1012100001E04FF00109D94502DDA9EB0B0000E028
:10122000002000EB0B0141440890AAEB010AE00307
:1012300006D4DDE90F232146504600F063F806444A
:101240004FF0000908E009A911F80900DDE90F12C3
:10125000904709F10109761CC145F4DBE0030CD588
:10126000DDE90F232146504600F04CF8064404E027
:10127000DDE90F1230209047761C0899481E08902F
:101280000029F5DC08E00A980A990078491C0A91BF
:10129000DDE90F129047761CBBF10001ABF1010BA9
:1012A000F1DC21465046DDE90F2300F019F8064431
:1012B0006D1C1BE6092801003031323334353637D6
:1012C0003839616263646566000000003031323392
:1012D0003435363738394142434445460000000032
:1012E0002DE9F041044600251E461746880404D423
:1012F00005E039462020B0476D1C641EF9D528460C
:10130000BDE8F0812DE9F041044600251E469046D7
:10131000C80301D5302700E02027880404D505E064
:1013200041463846B0476D1C641EF9D52846BDE8D5
:10133000F0814A68002A06D00A68531C0B601070BE
:101340004868401E48607047022000F0A7BA0000BD
:1013500070B50024064D06E06868012110F83400DD
:1013600001F006FF641C28788442F5D3002070BD8C
:1013700020000020F8B515460C460646052A01D285
:101380000720F8BD01F0DAFF18B901F0A9FF002825
:10139000F7D1104900204E600C70C1E902500E4D8B
:1013A00008610DE006EBC4006968009181788DF852
:1013B00001100078094A694601F02CFF0028E0D1AD
:1013C000641EE4B2EED2BDE8F840054A00210248AE
:1013D00000F03CB82000002094650000B52000001B
:1013E000091E00000BA1012004F074F904F0CCF8F0
:1013F00004F0CEF80028FBD1BFF34F8F0B480168F3
:101400000B4A01F4E06111430160BFF34F8F00BF4D
:10141000FDE700004150505F4552524F523A45524D
:10142000524F523A466174616C0D0A000CED00E0B7
:101430000400FA050EB500210091CDE901106A46BD
:1014400044F20100FFF7CEFF0EBD0000074B5B68C2
:1014500023B12AB120B10068037C1BB1082070477A
:10146000072070474174426100207047440000200B
:101470002DE9F047074698461446894690074FF0F5
:10148000000526D12CB304F00FFD134E06F1100019
:10149000C6F80C800570457080F802904460756055
:1014A000357075701420FFF7A7F907211420FFF796
:1014B000C4F91420FFF7ABF9084807600721112091
:1014C000FFF7BBF90548001F0068B0600020BDE8C9
:1014D000F0870720FBE700003400002008150140DA
:1014E0002DE9F843DFF87090D9F804305BB350B3BE
:1014F000052902D20720BDE8F88343691BB3437C6A
:10150000012B22D00027044600258846164628468F
:1015100000F036F8684605F009F8C0B10121017005
:101520000E4944600968C0E90218C0E904769DF8D4
:10153000000089F80100002000F024F81420FFF7D3
:1015400071F92846D7E70820D5E70F46DBE70425E1
:10155000002000F017F8F4E74400002004150140D3
:101560000649496839B130B1416921B1002101749E
:10157000022104F05DBD08207047000044000020F7
:1015800000F002B800F008B872B602480168491CC1
:10159000016070475400002003490868401E08603D
:1015A00000D162B670470000540000202DE9F041E0
:1015B000064608680C46411C4FF0A0474FF0010555
:1015C00006D005FA00F1C7F80815206802F0C4FA41
:1015D0006068411C02D0002102F0B5FA3079204940
:1015E00001EB4010A169007F00283068C0F8241585
:1015F00025D0607D227D31681043C1F86C05D4E9A7
:1016000000123068C0F80C15C0F8142524E0A0685A
:10161000411C02D0002102F096FAE068411C05D07E
:101620008540C7F80855E06802F096FAD4E902123E
:101630003068C0F80825C0F81015BDE8F081607D5D
:10164000217D32680843C2F86C05D4E90012306885
:10165000C0F81425C0F80C15207D0128D7D0ECE780
:10166000740200202DE9F04151488CB00068514CC3
:10167000012802D05048006828B960680078202806
:1016800098BF012000D900204C4F0321002639705B
:101690002660002876D04A480568006849490860F5
:1016A00003A8CDE9000448480268012329461846EA
:1016B00004F0DEF8002839D0012813D0022839D0F0
:1016C000032818BF414801D0FFF710F82068002810
:1016D00065D0012060753E482061042038700CB050
:1016E000BDE8F081039800281CBF3A48FEF7FEFFD2
:1016F000284604F021FA002804BF3748FEF7F6FF19
:101700004FF0020878680023807D8DF800808DF806
:1017100001508DF80200ADF808300193ADF80A30A1
:101720008DF80330684604F015F8CFE72B48FEF734
:10173000DDFFCBE70398002804BF2948FEF7D6FF5A
:10174000284604F0F9F9002804BF2648FEF7CEFF2A
:101750004FF0020C78680022039B807D8DF800C05A
:101760008DF801508DF802004FF00108ADF8082007
:101770000193ADF80A208DF80380684603F0EAFF74
:10178000A4E7FFE7002300961A461946184601967B
:1017900004F06EF8042818BF134895D196E703F0BB
:1017A00005FB6675266100F021F80CB0BDE8F081FC
:1017B000001400409408002034150040A0000020D0
:1017C000081400402C1500400C140040C805090006
:1017D0008D180000B8050900B9050900BD0509000C
:1017E000C0050900C1050900CF05090070B503F067
:1017F000DDFA1E4C1E4E0025012025613070A4F13B
:1018000050001C490069086004F09AF908B304F01C
:1018100097F9032818BF184802D000BFFEF766FFEB
:10182000022003F075FC002003F0F2FC04F088F9BC
:1018300003281CBF1148FEF759FF307801281CBF50
:101840000F48FEF753FF022030700E48C4E903052D
:1018500070BD03F0BDFF0228E2D304F0F7F9606029
:10186000002808BF0848DBD1D8E700009408002012
:10187000A0000020301500408005090088050900FF
:1018800092050900651600007B0509000249052044
:101890000870FFF7ABBF0000A000002007490B5CF9
:1018A0004FF0A041D1F804250120984020EA02031E
:1018B000C1F808351040C1F80C0570475C650000A0
:1018C0000249085C012102F062B900005C65000079
:1018D0000249085C002102F05AB900005C65000072
:1018E0000649095C4FF0A040D0F80405C84010F04C
:1018F000010000D0012080F0010070475C6500000D
:101900007CB50024084E25460122305D0095002359
:101910001146019502F0D8F8641C042CF4D3BDE8FC
:101920007C4000F003B800005C65000010B50024A6
:101930002046FFF7C5FF641C042CF9D310BD10B579
:1019400000242046FFF7C4FF641C042CF9D310BD0B
:1019500010B50246064B4FF0FF3000215C5C94420C
:1019600001D1084610BD491C0429F7D310BD000061
:10197000606500002DE9F0470D468146FFF7E8FF5E
:101980000446042838D2DFF878801C481D4EA8F1A0
:10199000100735B3012D0ED0022D2DD104EB4400DC
:1019A00030444578002D27D0F968002924D02846F6
:1019B000BDE8F047084704EB4401755C0E447178BC
:1019C00059B179680E4A01EB810149000E3A8068ED
:1019D000FFF786FD08B987F80290B17808F804107F
:1019E000E0E78068FFF7BCFD04EB4401314418F8E0
:1019F00004008D78A842D5D0BDE8F087646500006A
:101A000010000020F001002070B50023042810D23F
:101A10000D4D00EB4004012A02D101290CD0002217
:101A2000094E00EB4000304461B1012906D0022983
:101A300006D00723184670BD0E30C2B22A55F9E70A
:101A40004270F7E78270F5E7F00100202DE9F041E0
:101A500006461F4800240F464160C0E90262B007F5
:101A60001FD50025012211462846FFF7CDFF6D1C2A
:101A70000446042D02D2002CF4D012E08CB97A086E
:101A800004211448FFF776FC04000AD1FFF760FC3C
:101A9000040006D10F48104A0021001FFFF7D6FCB2
:101AA0000446F00701D0FFF72BFF74B909480B4A31
:101AB00000210C38FFF7CAFC040006D10548084A8B
:101AC00001210838FFF7C2FC04462046BDE8F0813A
:101AD0000000002070650000E11C0000C528000027
:101AE000491300002DE9F047594C0546002660785F
:101AF00018B100206070FFF719FF0120554F4FF417
:101B00007A694FF4C87A4FF06408182D2CD2DFE8B8
:101B100005F0890C0C2C3A4751565A615A619B6961
:101B200069696969898C8F929B9B0020FFF7D8FEB9
:101B300000284FF0000008D0FFF7C2FE022D02D1AE
:101B40004FF4E16006E0484604E0FFF7C1FE022DD5
:101B50002ED05046B0FBF8F125706068414300225A
:101B60003868FFF7BDFC064659E00020FFF7B8FED5
:101B700028B10020FFF7A4FE4FF44870EAE70020E8
:101B8000FFF7A6FE14E00020FFF7AAFE00284FF0A2
:101B9000000002D0FFF794FED5E7FFF799FED8E7E3
:101BA0000020FFF79DFE0028E9D00020FFF788FE07
:101BB000C820CFE70020FFF771FE257007E0002066
:101BC0003FE025702BE060700120FFF767FE0022E8
:101BD0006168C5E760700120FFF760FE606800EB98
:101BE0008001BCE77868FFF7BBFC0646D5F1110021
:101BF00000D01EB10220FFF763FE10E001280BD9D0
:101C0000C82110FB01F1B1FBF8F1606800224143EB
:101C10007868FFF765FC06460220FFF759FE30465C
:101C2000BDE8F087FFF782FECBE7FFF77FFEC6E750
:101C3000FFF77CFE04E0FFF779FE0020FFF748FE87
:101C40000120FFF745FEBCE7FFF779FEB9E700008A
:101C50000000002064650000002901DA00207047C0
:101C600002681144016001207047000070B5461CF5
:101C70000D4601240020FFF783FC114A10682860FC
:101C8000D2E900109568081A2B1A701C5B1C984248
:101C90000FD963B10B480C4B294000681B6802EB5D
:101CA000810163F39F20C8601068401C106000240D
:101CB00001E0881910600020FFF764FC204670BD29
:101CC000E4030020BC65000064000020034803C852
:101CD000814201D10120704700207047E4030020B9
:101CE00000780221FFF746BE05494FF0FF32082871
:101CF00041F8202002D3084480F8482070470000B3
:101D00001C020020F0B54FF0FF3512B10023082669
:101D100001E008230C260C4C05E000BF54F82370AA
:101D20007F1C04D05B1CB342F8D32846F0BD2618B4
:101D30005DB286F8305044F82310002AF5D1E1183E
:101D400081F84800F1E700001C0200200249084425
:101D500090F93000704700001C0200202DE9F05F70
:101D600026484168F1B3DFF898B00E688146DBF889
:101D7000004087688078E11B21F07F45ED1CB0B9F9
:101D8000DFF880804FF48030C8F84403C8F80403BB
:101D90001120FEF731FD1120FEF739FD4FF0010A49
:101DA000C8F800A02F2001F073F989F802A0B5420D
:101DB00000D23546124BE8193C3320F07F401860C2
:101DC000DBF800105A46091B21F07F41001B20F070
:101DD0007F40C91C81420FD9106818602F2001F084
:101DE00057F900E004E0BDE8F05F1120FEF71ABDEE
:101DF000BDE8F05F04F058B8BDE8F09F3400002063
:101E000004150140001001402DE9F0410026012594
:101E1000144C22E06068226900EBC607387805FAA6
:101E200000F1114217D08A43226101F04FFA0246B5
:101E30003878E36805FA00F1194002FA00F3994294
:101E400009D17978012901D0012100E00021514018
:101E50007A6802B19047761CF6B220788642D9D3D0
:101E6000BDE8F081200000202DE9F043484883B010
:101E70000068012802D04748006830B946484068E9
:101E80000078202898BF012600D90026434C012560
:101E9000606920B901F012FE002808BF656103F0F7
:101EA0004FFE01281CBF3E48FEF720FC3D4D6868F0
:101EB000007D00281CBF3C48FEF718FC02F076FFAE
:101EC000002E04BF03B0BDE8F0830121084603F0F3
:101ED00095FD052845D2DFE800F00341224141008D
:101EE0004FF0000903F01CFE0646B4F80C80E789A9
:101EF00003F01CFE014668680023827D8DF8009087
:101F00008DF80110ADF808808DF802200196ADF82B
:101F10000A708DF80330684603F01CFC21E04FF096
:101F2000000903F0FDFD0646B4F80C80E78903F0D4
:101F3000FDFD014668680123827D8DF800908DF8D3
:101F40000110ADF808808DF802200196ADF80A70F6
:101F50008DF80330684603F0FDFB02E01348FEF7FE
:101F6000C5FB01F04FF82061114800F1680241699A
:101F700061602378022B03D0002908BF806800D05D
:101F8000C068106003B00020BDE8F04301F06CB8F9
:101F90000014004034150040940800207808002008
:101FA000A8060900A0000020A9060900C80609002B
:101FB000440800200E4910B50A784C780023A2424C
:101FC00012D0521CD2B20A70022A00D10B70084AF9
:101FD0000B78183252F8232002608868104420F0F1
:101FE0007F408860012010BD0360002010BD00000C
:101FF0003400002030B52A4D83B0687E002804BF2D
:1020000003B030BD01F002FD002401280BD001F027
:1020100041FD2448007F10B901208107486000205D
:1020200003F0B2FE6C6002F0C1FEAC706C7605206D
:102030008DF800008DF80140ADF808408DF80240A1
:102040000194ADF80A408DF80340684603F082FB26
:102050001548164904704FF44070086003F070FD95
:10206000012818BF022815D003281CBF03B030BDBB
:10207000009400231A4619461846019403F0F8FB11
:10208000042804BF03B030BD094803B0BDE83040A8
:10209000FEF72CBB0021084603F0B0FCF0E700007F
:1020A0007808002044080020A000002008F5014026
:1020B000E80109002DE9F041124E07460125BD4017
:1020C0003068FFF74DFA00280DD10F4C20692842E7
:1020D00007D1384601F0FAF80028E06805D0284317
:1020E00004E0A8432061BDE8F081A843E0602069D6
:1020F00028432061A1683068BDE8F0410022FFF765
:10210000EFB90000946500002000002010B501F038
:10211000CBFD00BF01F014FF0028FBD110BD10B5AE
:102120000024204601F01CFE641C082CF9DB10BDC5
:1021300010B501F047FE012804D0FFF7E7FF0120AA
:1021400001F06EFF01F0FCFE002803D1BDE8104055
:1021500001F0B8BD10BD400001F010BF10B5002463
:10216000204601F00DFE641C082CF9DB10BD0000B8
:1021700002490A880280897881707047E065000012
:10218000F0B50746204889B0154600780E4698B14C
:10219000012814D0022834D110221C4904A8FEF7CB
:1021A0004FF91B490D2204A8FEF74AF90024164AEC
:1021B0006846521C21460DE010221449F3E7102214
:1021C000124904A8FEF73CF904A800F088F8EDE7EE
:1021D000052C02D2135D035500E00155641CE4B2E6
:1021E000102CF5D301F0D6F904A801F0E5F9694601
:1021F000084601F0A5F92B466A463146384600F0FC
:1022000015FB09B0F0BD000068000020E365000088
:102210001C08002001490870704700006800002079
:1022200001460D220148FEF70BB900001C080020F2
:1022300003490268C1F80120007948717047000025
:102240006800002070B5084C0D46E2784AB1074995
:10225000FEF7F6F80DB1E07828700020E07001205C
:1022600070BD002070BD00006E0000202908002015
:102270000248C078002800D0012070476E0000207E
:10228000F0B54E23B3FBF2F5022303704F238418FD
:1022900004F8013C81B10123541E0BE003F0030656
:1022A0008E5DB6FBF5F705FB176605FB0366C654A6
:1022B0005B1CDBB2A342F1DB01210DE04318445C5F
:1022C00013F8013CE31ADBB2052B03D2C3F105037B
:1022D00023444354491CC9B29142EFD3F0BD41F2AB
:1022E00001010A68026009790171704702498A6830
:1022F0000260097B017170476E000020F8B5054649
:102300004FF480500E468079FF2815D1002141F20C
:10231000060003F081FA002441F207070AE00121D8
:10232000684600F007FA9DF80010E01903F074FA0F
:10233000641CE4B2B442F2D3002206E041F207008A
:10234000805C521C05F8010BD2B2B242F6D3F8BD44
:1023500030B58BB020203E4D00240890AC70204654
:1023600001F046FD002805DD08AA6946002001F0BD
:10237000B7FC0446E87820430AD1012001F038FD7B
:10238000002805DD08AA6946012001F0A9FC0446E1
:102390003CB39DF8000007283AD2DFE800F004398A
:1023A000080C10233400684600F0B4F830E06846AA
:1023B00000F08CF92CE0684600F04AF928E00A2089
:1023C0008DF8240009AC601CFFF790FF00F04EF878
:1023D00010B9601CFFF72CFF0122062109A800F0AC
:1023E00087F815E06C460120FFF714FF1022611CEE
:1023F000601CFFF7C5FE601C00F00CFA40B1201D08
:10240000FFF70EFF04E00898C1B2684600F0E4F858
:1024100001F096FD60B90020FFF79DFE687828B1B5
:1024200001F0F2FC40F0010001F014FEFFF780FE25
:102430000749002008310A5C521C12F0FF020A54BE
:1024400003D1401CC0B20528F5D30BB030BD00004D
:102450006E00002000B500F009F8002802D0024903
:102460000220087000BD00006E00002002480078C5
:10247000002800D0012070476E00002008B504211C
:102480006846FFF73BFF684600F070F901F0BCFCBE
:1024900040F0020001F0DEFD044900204870887021
:1024A0000870C870FFF757FE08BD00006E000020DE
:1024B00070B50E4D04466878A04216D0FFF726FE90
:1024C00034B101F0A1FC40F0010001F0C3FD07E0D0
:1024D00001F09AFC20F0010001F0BCFD0020287002
:1024E0006C70BDE87040FFF723BE70BD6E00002029
:1024F00070B516460C460546FFF708FEFFF72EFEA0
:1025000022462946304601F073FBBDE87040FFF7D4
:102510000FBE0000FEB5054620202E4E0290002082
:10252000B070FFF7F3FD01F06FFCC4B2301DB0F9DD
:10253000020010F1400F44DB002001F08BFD9620DB
:10254000FFF709FEFFF7EBFDFFF7F2FD01F0F8FCE6
:102550000028FBD108208DF8000004210DF10100B6
:10256000FFF7CCFE05226946002001F041FB4FF445
:10257000AF70FFF7F0FD012001F06CFDFFF7D8FD13
:1025800001270CE0002001F033FC40B102AA2946EB
:10259000002001F0A5FB2878012800D1B77001F0D8
:1025A000CFFC0028EED1FFF7D9FDFFF7B8FD0020E2
:1025B000FFF7D1FD204601F04DFD00BFFFF7B8FD4C
:1025C000FEBD24F0010001F045FD4FF4FA70FFF765
:1025D000C2FDF3E76E0000203EB50D460446FFF74E
:1025E00045FF08B1002000E00220FFF713FE681E3F
:1025F000C2B2611C601CFFF7C3FD601C00F00AF949
:1026000038B111482D1FEAB2C270211D0F48FDF7E5
:1026100017FF0B208DF800006C46A01DFFF7A8FDEA
:102620000322A11DA01DFFF7ABFD601CFFF75EFE9E
:10263000FFF71CFF10B9601CFFF7FAFD012209210A
:102640006846FFF755FF3EBD6E00002029080020B8
:102650003EB50446FFF70AFF002827D00020FFF709
:10266000D9FD0322611C601CFFF78AFD601C00F08D
:10267000D1F800281AD0144B00246D46187802288F
:1026800015D003281AD08DF8044009208DF80000D9
:102690002C46681CFFF76CFD0922611C601CFFF7CB
:1026A0006FFD01220A216846FFF722FF3EBD01208F
:1026B0008DF80400681DFFF712FE02E002208DF87D
:1026C00004001C70E1E700006E0000207CB5184D8E
:1026D0000446687800282AD0FFF7C8FE20B9601C9D
:1026E000FFF7A6FD012028706846FFF7F8FD0021DE
:1026F0006846425CFF2A02D1491C0529F9DB0529FD
:1027000015D1FFF7F3FD69460523621C084600F06A
:102710008DF84FF4805469462078FF2807D10522B0
:10272000601C03F097F80021204603F075F87CBD8B
:102730006E000020F0B50B4B0025C3F800510124BA
:102740001C602A46084E09E0D3F80071002FFBD028
:1027500037688754C3F80051521CD2B28A42F3D36F
:102760005C60F0BD00D0004008D500402DE9FF417D
:10277000054601F0E5FB264C0646EDB3287869785E
:10278000EA7800EB0120A978090401EB02614718FF
:1027900001F080FC204601F0FDFB50B1002108460D
:1027A00001F0D6FB28B1384601F004FC08B1012441
:1027B00002E0012407E037B12146084601F0C8FBDA
:1027C00008B1012700E00027641CE4B2082CF2D312
:1027D00001F0ECFA0446C2B229466846FFF750FD04
:1027E00087B12146684601F0F5FB58B10120002E63
:1027F00005D001F067FA00E007E030B1012004B035
:10280000BDE8F0810020002EF9D00020F7E700009D
:102810000406080A10B503220349FDF73CFE08B17F
:10282000002010BD012010BDE065000070B500243F
:1028300009E000BF11F8015B12F8016B7540641CE0
:1028400000F8015BE4B29C42F4D370BD70B50E4653
:102850000446007918494FF4A27501EB4010017F3E
:102860002068A1B14FF4887103F0B2FA4FF490716F
:10287000206803F0ADFA4FF49271206803F0A8FAD3
:102880002946206803F0A4FA0C49206809E04FF4B7
:102890008E7103F08CFA2946206803F088FA084903
:1028A0002068C0F80413206800F05FFC3146BDE8E2
:1028B000704000F03EBC00007402002010030200D3
:1028C000800002000348017AC90702D00078FFF7B0
:1028D00009B97047000000202DE9F043264CA4F10F
:1028E00010092278D9F8048099F80350404694F8EA
:1028F00001C0D9F8086031E002EB42036168521C64
:1029000001EBC301A378D2B2934200D100220B782D
:10291000022B02D0032B21D11DE003464F6819463C
:1029200003E0B94203D00B46C969B9B1F9E7A9B1CF
:102930008B4205D1C06918B9104E0125B56000263B
:102940000F68C969D96149B10B683B440B6005E068
:102950000174C06900E000210028F9D19445CBD171
:10296000C9E9010689F80350404502D00120BDE8BD
:10297000F0830020FBE7000044000020001001402D
:102980002DE9F0412A4F0446002607F11005D7F83B
:1029900004803EE002D02046E4691DE028786968A2
:1029A00000EB4002401CC0B201EBC2012870AA78C3
:1029B000904200D12E700A784868012A2BD1027CFF
:1029C0004ABB8A684260CA6882600A69C260496913
:1029D0008161F97801B146604368BA68DFF854C094
:1029E000991A21F07F41614502D28268114406E0C4
:1029F000D11A826821F07F418A4202D9511A0160BE
:102A000000E006604660012186600174C66103F043
:102A1000F1FA002CBED1287869788842BED1796855
:102A2000414502D00120BDE8F0810020FBE7000015
:102A300034000020FFFF7F002DE9F05FC74800262B
:102A40000660C7484FF440750560C64806604FF001
:102A50000108C0F80080C448016821F48071016059
:102A6000016821F00F0141F006010160016821F4C5
:102A7000702141F440310160041D206820F0007095
:102A80002060206840F080702060206820F0FF0007
:102A900040F020002060206820F47F4020604FF04C
:102AA000E0204FF00209C0F8809200F0A7FFAF4984
:102AB0000860091FAE480860AE480560AE4802F0E5
:102AC000FDFAAE49AE4D4860687F216821F4E021EF
:102AD00041EA004020600023D5F820C019461822A2
:102AE000C8002CFA00F0C0B2002400F0010744EA4C
:102AF000C714C0F3400744EA8714C0F3800744EAD0
:102B00004714C0F3C00744EA0714C0F3001744EAAF
:102B1000C704C0F3401744EA8704C0F3801744EAAF
:102B2000470444EAD0104C4202EBC404A0400343E3
:102B3000481CC1B20429D3D3924803600023D5F8BE
:102B400024C01946C8002CFA00F0C0B2002400F0DE
:102B5000010744EAC714C0F3400744EA8714C0F3EE
:102B6000800744EA4714C0F3C00744EA0714C0F3DF
:102B7000001744EAC704C0F3401744EA8704C0F3CF
:102B8000801744EA470444EAD0104C4202EBC404E4
:102B9000A0400343481CC1B20429D3D37A48036040
:102BA0000024071D4FF0FF0B07F1040A2819082C19
:102BB00090F8280058D2A107C90E0BFA01F2D243AF
:102BC000042C26D23B681A403A60002200F0010330
:102BD00042EAC312C0F3400342EA8312C0F3800307
:102BE00042EA4312C0F3C00342EA0312C0F30013E7
:102BF00042EAC302C0F3401342EA8302C0F38013E7
:102C000042EA430242EAD0108840396808433860FB
:102C10002DE0DAF800301A40CAF80020002200F057
:102C2000010342EAC312C0F3400342EA8312C0F335
:102C3000800342EA4312C0F3C00342EA0312C0F326
:102C4000001342EAC302C0F3401342EA8302C0F316
:102C5000801342EA430242EAD0108840DAF80010BA
:102C60000843CAF8000002E04848FDF73FFD641C35
:102C7000082C9BDB464995F830000860454895F8DC
:102C80003110026822F0FF020260002904BF0168CF
:102C900001600AD0404A131F012929D0022930D0EF
:102CA000032938D03D48FDF721FD3F4B95F8320010
:102CB00003F1040C0CF1040439493A4ADFF8ECA0A2
:102CC000251DDFF8ECB02F1D70B3012838D0022885
:102CD00018BFBDE8F09FC1F800901A603548CCF8E5
:102CE00000A0206034482860C7F800B0BDE8F09F1D
:102CF000016841F001010160C2F800B040F2071024
:102D000007E0016841F0020101604FF6FF701060BA
:102D10002A481860C9E7016841F0030101606FF0BB
:102D20007F4010601E60C0E70E601A602448CCF837
:102D300000A0206023482860C7F800B0BDE8F09FDD
:102D4000C1F800801A602048CCF800A020601F481D
:102D500028601F483860BDE8F09F000054F501402E
:102D600008F50140FC1F0040141500405CF50140CF
:102D70000411004004F5014094080020A000002048
:102D8000440800201C1500402015004039030900AC
:102D90000C150040341500403C150040C2030900EA
:102DA0001015004000500078241700404E000054D9
:102DB0003E420F8208800C6088647200211001007E
:102DC00003800C602264720002800C601164660053
:102DD000DEC08F828AB003F0D5FA012001F01EF820
:102DE00028B900F0E9FF00F50340FEF723FB4FF49C
:102DF000FC7001F03FF928B900F0DEFF00F5034058
:102E0000FEF718FBFFF73AFB00F0FEFF40F004006E
:102E100001F020F928B900F0CFFF00F50340FEF7DC
:102E200009FB0120FFF744FB00F04CFF28B900F03C
:102E3000C3FF00F50340FEF7FDFA2024FFF788FAF0
:102E4000FFF714FB08B1FFF705FB0220089400F020
:102E5000CFFF28B108AA6946022000F041FF07E031
:102E6000FFF706FA0028E9D008A96846FFF7EAF953
:102E70000028E3D09DF8000002F0B0FFDEE700007C
:102E80002DE9F0470E46C0F30729C3B2010E40F307
:102E900007400024170C40421FFA82F8062B67D225
:102EA000DFE803F00319314B475E002918BF012109
:102EB000254667F30F0461F3070560F31F4468F3C9
:102EC0001F45304601F0C2F9224629464846BDE872
:102ED000F04700F0E8BE29488068407E002804BF23
:102EE0002748FDF703FC304601F0B0F9214664F3B2
:102EF000070167F30F0468F31F4122464846BDE807
:102F0000F04700F0CFBE002918BF012161F307048C
:102F100060F31F4439B1002E04BF1A48FDF7E6FBE9
:102F2000304601F093F921464846BDE8F04700F0ED
:102F30006DBF01F00BF8BDE8F08713484168491CEC
:102F400041600178002908BFBDE8F0878168002949
:102F50001EBF491E8160BDE8F08701F083FA18B1F9
:102F6000BDE8F04700F0ACBEBDE8F04701F0A0B806
:102F7000BDE8F0470548FDF7B9BB00008000002020
:102F8000B5030500C303050038080020E30305006E
:102F900002490F220A70C8607047000080000020BC
:102FA000C20800F007030120895C98400840704780
:102FB000094841684A1C011F426009680B689A422F
:102FC00038BF70470022426003685B1C0360496899
:102FD0008B4228BF02607047AC00002070B5074CE0
:102FE000251F206829684968884224BF0448FDF7E6
:102FF0007DFB286821688068405C70BDAC000020C3
:10300000B20001000148006870470000AC000020D9
:103010000148406870470000AC00002010B5040073
:1030200004BF0548FDF762FB044800210460001D51
:103030000160416010BD00002A000100A8000020CE
:1030400010B50446054800684068A0429CBF04488B
:10305000FDF74CFB0348046010BD0000A8000020F1
:10306000B9000100AC00002010B504460548006816
:103070000068A0429CBF0448FDF738FB0348446049
:1030800010BD0000A8000020C5000100AC00002019
:1030900000283ED01F49204A096800BF00BF00BF7A
:1030A00000BF00BF00BF00BF00BF91422FD000BFD4
:1030B00000BF00BF00BF00BF00BF00BF00BF00BF18
:1030C00000BF00BF00BF00BF00BF00BF00BF00BF08
:1030D00000BF00BF00BF00BF00BF00BF00BF00BFF8
:1030E00000BF00BF00BF00BF00BF00BF00BF00BFE8
:1030F00000BF00BF00BF00BF00BF00BF00BF00BFD8
:1031000000BF00BF00BF00BF00BF00BF00BF401E28
:10311000C3D170477C0000200024F40000F01F029F
:10312000012191404009800000F1E020C0F88011A9
:1031300070474907090E002806DA00F00F0202F175
:10314000E02282F8141D03E000F1E02282F800146E
:1031500000F01F02012191404009800000F1E020B1
:10316000C0F88012C0F800117047000B40B27047E1
:103170002DE9F0418846054602F042FE234E002824
:1031800028461AD0FEF7E2FD304490F84800800946
:10319000032802D001280ED007E04FF0A040D0F85D
:1031A0001005E84010F0010F05D003212846BDE8C6
:1031B000F04100F0DBBC0221F8E702F02DFE002810
:1031C00022D02846FEF7C2FD04464FF4807000EB83
:1031D00084000F4F81B207EB8400D0F8102542F035
:1031E0000102C0F81025084600F0F0FCB8F1000F0D
:1031F0000AD02846FEF7AAFD56F82000002803D082
:103200000120A040C7F80403BDE8F0811C020020A3
:10321000006000402DE9FC41DFF8A480044608EB83
:103220000400002790F930001346C0170E46401CDA
:1032300001D0082741E0F27819462046FEF762FDEA
:103240000546401C38D0B07850B14FF0A04000EB9C
:103250008400D0F8001721F00201C0F8001707E041
:1032600000217378204600910A46019100F03EFC4F
:10327000F078C0B11348317800EB8500D0F8102504
:10328000114B1A40C0F810254FF4F8524FF4403358
:1032900002EA042203EA01410A43D0F810150A4366
:1032A000C0F8102509E008EB0500327810F8481F37
:1032B00041EA8211017000E004273846BDE8FC8134
:1032C0001C02002000600040FFE0FCFF4FF0A04126
:1032D000D1F81015C14011F0010000D00120704755
:1032E00070B5144D95F8540008B1082070BD002049
:1032F000411E2A18401CC0B282F830102028F8D392
:1033000000242046FEF7F0FC641CE4B20C2CF8D339
:1033100007210620FFF70DFF4FF4BE7000F056FCAA
:1033200005494FF00040C1F80403012085F854001E
:10333000002070BD1C02002000600040034890F88F
:103340005400002800D00120704700001C0200201B
:103350000121B1EB507F01D101207047002070475F
:103360002DE9F04105460079164F904607EB4014D1
:103370000E46E07E10B10820BDE8F081707F207716
:103380002846FEF713F95FEA0800606031692160A2
:1033900003D0317F2846FFF759FA287907EB401010
:1033A000007F0028286801D0082100E00421C0F82F
:1033B00000150020E0752076A0750121E176A07649
:1033C000DAE70000740200202DE9F0470546007995
:1033D0003F4E904606EB40140F46207F18B108463A
:1033E000FFF7B6FF30B1284600F074F820B1112085
:1033F000BDE8F0871020FBE784F81680A76000275F
:10340000A78228794FF0010806EB40143E46207F42
:103410000028286825D04FF49079494602F0D8FC5E
:103420004FF4AC7A5146286802F0D2FC2868A17D9E
:10343000A268C0F84425C0F848152868C0F808807C
:103440006068F0B94946286802F0BDFC80465146E4
:10345000286802F0B8FC58EA0001F3D058BBA77501
:103460000FE04FF48E7A514602F0A1FC2868C0F8B4
:1034700008802146286802F057FE61684FF480708A
:1034800089B13046B4E75146286802F08BFC10B988
:10349000A08A4845F7D1A08A484505D0214628682A
:1034A00002F042FE00E08146A08AA17D8842EAD374
:1034B000A08A484501D10F26D1E75146286802F07D
:1034C00071FC0028F9D02868C0F80C80C7E700001C
:1034D000740200200079044901EB4010807D00282F
:1034E00000D00120704700007402002070B504462F
:1034F00000791149002601EB401520682A7FC0F8A9
:103500000065686888B1207901EB4010007F0028D1
:10351000206801D0094901E008498C39C0F8081336
:103520002068FFF722FEFFF7F9FD204602F080FC3D
:10353000EE766E6070BD0000740200201003020081
:1035400070B5124D06464FF080746868814202D013
:103550001022FCF775FF0E490020C1F8000101227E
:103560000A6001E0641E0ED0D1F80021002AF9D0D3
:10357000C1F80001A9688E4203D010223046FCF742
:103580005FFF012070BD002070BD0000140000200E
:1035900000E000400549064801F11002C0E90012B0
:1035A00010328260034801600120704794020020BD
:1035B0001400002004E50040014602481022006883
:1035C000FCF73EBF140000202DE9F05F8046102874
:1035D00024BF4348FDF78AF8B8F1100F24BF4148D3
:1035E000FDF784F808EB48063F49885D002808BFCE
:1035F000BDE8F09F3D4A701802EB860B054610F8B7
:10360000022F5BF822400278521C027090F800C032
:103610000022BCF1030F28BF0270885D401E885550
:10362000002C08BFBDE8F09FDFF8C4A0314FDFF8E1
:10363000C890544504BF3148FDF758F8386806284B
:1036400024BF2F48FDF752F80020396800290BD914
:1036500059F82030A34203D12A48FDF747F80FE07C
:10366000401CC0B28842F3D32749002000EB00126F
:1036700001EB4202A24206D0401CC0B20628F5D39C
:103680002248FDF733F8386859F8200050451CBF30
:103690001F48FDF72BF8386849F82040401C386077
:1036A000B8F1100F24BF0F48FDF720F80E48815DD8
:1036B000002908BFBDE8F09FA978AB785BF82140EE
:1036C000A91C5B1CAB70AB78032B24BF00220A70D3
:1036D000815D491E8155002CABD1BDE8F09F0000F3
:1036E000D7000300A6000300F8090020280A0020E4
:1036F000ADDEADDED4000020E80A0020DB000300D0
:1037000085000300F6000300000B00208600030084
:103710008800030070B51B4E04463068062824BF9D
:103720001948FCF7E3FF00213268184D002A0BD935
:1037300055F82130A34203D11548FCF7D7FF0FE01D
:10374000481CC1B29142F3D3124A002101EB01108F
:1037500002EB4003A34206D0481CC1B20629F5D3B0
:103760000D48FCF7C3FF30680C4955F8200088422B
:103770001CBF0B48FCF7BAFF306845F82040401CDE
:10378000306070BDD400002085000300E80A0020EE
:10379000F6000300000B002086000300ADDEADDE66
:1037A000880003000148006870470000D400002032
:1037B00010B50446102824BF0348FCF797FF04EB1C
:1037C00044000249085C10BDC8000300F80900204D
:1037D00030B40020144A014600EB400303EB020C16
:1037E0008CF801108CF80210D154401C1028F3D32F
:1037F0000E4C002104F1180C5FF0DE0201EB011009
:103800000CEB400344F8213000201D181A54801C92
:103810006A702228F9D3491C0629EFD304490620EF
:10382000086030BC70470000F8090020E80A00205A
:10383000D400002070B500240546102824BF11488C
:10384000FCF754FF05EB45030F4AD05CC0B1991853
:1038500002F1300011F802CF00EB830050F82C4049
:1038600091F800C00CF1010C81F800C091F800C083
:10387000BCF1030F24BF00200870D05C401ED05460
:10388000204670BDA6000300F809002070B50D4663
:103890000446102924BF2348FCF728FF00222248B1
:1038A00016460068002888BF20490BD951F822C06D
:1038B000A44503D11E48FCF719FF0FE0521CD2B2F9
:1038C0008242F3D31B48002202EB021100EB4103BA
:1038D000A34206D0511CCAB2062AF5D31648FCF7FB
:1038E00005FF164B05EB4502985C032824BF00201A
:1038F00070BD1348D11800EB820011F801CF40F8D9
:103900002C4091F800C00CF1010C81F800C091F836
:1039100000C0BCF1030F28BF0E70985C401C985487
:10392000012070BD8F000300D4000020E80A0020B1
:10393000F6000300000B002090000300F8090020AF
:10394000280A002010B50446102824BF0948FCF7B7
:10395000CDFE04EB440008490A5C002A04BF0020A5
:1039600010BD064A02EB80020844807852F820001D
:1039700010BD0000B7000300F8090020280A00204D
:10398000184B10B51968002449B3174ADFF85CC01A
:1039900002EB810050F8044C40F804CC481E4FF074
:1039A000000118600CD000BF52F821C0A44503D11B
:1039B0000F48FCF79BFE0FE0491CC9B28142F3D3CC
:1039C0000C48002101EB011200EB4203A34206D098
:1039D000491CC9B20629F5D30748FCF787FE2046E3
:1039E00010BD0000D4000020E80A0020ADDEADDEEE
:1039F000F6000300000B00207D0003000048704724
:103A000048800040004870474081004001480078ED
:103A100070470000B400002070B5124E012474609D
:103A2000F46011480025056074641048006800289F
:103A30001CBF0F48FCF75AFE4FF0FF30C6F80803D2
:103A4000C6F840510B49042008600B4845600470DB
:103A50004570857088154FF0E021C1F88002C1F8EB
:103A6000000170BD00800040088500404485004092
:103A70003500040010850040B400002003490120F7
:103A80000860034900200870704700000080004073
:103A9000B4000020074801214160C16006480022AF
:103AA0004FF0E02C426042700B02CCF88032827002
:103AB0000170704700800040B40000200148407849
:103AC00070470000B400002070B541EA4201DDE912
:103AD00004564FF0A04441EA830141EA052104EB7A
:103AE000800041EA0641C0F8001770BD70B541EA98
:103AF0004201DDE904564FF0A04441EA830141EA66
:103B0000052104EB800041EA0641C0F8001770BDB2
:103B100070B541EA4201DDE904564FF0A04441EAA4
:103B2000830141EA052104EB800041EA0641C0F827
:103B3000001770BD1CB5002100910B4601220191B8
:103B4000FFF7E6FF1CBD1CB500220B460092114694
:103B50000192FFF7DDFF1CBD1CB5002100910B4653
:103B6000012201911146FFF7D3FF1CBD4FF0A04287
:103B700002EB8000D0F8002722F44032C0F8002782
:103B8000D0F8002742EA0141C0F80017704701222F
:103B90004FF0A043824011B1C3F808257047C3F825
:103BA0000C25704718B5084B6C4601441B68009300
:103BB00006E000BF54F82030D3F81035401C08C28E
:103BC0008142F7D818BD000090650000034908B590
:103BD0000844002101600068009008BD00600040BA
:103BE00002494058012800D0002070470060004082
:103BF0002DE9F041294C164688460746082804D38B
:103C0000042020700020BDE8F081B8F1000F06D03C
:103C1000202E09D9062020700020BDE8F081032065
:103C200020700020BDE8F08100F02AFB032804D3B7
:103C3000092020700020BDE8F081384600F018FB14
:103C4000032804D30A2020700020BDE8F08100F092
:103C500007FB022804D2082020700020BDE8F08174
:103C600000F05CFC054606704078324640F00100EA
:103C700068704146A81CFCF7E3FBF8B2294600F047
:103C800005FC00281CBF0120BDE8F0810448FCF7BA
:103C90002DFD0F2020700020BDE8F0818000002065
:103CA000DD0005007047704710B500F0DBFB18B170
:103CB000BDE8104000F004B8BDE8104000F0F8B9CD
:103CC000704700000548816819B902210170002081
:103CD000704710B500F02AFA012010BD80000020C6
:103CE0002DE9F04116460F46044600F0C1FA1A4D80
:103CF00060B187B1204600F00FFC00783168814246
:103D00000ED2062028700020BDE8F0810B2028701C
:103D10000020BDE8F081032028700020BDE8F0817C
:103D2000204600F0A9FB040018BF14F102000BD0DC
:103D30002278014638463260FCF782FB204600F0CC
:103D400085FA0120BDE8F0810448FCF7CFFC0F2084
:103D500028700020BDE8F0818000002005010500EA
:103D600010B5082804D3054904200870002010BDB0
:103D7000C0B200F047FA012010BD00008000002012
:103D8000094910B58A68527E1AB10C2008700020CB
:103D900010BD082803D304200870002010BDC0B255
:103DA00000F03AFA012010BD800000200148406870
:103DB0007047000080000020014800787047000034
:103DC0008000002010B500F04DFA002804BF02204A
:103DD00010BD012804BF002010BD022804BF01202F
:103DE00010BD0248FCF782FC022010BD70010500E6
:103DF000082804D3034904200870401F704700F0CE
:103E000037BA00008000002000F034BA002801D149
:103E100001484160704700006E0000202DE9F04726
:103E2000434C8046002543482570E56005604560A9
:103E30008560414800F026FA0127A060002872D072
:103E4000407E0226626804F11001012808BF267036
:103E50001FD0102A1BD8100019D03848FCF7F0FAF0
:103E60003648616800F078FB4FF00109B8F1000FA7
:103E700012D0B8F1010F08BF022011D0B8F1020F23
:103E80001CBF052020704FF0000009D00BE0072078
:103E900020704FF00009E9E7012000F0D3FB01E0BA
:103EA00000F0D0FB012000EA0908042000F040FBEC
:103EB000A1680020497E00291CBF2670284602D137
:103EC00000F044FB3846A16800EA08080020497E5B
:103ED00000291CBF2670284602D100F0C5FC3846D8
:103EE00000EA0808A068407E00281CBF267028460B
:103EF00003D1012000F04AFB3846A16800EA080817
:103F00000020497E002918BF267002D100F0B6FCBF
:103F10003D4605EA0805012000F062F9002D1CBFAE
:103F20000120BDE8F08727700020BDE8F087000081
:103F30008000002038080020812E00009000002022
:103F400001488068407E7047800000207047000074
:103F5000094A10B593685B7E1BB1022010700020E7
:103F600010BD082803D304201070002010BD00F0FD
:103F700023FC012010BD0000800000200449002225
:103F800000280A7008BF70478860012008707047D9
:103F900038080020064910B58A68527E1AB10220FE
:103FA0000870002010BD00F08FFB012010BD000044
:103FB00080000020064910B58A68527E1AB102209E
:103FC0000870002010BD00F0BBFB012010BD0000F8
:103FD0008000002010B5114CA268527E012A11D039
:103FE000102913D891B1A8B10A466160014604F1C5
:103FF0001000FCF725FA04F11000616800F0ACFA3B
:10400000012010BD02202070002010BD072020706C
:10401000002010BD03202070002010BD8000002073
:1040200010B560B1012808BF02200CD0022808BFDB
:10403000002008D0064905200870002010BD01208E
:1040400000F000FB01E000F0FDFA012010BD0000CF
:1040500080000020064910B58A68527E1AB10220FD
:104060000870002010BD00F0F3FB012010BD00001F
:1040700080000020064910B58A68527E1AB10220DD
:104080000870002010BD00F0E9FB012010BD000009
:104090008000002010B5FFF753FF002806D0FFF77F
:1040A00003FE30BFFFF74CFF0028FBD110BD00001E
:1040B00010B5012080F310881748417E002927D0D1
:1040C000817829BB01248470FFF7A0FC01281FD14F
:1040D00001F04CFE00281CBF1048FCF707FB002233
:1040E00064210F48FCF704FB0E48007F70B90E48AE
:1040F000046000210007C0F80011046000BF00BF89
:1041000000BF00BFD0F800110029FBD0FFF7B6FCBC
:10411000002080F3108810BD780800202C060900CC
:10412000495D0000440800201405004070B5234D8F
:10413000687E002818BF70BDFEF77EFC204CA0688A
:10414000002804BF1F48FCF7D1FA6068002804BFAC
:104150001D48FCF7CBFA01F003FE00281CBF1B48EA
:10416000FCF7C4FA002001F00FFE01246C76FFF783
:104170004DFC012818BF70BD01F0F8FD00281CBFE0
:104180001348FCF7B3FA002264211248FCF7B0FA96
:104190001148007F70B91148046000210007C0F881
:1041A0000011046000BF00BF00BF00BFD0F80011C5
:1041B0000029FBD0BDE87040FFF760BC7808002004
:1041C000AC0800205E0209005F02090066020900D7
:1041D0002C060900495D0000440800201405004039
:1041E00010B5044604484068002804BF0348FCF7A3
:1041F0007DFA0348047510BDA0000020F6030900F5
:104200009408002010B5012181F3108801F060FCB2
:10421000002080F3108810BD10B50446012181F301
:10422000108808490A78002A1FBF487E00280648DF
:10423000FCF75CFA204601F04FFC002080F3108868
:1042400010BD000078080020FA02090010B5012115
:1042500081F3108801F05AFC002080F3108810BD13
:1042600001F056BC01480078704700007808002033
:1042700001F062BC0148006970470000440800205A
:1042800001F064BC2DE9F0470446012080F310885A
:104290006B4D4FF003090026687085F80090AE70F2
:1042A0006E60AE60AE81EE812E6107466E612E7645
:1042B00005F11C006E76066046608660C660066189
:1042C00000F118080675C8F80860C8F80460FFF720
:1042D000A3FB204601F086FA01F03AFC002001F031
:1042E0004BFD05F13400FEF799FE564880F8006456
:1042F000C01F80F800645449202081F80004012088
:1043000087F310882978A5F13404012928D0687032
:10431000687E20B1FFF77AFB012803D020E002F08D
:1043200075F81DE001F022FD00281CBF4748FCF78E
:10433000DDF9002264214648FCF7DAF9207F68B9EC
:10434000444807600007C0F80061076000BF00BF75
:1043500000BF00BFD0F800110029FBD0FFF78EFB93
:10436000002080F31088FF202061042161773A4803
:1043700020623A48606284F82870022084F829009C
:1043800084F82A9084F82B10052184F82C1006213B
:1043900084F82D10072184F82E10082184F82F109E
:1043A00084F8306084F8310084F832701E21616135
:1043B0004FF416716160E0602A78022A06D06968BD
:1043C000002904BFA168C8F8001001D0C8F8000097
:1043D0000F21A160022A05D06A68002A08BFC8F828
:1043E000001001D0C8F80000002060830120207672
:1043F00060760020207701F023FC69202060687837
:1044000001281CBF1648FCF771F92F70AE706E6062
:10441000AE60AE81EE812E616E612E766E76FEF715
:104420000BFB4FF0E0204FF48071C0F8801249037D
:10443000C0F8801286F310880148BDE8F0870000BC
:104440007808002008E000E015E000E02C060900F4
:10445000495D00001405004004070A0D05080B0E15
:104460003C0209000348407E00280CBF01200020C8
:10447000704700007808002010B5012181F31088F2
:1044800001F09CFB002181F3108810BD10B50122C2
:1044900082F3108801F095FB00282ED0194881780E
:1044A00031BB407E20B3FFF7B1FA012820D101F0E3
:1044B0005DFC00281CBF1448FCF718F90022642199
:1044C0001248FCF715F91248007F78B9114801210C
:1044D000016000220007C0F80021016000BF00BF9A
:1044E00000BF00BFD0F800110029FBD0FFF7C6FACB
:1044F000002080F31088012010BD002080F3108878
:1045000010BD0000780800202C060900495D00005D
:10451000440800201405004001F064BB10B50120E0
:1045200080F3108801F061FB002181F3108810BD39
:104530000449487704490A6822F4E02242EA00402C
:1045400008607047440800201815004001490876AB
:10455000704700004408002070B50C00054604BFF9
:104560000748FCF7C3F8002D04BF0648FCF7BEF867
:104570000548C0E90145BDE870400020FEF760BD78
:104580004803090049030900AC0800202DE9F001A7
:104590001F49224B204A1C1D81F83200251D1D4950
:1045A000DFF87CC02E1DDFF87C80371DA0B101280C
:1045B00020D002281CBFBDE8F0017047022008602F
:1045C0001A601948C4F800C0286018483060C7F85D
:1045D0000080BDE8F0017047002008601A601448B0
:1045E000C4F800C0286013483060C7F80080BDE8F8
:1045F000F0017047012008601A600F48C4F800C03D
:1046000028600E4830600E483860BDE8F001704701
:104610004408002010150040005000782417004086
:104620004E0000543E420F8208800C608864720085
:1046300003800C602264720002800C6011646600CA
:10464000DEC08F8210B5012181F3108819490A78E4
:1046500082422BD04870487E20B1FFF7D7F901285D
:1046600003D023E001F0D2FE20E001F07FFB002820
:104670001CBF1148FCF73AF8002264210F48FCF7F0
:1046800037F80F48007F78B90E48012101600022F9
:104690000007C0F80021016000BF00BF00BF00BFDD
:1046A000D0F800110029FBD0FFF7E8F9002080F3D3
:1046B000108810BD780800202C060900495D000014
:1046C00044080020140500401B4930B400231A465A
:1046D0004FF0180C0862D10020FA01F1C9B2002491
:1046E00001F0010544EAC514C1F3400544EA85140C
:1046F000C1F3800544EA4514C1F3C00544EA05143A
:10470000C1F3001544EAC504C1F3401544EA850429
:10471000C1F3801544EA450444EAD11154420CEB3C
:10472000C404A1400B43511CCAB2042AD3D303488A
:10473000036030BC70470000440800201C15004096
:104740001B4930B400231A464FF0180C4862D100C0
:1047500020FA01F1C9B2002401F0010544EAC514B0
:10476000C1F3400544EA8514C1F3800544EA4514C9
:10477000C1F3C00544EA0514C1F3001544EAC504B9
:10478000C1F3401544EA8504C1F3801544EA4504A9
:1047900044EAD11154420CEBC404A1400B43511C18
:1047A000CAB2042AD3D30348036030BC7047000068
:1047B000440800202015004008283ED2204AFF234C
:1047C00002444FF0000C82F828108207D20E03FA40
:1047D00002F201F001034CEAC313C1F3400C43EAB7
:1047E0008C13C1F3800C43EA4C1CC1F3C0034CEAA8
:1047F000031CC1F300134CEAC30CC1F340134CEA91
:10480000830CC1F380134CEA430343EAD1118307BD
:10481000DB0ED2439940042807D20A4803681A40A5
:1048200002600268114301607047074803681A403C
:10483000026002681143016070470448FBF756BFED
:1048400044080020241500402815004039030900C1
:104850000149086170470000440800200149486090
:104860007047000044080020024981F830000249E6
:1048700008607047440800200C1500400149087783
:10488000704700004408002070B51148114C406882
:10489000407D28B1012000F0BBFCA089401CA08114
:1048A0000D49002630460E600C494A680968551AC1
:1048B00001F06AFA6069A84224BF0948FBF716FFB5
:1048C00060690122291A0748FBF712FF666170BD73
:1048D000A00000207808002054F501404408002082
:1048E0004D060900495D00002DE9F04FF84CDFF856
:1048F000E483F94F606983B004F1340A4FF0010991
:104900000025A4F1340610B9FFF7D8F8D0B16068DB
:1049100000281CBF401E60602078022804D0616817
:10492000002908BFB16800D0F168CAF80010A1786A
:10493000002900F0EF81FEF73BFB03B0BDE8F04F2C
:10494000FDF758BB2078012802D0022806D00CE0E1
:1049500000F054FC002840F0198206E098F80000AE
:10496000042818BF032800F01182FEF721FB6068BD
:1049700000281CBF401E60602078022804D06068B8
:10498000002808BFB06800D0F068CAF80000A0781E
:10499000E8B1FDF72FFB00BF00F01AFF0228C0F0BE
:1049A000B38100204FF0030C8DF800C08DF801009A
:1049B000ADF808000190ADF80A008DF802508DF8AE
:1049C0000350684600F0C6FE03B0BDE8F08F01F06A
:1049D0001DFD88B10020766801F0D6F96069B0420B
:1049E00024BFBE48FBF782FE60690122311ABC4831
:1049F000FBF77EFE6561CFE72078002800F0348168
:104A000001281AD0022800F01381B648FBF76EFE89
:104A1000707E0128C0D120780228BDD061680029AD
:104A2000BAD14FF08047002800F04281012800F001
:104A30002781AD48FBF75AFEAEE700F0B7F901F069
:104A40007FF8DFF8A8A20AF1040B28B3708B0028C6
:104A50007ED0A18981427BD30121002000F0CEFFCE
:104A60004FF0010801F05CF80746B4F80CA0B4F868
:104A70000EB001F05BF88DF800808DF80100ADF804
:104A800008A08DF802500197ADF80AB08DF80350D8
:104A9000684600F05FFE9CE000F09AFE022876D3A4
:104AA0002078022801D0606818B1FEF7B1FA60B32F
:104AB0008FE02069FEF7C4FA0020FEF7D5FA01F076
:104AC000E7F8002863D0A581E58101F02FF8884937
:104AD000086001F02BF809FA00F18648016001F046
:104AE0001FF88549086001F015F88349486083483C
:104AF000C860FEF773FA386001F022F8012870D020
:104B000001F01EF8022857D053E0307E30B301F098
:104B1000BFF8E0B3A581E58101F008F874490860A9
:104B200001F004F809FA00F17248016000F0F8FFA2
:104B30007149086000F0EEFF6F4948606F48C86037
:104B4000FEF74CFA386000F0FBFF012866D000E069
:104B500048E000F0F5FF02285ED02AE0FEF752FAA6
:104B60002169884235D101F093F880B1A581E581B2
:104B700000F0DCFF5E49086000F0D8FF09FA00F1A0
:104B80005C48016000F0CCFF5B49086000E020E079
:104B900000F0C0FF584948605848C860FEF71EFA48
:104BA000386000F0CDFF012838D000F0C9FF02289E
:104BB00032D05348FBF79AFD2EE000BF00F0A8FA70
:104BC000FEF720FFCAF80000D8F804004068CBF8D0
:104BD00000000120376801F0D7F86069B8421FD3A0
:104BE00049E01BE0FEF76AFF00281CBF4548FBF7C1
:104BF0007DFDFEF7F3F93968884202D0E089401C58
:104C0000E081FEF7EBF9386000F09AFF012805D04B
:104C100000F096FF0228CCD10020CFE70120CDE79D
:104C200060690122391A2E48FBF762FD6561EFE6E3
:104C30004FF0000AFEF7D2F93968884204D0FEF737
:104C4000CDF938604FF0010A98F80010AAF1010080
:104C5000084208BFFCF7CAFD0020776801F094F80D
:104C60006069B842DCD306E00020776801F08CF878
:104C70006069B842D4D31948FBF738FDD0E700BFCC
:104C800000F05EFF00287FF487AE01F057F800289F
:104C90007FF482AEFEF7BAFE01283FF47DAEFEF748
:104CA000F9FE307F70B900BFC7F804900AE000BF7A
:104CB000FEF7ACFE01283FF46FAEFEF7EBFE307F4F
:104CC0000028F1D0002001F05FF8656064E6000084
:104CD00078080020A0000020081500404D060900BB
:104CE000495D0000580409007204090050F50140B4
:104CF0002C1500403015004094080020691E00006B
:104D00001E0609000A05090003B02548BDE8F04F5A
:104D1000FBF7ECBC022809D0FEF74AF900207668C0
:104D200001F032F86069B04223D225E098F8000023
:104D3000042818BF032829D0FEF73AF94FF00009DC
:104D4000FEF74CF93968884204D0FEF747F938601D
:104D50004FF0010998F80010A9F10100084208BFBE
:104D6000FCF744FD0020766801F00EF86069B0425F
:104D700002D30C48FBF7BAFC60690122311A0A48D9
:104D8000FBF7B6FC656103B0BDE8F08F70684108C1
:104D9000616103B00122BDE8F04F0348FBF7A8BCF6
:104DA0008C0409004D060900495D000030B44FF045
:104DB000E02401204FF0020C0021C4F880C1724AA7
:104DC000851EC2F80853C4F880C2C2F80012C2F8A7
:104DD0001011106190616D4B1878012808BF0620F2
:104DE0005AD0022816BF0328022001207ED0401E80
:104DF00000BF00BF00BF00BF00BF00BF00BF00BFBB
:104E000000BF00BF00BF00BF00BF00BF00BF00BFAA
:104E100000BF00BF00BF00BF00BF00BF00BF00BF9A
:104E200000BF00BF00BF00BF00BF00BF00BF00BF8A
:104E300000BF00BF00BF00BF00BF00BF00BF00BF7A
:104E400000BF00BF00BF00BF00BF00BF00BF00BF6A
:104E500000BF00BF00BF00BF00BF00BF00BF00BF5A
:104E6000C5D100BFC2F810111970C2F80012C2F803
:104E70000853C4F880C2C2F80C1103205870C2F85D
:104E80000011C2F81011C2F8041159601975597552
:104E9000C4F800C130BC7047401E00BF00BF00BF57
:104EA00000BF00BF00BF00BF00BF00BF00BF00BF0A
:104EB00000BF00BF00BF00BF00BF00BF00BF00BFFA
:104EC00000BF00BF00BF00BF00BF00BF00BF00BFEA
:104ED00000BF00BF00BF00BF00BF00BF00BF00BFDA
:104EE00000BF00BF00BF00BF00BF00E011E000BF77
:104EF00000BF00BF00BF00BF00BF00BF00BF00BFBA
:104F000000BF00BF00BF00BF00BF00BF00BFC3D1D4
:104F1000A8E7401E00BF00BF00BF00BF00BF00BF2A
:104F200000BF00BF00BF00BF00BF00BF00BF00BF89
:104F300000BF00BF00BF00BF00BF00BF00BF00BF79
:104F400000BF00BF00BF00BF00BF00BF00BF00BF69
:104F500000BF00BF00BF00BF00BF00BF00BF00BF59
:104F600000BF00BF00BF00BF00BF00BF00BF00BF49
:104F700000BF00BF00BF00BF00BF00BF00BF00BF39
:104F800000BF00BFC5D16DE700100040B808002089
:104F90002DE9F0413D483F4E0322036900253C4C7A
:104FA0003168012B06D0022B56D0BDE8F0413A48BB
:104FB000FBF79CBB0423037083695B1C8361C4F80B
:104FC000002201274FF0E0280222C8F88022C4F80E
:104FD0000C51C4F80051C4F81051C4F8045108220F
:104FE000C4F80423097D89B12C49096881752C48CE
:104FF000006810F4806F04BF2A48FBF777FBC4F801
:105000001C51A76128494FF480600860D4F8000162
:1050100000281CBF2548FBF769FBD4F80C010028C9
:105020001CBF2348FBF762FBD8F8000210F0020F08
:105030001CBF2048FBF75AFB3068C068002818BF27
:1050400080473068417D002908BFBDE8F0810068D5
:1050500019490860BDE8F081C4F80C51C4F810513A
:10506000C4F80051C4F80451C4F8005205704FF060
:10507000FF33C4F80833427045600575086900289D
:1050800008BFBDE8F081BDE8F0410047B808002046
:1050900000100040BC000020E7020A004815004054
:1050A00000F50140AD020A0008F50140B6020A0011
:1050B000B7020A00B8020A000415004070B50F4993
:1050C00002254FF0E02608600024C6F880510D4903
:1050D0000B480860091F0C48086006F5C076FFF70A
:1050E00065FE0A4803210470417044600461047540
:1050F0004475847546F8805C70BD0000BC000020DB
:105100001410004064F5014004110040B80800206C
:105110002DE9F04705462E482E4C00EB0517207D63
:1051200000281CBF2C48FBF7E1FA00264FF0010ACB
:10513000002D1CBF012D022D2DD02848FBF7D6FADB
:105140002748FBF7D3FADFF89C8066754FF0FF30F5
:10515000C8F808034FF0E0210220C1F88002DFF810
:1051600088906570032DD9F800000168A16042683D
:10517000C4E90326A661386860601BD2387AC8F893
:105180000002FB7A194853B102600068002808BF8A
:1051900017480AD00BE020780028D1D1D3E701606E
:1051A0000068002808BF134801D1FBF79FFA787AFE
:1051B000C8F80403D9F80000007D28B1022D03D1FE
:1051C0000D49A6756802086084F815A0BDE8F0874F
:1051D000F4650000B8080020DB000A00F9020A00AC
:1051E000DD000A0000100040BC0000200415004053
:1051F00005010A0000010A0004F501400348D0F847
:105200000401012818BF0020704700000010004072
:105210002DE9F041214C07462148657800EB051641
:10522000607D01281CBF1F48FBF760FA207D002825
:105230001CBF1D48FBF75AFA01200021207561753B
:10524000032D09D2002F04BF31680860022D12BF60
:10525000012DB07A207002E01448FBF747FA144899
:105260000068007D002808BFBDE8F081022D18BF4E
:10527000BDE8F0810F48006810F4806F04BF0E484D
:10528000FBF734FA0D480068002818BFBDE8F0812C
:105290000B48BDE8F041FBF729BA0000B808002030
:1052A000F465000021010A0022010A003A010A0007
:1052B000BC00002004F5014040010A000415004034
:1052C00041010A00004870473D53000030B5184CBA
:1052D000054689B0207828B16078854202D1002047
:1052E00009B030BD202213496846FBF7A9F8002019
:1052F0008DF81400062000900820019005200390EE
:10530000072002904FF0EB7006900948001DFEF751
:10531000EDF80DB1002200E0074A05486946001D7E
:10532000FEF71EF80028DBD1012020706570D6E75B
:10533000580000209C650000656100002DE9F04FD9
:10534000C1B00D004FF0000140914D984B991C46A3
:10535000174601EB000B01D00A2000E00020804638
:1053600000F0E6FD00287CD16E46BCB9409840AA0A
:105370003118284600F0BEFE002872D03846FBF7F0
:1053800083F8C22800D9C220054640982A463044F6
:105390003946FBF755F84098284440904FF0200AD2
:1053A000409901EB080231320DEB01050DEB0206CD
:1053B000002002E005F801AB401C4045FAD300276D
:1053C0005C4508D305F801AB05F801AB05F801AB66
:1053D00006F801AB2DE04B98844202D24A98005D5A
:1053E00002E0211A4C98405C2B468146024601217E
:1053F000880022FA00F000F00F00092801D93730A8
:1054000000E03030C1F1010C491E03F80C00EFD26E
:105410009D1C05F801ABFBF70FF8016811F80900B6
:1054200010F03E0F01D0484600E02E2006F8010B98
:10543000641C7F1C102FC3D30D2030700A207070A5
:1054400085F800A04099684641444331409100F0FE
:1054500075FD30B100F06CFD18B9002040905C453E
:105460009ED341B02046BDE8F08F2DE9F043C7B090
:1054700000251C46904689464E9F459500F058FDF4
:1054800000287AD1459805AE311845AA484600F063
:1054900031FE002835D0072F27D2DFE807F00412AD
:1054A0001B35424F5D004046FAF7EEFF0546459832
:1054B0002918FF2919D830442A464146FAF7C0FF77
:1054C00013E045982368C0F5807130444246FBF7ED
:1054D000DBFC09E06068009045982368C0F58071A6
:1054E00030444246FBF7D0FC0546294645A8FCF768
:1054F000B3FB459978B3B1F5807F3ED805A800F09D
:105500001DFD47B0BDE8F083D4E90101CDE90001FC
:1055100045982368C0F5807130444246FBF7B4FCDF
:10552000E2E7201D07C88DE8070045982368C0F50D
:10553000807130444246FBF7A7FCD5E7201D0FC819
:105540008DE80F0045982368C0F5807130444246CD
:10555000FBF79AFCC8E710E004F1080001AD0FC8A2
:1055600085E80F006068009045982368C0F5807159
:1055700030444246FBF788FCB6E70020C1E7000054
:10558000004870476B5400000120FFF79FBE0000E9
:105590002DE9F04F87B0FCF799FB18B1002007B058
:1055A000BDE8F08F454ED6E9014704EA070006EB57
:1055B0008000A146641CC5680CE000BFC5F38910DB
:1055C00000EB9550044404EA070006EB8000A14676
:1055D000C568641CA807F1D005F003004FF0000B6C
:1055E000022805D0AA0A01A8C5F38313002153E0BD
:1055F00004EA070006EB800004F1010A0AEA070446
:10560000C268381B80004FEA9558001DC5F3891306
:10561000804521D929490C3138B106EB840400F0CA
:10562000FF0CA8EB00000C3404E00C46002108F04D
:10563000FF0C0846C0B2CDE90210CDE9004CD6F807
:105640001444C5F3C2005946A047404511D108F1A2
:1056500003080AEB98042AE0002106EB84000C30D2
:105660000090CDE901810391C5F3C200D6F814443E
:10567000EAE760F38F1509EA070006EB8000C560D2
:1056800016E000BF04EA070C06EB8C0C491CDCF8A2
:105690000CC040F804CB641C9942F3D3C5F3C2009C
:1056A0000093D6F8105401AB5946A84700B1746076
:1056B000FCF70CFB80F0010071E70000E403002020
:1056C000034AFF23936000231360536000F028B85F
:1056D000E40300202DE9F8430F4F884604460025D7
:1056E00069462846BE68FCF7C1FA002812D00B486C
:1056F0000021406861F38200009964F3C50001EA6B
:10570000060265F3891007EB820268F39F20491CAB
:10571000D0600091BDE8F883E4030020BC65000080
:10572000024A02F5826203C270470000E4030020CF
:1057300070B506460020FFF7C9FD040008D1FFF749
:10574000C1FD0546FFF71CFF32462946FFF7B8FFAB
:10575000204670BD70B51B4C05462068002804BF6C
:105760001948FAF7C3FFD4F884000A2824BF174861
:10577000FAF7BCFFE06F00EB400004EB80012878F3
:10578000087168784871A8788871E878C871686885
:105790008860288988816889C881D4F88400401C81
:1057A000C4F88400E06F401CE067E16F00200A2924
:1057B00028BFE0674FF400104FF0E021C1F800026D
:1057C00070BD0000DC08002034000B0035000B0029
:1057D0000348D0F88400C0F10A00C0B2704700004E
:1057E000DC08002010B5040004BF0948FAF77EFF6A
:1057F00008490C600020C867C1F88000C1F8840027
:105800004FF0E0214FF40010C1F8000110BD00007E
:1058100029000B00DC08002010B500F003029043C3
:10582000D200FF24944003689140A343CA18074B59
:105830000121196006490C68002CFCD00260086840
:105840000028FCD00020186010BD000004E50140D5
:1058500000E40140F0B515460E460746002404E07A
:10586000315D3819FFF7D8FF641CAC42F8D3F0BDA6
:105870002DE9FF4F584D83B00327DDE910B9E86FDC
:105880004FF000080C464646002804BF5348FAF77C
:105890002DFF287803281CBF5148FAF727FFE86F2F
:1058A000417811F0010F69D195F89200002818BFD6
:1058B0004FF0000A62D00398002808BF042767D081
:1058C000059A304662F31700C1F3410161F31F608E
:1058D00005EB8401896BCBF80060C9F8006001908A
:1058E000884257D0E86F002804BF3E48FAF7FEFE12
:1058F00004F10801E86F0091FDF7C8FF00281ABF06
:105900004FF00108EE674FF000080AEA080AB8F104
:10591000000F3FD0009805EB80010198886106993F
:1059200018EA010F35D03048005D80B32046FDF7FE
:105930003FFF002804BF2D48FAF7D8FE2046FDF7A8
:1059400079FF009068B195F89000274620B128694A
:10595000B84208BF00F04CF9E81980F8806022488E
:10596000C6550098CBF80000BBF1000F08BF2048D7
:1059700007D0002808BF1F4803D004E04FF0010AF9
:1059800099E7FAF7B3FE18480227065502E000E04F
:1059900017E00127BAF1000F08BFC9F800600DD069
:1059A0002046FDF7CFFFC9F80000002807BF1248C6
:1059B000C9F8000001210C4818BF0155B8F1000FCB
:1059C00003D1E86FFDF7A6FEEE672E7000F010F928
:1059D00007B03846BDE8F08F640900205B010C0079
:1059E0005C010C006F020C00C000002091010C0053
:1059F0009A010C0096010C00BC0900202DE9F04131
:105A00002B4C05460F46207801281EBF0228294846
:105A1000FAF76CFE0026002D08BF4FF0040826D0D0
:105A2000207801281CBF2448FAF760FEE0680028AF
:105A300004BF2248FAF75AFEE0680078002808BF41
:105A40004FF0000813D0E06F6568002804BF1C48C1
:105A5000FAF74CFE05F10801E06FFDF717FF00288B
:105A60000ABF1848E667FAF741FE4FF00208C7B1CF
:105A700065682846FDF7DEFE07000CD094F890001C
:105A800020B12069A84208BF00F0B2F8601980F880
:105A900080600D484655A068B8421CBF0B48FAF715
:105AA00025FE267000F0A4F84046BDE8F081000015
:105AB00064090020FC000C0002010C0003010C0032
:105AC0006F020C000E010C00C00000201E010C0033
:105AD0000830FDF779BD000070B50A4D044695F811
:105AE000900020B12969A14208BF00F081F8002090
:105AF0002919054A81F8800010552046BDE87040FC
:105B0000FDF762BD64090020C0000020FDF702BE61
:105B1000FDF748BE0148C0687047000064090020D6
:105B2000014880687047000064090020014840680F
:105B300070470000640900200830FDF739BE0000FE
:105B4000014800787047000064090020FDF730BE6E
:105B500070B5FDF73DFE0021164BDFF85CC008462E
:105B6000024603EB810460F31F62A26101F10802A7
:105B7000044603EB820560F31F64AC615C181A44B1
:105B800084F8800082F880000CF80100491C082984
:105B9000E6D3187058609860D8601861586183F82F
:105BA000900083F8910083F85800D867012083F8AB
:105BB000920070BD64090020C00000200830FDF78D
:105BC00039BE70B50E4604460025FDF7EBFD38B131
:105BD00021463046FDF75AFE10B100F009F80125C4
:105BE000284670BD0830FDF7ADBEFDF7C9BE000008
:105BF0002DE9F041114C2078002806BF94F8900060
:105C00000028BDE8F0810825012600276069FDF71E
:105C1000CFFD18B184F89060606920616069401C14
:105C20006061082808BF676194F89000002818BFD9
:105C3000BDE8F0816D1EE9D1BDE8F0816409002066
:105C4000014981F8920070476409002070B50E4D3B
:105C5000287800281CBF0D48FAF748FDE86F10B9F6
:105C6000FDF78EFEE86704000CD0FF2020706078FE
:105C7000FF2240F0060060702021A01CFAF7F2FB22
:105C800003202870204670BD640900203B010C00F1
:105C900070B5264C207800281CBF2548FAF726FD51
:105CA00094F89000002538B320696060FDF74AFE43
:105CB000A060002804BF1F48FAF718FDA0684078CC
:105CC00010F0010F08D194F8920000281CBF0220A8
:105CD000E56001D0207013E060680830FDF768FDD2
:105CE000032809D2E06F10B9FDF74AFEE067E060D3
:105CF000002818BF0120EDD12078002808BF70BD12
:105D0000A068002804BF0C48FAF7F0FC2069606026
:105D100004EB8001C87E401CC876A1684A7860F315
:105D200042024A7084F89050012070BD640900203E
:105D3000C3000C00C9000C00E7000C00014890F8FB
:105D40009000704764090020044801788170417810
:105D50000170001D50F8210000470000C80000201D
:105D60000148007870470000C800002001484078D2
:105D700070470000C8000020024988704870087011
:105D800070470000C800002010B50446022824BF58
:105D90000248FAF7ABFC0248447010BD2A000D001F
:105DA000C80000204058002800D00120704708B5E6
:105DB000002242504058009008BDD0F8040308402B
