:020000040000FA
:10000000482A0020150400001D0400001F04000001
:10001000210400002304000025040000000000006B
:1000200000000000000000000000000027040000A5
:1000300029040000000000002B0400002D04000033
:100040002F0400003D0800004D0E00002F040000AA
:100050002F0400002F040000790500002F04000089
:10006000E90D00002F0400002F0400002F04000001
:100070002F0400002F0400002F0400002F040000B4
:100080002F040000450A00002F0400002F04000088
:10009000690A00006D0A00002F0400002F04000010
:1000A0002F0400002F0400002F0400002F04000084
:1000B0002F0400002F0400000000000000000000DA
:1000C0002F0400002F0400002F0400002F04000064
:1000D0002F0400002F0400002F0400000000000087
:1000E0000000000000000000000000000000000010
:1000F0000000000000000000000000000000000000
:1001000000000000000000000000000000000000EF
:1001100000000000000000000000000000000000DF
:10040000DFF80CD000F086F800480047953800006F
:10041000482A00200648804706480047FEE7FEE7D6
:10042000FEE7FEE7FEE7FEE7FEE7FEE7FEE7FEE7A4
:100430004D0B000001040000004870477C70000074
:1004400040EA01039B0703D009E008C9121F08C056
:10045000042AFAD203E011F8013B00F8013B521ED6
:10046000F9D27047D2B201E000F8012B491EFBD24D
:1004700070470022F6E710B513460A4604461946AF
:10048000FFF7F0FF204610BD421C10F8011B0029A9
:10049000FBD1801A704730B504460020034600E0C7
:1004A0005B1C934203D2E05CCD5C401BF8D030BDB6
:1004B0002DE9F05F0546002092469B468846064699
:1004C000814640241BE0284641464746224600F02C
:1004D00042F853465A46C01A914110D31146184665
:1004E000224600F029F82D1A67EB01084F462246F4
:1004F0000120002100F020F817EB00094E41201EDA
:10050000A4F10104DFDC484631462A464346BDE8F3
:10051000F09F0000064C074D06E0E06840F0010344
:1005200094E8070098471034AC42F6D3FFF76CFF0D
:100530008C700000AC700000202A04DB203A00FA26
:1005400002F1002070479140C2F1200320FA03F32A
:10055000194390407047202A04DB203A21FA02F028
:100560000021704721FA02F3D040C2F120029140ED
:1005700008431946704700002DE9F04700268CB06B
:10058000DFF86091B0464FF4807501243746069637
:10059000284604F03FF838B1D9F80403204203D0CC
:1005A000284604F02DF826432D1D64007F1CADB2B3
:1005B000082FEDD34FF4BE74204604F02BF848B159
:1005C000204604F01DF846F0004606AA012100204E
:1005D00004F002F8444D16F0FF0F15D00127002457
:1005E00037420DD009EB8401D1F81005D1F8101570
:1005F000C0F3042055F82420C1F3014102B1904713
:100600007F00641C082CEBD3002E67DA4FF0FF301C
:10061000CDE9088000263446281910F8507F90F95B
:10062000000027F0C008401C44D009A9404603F050
:1006300097FA58B34FEA9719404602F0A7F855F8D1
:1006400020701FB1B9F1030F03D00FE0B9F1030F10
:1006500030D108A84FEAD80208F00703815C4FF0B8
:10066000010C0CFA03FC41EA0C0181544FF0A0414B
:1006700001EB8800D0F8000706A9C0F3014A404604
:1006800003F06EFA18B1BAF1020F03D012E0BAF11A
:10069000030F0FD1B9F1030F08D1BAF1020F1BD02C
:1006A0000221404603F086FF761CF6B217B1494698
:1006B0004046B847641C042CAED3002E0ED06A46C8
:1006C0000121002003F088FF06990098884205D098
:1006D0000690089809909DE70321E2E70CB0BDE879
:1006E000F087000000600040B800002003F030BA3E
:1006F0002DE9F74F354D4FF48039174680460024D9
:10070000C5F80893324EB07800281CBF3148FFF777
:10071000EDFFB8F1000F04BF2F48FFF7E7FF706847
:1007200000281CBF2D48FFF7E1FFC6F80480DFF862
:10073000B0B038004FF0000A4FF00107ABF10408E9
:100740002FD0012808BFD8F8004006D0022813BFD8
:10075000244825480468FFF7C9FFB770C5F840A1D1
:100760000198204480B2C8F80000D8F800806F6477
:10077000DBF80060D5F8400100281CBF1B48FFF7DC
:10078000B5FF444514D8A64228BFB04598BF1848C5
:1007900002D800BFFFF7AAFFC5F8049303B0BDE875
:1007A000F08F6F64DBF800402F64C5F840A1D4E7F8
:1007B00046452CBF00200120B44294BF01210021F6
:1007C000884208BF0B48E7D1E4E700000080004002
:1007D00094000020730004007500040076000400FB
:1007E0004485004089000400488500409B000400C7
:1007F000B0000400C900040000F01F020121914074
:100800004009800000F1E020C0F88012704700F03D
:100810001F02012191404009800000F1E020C0F852
:100820000011704700F01F02012191404009800033
:1008300000F1E020C0F80012704700002DE9F05FE1
:10084000734C20696778401C2061607D00281CBFC4
:100850007048FFF74BFF2046217800256E4C6F4E05
:100860004FF003094FF002084FF0FF3A4FF0010B31
:10087000032946D1D4F80C11002942D0012F06D00B
:10088000022F37D0BDE8F05F6548FFF72FBF07465E
:10089000006903281CBF6348FFF728FF87F8008022
:1008A000B869401CB861C4F80052C4F808A34FF0FE
:1008B000E020C0F88082C4F80C51C4F80051C4F89C
:1008C0001051C4F8045187F801907D603D7530687F
:1008D000017D51B154490968B975C4F81C51C4F877
:1008E00018B0524A4FF480611160C068002842D1AC
:1008F000BDE8F09F006901281CBF4D48FFF7F6FED8
:1009000076E0032F7FD00821012F37D0022F6FD040
:100910004278484B002703EB0212137B002B1EBFCB
:10092000D4F80C31002B0127927A0270C4F80052DF
:10093000032A61D0C4F808A34FF0E021C1F88082F7
:10094000C4F80C5180F80190C4F80051C4F810515B
:10095000C4F804514560057530680069002818BF67
:100960008047002F08BFBDE8F09F306880680028EE
:1009700008BFBDE8F09FBDE8F05F00470269012AAB
:1009800020D0022A18BFBDE8F09FC4F80C51C4F86B
:100990001051C4F80051C4F800526FF00102C4F8BD
:1009A0000823C4F8041380F800904560057530688A
:1009B0000069002818BF8047306880680028DAD1B5
:1009C000BDE8F09FC4F80051C4F80451C4F808A36E
:1009D000C4F804B33168097D19B1174A4FF4806136
:1009E00011601649C0680860BDE8F09F0BE0FFE7A2
:1009F000BDE8F05F05F05EB86FF00802C4F80823A8
:100A0000C4F80413A0E7BDE8F05F0D48FFF76EBE21
:100A10003407002090010A00001000409C000020D4
:100A2000A9010A009F010A004815004008F501408D
:100A3000A4010A00C86F000004F50140041500403D
:100A4000D6010A0007480021C0F84011C0F844113F
:100A5000C0F84811C0F84C11C0F80011C0F80411DA
:100A600006F066B80010014005F0FEBF2DE9F04128
:100A7000012080F31088344DD5F884000027002829
:100A80005DD0D5F8800000EB400005EB80000179D7
:100A900061F30704417961F30F24817961F317440D
:100AA000C17961F31F6481688289C08962F30F068E
:100AB00060F31F46D5F88400401EC5F88400D5F8C1
:100AC0008000401CC5F88000D5F880000A2833D289
:100AD000002080F310882B6832462046984701207A
:100AE00080F31088D5F8840048B3D5F8800000EB77
:100AF000400005EB8000017961F30704417961F35F
:100B00000F24817961F31744C17961F31F6481680F
:100B10008289C08962F30F0660F31F46D5F884000E
:100B2000401EC5F88400D5F88000401CC5F8800040
:100B3000D5F880000A28CBD3C5F88070C8E700201C
:100B400080F31088BDE8F08158070020F0B5984880
:100B50000023021D01780125101D4FF08056062943
:100B600007D11478240704D10478C4F30314032CA8
:100B700002D0062904D00FE08F4F8E4C7C670EE028
:100B80001478240708D10478C4F30314032C06D086
:100B9000042C04D0052C02D0062907D00EE0D6F88C
:100BA0004442864FC4F342343C6002E01478240788
:100BB00004D10478C4F30314032C02D0062906D010
:100BC00011E07F4C276827F0807727600EE01478CB
:100BD000240708D10478C4F30314032C06D0042C92
:100BE00004D0052C02D006290AD011E04FF0804431
:100BF000C4F80C31C4F81031704C241F236002E09B
:100C00001478240704D10478C4F30314032C02D00D
:100C1000062905D00CE0694F032464373C600AE0E4
:100C20001478240704D10478C4F30314032C02D0ED
:100C300006290DD014E0634F05243C60614C7834E4
:100C40002560604C083423603F243F1D3C6002E077
:100C50001478240704D10478C4F30314052C02D0BB
:100C6000062957D068E058490968584A1160564922
:100C7000091D0968121D1160534908310968121DC8
:100C8000116051490C310968121D11604E49103133
:100C90000968121D11604C4914310968121D116058
:100CA000494918310968494A2032116046491C31C6
:100CB0000968121D1160444920310968121D116034
:100CC000414924310968121D11603F4928310968E2
:100CD000121D11603C492C310968121D11603A49FE
:100CE00030310968394A4032116037493431096876
:100CF000121D1160344938310968121D11603249E2
:100D00003C310968121D11602F4940310968121DDC
:100D1000116002E0117809070ED10078C0F30310CA
:100D2000032803D0042801D0052805D1D6F858029D
:100D3000274900F04F00086021487438016841F4E9
:100D400070010160BFF34F8FBFF36F8F4FF0102121
:100D5000D1F80002002803DBD1F80402002822DACF
:100D60001C4A15601C480468002CFCD01524C1F8EE
:100D700000420568002DFCD0C1F80442016800293A
:100D8000FCD0136001680029FCD0BFF34F8F0C48E2
:100D9000F0380168114A01F4E06111430160BFF3CA
:100DA0004F8F00BFFDE70F490D480860F0BD000000
:100DB000E00F00F00DF0ADBA00C007403C05004068
:100DC000FCED00E0105600400404001020C5004077
:100DD000E40E004004E5014000E401400400FA058F
:100DE0000090D0035C00002070B5144E4FF48030AA
:100DF000C6F808030025C6F84051114C6068002869
:100E000004BF1048FFF772FCA5706268012365609B
:100E100073640D480168001F00681430B1F5804FFD
:100E200004D2B0F5404F88BF637004D881422CBF14
:100E3000012000206070BDE8704010470080004035
:100E400094000020EC000400448500400448017F29
:100E500004480029024901D005F07BBF05F0EABE35
:100E600010010020002000400FB41CB50A46521E9D
:100E7000CDE9000207A9054B6A46069801F0C0F8C3
:100E8000009A002111701CBC5DF814FB010F0000DA
:100E900002E008C8121F08C1002AFAD17047704743
:100EA000002001E001C1121F002AFBD170472DE98B
:100EB000F041044600251E461746880404D405E088
:100EC00039462020B0476D1C641EF9D52846BDE880
:100ED000F0812DE9F041044600251E469046C803E6
:100EE00001D5302700E02027880404D505E04146DD
:100EF0003846B0476D1C641EF9D52846BDE8F08120
:100F00004A68002A06D00A68531C0B6010704868B3
:100F1000401E4860704700000BA1012005F06CF9ED
:100F200005F0C4F805F0C6F80028FBD1BFF34F8FD9
:100F30000B4801680B4A01F4E06111430160BFF303
:100F40004F8F00BFFDE700004150505F4552524FA8
:100F5000523A4552524F523A466174616C0D0A0042
:100F60000CED00E00400FA050EB500210091CDE97A
:100F700001106A4644F20100FFF7CEFF0EBD00F0FB
:100F800003B800F009B8000072B602480168491CB5
:100F9000016070472C00002003490868401E08606B
:100FA00000D162B6704700002C00002002490520E5
:100FB000087001F04DBB0000800000200649095C6C
:100FC0004FF0A040D0F81005C84010F0010000D04C
:100FD000012080F001007047686F00007CB500249C
:100FE000064E25460022305D0323009511460195EB
:100FF00003F0A0FA641C042CF4D37CBD686F0000DD
:10100000FFFFFFFFFFFFFFFFFFFFFFFFFFFFFFFFF0
:10101000FFFFFFFFFFFFFFFFFFFFFFFFFFFFFFFFE0
:10102000FFFFFFFFFFFFFFFFFFFFFFFFFFFFFFFFD0
:10103000FFFFFFFFFFFFFFFFFFFFFFFFFFFFFFFFC0
:102000002DE9FF4F8DB00F460546002606E0252836
:102010000BD0DDE90F1290476D1C761C2878002844
:10202000F5D111B03046BDE8F08F0024A246A1469C
:102030000122EC4900E0044315F8013F203B02FA7D
:1020400003F00842F7D128782A2810D06FF02F0229
:102050002878A0F13001092914D80AEB8A0102EB93
:10206000410144F0020400EB010A6D1CF0E701CFCE
:102070005FEA000A03D544F40054CAF1000A44F0B0
:1020800002046D1C28782E2817D115F8010F44F092
:1020900004042A280ED06FF02F022878A0F1300116
:1020A00009290AD809EB890102EB410100EB01097A
:1020B0006D1CF2E757F8049B6D1C28786C280FD034
:1020C00006DC4C2817D068280DD06A2814D104E00B
:1020D000742810D07A280FD10DE044F400140AE0DF
:1020E00044F4801401E044F440146978814202D140
:1020F00004F580146D1C6D1C2A786E2A1FD00CDC30
:10210000632A31D004DC002A8BD0582A11D1A3E0F5
:10211000642A68D0692A0CD165E0732A2ED004DCC9
:102120006F2A73D0702A04D19BE0752A6FD0782A69
:102130006ED01046DDE90F129047761C50E1C4F3D3
:102140000250022806D0032809D0042801CF09D064
:10215000066045E101CFF117C0E9006140E101CF20
:1021600006803DE106703BE117F8040B8DF8000096
:1021700000208DF80100EB46012003E057F804BB76
:102180004FF0FF3061074FF0000102D40DE008F17D
:102190000101884649450FDA8045F8DB1BF8081035
:1021A0000029F4D108E008F1010188468142FADBF8
:1021B0001BF808100029F6D1DDE90F23AAEB08006F
:1021C00081462146FEF785FE304400EB080604E018
:1021D000DDE90F121BF8010B9047B8F10108F7D2A7
:1021E00021464846F7E00A21C4F302534FF0000BA2
:1021F0000891022B04D001CFC117032B09D00AE0AC
:10220000FF1D27F00707F7E8020108E032E01FE0B2
:1022100020E000B2C117042B01D140B2C117031E48
:1022200071F1000307DA4FF0000CD0EB0C006CEBFF
:1022300001012D2302E0230504D52B238DF8243042
:10224000012303E0E30701D02023F7E7984658E095
:102250000A2110E010210EE010204FF0000B089032
:102260000CE010214FF0000B44F004044FF008097B
:10227000089103E008214FF0000B0891C4F30253CA
:10228000022B04D001CF0021032B06D006E0FF1D56
:1022900027F00707F7E8020103E080B2042B00D122
:1022A000C0B24FF0000823072BD5702A07D0DDF805
:1022B00020C08CF0100C5CEA0B0C05D00EE0402323
:1022C0008DF82430012308E050EA010306D03023C2
:1022D0008DF824308DF8252002239846DDF820C0A3
:1022E0008CF0080C5CEA0B0C0BD150EA010301D115
:1022F000630706D530238DF824304FF00108A9F18B
:102300000109582A04D038A20B9208AA0A920BE0BD
:102310003AA2F9E75B46089AFEF7CAF80B9B9B5C6A
:102320000A9A521E0A92137050EA0102F2D10A98D8
:10233000ADEB000000F1200B600702D524F48034DF
:1023400001E04FF00109D94502DDA9EB0B0000E0E7
:10235000002000EB0B0141440890AAEB010AE003C6
:1023600006D4DDE90F2321465046FEF7B2FD0644B0
:102370004FF0000908E009A911F80900DDE90F1282
:10238000904709F10109761CC145F4DBE0030CD547
:10239000DDE90F2321465046FEF79BFD064404E08D
:1023A000DDE90F1230209047761C0899481E0890EE
:1023B0000029F5DC08E00A980A990078491C0A917E
:1023C000DDE90F129047761CBBF10001ABF1010B68
:1023D000F1DC21465046DDE90F23FEF768FD064497
:1023E0006D1C1BE609280100303132333435363795
:1023F0003839616263646566000000003031323351
:1024000034353637383941424344454600000000F0
:102410002DE9F041064608680C46411C4FF0A047E4
:102420004FF0010506D005FA00F1C7F8081520683D
:1024300002F0B6F86068411C02D0002102F0A7F853
:102440003079204901EB4010A169007F00283068F5
:10245000C0F8241525D0607D227D31681043C1F875
:102460006C05D4E900123068C0F80C15C0F81425CA
:1024700024E0A068411C02D0002102F088F8E06846
:10248000411C05D08540C7F80855E06802F088F87F
:10249000D4E902123068C0F80825C0F81015BDE86C
:1024A000F081607D217D32680843C2F86C05D4E973
:1024B00000123068C0F81425C0F80C15207D0128E2
:1024C000D7D0ECE7100100202DE9F04151488CB045
:1024D0000068514C012802D05048006828B9606853
:1024E0000078202898BF012000D900204C4F0321FC
:1024F000002639702660002876D04A4805680068B2
:102500004949086003A8CDE900044848026801234E
:102510002946184603F056FF002839D0012813D069
:10252000022839D0032818BF414801D0FEF7DEF851
:102530002068002865D0012060753E482061042095
:1025400038700CB0BDE8F081039800281CBF3A48F1
:10255000FEF7CCF8284604F099F8002804BF374865
:10256000FEF7C4F84FF0020878680023807D8DF8EC
:1025700000808DF801508DF80200ADF8083001930D
:10258000ADF80A308DF80330684603F075FECFE7EA
:102590002B48FEF7ABF8CBE70398002804BF294887
:1025A000FEF7A4F8284604F071F8002804BF264876
:1025B000FEF79CF84FF0020C78680022039B807DA8
:1025C0008DF800C08DF801508DF802004FF0010821
:1025D000ADF808200193ADF80A208DF80380684615
:1025E00003F04AFEA4E7FFE7002300961A461946C7
:1025F0001846019603F0E6FE042818BF134895D14B
:1026000096E703F065F96675266100F021F80CB0D5
:10261000BDE8F08100140040100700203415004090
:1026200080000020081400402C1500400C140040CD
:10263000C8050900AD0F0000B8050900B90509007B
:10264000BD050900C0050900C1050900CF05090045
:1026500070B503F03DF91E4C1E4E0025012025618A
:102660003070A4F150001C490069086004F012F8B1
:1026700008B304F00FF8032818BF184802D000BFB1
:10268000FEF734F8022003F0D5FA002003F052FBE5
:1026900004F000F803281CBF1148FEF727F8307833
:1026A00001281CBF0F48FEF721F8022030700E48A9
:1026B000C4E9030570BD03F01DFE0228E2D304F057
:1026C0006FF86060002808BF0848DBD1D8E7000039
:1026D0001007002080000020301500408005090010
:1026E0008805090092050900C92400007B0509003E
:1026F000FEF764BC10B50024800701D5FEF76EFC20
:10270000204610BD002901DA0020704702681144FC
:10271000016001207047000070B5461C0D46012481
:102720000020FEF72CFC114A10682860D2E9001046
:102730009568081A2B1A701C5B1C98420FD963B15C
:102740000B480C4B294000681B6802EB810163F3C6
:102750009F20C8601068401C1060002401E08819A8
:1027600010600020FEF70DFC204670BD60020020C6
:10277000906F00003C000020034803C8814201D153
:102780000120704700207047600200200249084481
:1027900090F9300070470000B80000202DE9F05F8C
:1027A00026484168F1B3DFF898B00E688146DBF83F
:1027B000004087688078E11B21F07F45ED1CB0B9AF
:1027C000DFF880804FF48030C8F84403C8F8040371
:1027D0001120FEF711F81120FEF719F84FF0010A49
:1027E000C8F800A02F2001F033FA89F802A0B54202
:1027F00000D23546124BE8193C3320F07F40186078
:10280000DBF800105A46091B21F07F41001B20F025
:102810007F40C91C81420FD9106818602F2001F039
:1028200017FA00E004E0BDE8F05F1120FDF7FABF01
:10283000BDE8F05F04F0B8B8BDE8F09F0C000020E0
:1028400004150140001001402DE9F043484883B0D1
:102850000068012802D04748006830B946484068FF
:102860000078202898BF012600D90026434C012576
:10287000606920B901F058FE002808BF656103F0C7
:1028800009FF01281CBF3E48FDF730FF3D4D686839
:10289000007D00281CBF3C48FDF728FF03F018F816
:1028A000002E04BF03B0BDE8F0830121084603F009
:1028B0004FFE052845D2DFE800F0034122414100E8
:1028C0004FF0000903F0D6FE0646B4F80C80E78905
:1028D00003F0D6FE014668680023827D8DF80090E3
:1028E0008DF80110ADF808808DF802200196ADF842
:1028F0000A708DF80330684603F0BEFC21E04FF00B
:10290000000903F0B7FE0646B4F80C80E78903F02F
:10291000B7FE014668680123827D8DF800908DF82E
:102920000110ADF808808DF802200196ADF80A700C
:102930008DF80330684603F09FFC02E01348FDF772
:10294000D5FE01F03FF92061114800F168024169AC
:1029500061602378022B03D0002908BF806800D073
:10296000C068106003B00020BDE8F04301F05CB91E
:10297000001400403415004010070020F406002029
:10298000A806090080000020A9060900C806090061
:10299000C00600200E4910B50A784C780023A242E8
:1029A00012D0521CD2B20A70022A00D10B70084A0F
:1029B0000B78183252F8232002608868104420F007
:1029C0007F408860012010BD0360002010BD000022
:1029D0000C00002030B52A4D83B0687E002804BF6B
:1029E00003B030BD01F048FD002401280BD001F0F8
:1029F00087FD2448007F10B901208107486000202E
:102A000003F06CFF6C6002F063FFAC706C76052025
:102A10008DF800008DF80140ADF808408DF80240B7
:102A20000194ADF80A408DF80340684603F024FC99
:102A30001548164904704FF44070086003F02AFEF0
:102A4000012818BF022815D003281CBF03B030BDD1
:102A5000009400231A4619461846019403F0B2FC6C
:102A6000042804BF03B030BD094803B0BDE83040BE
:102A7000FDF73CBE0021084603F06AFDF0E70000C8
:102A8000F4060020C00600208000002008F5014068
:102A9000E801090002490A8802808978817070473C
:102AA000B46F00002DE9F0418AB020270026099775
:102AB00001F0BAFE054601F0CFFE804602F03AF87A
:102AC000C82001F0DFFF052002F00CF8002001F023
:102AD00079FE01F029FE00208DF820000446002236
:102AE000012108A800F04AFB30B1002002F030F8C4
:102AF000641CE4B2642CF2D3C82000F017F9012062
:102B00008DF820000146002208A800F037FB08B32A
:102B10001E480078F0B1002001F088FE00281DDD7D
:102B200009AA69460020099701F00CFEB0B19DF892
:102B30000000082812D11548DDF801100C38C0F843
:102B400003100DF1010000F07BFB002000F022FAE1
:102B5000012603E04FF4967000F0E8F84FF4AF70F0
:102B600000F0E4F801F0E6FF002001F02BFE002069
:102B700001F038FE284601F085FF404601F0B2FF23
:102B800001F0D2FD0AB03046BDE8F08152000020CD
:102B9000002207E010F8013BFF2B01D00020704716
:102BA000521CD2B28A42F5D301207047F0B50746D5
:102BB000204889B0154600780E4698B1012814D0F7
:102BC000022834D110221C4904A8FDF739FC1B4906
:102BD0000D2204A8FDF734FC0024164A6846521C56
:102BE00021460DE010221449F3E71022124904A8EF
:102BF000FDF726FC04A800F0D9F8EDE7052C02D279
:102C0000135D035500E00155641CE4B2102CF5D3AC
:102C100001F0F6F904A801F005FA6946084601F04A
:102C2000C5F92B466A463146384600F069FB09B0C3
:102C3000F0BD000040000020B76F000098060020A3
:102C400070B50C4605460D2910D800F02BF808B1D8
:102C5000012070BD0648007840B900F059F928B14C
:102C600021462846BDE8704000F01CB8002070BD29
:102C70004600002001490870704700004000002015
:102C800001460D220148FDF7DBBB0000980600203D
:102C900003490268C1F801200079487170470000BB
:102CA00040000020F0B50746081D89B0C6B20620D6
:102CB0008DF8100004AC0D46601CFFF7EBFE2A46B1
:102CC0003946201DFDF7BCFB174D287808B10020C0
:102CD00000E00220FFF7CEFF701EC2B2611C601C34
:102CE000FFF764FF01200090002301AA314604A8E9
:102CF00000F05AFA18B99DF804000B2802D0002001
:102D000009B0F0BD01AC0322A01DA11DFFF74EFFCD
:102D1000A01D00F0E9FA0028F2D0287810B9601C54
:102D2000FFF7B6FF0120EBE74600002010B5044690
:102D300001F090FD6043BDE81040400000F0CEBFC0
:102D4000014803F0FBBA000000100000F0B54E236C
:102D5000B3FBF2F5022303704F23841804F8013CFF
:102D600081B10123541E0BE003F003068E5DB6FB18
:102D7000F5F705FB176605FB0366C6545B1CDBB263
:102D8000A342F1DB01210DE04318445C13F8013C40
:102D9000E31ADBB2052B03D2C3F1050323444354EA
:102DA000491CC9B29142EFD3F0BD00000349D1F8EC
:102DB00007200260C97A01717047000046000020B8
:102DC000F0B52F4D87B000262878012701ACB0B1AF
:102DD00003208DF80400601CFFF75CFE0020FFF765
:102DE00049FF0322611C601CFFF7E0FE002303AAD9
:102DF000042101A8009700F0D7F9A0B117E0022044
:102E00008DF804000521601C00F086F901220621DE
:102E100001A800F0B3F950B1601CFFF739FF2F7023
:102E2000002007B0F0BD9DF80C00092802D02E70DC
:102E30000320F6E703AC0922601C611CFFF7B6FE15
:102E4000601C00F051FAC0B19DF8100020B10128BB
:102E500005D0022800D12E709DF81000E1E7601D1A
:102E600000F076F90D21074800F056F90548FFF704
:102E700007FF012000F08EF8EDE72E700220D0E76A
:102E800046000020A506002041F6FF700078FF28CC
:102E900001D0012070470020704740F6817041F258
:102EA0007E01095CFF2905D00F20B0EB111F07D070
:102EB00008097047401E00B20028F0DA0E20704763
:102EC00001F00F00704700003EB5104C002020704C
:102ED000FFF7DAFF98B94FF4805090F87E00FF2892
:102EE0000DD0FFF7DAFF01460E2808D2684600F041
:102EF00046F80098C4F8030001A800F029F9BDE8DD
:102F00003E400248C01C00F09BB900004600002073
:102F100010B58AB004208DF804000120014600900D
:102F2000002306AA01A800F03FF930BB9DF8180065
:102F30000A2822D10DF11900FFF7AAFE05208DF80D
:102F4000040001AC601CFFF7A5FD0D21201D00F061
:102F5000E3F8201DFFF794FE0120FFF78BFE1022FF
:102F6000611C601CFFF722FE0122112101A800F064
:102F700005F910B101200AB010BD0020FBE701EBFC
:102F8000C10101F580510A6802604A684260097A0D
:102F9000017270472DE9FE4300265E4FB04634466D
:102FA00000285ED00025E94629466846FFF7E7FF7E
:102FB00058490422C91C6846FDF76DFA38B95549CD
:102FC0000522C91D09F10400FDF765FA80B16D1CE9
:102FD000EDB20E2DE8D3002529466846FFF7CFFF56
:102FE0004C490422C91C6846FDF755FA10B10CE0A3
:102FF0002C4632E0052109F10400FFF7C9FD20B19C
:10300000D7F807000190F87A13E06D1CEDB20E2D91
:10301000E2D3002529466846FFF7B1FF092168463B
:10302000FFF7B6FD48B157F8030F0090786801909C
:10303000387A8DF808002C4631E06D1CEDB20E2D6B
:10304000E8D3B8F1000F07D004EBC40069460922A9
:1030500000F5805003F0A8F93EB3FFF715FF28B341
:1030600056E0002421466846FFF789FF29490422DB
:10307000C91C6846FDF70FFA0028EED0641CE4B2C4
:103080000E2CEFD3002421466846FFF778FF042179
:103090006846FFF77DFD20B1D7F8030000900126B8
:1030A000D2E7641CE4B20E2CEDD331E0FFF7F5FE5D
:1030B000A0422DD00E2C2BD04FF48051002040F692
:1030C00081720F2591F87E10531C04E041F27E01BD
:1030D0009042095C0DD0CE43360706D0B5EB111FE8
:1030E0000AD164F31F11C9B20AE001F0F0012143D3
:1030F00006E044F0E00103E0401C00B29842E5DB4A
:1031000041F27E02104403F031F90120BDE8FE8354
:103110000020FBE746000020F0B50B4B0025C3F86C
:10312000005101241C602A46084E09E0D3F80071C2
:10313000002FFBD037688754C3F80051521CD2B21D
:103140008A42F3D35C60F0BD00D0004008D5004057
:1031500003490268C1F807200079C872704700006F
:103160004600002010B5044601F0B6FA00E030BF7A
:1031700001F06AFBB0EB440FF9D310BD10B5094C58
:10318000134600226270A2700A460146184601F0FA
:1031900049FA08B910BD30BF60780028FBD0A0788C
:1031A00010BD0000460000202DE9FC4780460A20A3
:1031B0000A9D009016460F46284601F0C9FC0124DE
:1031C00001F0A4FA01F0FAFB0028FBD101F03AFB70
:1031D00081461E2001F066FC01F0A6FA2A46394617
:1031E0004046FFF7CBFFE0B10224284601F0B0FCD7
:1031F00007208DF804000A20FFF7B4FF2A460121BA
:1032000001A8FFF7BBFF60B1284601F00FFB40B1FA
:10321000202000906A463146284601F093FA00B11A
:10322000002401F073FA00BF01F0C8FB0028FBD1B5
:10323000484601F037FC01F077FA2046BDE8FC87EC
:103240002DE9FF41054601F0B9FB264C0646EDB3DA
:1032500028786978EA7800EB0120A978090401EB65
:103260000261471801F066FC204601F0C5FB50B131
:103270000021084601F0AAFB28B1384601F0CCFB3A
:1032800008B1012402E0012407E037B121460846D5
:1032900001F09CFB08B1012700E00027641CE4B2A8
:1032A000082CF2D301F0B4FA0446C2B229466846AB
:1032B000FFF74CFD87B12146684601F0BDFB58B1D0
:1032C0000120002E05D001F02FFA00E007E030B118
:1032D000012004B0BDE8F0810020002EF9D00020CC
:1032E000F7E700000406080A10B503220349FDF7BA
:1032F000D2F808B1002010BD012010BDB46F00004D
:1033000070B5002409E000BF11F8015B12F8016BF1
:103310007540641C00F8015BE4B29C42F4D370BDBC
:1033200070B50E460446007918494FF4A27501EBBA
:103330004010017F2068A1B14FF4887103F0F2FAC8
:103340004FF49071206803F0EDFA4FF49271206809
:1033500003F0E8FA2946206803F0E4FA0C492068F3
:1033600009E04FF48E7103F0CCFA2946206803F08F
:10337000C8FA08492068C0F80413206800F01BFD53
:103380003146BDE8704000F0FABC0000100100209A
:1033900010030200800002002DE9F043264CA4F146
:1033A00010092278D9F8048099F80350404694F81F
:1033B00001C0D9F8086031E002EB42036168521C99
:1033C00001EBC301A378D2B2934200D100220B7863
:1033D000022B02D0032B21D11DE003464F68194672
:1033E00003E0B94203D00B46C969B9B1F9E7A9B105
:1033F0008B4205D1C06918B9104E0125B560002671
:103400000F68C969D96149B10B683B440B6005E09D
:103410000174C06900E000210028F9D19445CBD1A6
:10342000C9E9010689F80350404502D00120BDE8F2
:10343000F0830020FBE700001C000020001001408A
:103440002DE9F0412A4F0446002607F11005D7F870
:1034500004803EE002D02046E4691DE028786968D7
:1034600000EB4002401CC0B201EBC2012870AA78F8
:10347000904200D12E700A784868012A2BD1027C34
:103480004ABB8A684260CA6882600A69C260496948
:103490008161F97801B146604368BA68DFF854C0C9
:1034A000991A21F07F41614502D28268114406E0F9
:1034B000D11A826821F07F418A4202D9511A0160F3
:1034C00000E006604660012186600174C66103F079
:1034D00011FB002CBED1287869788842BED179686A
:1034E000414502D00120BDE8F0810020FBE700004B
:1034F0000C000020FFFF7F002DE9F05FC748002689
:103500000660C7484FF440750560C64806604FF036
:103510000108C0F80080C448016821F4807101608E
:10352000016821F00F0141F006010160016821F4FA
:10353000702141F440310160041D206820F00070CA
:103540002060206840F080702060206820F0FF003C
:1035500040F020002060206820F47F4020604FF081
:10356000E0204FF00209C0F8809200F07DFFAF49E3
:103570000860091FAE480860AE480560AE4802F01A
:103580002FFBAE49AE4D4860687F216821F4E021F1
:1035900041EA004020600023D5F820C019461822D7
:1035A000C8002CFA00F0C0B2002400F0010744EA81
:1035B000C714C0F3400744EA8714C0F3800744EA05
:1035C0004714C0F3C00744EA0714C0F3001744EAE5
:1035D000C704C0F3401744EA8704C0F3801744EAE5
:1035E000470444EAD0104C4202EBC404A040034319
:1035F000481CC1B20429D3D3924803600023D5F8F4
:1036000024C01946C8002CFA00F0C0B2002400F013
:10361000010744EAC714C0F3400744EA8714C0F323
:10362000800744EA4714C0F3C00744EA0714C0F314
:10363000001744EAC704C0F3401744EA8704C0F304
:10364000801744EA470444EAD0104C4202EBC40419
:10365000A0400343481CC1B20429D3D37A48036075
:103660000024071D4FF0FF0B07F1040A2819082C4E
:1036700090F8280058D2A107C90E0BFA01F2D243E4
:10368000042C26D23B681A403A60002200F0010365
:1036900042EAC312C0F3400342EA8312C0F380033C
:1036A00042EA4312C0F3C00342EA0312C0F300131C
:1036B00042EAC302C0F3401342EA8302C0F380131C
:1036C00042EA430242EAD010884039680843386031
:1036D0002DE0DAF800301A40CAF80020002200F08D
:1036E000010342EAC312C0F3400342EA8312C0F36B
:1036F000800342EA4312C0F3C00342EA0312C0F35C
:10370000001342EAC302C0F3401342EA8302C0F34B
:10371000801342EA430242EAD0108840DAF80010EF
:103720000843CAF8000002E04848FCF7DFFF641CC9
:10373000082C9BDB464995F830000860454895F811
:103740003110026822F0FF020260002904BF016804
:1037500001600AD0404A131F012929D0022930D024
:10376000032938D03D48FCF7C1FF3F4B95F83200A4
:1037700003F1040C0CF1040439493A4ADFF8ECA0D7
:10378000251DDFF8ECB02F1D70B3012838D00228BA
:1037900018BFBDE8F09FC1F800901A603548CCF81A
:1037A00000A0206034482860C7F800B0BDE8F09F52
:1037B000016841F001010160C2F800B040F2071059
:1037C00007E0016841F0020101604FF6FF701060F0
:1037D0002A481860C9E7016841F0030101606FF0F1
:1037E0007F4010601E60C0E70E601A602448CCF86D
:1037F00000A0206023482860C7F800B0BDE8F09F13
:10380000C1F800801A602048CCF800A020601F4852
:1038100028601F483860BDE8F09F000054F5014063
:1038200008F50140FC1F0040141500405CF5014004
:103830000411004004F50140100700208000002022
:10384000C00600201C150040201500403903090067
:103850000C150040341500403C150040C20309001F
:103860001015004000500078241700404E0000540E
:103870003E420F8208800C608864720021100100B3
:1038800003800C602264720002800C601164660088
:10389000DEC08F824FF0000888B0464604254246BD
:1038A00041460220FEF726FF08B1FDF75DFB002030
:1038B00002F0D0FC08B1FDF757FB41A1032002F054
:1038C0009BFC00BF02F0F6FB0028FBD100F0E4FFF8
:1038D00028B900F0A3FF00F50340FDF745FB4B209E
:1038E00001F0D0F828B900F099FF00F50340FDF78A
:1038F0003BFB4FF4FC7001F0E5F828B900F08EFFB7
:1039000000F50340FDF730FBFFF71AFAFFF7DCFA8A
:1039100000F00AFF28B900F081FF00F50340FDF731
:1039200023FB00273C464FF001092046FEF7E0FE4E
:1039300018B109FA04F03843C7B2641C042CF4D35C
:10394000F8438DF8000026B10D216846FFF778F99D
:1039500011E001F015F901F019F911226946022070
:1039600000F060FE08B908E030BF01F015F900284A
:10397000FAD001F017F9804608E01FA1012002F0FB
:103980003BFC00BF02F096FB0028FBD186F001064D
:10399000B8F1000F0ED11FA1012002F02DFC00BFD5
:1039A00002F088FB0028FBD1FFF77CF810B1FFF78D
:1039B00007FA0546002DB4D1FFF702FA0546B0E735
:1039C0004150503A494E464F3A47617A656C6C20F7
:1039D00064796E616D69632070616972696E6720D8
:1039E0006578616D706C652E20446576696365202D
:1039F0006D6F64652E0D0A004150503A4552524F8A
:103A0000523A5458206669666F206572726F722050
:103A10000D0A00004150503A4552524F523A476108
:103A20007A656C6C653A207472616E736D6973733C
:103A3000696F6E206661696C65640D0A00000000A4
:103A40002DE9F0470E46C0F30729C3B2010E40F33B
:103A500007400024170C40421FFA82F8062B67D259
:103A6000DFE803F00319314B475E002918BF01213D
:103A7000254667F30F0461F3070560F31F4468F3FD
:103A80001F45304601F062F9224629464846BDE806
:103A9000F04700F031BE29488068407E002804BF0E
:103AA0002748FCF723FE304601F050F9214664F325
:103AB000070167F30F0468F31F4122464846BDE83B
:103AC000F04700F00FBE002918BF012161F3070481
:103AD00060F31F4439B1002E04BF1A48FCF706FEFC
:103AE000304601F033F921464846BDE8F04700F082
:103AF000D2BE00F069FFBDE8F08713484168491C59
:103B000041600178002908BFBDE8F087816800297D
:103B10001EBF491E8160BDE8F08701F02FFA18B181
:103B2000BDE8F04700F0FEBDBDE8F04701F040B849
:103B3000BDE8F0470548FCF7D9BD00006000002053
:103B4000B5030500C3030500B4060020E303050028
:103B500002490F220A70C860704700006000002010
:103B6000C20800F007030120895C984008407047B4
:103B7000094841684A1C011F426009680B689A4263
:103B800038BF70470022426003685B1C03604968CD
:103B90008B4228BF026070478C00002070B5074C34
:103BA000251F206829684968884224BF0448FCF71B
:103BB0009DFD286821688068405C70BD8C000020F5
:103BC000B200010001480068704700008C0000202E
:103BD00001484068704700008C00002010B50400C8
:103BE00004BF0548FCF782FD044800210460001D65
:103BF0000160416010BD00002A0001008800002023
:103C000010B50446054800684068A0429CBF0448BF
:103C1000FCF76CFD0348046010BD00008800002024
:103C2000B90001008C00002010B50446054800686A
:103C30000068A0429CBF0448FCF758FD034844605C
:103C400010BD000088000020C50001008C0000208D
:103C500000283ED01F49204A096800BF00BF00BFAE
:103C600000BF00BF00BF00BF00BF91422FD000BF08
:103C700000BF00BF00BF00BF00BF00BF00BF00BF4C
:103C800000BF00BF00BF00BF00BF00BF00BF00BF3C
:103C900000BF00BF00BF00BF00BF00BF00BF00BF2C
:103CA00000BF00BF00BF00BF00BF00BF00BF00BF1C
:103CB00000BF00BF00BF00BF00BF00BF00BF00BF0C
:103CC00000BF00BF00BF00BF00BF00BF00BF401E5D
:103CD000C3D170475C0000200024F40000283ED0CF
:103CE0001F49204A096800BF00BF00BF00BF00BFD6
:103CF00000BF00BF00BF91422FD000BF00BF00BF78
:103D000000BF00BF00BF00BF00BF00BF00BF00BFBB
:103D100000BF00BF00BF00BF00BF00BF00BF00BFAB
:103D200000BF00BF00BF00BF00BF00BF00BF00BF9B
:103D300000BF00BF00BF00BF00BF00BF00BF00BF8B
:103D400000BF00BF00BF00BF00BF00BF00BF00BF7B
:103D500000BF00BF00BF00BF00BF401EC3D17047FF
:103D60005C0000200024F40000F01F0201219140BB
:103D70004009800000F1E020C0F880117047490739
:103D8000090E002806DA00F00F0202F1E02282F8A4
:103D9000141D03E000F1E02282F8001400F01F027D
:103DA000012191404009800000F1E020C0F880121C
:103DB000C0F800117047000B40B270470121B1EB11
:103DC000507F01D101207047002070472DE9F0415C
:103DD00005460079164F904607EB40140E46E07EEC
:103DE00010B10820BDE8F081707F20772846FEF7EB
:103DF0000FFB5FEA080060603169216003D0317F0A
:103E00002846FFF78DFA287907EB4010007F00283D
:103E1000286801D0082100E00421C0F80015002026
:103E2000E0752076A0750121E176A076DAE7000042
:103E3000100100202DE9F047054600793F4E9046DD
:103E400006EB40140F46207F18B10846FFF7B6FF77
:103E500030B1284600F074F820B11120BDE8F08799
:103E60001020FBE784F81680A7600027A782287936
:103E70004FF0010806EB40143E46207F00282868DA
:103E800025D04FF49079494602F04CFD4FF4AC7ABE
:103E90005146286802F046FD2868A17DA268C0F856
:103EA0004425C0F848152868C0F808806068F0B953
:103EB0004946286802F031FD80465146286802F0E4
:103EC0002CFD58EA0001F3D058BBA7750FE04FF462
:103ED0008E7A514602F015FD2868C0F80880214608
:103EE000286802F081FE61684FF4807089B1304625
:103EF000B4E75146286802F0FFFC10B9A08A484593
:103F0000F7D1A08A484505D02146286802F06CFE0A
:103F100000E08146A08AA17D8842EAD3A08A484574
:103F200001D10F26D1E75146286802F0E5FC0028B0
:103F3000F9D02868C0F80C80C7E700001001002005
:103F40000079044901EB4010807D002800D0012059
:103F5000704700001001002070B504460079114937
:103F6000002601EB401520682A7FC0F800656868CC
:103F700088B1207901EB4010007F0028206801D033
:103F8000094901E008498C39C0F808132068FFF797
:103F900012FFFFF7E9FE204602F0CAFCEE766E60E3
:103FA00070BD0000100100201003020070B5124D1A
:103FB00006464FF080746868814202D01022FCF7F8
:103FC0003FFA0E490020C1F8000101220A6001E019
:103FD000641E0ED0D1F80021002AF9D0C1F80001EA
:103FE000A9688E4203D010223046FCF729FA01203E
:103FF00070BD002070BD00000000002000E0004007
:104000000549064801F11002C0E900121032826031
:1040100003480160012070473001002000000020AB
:1040200004E500400146024810220068FCF708BA87
:10403000000000202DE9F05F8046102824BF43488F
:10404000FCF754FBB8F1100F24BF4148FCF74EFBBE
:1040500008EB48063F49885D002808BFBDE8F09F8F
:104060003D4A701802EB860B054610F8022F5BF8EC
:1040700022400278521C027090F800C00022BCF16D
:10408000030F28BF0270885D401E8855002C08BFB2
:10409000BDE8F09FDFF8C4A0314FDFF8C890544569
:1040A00004BF3148FCF722FB3868062824BF2F489C
:1040B000FCF71CFB0020396800290BD959F8203087
:1040C000A34203D12A48FCF711FB0FE0401CC0B209
:1040D0008842F3D32749002000EB001201EB420293
:1040E000A24206D0401CC0B20628F5D32248FCF7F5
:1040F000FDFA386859F8200050451CBF1F48FCF7EE
:10410000F5FA386849F82040401C3860B8F1100FC3
:1041100024BF0F48FCF7EAFA0E48815D002908BF6A
:10412000BDE8F09FA978AB785BF82140A91C5B1C27
:10413000AB70AB78032B24BF00220A70815D491E4F
:104140008155002CABD1BDE8F09F0000D7000300E3
:10415000A600030074080020A4080020ADDEADDE38
:10416000B400002064090020DB0003008500030088
:10417000F60003007C09002086000300880003008D
:1041800070B51B4E04463068062824BF1948FCF75A
:10419000ADFA00213268184D002A0BD955F82130AC
:1041A000A34203D11548FCF7A1FA0FE0481CC1B2A5
:1041B0009142F3D3124A002101EB011002EB4003BC
:1041C000A34206D0481CC1B20629F5D30D48FCF71E
:1041D0008DFA30680C4955F8200088421CBF0B4806
:1041E000FCF784FA306845F82040401C306070BD10
:1041F000B40000208500030064090020F6000300DD
:104200007C09002086000300ADDEADDE88000300DF
:104210000148006870470000B400002010B5044653
:10422000102824BF0348FCF761FA04EB440002495C
:10423000085C10BDC80003007408002030B40020E2
:10424000144A014600EB400303EB020C8CF801100A
:104250008CF80210D154401C1028F3D30E4C0021CE
:1042600004F1180C5FF0DE0201EB01100CEB4003CF
:1042700044F8213000201D181A54801C6A7022282E
:10428000F9D3491C0629EFD304490620086030BC45
:10429000704700007408002064090020B40000206A
:1042A00070B500240546102824BF1148FCF71EFAFB
:1042B00005EB45030F4AD05CC0B1991802F13000FC
:1042C00011F802CF00EB830050F82C4091F800C0A9
:1042D0000CF1010C81F800C091F800C0BCF1030F93
:1042E00024BF00200870D05C401ED054204670BD12
:1042F000A60003007408002070B50D46044610297E
:1043000024BF2348FCF7F2F9002222481646006831
:10431000002888BF20490BD951F822C0A44503D1F9
:104320001E48FCF7E3F90FE0521CD2B28242F3D3ED
:104330001B48002202EB021100EB4103A34206D00E
:10434000511CCAB2062AF5D31648FCF7CFF9164B12
:1043500005EB4502985C032824BF002070BD13487C
:10436000D11800EB820011F801CF40F82C4091F8F1
:1043700000C00CF1010C81F800C091F800C0BCF144
:10438000030F28BF0E70985C401C9854012070BD2C
:104390008F000300B400002064090020F600030031
:1043A0007C0900209000030074080020A40800206D
:1043B00010B50446102824BF0948FCF797F904EB10
:1043C000440008490A5C002A04BF002010BD064AC8
:1043D00002EB80020844807852F8200010BD0000F3
:1043E000B700030074080020A4080020184B10B583
:1043F0001968002449B3174ADFF85CC002EB81005A
:1044000050F8044C40F804CC481E4FF000011860EE
:104410000CD000BF52F821C0A44503D10F48FCF7CF
:1044200065F90FE0491CC9B28142F3D30C48002161
:1044300001EB011200EB4203A34206D0491CC9B2B2
:104440000629F5D30748FCF751F9204610BD0000B6
:10445000B400002064090020ADDEADDEF6000300EC
:104460007C0900207D000300004870474880004020
:1044700000487047408100400148007870470000C4
:104480009400002070B5124E01247460F46011484D
:104490000025056074641048006800281CBF0F48A0
:1044A000FCF724F94FF0FF30C6F80803C6F8405176
:1044B0000B49042008600B48456004704570857006
:1044C00088154FF0E021C1F88002C1F8000170BDED
:1044D000008000400885004044850040350004000D
:1044E0001085004094000020034901200860034922
:1044F00000200870704700000080004094000020F9
:10450000074801214160C160064800224FF0E02CBD
:10451000426042700B02CCF88032827001707047AA
:10452000008000409400002001484078704700005F
:104530009400002070B541EA4201DDE904564FF0D5
:10454000A04441EA830141EA052104EB800041EAED
:104550000641C0F8001770BD70B541EA4201DDE9BF
:1045600004564FF0A04441EA830141EA052104EBDF
:10457000800041EA0641C0F8001770BD1CB500215B
:1045800000910B4601220191FFF7E6FF1CBD1CB50F
:1045900000220B46009211460192FFF7DDFF1CBD81
:1045A0001CB5002100910B46012201911146FFF735
:1045B000D3FF1CBD4FF0A04202EB8000D0F80027D3
:1045C00022F44032C0F80027D0F8002742EA014127
:1045D000C0F800177047000018B5084B6C4601443E
:1045E0001B68009306E000BF54F82030D3F8103564
:1045F000401C08C28142F7D818BD00006C6F000053
:10460000034908B50844002101600068009008BD16
:104610000060004002494058012800D00020704747
:10462000006000402DE9F041294C164688460746B7
:10463000082804D3042020700020BDE8F081B8F1E0
:10464000000F06D0202E09D9062020700020BDE8DA
:10465000F081032020700020BDE8F08100F096FB7F
:10466000032804D3092020700020BDE8F0813846DB
:1046700000F07EFB032804D30A2020700020BDE850
:10468000F08100F06DFB022804D208202070002089
:10469000BDE8F08100F0CEFC054606704078324659
:1046A00040F0010068704146A81CFBF7C9FEF8B253
:1046B000294600F077FC00281CBF0120BDE8F081EE
:1046C0000448FCF713F80F2020700020BDE8F081AB
:1046D00060000020DD0005000149002048607047AF
:1046E000B40600200348C16002610121417000212D
:1046F00081707047460000200348C16002610121BB
:1047000041708170704700004600002010B500F035
:1047100035FC18B1BDE8104000F004B8BDE8104009
:1047200000F046BA704700000548816819B90221B7
:1047300001700020704710B500F078FA012010BD1C
:10474000600000202DE9F04116460F46044600F0B7
:104750000FFB1A4D60B187B1204600F069FC00786C
:10476000316881420ED2062028700020BDE8F08119
:104770000B2028700020BDE8F08103202870002065
:10478000BDE8F081204600F003FC040018BF14F1DE
:1047900002000BD02278014638463260FBF750FE0B
:1047A000204600F0D3FA0120BDE8F0810448FBF771
:1047B0009DFF0F2028700020BDE8F08160000020E0
:1047C0000501050010B5082804D305490420087028
:1047D000002010BDC0B200F095FA012010BD00000D
:1047E00060000020094910B58A68527E1AB10C2079
:1047F0000870002010BD082803D304200870002092
:1048000010BDC0B200F088FA012010BD6000002089
:1048100001484068704700006000002001480078AF
:10482000704700006000002000F09CBA082804D304
:10483000034904200870401F704700F099BA000037
:104840006000002000F096BA014840687047000000
:10485000B406002000F094BA10B5012400F098FAD4
:10486000F02808BF052414D008DC90B1042808BF44
:1048700000240ED0EC2808BF06240AE0F42808BF64
:10488000042406D0F82808BF032402D0FC2808BF5F
:104890000224204610BD70472DE9F047434C804666
:1048A000002543482570E560056045608560414806
:1048B00000F074FA0127A060002872D0407E022622
:1048C000626804F11001012808BF26701FD0102A69
:1048D0001BD8100019D03848FBF7B2FD3648616884
:1048E00000F0C6FB4FF00109B8F1000F12D0B8F18B
:1048F000010F08BF022011D0B8F1020F1CBF052024
:1049000020704FF0000009D00BE0072020704FF01E
:104910000009E9E7012000F027FC01E000F024FC99
:10492000012000EA0908042000F08EFBA1680020A5
:10493000497E00291CBF2670284602D100F092FB58
:104940003846A16800EA08080020497E00291CBFFB
:104950002670284602D100F019FD384600EA080802
:10496000A068407E00281CBF2670284603D1012085
:1049700000F098FB3846A16800EA08080020497E4C
:10498000002918BF267002D100F00AFD3D4605EA55
:104990000805012000F0A4F9002D1CBF0120BDE88E
:1049A000F08727700020BDE8F0870000600000203D
:1049B000B4060020413A00007000002001488068E1
:1049C000407E70476000002070470000094A10B523
:1049D00093685B7E1BB102201070002010BD082878
:1049E00003D304201070002010BD00F077FC0120DC
:1049F00010BD000060000020064910B58A68527E94
:104A00001AB102200870002010BD00F0EFFB012059
:104A100010BD000060000020064910B58A68527E73
:104A20001AB102200870002010BD00F01BFC01200C
:104A300010BD00006000002010B5114CA268527E2D
:104A4000012A11D0102913D891B1A8B10A4661608A
:104A5000014604F11000FBF7F3FC04F1100061685B
:104A600000F006FB012010BD02202070002010BDC8
:104A700007202070002010BD03202070002010BDF2
:104A800060000020064910B58A68527E1AB10220E3
:104A90000870002010BD00F061FB012010BD000077
:104AA00060000020064910B58A68527E1AB10220C3
:104AB0000870002010BD00F05DFC012010BD00005A
:104AC00060000020064910B58A68527E1AB10220A3
:104AD0000870002010BD00F053FC012010BD000044
:104AE00060000020124910B58B68024600205B7EF2
:104AF0001BB102200870002010BD072A14D2DFE885
:104B000002F0040F06080A0C0E00042008E0FC2046
:104B100006E0F82004E0F42002E0F02000E0EC20C1
:104B200000F034FC012010BD0E200870002010BDE4
:104B30006000002010B5FFF741FF002806D0FFF706
:104B4000E5FD30BFFFF73AFF0028FBD110BD0000A4
:104B500038B50446012181F31088202505E06A4616
:104B6000064920460095FFF7EDFD2046FFF75EFE63
:104B70000028F4DC002080F3108838BD780600207F
:104B8000014900204870704746000020014900207C
:104B90008870704746000020014840787047000048
:104BA0004600002001488078704700004600002041
:104BB00010B5012080F310881748417E002927D0C6
:104BC000817829BB01248470FFF756FC01281FD18E
:104BD00001F076FE00281CBF1048FBF787FD00227D
:104BE00064210F48FBF784FD0E48007F70B90E4822
:104BF000046000210007C0F80011046000BF00BF7E
:104C000000BF00BFD0F800110029FBD0FFF76CFCFB
:104C1000002080F3108810BDF40600202C06090047
:104C20009D680000C00600201405004070B5234DAB
:104C3000687E002818BF70BDFEF75EFC204CA0689F
:104C4000002804BF1F48FBF751FD6068002804BF1F
:104C50001D48FBF74BFD01F02DFE00281CBF1B4833
:104C6000FBF744FD002001F039FE01246C76FFF7CC
:104C700003FC012818BF70BD01F022FE00281CBFF4
:104C80001348FBF733FD002264211248FBF730FD87
:104C90001148007F70B91148046000210007C0F876
:104CA0000011046000BF00BF00BF00BFD0F80011BA
:104CB0000029FBD0BDE87040FFF716BCF4060020C9
:104CC000280700205E0209005F0209006602090051
:104CD0002C0609009D680000C00600201405004055
:104CE00010B5044604484068002804BF0348FBF799
:104CF000FDFC0348047510BD80000020F603090088
:104D00001007002010B5012181F3108801F08AFC02
:104D1000002080F3108810BD10B50446012181F3F6
:104D2000108808490A78002A1FBF487E00280648D4
:104D3000FBF7DCFC204601F079FC002080F31088B2
:104D400010BD0000F4060020FA02090010B5012190
:104D500081F3108801F084FC002080F3108810BDDE
:104D600001F080BC0148408B70470000C006002065
:104D700001F08CBC0148406970470000C00600206B
:104D80000148406870470000C006002001F088BC60
:104D9000014890F830007047C00600202DE9F04728
:104DA0000446012080F310886B4D4FF00309002664
:104DB000687085F80090AE706E60AE60AE81EE8176
:104DC0002E6107466E612E7605F11C006E76066038
:104DD00046608660C660066100F118080675C8F86E
:104DE0000860C8F80460FFF74DFB204601F08CFA1C
:104DF00001F058FC002001F069FD05F13400FEF7D8
:104E0000EDFE564880F80064C01F80F800645449E5
:104E1000202081F80004012087F310882978A5F16B
:104E20003404012928D06870687E20B1FFF724FB84
:104E3000012803D020E002F005F81DE001F040FD5C
:104E400000281CBF4748FBF751FC0022642146485C
:104E5000FBF74EFC207F68B9444807600007C0F8A4
:104E60000061076000BF00BF00BF00BFD0F80011A5
:104E70000029FBD0FFF738FB002080F31088FF20CB
:104E80002061042161773A4820623A48606284F8E0
:104E90002870022084F8290084F82A9084F82B10C6
:104EA000052184F82C10062184F82D10072184F8A0
:104EB0002E10082184F82F1084F8306084F8310017
:104EC00084F832701E2161614FF416716160E060F8
:104ED0002A78022A06D06968002904BFA168C8F8A8
:104EE000001001D0C8F800000F21A160022A05D0EF
:104EF0006A68002A08BFC8F8001001D0C8F800008E
:104F0000002060830120207660760020207701F069
:104F100041FC69202060687801281CBF1648FBF717
:104F2000E5FB2F70AE706E60AE60AE81EE812E61DB
:104F30006E612E766E76FEF7DFFA4FF0E0204FF4CA
:104F40008071C0F880124903C0F8801286F310887F
:104F50000148BDE8F0870000F406002008E000E00A
:104F600015E000E02C0609009D68000014050040D3
:104F700004070A0D05080B0E3C0209000348407E99
:104F800000280CBF0120002070470000F40600201C
:104F900010B5012181F3108801F0BAFB002181F3E3
:104FA000108810BD10B5012282F3108801F0B3FB08
:104FB00000282ED01948817831BB407E20B3FFF7FE
:104FC0005BFA012820D101F07BFC00281CBF1448AB
:104FD000FBF78CFB002264211248FBF789FB124887
:104FE000007F78B911480121016000220007C0F854
:104FF0000021016000BF00BF00BF00BFD0F800115A
:105000000029FBD0FFF770FA002080F31088012000
:1050100010BD002080F3108810BD0000F4060020B1
:105020002C0609009D680000C00600201405004001
:1050300001F082BB10B5012080F3108801F07FFBE6
:10504000002181F3108810BD0449487704490A689B
:1050500022F4E02242EA004008607047C0060020C7
:10506000181500400149087670470000C00600206E
:1050700070B50C00054604BF0748FBF737FB002D51
:1050800004BF0648FBF732FB0548C0E90145BDE80F
:1050900070400020FEF7B4BD480309004903090031
:1050A000280700202DE9F0011F49224B204A1C1D32
:1050B00081F83200251D1D49DFF87CC02E1DDFF868
:1050C0007C80371DA0B1012820D002281CBFBDE87C
:1050D000F0017047022008601A601948C4F800C047
:1050E000286018483060C7F80080BDE8F0017047BC
:1050F000002008601A601448C4F800C028601348F3
:105100003060C7F80080BDE8F001704701200860FA
:105110001A600F48C4F800C028600E4830600E487E
:105120003860BDE8F0017047C0060020101500404F
:1051300000500078241700404E0000543E420F8279
:1051400008800C608864720003800C602264720026
:1051500002800C6011646600DEC08F8201494883C2
:1051600070470000C006002010B5012181F31088AF
:1051700019490A7882422BD04870487E20B1FFF747
:105180007BF9012803D023E001F05CFE20E001F070
:1051900097FB00281CBF1148FBF7A8FA00226421E6
:1051A0000F48FBF7A5FA0F48007F78B90E48012198
:1051B000016000220007C0F80021016000BF00BFAD
:1051C00000BF00BFD0F800110029FBD0FFF78CF919
:1051D000002080F3108810BDF40600202C06090082
:1051E0009D680000C0060020140500401B4930B433
:1051F00000231A464FF0180C0862D10020FA01F182
:10520000C9B2002401F0010544EAC514C1F3400508
:1052100044EA8514C1F3800544EA4514C1F3C0058E
:1052200044EA0514C1F3001544EAC504C1F340156E
:1052300044EA8504C1F3801544EA450444EAD111E7
:1052400054420CEBC404A1400B43511CCAB2042AC3
:10525000D3D30348036030BC70470000C006002071
:105260001C1500401B4930B400231A464FF0180C9F
:105270004862D10020FA01F1C9B2002401F0010511
:1052800044EAC514C1F3400544EA8514C1F380051E
:1052900044EA4514C1F3C00544EA0514C1F30015FE
:1052A00044EAC504C1F3401544EA8504C1F38015FE
:1052B00044EA450444EAD11154420CEBC404A14031
:1052C0000B43511CCAB2042AD3D30348036030BC39
:1052D00070470000C00600202015004008283ED27C
:1052E000204AFF2302444FF0000C82F82810820766
:1052F000D20E03FA02F201F001034CEAC313C1F328
:10530000400C43EA8C13C1F3800C43EA4C1CC1F3FC
:10531000C0034CEA031CC1F300134CEAC30CC1F3F5
:1053200040134CEA830CC1F380134CEA430343EA75
:10533000D1118307DB0ED2439940042807D20A48D3
:1053400003681A4002600268114301607047074811
:1053500003681A4002600268114301607047044804
:10536000FBF7C4B9C00600202415004028150040F2
:10537000390309000149486170470000C006002058
:105380000149486070470000C0060020024981F8CA
:105390003000024908607047C00600200C1500402C
:1053A0000149087770470000C006002070B5114819
:1053B000114C4068407D28B1012000F0BBFCA08961
:1053C000401CA0810D49002630460E600C494A68F9
:1053D0000968551A01F082FA6069A84224BF094899
:1053E000FBF784F960690122291A0748FBF780F965
:1053F000666170BD80000020F406002054F5014075
:10540000C00600204D0609009D6800002DE9F04F00
:10541000F84CDFF8E483F94F606983B004F1340A93
:105420004FF001090025A4F1340610B9FFF77CF80C
:10543000D0B1606800281CBF401E60602078022840
:1054400004D06168002908BFB16800D0F168CAF8CB
:105450000010A178002900F0EF81FEF789FB03B06E
:10546000BDE8F04FFDF7B6BA2078012802D0022837
:1054700006D00CE000F054FC002840F0198206E051
:1054800098F80000042818BF032800F01182FEF7E6
:105490006FFB606800281CBF401E606020780228F7
:1054A00004D06068002808BFB06800D0F068CAF86F
:1054B0000000A078E8B1FDF78DFA00BF00F01AFFF8
:1054C0000228C0F0B38100204FF0030C8DF800C01B
:1054D0008DF80100ADF808000190ADF80A008DF8D4
:1054E00002508DF80350684600F0C6FE03B0BDE8D8
:1054F000F08F01F0A7FC88B10020766801F0EEF98A
:105500006069B04224BFBE48FBF7F0F86069012231
:10551000311ABC48FBF7ECF86561CFE7207800282A
:1055200000F0348101281AD0022800F01381B64817
:10553000FBF7DCF8707E0128C0D120780228BDD0AE
:1055400061680029BAD14FF08047002800F04281FD
:10555000012800F02781AD48FBF7C8F8AEE700F05E
:10556000B7F901F097F8DFF8A8A20AF1040B28B305
:10557000708B00287ED0A18981427BD3012100203D
:1055800000F0E6FF4FF0010801F074F80746B4F8A8
:105590000CA0B4F80EB001F073F88DF800808DF80F
:1055A0000100ADF808A08DF802500197ADF80AB0DF
:1055B0008DF80350684600F05FFE9CE000F09AFE14
:1055C000022876D32078022801D0606818B1FEF74F
:1055D000FFFA60B38FE02069FEF712FB0020FEF7B0
:1055E00023FB01F0FFF8002863D0A581E58101F0DD
:1055F00047F88849086001F043F809FA00F1864845
:10560000016001F037F88549086001F02DF8834901
:1056100048608348C860FEF7C1FA386001F03AF884
:10562000012870D001F036F8022857D053E0307EC0
:1056300030B301F0D7F8E0B3A581E58101F020F89F
:105640007449086001F01CF809FA00F17248016021
:1056500001F010F87149086001F006F86F494860E0
:105660006F48C860FEF79AFA386001F013F8012815
:1056700066D000E048E001F00DF802285ED02AE094
:10568000FEF7A0FA2169884235D101F0ABF880B16C
:10569000A581E58100F0F4FF5E49086000F0F0FFAD
:1056A00009FA00F15C48016000F0E4FF5B49086022
:1056B00000E020E000F0D8FF584948605848C86032
:1056C000FEF76CFA386000F0E5FF012838D000F0F2
:1056D000E1FF022832D05348FBF708F82EE000BF64
:1056E00000F0A8FAFEF7C4FECAF80000D8F80400DB
:1056F0004068CBF800000120376801F0EFF86069DE
:10570000B8421FD349E01BE0FEF70EFF00281CBF84
:105710004548FAF7EBFFFEF741FA3968884202D0B4
:10572000E089401CE081FEF739FA386000F0B2FFF2
:10573000012805D000F0AEFF0228CCD10020CFE731
:105740000120CDE760690122391A2E48FAF7D0FF0F
:105750006561EFE64FF0000AFEF720FA39688842EB
:1057600004D0FEF71BFA38604FF0010A98F80010D9
:10577000AAF10100084208BFFCF76AFF0020776821
:1057800001F0ACF86069B842DCD306E0002077682D
:1057900001F0A4F86069B842D4D31948FAF7A6FF1B
:1057A000D0E700BF00F076FF00287FF487AE01F05D
:1057B0006FF800287FF482AEFEF75EFE01283FF40A
:1057C0007DAEFEF79DFE307F70B900BFC7F8049034
:1057D0000AE000BFFEF750FE01283FF46FAEFEF76F
:1057E0008FFE307F0028F1D0002001F077F865604F
:1057F00064E60000F4060020800000200815004048
:105800004D0609009D680000580409007204090053
:1058100050F501402C1500403015004010070020C5
:10582000492800001E0609000A05090003B02548A2
:10583000BDE8F04FFAF75ABF022809D0FEF798F9F1
:105840000020766801F04AF86069B04223D225E072
:1058500098F80000042818BF032829D0FEF788F91B
:105860004FF00009FEF79AF93968884204D0FEF734
:1058700095F938604FF0010998F80010A9F101007E
:10588000084208BFFCF7E4FE0020766801F026F825
:105890006069B04202D30C48FAF728FF6069012220
:1058A000311A0A48FAF724FF656103B0BDE8F08FAA
:1058B00070684108616103B00122BDE8F04F034800
:1058C000FAF716BF8C0409004D0609009D68000018
:1058D00030B44FF0E02401204FF0020C0021C4F856
:1058E00080C1724A851EC2F80853C4F880C2C2F84B
:1058F0000012C2F81011106190616D4B18780128E8
:1059000008BF06205AD0022816BF03280220012013
:105910007ED0401E00BF00BF00BF00BF00BF00BF61
:1059200000BF00BF00BF00BF00BF00BF00BF00BF7F
:1059300000BF00BF00BF00BF00BF00BF00BF00BF6F
:1059400000BF00BF00BF00BF00BF00BF00BF00BF5F
:1059500000BF00BF00BF00BF00BF00BF00BF00BF4F
:1059600000BF00BF00BF00BF00BF00BF00BF00BF3F
:1059700000BF00BF00BF00BF00BF00BF00BF00BF2F
:1059800000BF00BFC5D100BFC2F810111970C2F826
:105990000012C2F80853C4F880C2C2F80C110320E8
:1059A0005870C2F80011C2F81011C2F80411596001
:1059B00019755975C4F800C130BC7047401E00BF4E
:1059C00000BF00BF00BF00BF00BF00BF00BF00BFDF
:1059D00000BF00BF00BF00BF00BF00BF00BF00BFCF
:1059E00000BF00BF00BF00BF00BF00BF00BF00BFBF
:1059F00000BF00BF00BF00BF00BF00BF00BF00BFAF
:105A000000BF00BF00BF00BF00BF00BF00BF00E07D
:105A100011E000BF00BF00BF00BF00BF00BF00BF5C
:105A200000BF00BF00BF00BF00BF00BF00BF00BF7E
:105A300000BFC3D1A8E7401E00BF00BF00BF00BF2A
:105A400000BF00BF00BF00BF00BF00BF00BF00BF5E
:105A500000BF00BF00BF00BF00BF00BF00BF00BF4E
:105A600000BF00BF00BF00BF00BF00BF00BF00BF3E
:105A700000BF00BF00BF00BF00BF00BF00BF00BF2E
:105A800000BF00BF00BF00BF00BF00BF00BF00BF1E
:105A900000BF00BF00BF00BF00BF00BF00BF00BF0E
:105AA00000BF00BF00BF00BFC5D16DE700100040C0
:105AB000340700202DE9F0413D483F4E03220369A1
:105AC00000253C4C3168012B06D0022B56D0BDE896
:105AD000F0413A48FAF70ABE0423037083695B1C5D
:105AE0008361C4F8002201274FF0E0280222C8F8A1
:105AF0008022C4F80C51C4F80051C4F81051C4F805
:105B000004510822C4F80423097D89B12C4909688D
:105B100081752C48006810F4806F04BF2A48FAF79A
:105B2000E5FDC4F81C51A76128494FF48060086066
:105B3000D4F8000100281CBF2548FAF7D7FDD4F897
:105B40000C0100281CBF2348FAF7D0FDD8F800024A
:105B500010F0020F1CBF2048FAF7C8FD3068C0687B
:105B6000002818BF80473068417D002908BFBDE884
:105B7000F081006819490860BDE8F081C4F80C5153
:105B8000C4F81051C4F80051C4F80451C4F80052CC
:105B900005704FF0FF33C4F8083342704560057557
:105BA0000869002808BFBDE8F081BDE8F041004762
:105BB00034070020001000409C000020E7020A008B
:105BC0004815004000F50140AD020A0008F501400B
:105BD000B6020A00B7020A00B8020A000415004023
:105BE00070B50F4902254FF0E02608600024C6F882
:105BF00080510D490B480860091F0C48086006F5E4
:105C0000C076FFF765FE0A480321047041704460C6
:105C1000046104754475847546F8805C70BD0000AD
:105C20009C0000201410004064F501400411004065
:105C3000340700202DE9F04705462E482E4C00EB96
:105C40000517207D00281CBF2C48FAF74FFD0026C1
:105C50004FF0010A002D1CBF012D022D2DD0284828
:105C6000FAF744FD2748FAF741FDDFF89C80667596
:105C70004FF0FF30C8F808034FF0E0210220C1F8D0
:105C80008002DFF888906570032DD9F80000016864
:105C9000A1604268C4E90326A661386860601BD22F
:105CA000387AC8F80002FB7A194853B102600068DC
:105CB000002808BF17480AD00BE020780028D1D16F
:105CC000D3E701600068002808BF134801D1FAF744
:105CD0000DFD787AC8F80403D9F80000007D28B1DA
:105CE000022D03D10D49A6756802086084F815A03D
:105CF000BDE8F087C86F000034070020DB000A0011
:105D0000F9020A00DD000A00001000409C0000209B
:105D10000415004005010A0000010A0004F50140D5
:105D20000348D0F80401012818BF00207047000084
:105D3000001000402DE9F041214C074621486578CC
:105D400000EB0516607D01281CBF1F48FAF7CEFC4A
:105D5000207D00281CBF1D48FAF7C8FC0120002147
:105D600020756175032D09D2002F04BF31680860CA
:105D7000022D12BF012DB07A207002E01448FAF70C
:105D8000B5FC14480068007D002808BFBDE8F0811C
:105D9000022D18BFBDE8F0810F48006810F4806F35
:105DA00004BF0E48FAF7A2FC0D480068002818BF8F
:105DB000BDE8F0810B48BDE8F041FAF797BC000060
:105DC00034070020C86F000021010A0022010A00E8
:105DD0003A010A009C00002004F5014040010A003D
:105DE0000415004041010A0000487047615E000050
:105DF00030B5184C054689B0207828B160788542C6
:105E000002D1002009B030BD202213496846FAF7BC
:105E100017FB00208DF81400062000900820019048
:105E200005200390072002904FF0EB700690094880
:105E3000001DFEF791F80DB1002200E0074A054869
:105E40006946001DFDF7C2FF0028DBD1012020704C
:105E50006570D6E730000020706F0000256C0000F0
:105E60002DE9F04FC1B00D004FF0000140914D9869
:105E70004B991C46174601EB000B01D00A2000E0AD
:105E80000020804600F0D4FD00287CD16E46BCB9CD
:105E9000409840AA3118284600F08CFE002872D0A5
:105EA0003846FAF7F1FAC22800D9C22005464098D0
:105EB0002A4630443946FAF7C3FA409828444090BD
:105EC0004FF0200A409901EB080231320DEB010539
:105ED0000DEB0206002002E005F801AB401C404536
:105EE000FAD300275C4508D305F801AB05F801ABF0
:105EF00005F801AB06F801AB2DE04B98844202D2C5
:105F00004A98005D02E0211A4C98405C2B4681467D
:105F100002460121880022FA00F000F00F00092853
:105F200001D9373000E03030C1F1010C491E03F8CF
:105F30000C00EFD29D1C05F801ABFAF77DFA016861
:105F400011F8090010F03E0F01D0484600E02E2065
:105F500006F8010B641C7F1C102FC3D30D2030707A
:105F60000A20707085F800A040996846414443318A
:105F7000409100F063FD30B100F05AFD18B90020E7
:105F800040905C459ED341B02046BDE8F08F2DE99E
:105F9000F043C7B000251C46904689464E9F459564
:105FA00000F046FD00287AD1459805AE311845AA83
:105FB000484600F0FFFD002835D0072F27D2DFE844
:105FC00007F004121B35424F5D004046FAF75CFAB9
:105FD000054645982918FF2919D830442A464146D4
:105FE000FAF72EFA13E045982368C0F58071304423
:105FF0004246FAF739FF09E0606800904598236847
:10600000C0F5807130444246FAF72EFF0546294616
:1060100045A8FCF777FB459978B3B1F5807F3ED86A
:1060200005A800F00BFD47B0BDE8F083D4E90101FD
:10603000CDE9000145982368C0F58071304442469F
:10604000FAF712FFE2E7201D07C88DE80700459820
:106050002368C0F5807130444246FAF705FFD5E762
:10606000201D0FC88DE80F0045982368C0F580718A
:1060700030444246FAF7F8FEC8E710E004F10800A1
:1060800001AD0FC885E80F0060680090459823684F
:10609000C0F5807130444246FAF7E6FEB6E70020CC
:1060A000C1E70000004870478F5F00000120FFF744
:1060B0009FBE00002DE9F04F87B0FCF75DFB18B1E3
:1060C000002007B0BDE8F08F454ED6E9014704EA4D
:1060D000070006EB8000A146641CC5680CE000BF09
:1060E000C5F3891000EB9550044404EA070006EB61
:1060F0008000A146C568641CA807F1D005F0030024
:106100004FF0000B022805D0AA0A01A8C5F383139B
:10611000002153E004EA070006EB800004F1010AC5
:106120000AEA0704C268381B80004FEA9558001D30
:10613000C5F38913804521D929490C3138B106EBC3
:10614000840400F0FF0CA8EB00000C3404E00C46C3
:10615000002108F0FF0C0846C0B2CDE90210CDE9DD
:10616000004CD6F81444C5F3C2005946A047404538
:1061700011D108F103080AEB98042AE0002106EB8C
:1061800084000C300090CDE901810391C5F3C20079
:10619000D6F81444EAE760F38F1509EA070006EB26
:1061A0008000C56016E000BF04EA070C06EB8C0C0B
:1061B000491CDCF80CC040F804CB641C9942F3D3B2
:1061C000C5F3C2000093D6F8105401AB5946A84756
:1061D00000B17460FCF7D0FA80F0010071E70000B4
:1061E00060020020034AFF23936000231360536082
:1061F00000F028B8600200202DE9F8430F4F8846D0
:106200000446002569462846BE68FCF785FA002842
:1062100012D00B480021406861F38200009964F3BA
:10622000C50001EA060265F3891007EB820268F3F4
:106230009F20491CD0600091BDE8F88360020020D7
:10624000906F0000024A02F5826203C270470000AC
:106250006002002070B506460020FFF7C9FD04006B
:1062600008D1FFF7C1FD0546FFF71CFF324629465E
:10627000FFF7B8FF204670BD70B51B4C054620687F
:10628000002804BF1948FAF731FAD4F884000A2824
:1062900024BF1748FAF72AFAE06F00EB400004EB3E
:1062A00080012878087168784871A8788871E87842
:1062B000C87168688860288988816889C881D4F82D
:1062C0008400401CC4F88400E06F401CE067E16F6C
:1062D00000200A2928BFE0674FF400104FF0E021AA
:1062E000C1F8000270BD00005807002034000B0008
:1062F00035000B000348D0F88400C0F10A00C0B29A
:10630000704700005807002010B5040004BF09487A
:10631000FAF7ECF908490C600020C867C1F8800062
:10632000C1F884004FF0E0214FF40010C1F80001E3
:1063300010BD000029000B0058070020094A022167
:10634000116009490B68002BFCD0064B1B1D18601F
:1063500008680028FCD00020106008680028FCD0E5
:106360007047000004E5014000E4014010B500F072
:1063700003029043D200FF24944003689140A3435A
:10638000CA18074B0121196006490C68002CFCD083
:10639000026008680028FCD00020186010BD0000D2
:1063A00004E5014000E40140F0B515460E460746FD
:1063B000002404E0315D3819FFF7D8FF641CAC42BB
:1063C000F8D3F0BD2DE9FF4F584D83B00327DDE929
:1063D00010B9E86F4FF000080C464646002804BF8D
:1063E0005348FAF783F9287803281CBF5148FAF775
:1063F0007DF9E86F417811F0010F69D195F89200AD
:10640000002818BF4FF0000A62D00398002808BF88
:10641000042767D0059A304662F31700C1F34101A3
:1064200061F31F6005EB8401896BCBF80060C9F84C
:1064300000600190884257D0E86F002804BF3E48B2
:10644000FAF754F904F10801E86F0091FDF754FFE1
:1064500000281ABF4FF00108EE674FF000080AEA63
:10646000080AB8F1000F3FD0009805EB80010198B1
:106470008861069918EA010F35D03048005D80B375
:106480002046FDF7CBFE002804BF2D48FAF72EF971
:106490002046FDF705FF009068B195F8900027466B
:1064A00020B12869B84208BF00F04CF9E81980F81B
:1064B00080602248C6550098CBF80000BBF1000F61
:1064C00008BF204807D0002808BF1F4803D004E0B9
:1064D0004FF0010A99E7FAF709F91848022706551B
:1064E00002E000E017E00127BAF1000F08BFC9F889
:1064F00000600DD02046FDF75BFFC9F800000028C2
:1065000007BF1248C9F8000001210C4818BF015507
:10651000B8F1000F03D1E86FFDF732FEEE672E7081
:1065200000F010F907B03846BDE8F08FE007002012
:106530005B010C005C010C006F020C00A00000204D
:1065400091010C009A010C0096010C003808002003
:106550002DE9F0412B4C05460F46207801281EBF3F
:1065600002282948FAF7C2F80026002D08BF4FF08C
:10657000040826D0207801281CBF2448FAF7B6F872
:10658000E068002804BF2248FAF7B0F8E068007815
:10659000002808BF4FF0000813D0E06F656800289E
:1065A00004BF1C48FAF7A2F805F10801E06FFDF7F7
:1065B000A3FE00280ABF1848E667FAF797F84FF0DD
:1065C0000208C7B165682846FDF76AFE07000CD0CF
:1065D00094F8900020B12069A84208BF00F0B2F8FA
:1065E000601980F880600D484655A068B8421CBF0D
:1065F0000B48FAF77BF8267000F0A4F84046BDE897
:10660000F0810000E0070020FC000C0002010C00FB
:1066100003010C006F020C000E010C00A000002012
:106620001E010C000830FDF705BD000070B50A4DD5
:10663000044695F8900020B12969A14208BF00F0F6
:1066400081F800202919054A81F88000105520465C
:10665000BDE87040FDF7EEBCE0070020A000002080
:10666000FDF78EBDFDF7D4BD0148C068704700003E
:10667000E00700200148806870470000E007002024
:106680000148406870470000E00700200830FDF72F
:10669000C5BD00000148007870470000E0070020F9
:1066A000FDF7BCBD70B5FDF7C9FD0021164BDFF845
:1066B0005CC00846024603EB810460F31F62A261DE
:1066C00001F10802044603EB820560F31F64AC612C
:1066D0005C181A4484F8800082F880000CF80100ED
:1066E000491C0829E6D3187058609860D860186172
:1066F000586183F8900083F8910083F85800D867B8
:10670000012083F8920070BDE0070020A000002067
:106710000830FDF7C5BD70B50E4604460025FDF7EF
:1067200077FD38B121463046FDF7E6FD10B100F0A7
:1067300009F80125284670BD0830FDF739BEFDF780
:1067400055BE00002DE9F041114C2078002806BF0D
:1067500094F890000028BDE8F08108250126002764
:106760006069FDF75BFD18B184F890606069206195
:106770006069401C6061082808BF676194F8900058
:10678000002818BFBDE8F0816D1EE9D1BDE8F08199
:10679000E0070020014981F892007047E0070020DF
:1067A00070B50E4D287800281CBF0D48F9F79EFFE4
:1067B000E86F10B9FDF71AFEE86704000CD0FF205F
:1067C00020706078FF2240F0060060702021A01C3D
:1067D000F9F748FE03202870204670BDE00700202E
:1067E0003B010C0070B5264C207800281CBF2548C2
:1067F000F9F77CFF94F89000002538B320696060B9
:10680000FDF7D6FDA060002804BF1F48F9F76EFF12
:10681000A068407810F0010F08D194F89200002889
:106820001CBF0220E56001D0207013E060680830D2
:10683000FDF7F4FC032809D2E06F10B9FDF7D6FD8F
:10684000E067E060002818BF0120EDD12078002823
:1068500008BF70BDA068002804BF0C48F9F746FFC8
:106860002069606004EB8001C87E401CC876A16886
:106870004A7860F342024A7084F89050012070BD5B
:10688000E0070020C3000C00C9000C00E7000C006A
:10689000014890F890007047E00700200448017814
:1068A000817041780170001D50F821000047000000
:1068B000A80000200148007870470000A8000020D0
:1068C0000148407870470000A80000200249887005
:1068D0004870087070470000A800002010B50446FA
:1068E000022824BF0248F9F701FF0248447010BD96
:1068F0002A000D00A80000204058002800D00120E8
:10690000704708B5002242504058009008BDD0F8AA
:106910000403084000D0012070474058002800D0F0
:106920000120704708B5002242504058009008BD31
:1069300070B5034600791B4901EB40101968027FCE
:106940004FF0FF30002AD1F80C25D1F81465D1F8AA
:106950000855D1F8104504D0C1F80C05C1F814054C
:1069600003E0C1F81405C1F80C051968C1F8080561
:10697000C1F81005501C02D01046FDF7FFFD701C39
:1069800002D03046FDF7FAFD601C02D02046FDF72C
:10699000F5FD681C04D02846BDE87040FDF7EEBD4B
:1069A00070BD00001001002070B5012670044FF08A
:1069B000E0210025C1F88001084C4010C4F84803CC
:1069C000C4F8080366602F20FDF742F9A660044C66
:1069D0002F20A560FDF73CF9A57070BD00100140A7
:1069E0000C00002070B50546C87D0C4600284FF409
:1069F000847128460AD0FFF784FFD5F81805627E17
:106A0000E1688854607E401C607670BDFFF779FFB6
:106A1000D5F8180570BD1FB501238DF800308DF82D
:106A200008100192D0E90012684690471FBD00008F
:106A30000148FDF785BA00003400002070B50D460E
:106A40000A46014601240648F9F7FAFCEAB204496D
:106A50000448FDF7EFF900B10024204670BD0000A6
:106A600060010020340000202DE9F84F204C002563
:106A70006846D4E901B6FBF78DFF8046FCF78CFC35
:106A80000746A946B8F1000F25D00023009ACC464E
:106A9000606819E007680146974202D9BA1A026095
:106AA00014E0C1F800C0D1F80C80D21BC8693B4487
:106AB0008A46B8F1000F07D0F71827F07F47C1E9E1
:106AC0000178CAF81C500D460028E3D160602846C2
:106AD000FCF7B6FC04E02846FCF7B2FC00B917B19D
:106AE0005846FBF75BFE84F80390BDE8F88F000082
:106AF0000C0000200D4B10B5596831B102680C68CC
:106B0000A24204D8A21A0A60C161586010BD0B46A7
:106B100003E00B46C969121B21B10C689442F8D3FB
:106B2000A41A0C600260C161D86110BD0C00002085
:106B30002DE9F0411D4D6C68002C35D01C48002714
:106B40000068A968B846401A20F07F462068B04225
:106B500015D82246361A0744E469107C68B182F8D9
:106B60001080EB6833B1D2E90501984728B1FAF7F4
:106B7000FBF902E0D2E905108847002CE6D129781C
:106B80006878814206D1401CC0B26870022801D1E9
:106B900085F8018005486978183040F82170BDE813
:106BA000F0411420F9F73EBEBDE8F0810C00002052
:106BB0000415014010B5144602004FF001000CD03E
:106BC0000846136806A24FF48071FAF74DF90146A2
:106BD0002046BDE81040FBF795BD0021216010BDA7
:106BE0005B253038645D000070B50C4605464FF4F7
:106BF0008E71FFF786FEA18AA068415CA08A401CC6
:106C0000A082C5F81C1570BD1FB500228DF80020AC
:106C10008DF80810816801918275D0E900126846EC
:106C200090471FBD0078012801D101498870704745
:106C3000300000202DE9FF470C4605464FF4007157
:106C4000FFF765FE01274FF40178002618B34FF4D3
:106C5000927949462846FFF74FFEE0B1494628465B
:106C6000FFF74FFEC5F80883A07E00B96F600220D1
:106C70008DF80000D5F88004C5F880040390E07D0D
:106C80008DF80800E0680190E6752676D4E90012D8
:106C90006846904727E004212846FFF738FE10B3E6
:106CA0004FF484712846FFF727FEE0B121462846BD
:106CB000FFF798FEE07D617E884214D1207E38B1D6
:106CC000617EE268E0752069E0602676667607E01E
:106CD000A07E00B96F60C5F80883E675617EE26842
:106CE0002046FFF798FE4FF48E7841462846FFF77E
:106CF00003FE88B1A08AA17D884204D2214628469D
:106D0000FFF772FF08E041462846FFF7FAFDA17D34
:106D100011B12046FFF778FF4FF4A278414628468C
:106D2000FFF7EAFD002812D041462846FFF7E9FDAB
:106D3000A07E00B12F60E07D002808D0E675617E5E
:106D4000E26804B02046BDE8F047FFF764BEBDE846
:106D5000FF872DE9FF410C464FF4927705463946EF
:106D6000FFF7DBFD0026C0B139462846FFF7DAFD04
:106D700002208DF80000D5F88004C5F88004039047
