:020000040001F9
:10F00000A090002015F401001DF401001FF4010080
:10F0100021F4010023F4010025F4010000000000A8
:10F0200000000000000000000000000027F40100C4
:10F0300029F40100000000002BF401002DF4010070
:10F040005DF901002FF401002FF40100A1FB010084
:10F05000B1FB01002FF4010035F70100D9F90100DF
:10F060002FF401002FF40100C1FE01002FF4010074
:10F070002FF401002FF401002FF401002FF4010000
:10F080002FF40100B5F901002FF401002FF4010065
:10F0900009FC01002FF401000DFC01002FF4010018
:10F0A0002FF401002FF401002FF401002FF40100D0
:10F0B0002FF401002FF40100000000000000000008
:10F0C0002FF401002FF401002FF40100C1FB010017
:10F0D0002FF401002FF401002FF4010000000000C4
:10F0E0000000000000000000000000000000000020
:10F0F0000000000000000000000000000000000010
:10F1000000000000000000000000000000000000FF
:10F1100000000000000000000000000000000000EF
:10F40000DFF80CD000F03AF900480047394C020010
:10F41000A09000200648804706480047FEE7FEE728
:10F42000FEE7FEE7FEE7FEE7FEE7FEE7FEE7FEE7B4
:10F4300031FC010001F4010000487047C8A302003C
:10F4400038B5D0E90221491E01EB410102EBC101AF
:10F450004268C1EB011102EB81010268C1EB0111AD
:10F4600002EB8102D0E9043101EB410103EB8101A0
:10F470003023A1F5527191FBF3F4174D6C4302EB6D
:10F48000C41291FBF3F403FB141100921A2902DB5E
:10F49000124B1A4400920C2291FBF2F3104C63437E
:10F4A000009C04EBC313009391FBF2F302FB1311D6
:10F4B0000C4A08E0491E40F2A324535C6343009CBD
:10F4C00004EBC31300930029F4DC0146684600F006
:10F4D0008FF8009838BD00003F0C0F0080510100EC
:10F4E00067C20300CCA3020040EA01039B0703D0DC
:10F4F00009E008C9121F08C0042AFAD203E011F873
:10F50000013B00F8013B521EF9D27047D2B201E034
:10F5100000F8012B491EFBD270470022F6E710B518
:10F5200013460A4604461946FFF7F0FF204610BD71
:10F5300010B5044604E00B7800F8013B03B1491C08
:10F54000521EF8D2204610BD421C10F8011B0029A3
:10F55000FBD1801A704730B504460020034600E016
:10F560005B1C934203D2E05CCD5C401BF8D030BD05
:10F57000034611F8012B00F8012B002AF9D1184697
:10F5800070472DE9F05F0546002092469B4688466D
:10F590000646814640241BE028464146474622460F
:10F5A00000F08DF853465A46C01A914110D31146C7
:10F5B0001846224600F074F82D1A67EB01084F46F2
:10F5C00022460120002100F06BF817EB00094E41A4
:10F5D000201EA4F10104DFDC484631462A4643469A
:10F5E000BDE8F09F014900F003B800007050002012
:10F5F00010B500683C22B0FBF2F302FB1303B0FB32
:10F60000F2F00B60B0FBF2F302FB1303B0FBF2F07D
:10F6100018224B60B0FBF2F302FB1303B0FBF2F0D5
:10F62000021D8B600723B2FBF3F403FB142280005E
:10F6300040F2B55300F66C308A61B0FBF3F2B0FBD8
:10F64000F3F403FB1400443280084A61C8613B288C
:10F6500002D3920700D0401C0022074C13460A61D7
:10F66000E25C824203D8801A5B1C0B61F8E7401C05
:10F67000C860084610BD0000D8A30200064C074D24
:10F6800006E0E06840F0010394E807009847103472
:10F69000AC42F6D3FFF7B8FE28A4020048A402004B
:10F6A000202A04DB203A00FA02F100207047914042
:10F6B000C2F1200320FA03F3194390407047202A37
:10F6C00004DB203A21FA02F00021704721FA02F30C
:10F6D000D040C2F12002914008431946704770B5EE
:10F6E0008C1810F8015B15F0070301D110F8013BED
:10F6F0002A1106D110F8012B03E010F8016B01F874
:10F70000016B5B1EF9D12B0705D40023521E0DD4CB
:10F7100001F8013BFAE710F8013BCB1A921C03E019
:10F7200013F8015B01F8015B521EF9D5A142D8D351
:10F73000002070BD2DE9F04700268CB0DFF8609105
:10F74000B0464FF48075012437460696284606F0E9
:10F750008FFB38B1D9F80403204203D0284606F0C5
:10F760007DFB26432D1D64007F1CADB2082FEDD319
:10F770004FF4BE74204606F07BFB48B1204606F0ED
:10F780006DFB46F0004606AA0121002006F052FB60
:10F79000444D16F0FF0F15D00127002437420DD03D
:10F7A00009EB8401D1F81005D1F81015C0F304203D
:10F7B00055F82420C1F3014102B190477F00641C39
:10F7C000082CEBD3002E67DA4FF0FF30CDE908802C
:10F7D00000263446281910F8507F90F9000027F0D1
:10F7E000C008401C44D009A9404605F0E8FC58B3C5
:10F7F0004FEA9719404602F00BFB55F820701FB1F5
:10F80000B9F1030F03D00FE0B9F1030F30D108A80D
:10F810004FEAD80208F00703815C4FF0010C0CFAA4
:10F8200003FC41EA0C0181544FF0A04101EB880038
:10F83000D0F8000706A9C0F3014A404605F0BFFC16
:10F8400018B1BAF1020F03D012E0BAF1030F0FD1D1
:10F85000B9F1030F08D1BAF1020F1BD002214046C3
:10F8600006F0C8FA761CF6B217B149464046B847CA
:10F87000641C042CAED3002E0ED06A460121002059
:10F8800006F0D8FA06990098884205D006900898A4
:10F8900009909DE70321E2E70CB0BDE8F087000086
:10F8A000006000401438002000F01F020121914048
:10F8B0004009800000F1E020C0F88012704700F09D
:10F8C0001F02012191404009800000F1E020C0F8B2
:10F8D0008011704700F01F02012191404009800013
:10F8E00000F1E020C0F80011704700F01F02012174
:10F8F00091404009800000F1E020C0F800117047FD
:10F9000000F01F02012191404009800000F1E02039
:10F91000C0F8001270474907090E002806DA00F007
:10F920000F0000F1E02080F8141D704700F1E02086
:10F9300080F8001470470000BFF34F8F054801683E
:10F94000054A01F4E06111430160BFF34F8F00BF2E
:10F95000FDE700000CED00E00400FA052DE9F041A0
:10F960004FF48077384605F032FC0124104EA5078D
:10F9700048B1384605F032FC0120C5F80803747020
:10F98000002002F09DFB4FF48277384605F01FFC03
:10F9900000280BD0384605F021FC0220C5F80803EA
:10F9A000B470BDE8F041012002F08ABBBDE8F081EF
:10F9B0000038002007480021C0F84011C0F8441169
:10F9C000C0F84811C0F84C11C0F80011C0F804117B
:10F9D00009F0B0BD001001402DE9FE434FF48278DC
:10F9E000404606F0EBFB504F0025504C012600B37B
:10F9F000404606F0EBFB94F82B0010B194F82C1065
:10FA0000D1B18DF80050616801912189ADF80810DD
:10FA1000E16829B16160A18A2181E56018B103E044
:10FA200084F8295000E03E6021686846884784F8E1
:10FA30002C5094F82B0098B34FF48077384606F09A
:10FA4000BDFB68B3384606F0C1FBE28A72B194F898
:10FA50002A108A4210D9A2EB010080B2E0822289EA
:10FA6000A2EB0000626802EB40000BE0208994F8F2
:10FA70002A10A0EB0100F0E707D1E06828B184F874
:10FA80002C60E58206F054FB04E08A4202D184F83F
:10FA90002C60E582404606F099FB2348001D066075
:10FAA0004FF48877384606F089FB50B1384606F0A7
:10FAB0008DFB84F8295002208DF8000021686846EB
:10FAC00088474FF48A77384606F078FB30B13846DD
:10FAD00006F07CFB84F82950BDE8FE834FF0004817
:10FAE0004FF48C7927691CE0B7FA87F028FA00F107
:10FAF00009EB80058F43284606F060FB88B1284655
:10FB000006F064FBA5F58C75E8088DF8040045F354
:10FB10008000401C8DF800608DF805002168684663
:10FB20008847002FE0D1D7E7007000406C380020F4
:10FB300003480078002801D100F052BA7047000055
:10FB4000E83C002070B50E46144900EB400001EB84
:10FB5000C0051446E86A183520B101280FD00228E4
:10FB600005D113E0284600F06FFAA04201D200242C
:10FB700011E022463146284600F09EFA0BE0284666
:10FB800000F062FAA042F4D20446F2E73146284679
:10FB900000F065FA0446204670BD0000E83C0020F5
:10FBA0000149024804F08CBCBC3800200030004001
:10FBB00002494FF0402004F083BC0000E4380020EC
:10FBC000F8B510480E4D04464FF48C7106F008FB52
:10FBD000002813D00026C4F81861D4F8180100904A
:10FBE000A87E2C46FF2801D006F015F9667626710E
:10FBF000216801B0201DBDE8F0400847F8BD0000B5
:10FC00009C3800200030024009F00CBC074810B5B9
:10FC1000406830B18047002807D0BDE8104001F0AF
:10FC20002BB9BDE8104004F00FBC10BD0432002019
:10FC3000F0B595480023021D01780124101D4FF0F6
:10FC40008056062907D115782D0704D10578C5F30C
:10FC50000315032D02D0062904D00FE08C4F8B4DE5
:10FC60007D670EE015782D0708D10578C5F30315DB
:10FC7000032D06D0042D04D0052D02D0062907D06F
:10FC80000EE0D6F84452834FC5F342353D6002E0A2
:10FC900015782D0704D10578C5F30315032D02D07F
:10FCA000062906D011E07C4D2F6827F080772F6061
:10FCB0000EE015782D0708D10578C5F30315032D3F
:10FCC00006D0042D04D0052D02D006290AD011E05B
:10FCD0004FF08045C5F80C31C5F810316D4D2D1F22
:10FCE0002B6002E015782D0704D10578C5F30315C4
:10FCF000032D02D0062905D00CE0664F032564379A
:10FD00003D600AE015782D0704D10578C5F3031589
:10FD1000032D02D006290DD014E0604F05253D606B
:10FD20005E4D78352C605D4D08352B603F253F1DBD
:10FD30003D6002E015782D0704D10578C5F3031561
:10FD4000052D02D0062957D068E055490968554A63
:10FD500011605349091D0968121D1160504908318D
:10FD60000968121D11604E490C310968121D11609D
:10FD70004B4910310968121D116049491431096855
:10FD8000121D1160464918310968464A2032116037
:10FD900043491C310968121D11604149203109682D
:10FDA000121D11603E4924310968121D11603C4941
:10FDB00028310968121D116039492C310968121D5A
:10FDC0001160374930310968364A40321160344990
:10FDD00034310968121D1160314938310968121D2A
:10FDE00011602F493C310968121D11602C494031C6
:10FDF0000968121D116002E0117809070ED1007820
:10FE0000C0F30310032803D0042801D0052805D12E
:10FE1000D6F85802244900F04F0008601E48743894
:10FE2000016841F470010160BFF34F8FBFF36F8F22
:10FE30004FF01021D1F80C02C00720D01B4A1460EB
:10FE40001B480468002CFCD0D1F80C4224F00104BB
:10FE5000C1F80C4201680029FCD013600168002938
:10FE6000FCD0BFF34F8F0C48F0380168114A01F401
:10FE7000E06111430160BFF34F8F00BFFDE70F4901
:10FE80000D480860F0BD0000E00F00F00DF0ADBAC5
:10FE900000C007403C050040FCED00E0105600406B
:10FEA0000404001020C50040E40E004004E50140B9
:10FEB00000E401400400FA050090D003C0320020A5
:10FEC0002DE9F0432E4989B04FF00008C1F8408178
:10FED0002C4D4746444600BF04EB440005EB40066A
:10FEE000295D96F8580181B380072ED005EB4401B7
:10FEF0008946B1F886010A3000B2A1F88601B6F948
:10FF00005A11884221DB401A01B21F4850F82400E0
:10FF1000426907A89047020017D0B9F88601B6F8E1
:10FF20005A110127401AA9F886018DF808408DF86A
:10FF3000092007A90DF10A00FFF7D6FA02A9134814
:10FF400001F01AF808B100F097FF641C072CC3DB1E
:10FF50008DF80080684601F0B7F957B195F8830134
:10FF600038B9012085F883010021094A084601F0CB
:10FF700069F89DF8000001F0CBF909B0BDE8F08305
:10FF800000A00040204C0020703200201CA2020083
:10FF9000857D020030B4682809D00C2807D0054CB4
:10FFA000D3B20A460146204630BC05F085BE014C5E
:10FFB000083CF5E72CA3020038B568280AD00C28C5
:10FFC00008D0064C0093D3B20A460146204605F0FD
:10FFD00085FE38BD014C083CF4E700002CA302006C
:10FFE00010B5124C02202061606111A0A061A4F53F
:10FFF0000470E0614FF4007020620020A062606233
:020000040002F8
:100000000BA1A164E062A4F11001E164102121655B
:10001000A0656065E06509A1E01DFFF7A9FA08A1E8
:100020002046FFF7A5FA2020A07110BDE83C002073
:100030005465726D696E616C00000000525454008A
:1000400053454747455200000269C1688A4203D8B8
:100050008068401A104400E0501A401E70472DE995
:10006000F047C4681746894606464FF000083069D5
:10007000A04201D9051B02E0B168201A0D1AB06830
:100080006D1E001BA84200D80546BD4200D33D4668
:1000900070682A4620444946FFF726FAB0687F1B5D
:1000A0002C44A844A944A04200D10024F460002FAD
:1000B000DDD14046BDE8F0872DE9F041C668044631
:1000C000174688468068851B6068BD4206D9304463
:1000D000FFF70AFAF019E060BDE8F0812A463044E3
:1000E000FFF702FA7E1B08EB050132466068FFF756
:1000F000FBF9E660F0E700000FB41CB502460020F3
:1001000007AC00290BD0491ECDE90021054B6A46FA
:100110002146069800F08EF8009A002111701CBC50
:100120005DF814FB970602000FB4084B10B504A944
:1001300002AA039800F07EF8044602A9002000F00D
:10014000B5FA204610BC5DF814FB0000AD060200B5
:1001500002E008C8121F08C1002AFAD17047704790
:10016000002001E001C1121F002AFBD170470000EE
:100170000121202803DA81400548014003E040289E
:1001800002DA2038814009B1012070470020704711
:10019000FC06FFBC0121202803DA8140054801400C
:1001A00003E0402802DA2038814009B1012070477D
:1001B00000207047FC06FFBC082808D238B101288F
:1001C00005D0042803D0052801D001207047002065
:1001D0007047000010B5154C71B1012008F0CCFB40
:1001E00000224FF48031206801F01AF800281BD05B
:1001F000BDE8104000F040BE206801F055F80C4802
:100200000078012804D0032804D0052805D109E08E
:10021000022000E0042008F0AFFBBDE81040002001
:1002200008F0AABB0620F6E710BD000008A30200F4
:10023000A43200202DE9FF4F8DB00F460546002661
:1002400006E025280BD0DDE90F1290476D1C761CC7
:1002500028780028F5D111B03046BDE8F08F002491
:10026000A246A1460122EC4900E0044315F8013FF3
:10027000203B02FA03F00842F7D128782A2810D050
:100280006FF02F022878A0F13001092914D80AEB69
:100290008A0102EB410144F0020400EB010A6D1CEB
:1002A000F0E701CF5FEA000A03D544F40054CAF135
:1002B000000A44F002046D1C28782E2817D115F886
:1002C000010F44F004042A280ED06FF02F02287882
:1002D000A0F1300109290AD809EB890102EB41019B
:1002E00000EB01096D1CF2E757F8049B6D1C2878A0
:1002F0006C280FD006DC4C2817D068280DD06A284F
:1003000014D104E0742810D07A280FD10DE044F401
:1003100000140AE044F4801401E044F440146978C5
:10032000814202D104F580146D1C6D1C2A786E2A5E
:100330001FD00CDC632A31D004DC002A8BD0582A71
:1003400011D1A3E0642A68D0692A0CD165E0732A30
:100350002ED004DC6F2A73D0702A04D19BE0752A5A
:100360006FD0782A6ED01046DDE90F129047761CC8
:1003700050E1C4F30250022806D0032809D0042813
:1003800001CF09D0066045E101CFF117C0E9006156
:1003900040E101CF06803DE106703BE117F8040B18
:1003A0008DF8000000208DF80100EB46012003E0ED
:1003B00057F804BB4FF0FF3061074FF0000102D443
:1003C0000DE008F10101884649450FDA8045F8DB68
:1003D0001BF808100029F4D108E008F10101884653
:1003E0008142FADB1BF808100029F6D1DDE90F2362
:1003F000AAEB08008146214600F036F9304400EBB4
:10040000080604E0DDE90F121BF8010B9047B8F174
:100410000108F7D221464846F7E00A21C4F3025307
:100420004FF0000B0891022B04D001CFC117032B12
:1004300009D00AE0FF1D27F00707F7E8020108E0EE
:1004400032E01FE020E000B2C117042B01D140B21E
:10045000C117031E71F1000307DA4FF0000CD0EB57
:100460000C006CEB01012D2302E0230504D52B23A6
:100470008DF82430012303E0E30701D02023F7E7C0
:10048000984658E00A2110E010210EE010204FF0AD
:10049000000B08900CE010214FF0000B44F0040416
:1004A0004FF00809089103E008214FF0000B089174
:1004B000C4F30253022B04D001CF0021032B06D03A
:1004C00006E0FF1D27F00707F7E8020103E080B20E
:1004D000042B00D1C0B24FF0000823072BD5702A9F
:1004E00007D0DDF820C08CF0100C5CEA0B0C05D0B6
:1004F0000EE040238DF82430012308E050EA010388
:1005000006D030238DF824308DF82520022398461C
:10051000DDF820C08CF0080C5CEA0B0C0BD150EA23
:10052000010301D1630706D530238DF824304FF045
:100530000108A9F10109582A04D038A20B9208AA8F
:100540000A920BE03AA2F9E75B46089AFFF719F81E
:100550000B9B9B5C0A9A521E0A92137050EA01028E
:10056000F2D10A98ADEB000000F1200B600702D534
:1005700024F4803401E04FF00109D94502DDA9EBF4
:100580000B0000E0002000EB0B0141440890AAEBB7
:10059000010AE00306D4DDE90F232146504600F0AE
:1005A00063F806444FF0000908E009A911F80900B2
:1005B000DDE90F12904709F10109761CC145F4DB12
:1005C000E0030CD5DDE90F232146504600F04CF83E
:1005D000064404E0DDE90F1230209047761C0899AC
:1005E000481E08900029F5DC08E00A980A9900786E
:1005F000491C0A91DDE90F129047761CBBF10001FE
:10060000ABF1010BF1DC21465046DDE90F2300F090
:1006100019F806446D1C1BE60928010030313233FD
:10062000343536373839616263646566000000002E
:100630003031323334353637383941424344454618
:10064000000000002DE9F041044600251E46174633
:10065000880404D405E039462020B0476D1C641E90
:10066000F9D52846BDE8F0812DE9F0410446002582
:100670001E469046C80301D5302700E02027880495
:1006800004D505E041463846B0476D1C641EF9D5D7
:100690002846BDE8F0814A68002A06D00A68531C43
:1006A0000B6010704868401E486070470A68531C11
:1006B0000B6010707047000070B58AB0044642F2BB
:1006C0000100ADF820008DF822403E4A08A9012023
:1006D000A0DF08B100F0D0FB20216846FEF71DFF27
:1006E0008DF8024000248DF8144047F21000ADF858
:1006F00000009DF80D00012520F010008DF810403D
:1007000040F00A008DF811502E4E8DF80D008DF836
:100710001250ADF804508DF80F408DF8134030881A
:10072000B21C694601F0CCFB08B100F0A5FB47F212
:100730001100ADF800000720ADF804009DF80D0091
:100740008DF8104020F0180040F002008DF80D00E8
:100750008DF811508DF80F508DF81240194A8DF810
:100760000C408DF8134030880A32694601F0A8FB2E
:1007700008B100F081FB47F21200ADF80000142030
:10078000ADF804009DF80D008DF8104020F0180021
:1007900040F002008DF80D008DF811508DF80F50CB
:1007A0008DF81240074A8DF80C408DF813403088C0
:1007B0001232694601F084FB002801D000F05CFB96
:1007C0000AB070BDDA3F0020F0B589B004464FF49E
:1007D0000050ADF820008DF82240734A08A901208E
:1007E000A0DF08B100F048FB20216846FEF795FE27
:1007F0008DF8024000258DF814504FF4E040ADF81C
:10080000000001249DF80D008DF8105040F01A00F2
:100810008DF80D008DF81140634E8DF80C508DF859
:100820001240ADF804408DF80F408DF81340308829
:10083000B21C694601F044FB08B100F01DFB47F211
:100840000200ADF800009DF80D008DF8105020F06A
:10085000080040F012008DF80D008DF811408DF861
:100860000C508DF81250504AADF804408DF80F50DE
:100870008DF8134030881232694601F021FB08B12F
:1008800000F0FAFA47F20100ADF800009DF80D0003
:100890008DF8105020F0080040F012008DF80D0087
:1008A0008DF811408DF80C508DF812503E4AADF87D
:1008B00004408DF80F508DF8134030880A32694695
:1008C00001F0FEFA08B100F0D7FA47F20300ADF8E4
:1008D00000000720ADF804009DF80D008DF81050C1
:1008E00020F0100040F00A008DF80D008DF8114046
:1008F0008DF80C508DF812402B4A8DF80F408DF872
:10090000135030881A32694601F0DAFA08B100F063
:10091000B3FA47F20400ADF800009DF80D008DF821
:10092000105020F0100040F00A008DF80D008DF8F6
:10093000114014278DF80C408DF812401A4AADF87A
:1009400004708DF80F408DF81350308822326946BC
:1009500001F0B6FA08B100F08FFA47F20500ADF8E1
:1009600000009DF80D008DF8105020F0100040F0B0
:100970000A008DF80D008DF811408DF80C408DF8AF
:100980001240094AADF804708DF80F408DF81350ED
:1009900030882A32694601F093FA002801D000F02D
:1009A0006BFA09B0F0BD0000F83F0020F0B5044636
:1009B00090F82E0089B000F50450ADF820000D46E7
:1009C0008DF82210A21C08A90120A0DF08B100F0B8
:1009D00053FA20216846FEF7A0FD8DF8025000254D
:1009E0008DF8145094F82E00012600F5E240ADF881
:1009F00000000520ADF804009DF80D008DF8106092
:100A000020F0100040F00A008DF80D008DF8116004
:100A10008DF80C508DF812608DF80F608DF8135022
:100A20006088221D694601F04BFA08B100F024FAF3
:100A300094F82E008DF8105000F5E440ADF8000059
:100A40009DF80D008DF8115020F00A0040F01000C4
:100A50008DF80D0014278DF80C608DF81250ADF84C
:100A600004708DF80F508DF81360608804F10C024B
:100A7000694601F025FA08B100F0FEF994F82E005D
:100A80008DF8106000F5E640ADF800000720ADF8E5
:100A900004009DF80D008DF8115020F0120040F078
:100AA00008008DF80D008DF80C508DF812608DF84F
:100AB0000F508DF81350608804F11402694601F05C
:100AC000FFF908B100F0D8F994F82E008DF8105015
:100AD00000F5EA40ADF800009DF80D008DF81150CA
:100AE00020F00A0040F010008DF80D008DF80C6029
:100AF0008DF81250ADF804708DF80F508DF813601A
:100B0000608804F12402694601F0DAF908B100F0C6
:100B1000B3F994F82E008DF8105000F5E840ADF8C8
:100B200000001120ADF804009DF80D008DF8116053
:100B300020F0180040F002008DF80D008DF80C50E8
:100B40008DF812508DF80F608DF81350608804F105
:100B50001C02694601F0B4F9002801D000F08CF9BC
:100B600009B0F0BD10B560B159B102780B785208E8
:100B7000B2EB530F05D10622401C491CFEF7EBFCDB
:100B800008B1002010BD012010BD2DE9FC47002553
:100B900017880646158090F82D001446894630B116
:100BA0003A462146484601F01FF8050009D1B078C1
:100BB0004FF00C0A18B32088C846001DB84202D96D
:100BC0005046BDE8FC87684679DF0028F9D12088C7
:100BD000032108F8001020881921401C80B22080D1
:100BE00008F800102088401C80B2208000EB08012B
:100BF000BDF8000008F096FF218808442080F078B6
:100C00000222C8B1218896F9033001F1030C48464D
:100C1000BC45D5D8425421884FF0010C491C89B2FB
:100C2000218000F801C02188491C89B2218009F87F
:100C300001302088401C20807068B8B1218890F96C
:100C4000003001F1030C4846BC45B9D84254218814
:100C50000A22491C89B2218042542188491C89B248
:100C6000218009F801302088401C2080308950B153
:100C7000CDE900474B460622022106F1080008F0A4
:100C8000C7FF05009DD1308A50B1CDE900474B46E2
:100C90000722032106F1100008F0BAFF050090D1E9
:100CA000308B50B1CDE900474B461522142106F197
:100CB000180008F0ADFF050083D1306A30B13B4623
:100CC0002246494601F078FA0500DBD1706A30B15E
:100CD0003B462246494604F077F80500D2D196F803
:100CE0002C0038B13B4622464946304607F000FE0C
:100CF0000500C7D1307838B13B46224649463046D8
:100D000004F05CF90500BDD128465AE7134A0021DA
:100D1000535C0BB1012203E0491C0629F8D30022E1
:100D20000F49012806D0022809D003280CD0042836
:100D300012D10DE0487810B10AB1012070478878CF
:100D400010B10AB102207047C87808B1032070477B
:100D5000087908B104207047002070474131002015
:100D6000EC32002070B58CB015460E4600236C4660
:100D7000C3F10F01415CE1545B1C102BF8D30D2132
:100D800004F11000FEF7C9FB0020C0F10F02315C36
:100D90002244401C11740328F7D3684643DF002027
:100DA000C0F10F01214491F820102954401C032860
:100DB000F6D30CB070BD000070B50024064D06E0FF
:100DC0006868012110F8340004F012FC641C2878D3
:100DD0008442F5D3002070BDA4310020F8B515463B
:100DE0000C460646052A01D20720F8BD04F0E6FCB1
:100DF00018B904F0B5FC0028F7D1104900204E6066
:100E00000C70C1E902500E4D08610DE006EBC40004
:100E10006968009181788DF801100078094A694667
:100E200004F038FC0028E0D1641EE4B2EED2BDE844
:100E3000F840054A0021024800F090B9A431002092
:100E4000ECA10200AD350200DD230200074804F0EA
:100E500059FABFF34F8F06480168064A01F4E06172
:100E600011430160BFF34F8F00BFFDE7400D03004A
:100E70000CED00E00400FA050EB500210091CDE96B
:100E800001106A4644F20100FFF7E0FF0EBD13B502
:100E900001A97DDF08B1FFF7EFFFBDF804001CBD1D
:100EA00002880D49102A0DD0112A0DD008463B2A80
:100EB00000880DD0562A0AD1132176DF002806D0EB
:100EC000FFF7DABF808801E04FF6FF7008807047B7
:100ED000132176DFF2E70000BC3200207CB50C461F
:100EE000054618211A48FEF718FB172C00D31724C3
:100EF000224629461648FEF71BFB164C002301220A
:100F00002046216801F082FE08B1FFF7B5FF0020FE
:100F1000009006230E4A0F48216801F017FF08B120
:100F2000FFF7AAFF9DF8040020F00F00401C20F0FE
:100F3000F00010308DF804000548FEF705FB82B282
:100F4000034901A87CDF002801D0FFF795FF7CBD95
:100F500020500020DC3200204268002111704268DD
:100F60005170426891704068C1700846704708B57A
:100F70006A4600F005F808BD028900F02CB80000B0
:100F80002DE9F84FD0E90074068990F80A80002511
:100F900091468A468DF80050684600F095F9A07891
:100FA000B8B12078361D00FB06764146204601F098
:100FB000EDF93088311D82B2A9F800205046FEF7C5
:100FC00093FA00BF9DF8000000F0A2F92846BDE8A2
:100FD000F88F0425F6E72DE9F84FD0E90084857AEB
:100FE000078900208DF8000091468A46684600F087
:100FF0006BF9A078A84209D1E07828B129462046AB
:1010000001F0C4F9042602E0042613E0002661780A
:101010003F1D01FB0780A278491C521CC9B2A27077
:10102000A94200D10021617040F8049B4A46514614
:10103000FEF75AFA9DF8000000F06AF93046BDE864
:10104000F88F00002DE9F84F254C814692466088C4
:101050000E46814241D800274FF6FF788DF8007088
:10106000684600F031F922786078A188884201DA78
:10107000401C00E00020C0B2904204D19DF8000066
:1010800000F046F927E065786078884201DA401C74
:1010900000E0002060709DF8000000F039F945453F
:1010A00019D0A068B9F1000F40F835A00DD066B195
:1010B0006188E068324605FB01004946FEF714FAF4
:1010C000A06800EBC500868002E000EBC5008780C9
:1010D0000020BDE8F88F0420FBE70920F9E70000B5
:1010E000B831002010B50E4C03E0401C00E0002099
:1010F000207020786178814210D022786188E06881
:10110000A36802FB010003EBC20153F83220898877
:1011100090472078A1888842E9DAE6E710BD000010
:10112000B831002030B5CB0008339DB293074FF0A3
:10113000000401D0072030BD044B9A602A44DA60D5
:101140005C701C7058809980002030BDB831002040
:10115000014800687047000004150140074B5B68B8
:1011600023B12AB120B10068037C1BB1082070476D
:10117000072070474174426100207047F031002021
:1011800010B50446082902D00020FFF775FED4E907
:101190000010BDE8104008471CB5044ACDE9000125
:1011A00008216846FFF74EFF1CBD000081110200B8
:1011B0002DE9F047074698461446894690074FF0B8
:1011C000000526D12CB306F099FD134E06F1100050
:1011D000C6F80C800570457080F802904460756018
:1011E000357075701420FEF75FFB07211420FEF7A1
:1011F00092FB1420FEF76EFB0848076007211120C0
:10120000FEF789FB0548001F0068B0600020BDE8BC
:10121000F0870720FBE70000E031002008150140BF
:101220002DE9FC47DFF87890D9F8043073B368B340
:10123000052902D20720BDE8FC87436933B3437C0C
:10124000012B25D0002704460025884616468DF838
:101250000050684600F038F801A808F0C1FCC8B199
:10126000012101700F4944600968C0E90218C0E912
:1012700004769DF8040089F801009DF8000000F054
:1012800047F81420FEF73CFB2846D4E70820D2E7B5
:101290000F46D8E704259DF8000000F039F8F3E781
:1012A000F0310020041501400649496839B130B1D8
:1012B000416921B100210174022108F017B9082009
:1012C00070470000F031002030B5EFF3108172B6A6
:1012D0000D4A9468012324B10370002900D162B63D
:1012E00030BD93604FF0E023D3F88051074C254088
:1012F0001560C3F88041D3F8844154605A17C3F88D
:10130000842100220270E8E72C390020FC06FFBC93
:101310000B498A68002A11D000280FD1EFF3108002
:1013200072B60B684FF0E022C2F800314B68C2F889
:10133000043100228A60002800D162B670470000A4
:101340002C3900202DE9F043044687B0008800F0D6
:10135000E7FB8146208802F095FB214F8046667AA4
:10136000208800223978A56800F028FCB9F1000F28
:1013700033D06079400711D50721404605F00AFCBB
:10138000A0B108218DF80C1021880590ADF80E1041
:10139000ADF8108003A801F089F907E02088B9783A
:1013A00000F0F8FB10B1404602F058FB03208DF826
:1013B00000002088ADF802006079C0F380008DF84D
:1013C0000400A079C0F380008DF805008DF8065068
:1013D0008DF80760684601F069F907B0BDE8F08351
:1013E000883100203EB50E480178002916D1012130
:1013F000017000240A4669466B20009408F0DFFC67
:10140000012201A96C20019408F0D9FC05A0012259
:101410000068029002A90A2008F0C5FC3EBD000049
:1014200098320020160000002DE9F0430546007DAB
:1014300093B00E460024A0B107949DF81C0020F044
:101440000F00401C20F0F00010308DF81C00707B65
:101450008DF81D009DF81E0020F00600801C8DF800
:101460001E001C216846FEF758F89DF8000040F069
:1014700002008DF80000297D11B140F0100001E05C
:1014800020F010008DF80000019403940494287D4E
:1014900000B107A8CDE9050401278DF8427042F696
:1014A0001920ADF840000D94B07B8DF83400F07B2E
:1014B0008DF835009DF83600142120F00600801CC0
:1014C00020F019008DF83600307B8DF8440008A814
:1014D000FEF723F80DF140080DF13409ADF828703E
:1014E00011A8CDE90889ADF82A40ADF82C700C9010
:1014F000A888AB1D08AA6946A2DF002838D1B068C9
:1015000098B38DF8427042F60810ADF840000D9483
:10151000307C8DF834009DF8350020F0FF008DF808
:1015200035009DF8360020F00600801C20F01900E0
:101530008DF836000EA8B16800F029FC064614218B
:1015400008A8FDF7EAFFADF828600EA8CDE90889E4
:10155000ADF82A40ADF82C600C90E88805F10E0239
:1015600008A9A3DF002803D101E0FFE7EC810020F8
:1015700013B0BDE8F083000010B501F0B3FE0446DF
:101580000848408AA0F57F41FF3903D0214605482D
:1015900000F098F9002C04D1BDE81040202007F09D
:1015A00041B810BD58500020F0B50C4693B01F2133
:1015B0000726ADF80010ADF80410002750B1C1782F
:1015C00049070DD56A4602A9FFF7DFFA002808D1BE
:1015D00002AD02E00025ADF800706CB1E07810B10A
:1015E000304613B0F0BD01AA0AA92046FFF7CDFA94
:1015F0000028F6D10AAA02E00022ADF80470BDF876
:101600000400C3B2BDF80000C1B2284672DFE8E7AB
:101610002DE9F0471F46DDF8208013468946040077
:1016200042D0EBB3404D012000262870EE702022FE
:1016300019463E48FDF758FFC5E904784FF6FF709C
:101640002881AE613948AE83AE773C212030FDF76A
:1016500064FF3648217820300170A1788170E178EC
:10166000C170617841703149D4E90423C1E90C2388
:10167000D4E90223C1E90A23D4E90623C1E90E23F0
:10168000616AE1B100F13C0100F1480241628A6007
:10169000636A1B880B80616A436A8988998000E0CD
:1016A00002E00021436A07E00E20BDE8F087656A8A
:1016B000AD686D5C5554491C9D888D42F7D8A16A70
:1016C000D9B11A4A9432A2F10C018A608162A36AEC
:1016D0009B888B80A16A836A098819800021836AAC
:1016E00004E0A56AAD686D5C5554491C9D888D4227
:1016F000F7D894F82C1080F82C10216A49B10A49C7
:101700000A310162226A52884A80216A026A098883
:101710001180616801B141604946BDE8F047034866
:101720002030FFF741BF000028310020EC320020BC
:1017300010B50188144C102918D011291CD01B2970
:1017400019D1007A002816D1E0780521401CB0FBA1
:10175000F1F201FB120000BF00F032F800280AD0BD
:101760006169002907D0BDE810400847C17B012905
:1017700001D18088208110BD00216171808821897C
:101780008842F8D10120E7E72831002010B502286F
:1017900001D0032810D1094C607800280CD000201B
:1017A0006070E07800F00CF8002805D0616900292D
:1017B00002D0BDE81040084710BD000028310020CD
:1017C0002DE9F0413D4C804686B0207848B184F840
:1017D000038004A801F0B0FA0498012628B16670CD
:1017E00067E0082006B0BDE8F0810025A561344F10
:1017F000A583A577787810B1E078012806D0B8786D
:1018000058B1E078012801D0022806D1216919B128
:1018100026710820884700E025714046FFF776FAD8
:10182000E070216939B1032801D0042803D1387848
:1018300008B1607990B1A571009502950195039565
:101840008DF800508DF808501C48E17818300529B3
:1018500025D2DFE801F03008111D2100E571A671E5
:1018600007208847E8E7A67001908DF80060ADF882
:101870000C50ADF80A5014E00221A17001908DF8CF
:101880000060B889ADF80C003889ADF80A0008E0AE
:10189000684607F08DF902E0684607F0ADF9E07898
:1018A00018B1684673DF00289CD1216909B1A0787E
:1018B0008847002096E7A570F7E700002831002050
:1018C000EC32002073B586B0040034D0217C9DF842
:1018D0001C20002091422CD0002501260095ADF857
:1018E000006007A8ADF802500190E188608A6A465E
:1018F000A4DF00281DD19DF81C002074608AA0F58B
:101900007F41FF3919D0207DB8B102950395049528
:101910000595E088ADF80800BDF80200ADF80C00B0
:1019200001988DF80A60CDF810D00590608A02A960
:10193000A6DF08B070BD0E20FBE70820F9E738B538
:101940000D4604001BD0D5B1286820604FF6FF700B
:10195000608228792075FF20207401208DF8020014
:1019600041F60F00ADF80000221D69460120A0DFFE
:10197000002803D129462046FFF756FD38BD0E202A
:1019800038BD38B5002823D0002921D00A88102A74
:1019900019D0112A19D0502A1AD10446007D0028E6
:1019A00016D031F8060F6289904211D14889022879
:1019B0000ED1206800280BD001F10C0000F0E3F9F3
:1019C00038B1002006E0898801E04FF6FF714182BE
:1019D00038BD01208DF800002268694620469047F6
:1019E00038BD000002490A7D091D06F053BA000007
:1019F000A033002002460248C17D001D06F037BA20
:101A0000A033002002460248017E001D06F02FBAD6
:101A1000A03300202DE9F047044603883F48012207
:101A20008CB000F1150A102B09D0112B55D01A2BB0
:101A300071D1217AB2EB111F54D2012353E0027D00
:101A4000417D05468A43011D06A806F023FA1422AB
:101A500006A901A8FDF748FDDFF8C090002637462B
:101A600009F114090DF104080AE000BF08EB460073
:101A70001D2283884946281D009706F0BDF9761C73
:101A80000198B042F2D8287DA688C043C0B206F0C3
:101A9000D5F9A0F57F41FF3917D005EB40000123B0
:101AA000868032465146281D06F019FA0123324637
:101AB0004946281D06F013FAE07B02280BD00023CC
:101AC0001649A2881631281D20E00CB00420BDE87C
:101AD000F047FFF7D1B90123F2E70023A28851466E
:101AE000001D13E000230D490546A2881731001D93
:101AF00006F0F5F9207A0221B1EB101F01D2012383
:101B000000E000230549A2881831281D0CB0BDE86B
:101B1000F04706F0E4B90CB0BDE8F087A033002030
:101B200070B50A4E05460024317D2A46301D06F068
:101B30009EF940B1B17D2A46301D06F098F908B1F2
:101B4000022400E00124204670BD0000A0330020E4
:101B500010B50024204608F037F828B1641CE4B220
:101B6000182CF7D3182010BD03480122A2400168A9
:101B700011430160204610BDA033002010B504467B
:101B800008F022F8002802D001482044407E10BD11
:101B9000A033002070B505460C46084608F014F83E
:101BA000002808D004482A460119001D497EBDE8D6
:101BB000704006F05CB970BDA033002070B50646D9
:101BC00015460C46084607F0FFFF002809D00548D7
:101BD0002B4601193246BDE87040001D193106F050
:101BE0007EB970BDA03300207CB5054608880C4640
:101BF0000930904201D90C207CBD68466DDF002879
:101C0000FAD121880820685420881B21401C80B20A
:101C1000208029542088401C80B220802844DDF890
:101C200001100160BDF8051081802088801D80B200
:101C300020809DF80010490800D0012129542088F7
:101C4000401C208000207CBD7FB5044601208DF81B
:101C5000060041F60A00ADF80400454A01A901203A
:101C6000A0DF00287ED1228804F13C0552B1404813
:101C70002B46801C009042F62920616800F0D0F8C5
:101C8000002873D1228952B139482B460A3000907E
:101C900042F62420E16800F0C3F8002866D1228AC9
:101CA00052B133482B461230009042F6252061692C
:101CB00000F0B6F8002859D1228B52B12C482B469F
:101CC0001A30009042F62720E16900F0A9F80028B8
:101CD0004CD1228C52B126482B462230009042F63D
:101CE0002620616A00F09CF800283FD1228D52B175
:101CF0001F482B462A30009042F62820E16A00F067
:101D00008FF8002832D1216B71B102A807F046FB91
:101D100017482B4632300090082202A942F62320B1
:101D200000F07EF8002821D1606B58B110492B4695
:101D30003A3100910279016842F62A2000F070F8E9
:101D4000002813D1A16B81B102A805F00FFD08484E
:101D50002B4642300090072202A942F6502000F0A4
:101D60005FF800E002E0002800D1002004B070BD60
:101D70002432002070B504460D460846FDF7E4FB0A
:101D80002080656070BD007800F0010070470A781F
:101D900002704978417002207047002901DA002062
:101DA00070470268114401600120704705494FF0F7
:101DB000FF32082841F8202002D3084480F8482048
:101DC0007047000014380020F0B54FF0FF3512B115
:101DD0000023082601E008230C260C4C05E000BF78
:101DE00054F823707F1C04D05B1CB342F8D3284600
:101DF000F0BD26185DB286F8305044F82310002A52
:101E0000F5D1E11881F84800F1E70000143800200E
:101E10000249084490F9300070470000143800204F
:101E20002DE9F0438FB01E46DDF8589015460F009F
:101E3000804602D10020FFF71FF815B90020FFF7F8
:101E40001BF81C216846FDF768FB00249DF8000084
:101E5000039440F002008DF80000012001948DF8F9
:101E60003600049405940694ADF834800C943078D0
:101E70008DF8300070788DF831009DF83200142113
:101E800020F00600801C20F019008DF8320007A811
:101E9000FDF743FB0DA807900CA808900748ADF884
:101EA0002450ADF82640ADF828500B974B4607AAB2
:101EB00069460088A2DF0FB0BDE8F083243200201D
:101EC0002DE9F0438146887891B090460C4600B9E0
:101ED00001208DF83E002088ADF83C0000250095DB
:101EE000607C694606F0AAFE6E46A07C711C06F076
:101EF000A5FEE07B00289DF8020002D040F008001B
:101F000001E020F008008DF80200217C11B140F0C2
:101F1000100001E020F010008DF80200217B11B1CB
:101F200040F0010001E020F001008DF80200217D69
:101F300009B1022100E0012161F342008DF80200A5
:101F40001C2102A8FDF7E9FA607BC10601D48006D6
:101F500017D50E950EAFE07C791C06F06FFE9DF84C
:101F60003800079720F00F00401C20F0F0001030E0
:101F70008DF838009DF83A0020F00600801C8DF89E
:101F80003A00607B8DF80800A07B8DF809001421D1
:101F900009A8FDF7C2FA0FA8CDE90906A088ADF897
:101FA0003000A06820B1E088ADF82C00A0680D904A
:101FB000A06998B301950088ADF81000A06901AD43
:101FC00001A94088ADF81200A06940680695039009
:101FD000A069007B06F032FEA069691C407B06F018
:101FE0002DFEA069807A00289DF8060002D040F0FE
:101FF000080001E020F008008DF80600A169C97A08
:1020000011B140F0100001E020F010008DF8060042
:10201000A169097A19B140F0010002E00DE020F059
:1020200001008DF80600A169897B09B1022100E059
:10203000012161F342008DF80600E06900B10590CE
:10204000434609AA02A94846A2DF11B0BDE8F083C1
:1020500038B10549814204D80449814201D901209F
:102060007047002070470000CC320020EC32002086
:10207000044A0168914201D0083101E00149383930
:1020800001607047143A002070B504464FF6FF75A2
:102090000A462846AC4208D14FF4807421461046C7
:1020A00005F06AF9A04209D070BDFF2CFCD821468A
:1020B000104605F054F908B1204670BD284670BDA1
:1020C00070B5084C050009D010342168002907D0EC
:1020D00008682060496828468847F6E70834F4E72E
:1020E00070BD00000038002000280DD0017D0029BF
:1020F0000AD0C1698160027B016801EB02131022E2
:10210000011D184607F006BE704700002DE9F05F7C
:1021100026484168F1B3DFF898B00E688146DBF8D5
:10212000004087688078E11B21F07F45ED1CB0B945
:10213000DFF880804FF48030C8F84403C8F8040307
:102140001120FDF7B1FB1120FDF7C4FB4FF0010A90
:10215000C8F800A02F2003F08FF889F802A0B5423C
:1021600000D23546124BE8193C3320F07F4018600E
:10217000DBF800105A46091B21F07F41001B20F0BC
:102180007F40C91C81420FD9106818602F2003F0CE
:1021900073F800E004E0BDE8F05F1120FDF7B0BB8C
:1021A000BDE8F05F05F0AABDBDE8F09FE03100207A
:1021B00004150140001001402DE9F0411788064642
:1021C000B81D14460D46984202D90C20BDE8F08196
:1021D0003188072206290AD34FF4486C4FF6FF7363
:1021E000614501D9994202D17088062801D2104672
:1021F000ECE7604501D99842F9D1994203D0984261
:1022000001D08142F3D80520E85520881221401CD6
:1022100080B2208029542088401C80B2208041193F
:10222000308807F07FFC2188084480B22080411963
:10223000708807F077FC2188084420800020C5E7DB
:1022400070B50C4605462C212046FDF766F9A879A5
:102250002060687960602879A060E878E060A878FC
:1022600020612888A0F26C7060610020206270BD3F
:1022700002788A7102794A71027A0A71027BCA7005
:10228000027C8A70808A00F26C70088070472DE9A9
:10229000F04188B00E4698461746044620210E9D10
:1022A000FDF73BF904AA3146286805F0C1FB286810
:1022B00020602673E781A4F81080A6B1761EF1B2E3
:1022C0006A46286805F0B4FBDDE900010844606057
:1022D000D5E9000108446168401AA060012020751A
:1022E00008B0BDE8F081286800F58050EFE70000F5
:1022F0002DE9FF410C4618B1012004B0BDE8F08182
:1023000020790027DFF87C80012638B141F61D5581
:1023100001281ED0022829D00F20EEE7029703974C
:10232000E0680190694601A805F022FC68B10298B6
:102330008188E18000882081029805F08DFCBDF83D
:10234000002008EB02118E7300E00A2002212171A7
:10235000D3E70D4B6A460021A01D05F0C5FB38B13F
:10236000094908398F60CF600A28C6D12846C4E7DA
:10237000019805F071FC04498A8808EB02118E73FC
:10238000F2E70000243A0020D03100200278837860
:10239000521C5B1ED2B283708A4200D100220270AE
:1023A000704770B50546087828700C46481C05F043
:1023B00093FB6880E01C05F091FB686070BD70B510
:1023C0000546087828700C46481C05F085FB688097
:1023D000E01C05F081FBA88070BD00002DE9F041F4
:1023E00000260125144C22E06068226900EBC60734
:1023F000387805FA00F1114217D08A43226103F0C0
:10240000A5F902463878E36805FA00F1194002FAA6
:1024100000F3994209D17978012901D0012100E026
:10242000002151407A6802B19047761CF6B22078BC
:102430008642D9D3BDE8F081A431002010B504460E
:10244000FFF7E8FA204604F0DBFF2046FEF728FD00
:102450002046FFF76DF9204601F0B0F9204605F05F
:10246000ADFE204605F0ECFE204606F05DF8208823
:10247000302826D008DC132823DA012821D01028A0
:102480000DD011281DD10DE03B281ADD502818D0A1
:10249000522816D055280ED0562812D107E0A18810
:1024A000012001E0A188002006F038F909E0A088A9
:1024B000132176DF02E0A0881721ADDF08B1FEF717
:1024C000DBFC2088112807D174DF044801F03AFDB5
:1024D000BDE8104006F027BF10BD000018320020F4
:1024E00010B5044600F072FC2046BDE81040FFF72E
:1024F0004DB900000E4910B50A784C780023A2426D
:1025000012D0521CD2B20A70022A00D10B70084AB3
:102510000B78183252F8232002608868104420F0AB
:102520007F408860012010BD0360002010BD0000C6
:10253000E031002003490248C1F80007704700005D
:102540000C000300540000503EB5094D38CD8DE815
:102550003800ADF8041007498DF80620ADF80200E8
:1025600000220978FFF72AFB684600F09FF83EBD7D
:10257000C8A102008831002038B5044607F0AFFB3F
:1025800007F0C2FB2146684607F0D1FA04226946EB
:10259000212007F020FC38BD10B503780022072B5E
:1025A00006D2DFE803F00504060C1C252B000A7098
:1025B00010BD01220A7002898A81828814E00222F9
:1025C0000A7002898A818288CA81C2688A60007C16
:1025D000062802D00020087410BD0120FBE703226A
:1025E0000A70C2888A810289CA81C068886010BD69
:1025F00004230B70C0888881CA8110BD0520087033
:1026000010BD000070B5064D0646002455F8241094
:1026100009B130468847641C082CF7D370BD000010
:10262000443900200EB5002911D011290FD0002205
:1026300000920292ADF8020001910D2908D086297E
:1026400008D009208DF80000684600F03DF80EBD66
:102650000B20F7E70A20F5E7014909680847000061
:102660005031002070B5054D06460024304655F81F
:1026700024108847641C022CF8D370BD70A102009E
:102680002DE9F04107460024064E074D05E000BF46
:1026900056F8241038468847641CE8788442F7DBF3
:1026A000BDE8F081B43700207831002070B5054DC9
:1026B00006460024304655F824108847641C022C36
:1026C000F8D370BD90A102000149096808470000D5
:1026D000D4A102007FB50446406858B100200390A1
:1026E00020780026384D06285DD2DFE800F05C0532
:1026F000052641690120F2E7A08900F091F918B997
:10270000E08905F0BBFA80B3A089A0F54040ADF8A0
:102710000200A07B8DF8040020780128606806D0B4
:1027200048B104208DF80000606803901AE000288A
:10273000F8D00320F6E70120F4E7A08900F070F953
:1027400018B9E08905F09AFA78B1A089A0F540405F
:10275000ADF80200A07B8DF80400606830B1052060
:102760008DF80000A06802901AE01CE00220F7E754
:10277000A08900F055F9B0B1E089A0B9A089FF2186
:10278000A0F5404080B2ADF802008DF804106168F9
:1027900081B107208DF800006E70AE7004F0B8FBB8
:1027A000684604F08DFA6878002802D06E7004F054
:1027B000AFFB7FBD06218DF8001004F037FCEBE77E
:1027C00008208DF80000EBE76431002000B51149C6
:1027D00087B00978890702D4022007B000BDA0F5B0
:1027E0007F41FF3911D005218DF8001001218DF8AE
:1027F0000410ADF8060000221146684603F0B6FE4C
:1028000028B105F095F80020E7E70420E5E7082067
:10281000E3E70000C831002000B58DB01421684600
:10282000FCF77BFE1E480078810703D56846FFF75A
:10283000E9FE33E0C00731D1012000F015F900F0C6
:1028400023FA03F041FF70B106280FD001218DF863
:1028500014100C281BD2DFE800F01A101A101A18F6
:102860001A181A1216120B200DB000BD022000F02B
:10287000FBF8012000F0DEF8D8E7002000E003209C
:102880008DF8180003E00220FAE78DF818100022F6
:10289000114605A803F06AFE05F04AF80020E3E7B8
:1028A000C831002038B5040011D0694605F060F940
:1028B00088B10A48BDF8001000EB0110818941B1D0
:1028C000A27A32B1491E81810020A07238BD052054
:1028D00038BD062038BD0A2038BD0000243A00204B
:1028E0001FB501A9684605F0FFF804B010BD07B593
:1028F00013460A466946002005F0F6F80EBD07B5F6
:1029000013460A460021684605F0EEF80EBD20B1D8
:1029100019B100680860002070470520704700006A
:1029200038B50D46040015D0A5B1694605F020F96B
:1029300090B10A49BDF80020606801EB021291894C
:10294000491C9181286060680C3068600120A07289
:10295000002038BD052038BD0A2038BD243A0020AB
:1029600018B10323002207F0BDBA052070470223E7
:10297000002207F0B7BA12B1022307F0B3BA05205C
:1029800070470000064A5178082906D0054B43F8E5
:102990002100491C5170002070470C207047000036
:1029A000C83100204439002038B504460A480D4695
:1029B0000078800701D4022038BD54B1694628460A
:1029C00007F0A0FB0028F7D1BDF80010218065803A
:1029D00038BD052038BD0000C831002010B50446C0
:1029E0000D480078800701D4022010BD84B12188F1
:1029F00002290FD8094800EB011042896088121A99
:102A0000032A07D407F074FB00202080608010BDEB
:102A1000052010BD042010BDC8310020243A00203C
:102A200043F6FE71A0F54040884201D8012070476E
:102A30000020704702490A7882430A7070470000FC
:102A4000C831002010B504460078182802D1FFF7DD
:102A50007FF8207010BD10B504460078182802D108
:102A6000FFF776F8207010BD02490A7802430A7019
:102A700070470000C831002070B51346002206469A
:102A80001546862905D0112901D019B170BD01253F
:102A900000E001220D4C73B16179FFF78FF82A46EF
:102AA00021793046FFF78AF8002261783046FFF737
:102AB00085F8002203E06178FFF780F82A46217844
:102AC0003046BDE87040FFF779B800008C31002037
:102AD000F0B587B0284C6E4669462848FEF747FA9D
:102AE00004283AD09DF8005005EB450004EB400067
:102AF00090F85871F8070FD02148B11C50F8250004
:102B0000C26902A89047024605EB450004EB00109D
:102B100002A9083005F0FFFAB807DDD59DF80000DE
:102B20009DF8012004EB4010B11C00F5CA7007F0BD
:102B300026F9054605F010FC9DF80100A842CBD00F
:102B400069460E48FEF713FA0028F9D0002005F078
:102B500069FD012005F0DCFDBEE700258DF8085079
:102B600002A8FEF7B1FB84F883519DF80800FEF738
:102B7000CFFB07B0F0BD0000204C00201CA20200DB
:102B80007032002070B50546C81701EB10500613CF
:102B9000002405E02846FFF7EFFC641C05F580558E
:102BA000B442F7DB70BD00684FF40051FFF7EABF95
:102BB0004FF480510020FFF7E5BF000010B500285A
:102BC00021D0114B0022001F196803E0814203D875
:102BD0000A4649680029F9D152B11368841A9C4207
:102BE00004D1006818441060104602E0506000E014
:102BF000186039B102680B1A934203D10B681A446A
:102C000002604968416010BDC4320020F8B5064634
:102C10001A481F46154600780C46C00708D03046B3
:102C2000FFF716FA30B13CB1200507D00620F8BDF9
:102C30000120F8BD0220F8BD0320F8BD3068A04295
:102C400004D8716804EB0530884201D90520F8BD2D
:102C50007DB1684604F0BAFD68B100980221C0E970
:102C600000670172210B8181058204F071FE002052
:102C7000F8BD0420F8BD0720F8BD00000032002098
:102C8000084604F0BFBD70472DE9F0472748284C9F
:102C90004FF01021001B0209496910464B1C03D15B
:102CA0004FF0805149690903DFF888A09AF8007055
:102CB000FB0702D00020BDE8F0870023A14607E013
:102CC00009EB0314256815B1646804B1401E5B1C50
:102CD0009342F5D3002422E0002504F0FF0C2B469C
:102CE00013E000BF09EB0316D6F80080B8F1000F1F
:102CF00004D0D6F80480B8F1000F05D1767BAE423F
:102D000002D9354603F0FF0C5B1C9342EAD309EB72
:102D10000C13641C59601D7BA1EB053119608442C2
:102D2000DAD347F001018AF80010C3E7EC32002043
:102D3000CC3200200032002020B10349496E0160EE
:102D40000020704703207047543A00202DE9F843D3
:102D500007461D48DDF820801E46007815460C46C3
:102D6000C0070CD03846FFF773F950B15DB154B1CC
:102D700045EA0400800708D00620BDE8F88301205A
:102D8000FBE70220F9E70320F7E73868A04204D800
:102D9000786804EB8601884201D20520EDE77EB118
:102DA000684604F013FD68B100980121C0E900787D
:102DB0000172C0E90354868204F0CAFD0020DCE7FA
:102DC0000420DAE70720D8E70032002070B5174A60
:102DD00017490446106E0B7800EB400002EBC00070
:102DE0009D0715D5022C02D0032C1BD102E003F065
:102DF00093FB17E04A78521CD2B24A70032A11D9C9
:102E000000224A70082105F042F904F0C9FC09E0EB
:102E1000580707D523F004000870526E12B140F035
:102E200002000870BDE8704004F04ABD543A00202A
:102E30000032002070B508B1012070BD184C00258B
:102E4000207B08B1257301E000F0A2F82078082863
:102E500024D2DFE800F02304080C1023141EBDE880
:102E6000704000F01FB8BDE8704000F07FB8BDE8CA
:102E7000704000F061B8BDE8704000F037B8084914
:102E80006088203901EB00104068BDE8704003F015
:102E9000FBBB6560BDE8704003F004BC0F2070BD53
:102EA000443A00201049F0B48A1C00200346A1F1E6
:102EB00020050C18A67A3EB1A37205EB0014A68972
:102EC00016B9A47B012C0AD0401C80B20228F0D392
:102ED0000B704B804B60F0BC41F61D50704710806A
:102EE000F0BC00F043B80000443A002010B50F4C8D
:102EF000A4F12001608801EB0010818961B10520F7
:102F000020700B480221002381800168BDE8104039
:102F100001220848FFF77ABE4168002301220548D4
:102F2000FFF774FE0421217010BD0000443A002018
:102F3000D8310020CC32002038B50A490848032493
:102F40000B684268898803EB810153880470002074
:102F5000DB1C00909BB20448FFF7F8FE38BD000070
:102F6000443A0020D8310020CC320020074910B567
:102F70004888091D04F04AFE18B1BDE81040FFF76B
:102F8000DBBFBDE81040FFF7B1BF0000443A0020AE
:102F9000F0B51D481D490125067802248B88A0F153
:102FA0002002082E18D2DFE806F00417171A212C89
:102FB0002C160189491C01810021418080F80C10E8
:102FC00002EB01131B7843B100234418491C89B25A
:102FD000A3720229F4D30570F0BD0123F5E742681E
:102FE0005288D21C1A448A800470F0BD46880D684D
:102FF00002EB061256680E60556013818C80062124
:1030000000E007210170F0BD443A0020D8310020D3
:10301000F0B504460088384D8DB050281ED0522897
:1030200002D0542828D103E0A08801F075FD23E0E8
:1030300006208DF81400A08800F024FDADF81600DD
:10304000A188ADF8181000F0DDFAA0880022E97818
:10305000FEF7B4FD05A8FFF7FFFA0DE0207B01287D
:103060000AD1A07A012807D12089A0F5245102397C
:1030700002D1A08801F08AFDA878FEF77FFDC8B1D3
:1030800008A8FEF7AFFC142208A96846FCF72CFA42
:1030900000246E460BE000BF06EB4407A978B88811
:1030A000FEF778FD10B1B88801F036FD641C009879
:1030B000A042F1D86878FEF761FDC8B108A8FEF714
:1030C00091FC142208A96846FCF70EFA00246E460B
:1030D0000BE000BF06EB44076978B888FEF75AFD9D
:1030E00010B1B88801F052FD641C0098A042F1D8DC
:1030F00005F066FB0DB0F0BD483100203EB504463A
:103100004088ADF802002078A8B101281FD002281D
:1031100010D1207900280DD0608800F0F3FBA0F5D5
:103120007F41FF3906D00F490122C978FEF746FDDD
:1031300005F046FB3EBD00208DF800006846FFF715
:103140008BFA608800F0DEFB01F0E6FC3EBD01205A
:103150008DF80000A088ADF804006846FFF77CFAFF
:103160003EBD00004831002010B50446007801281B
:103170000FD1608801F0D0FC608800F0FBFA0028D5
:1031800007D0044960880122C978BDE81040FEF7E5
:1031900015BD10BD4831002010B5104C0020207026
:1031A000FEF7D6FC6070FEF7D3FCA070FEF7D0FCF3
:1031B000E070FEF7CDFC2071617818290BD0A17862
:1031C000182908D0E178182905D0182803D0012043
:1031D0002070002010BD032010BD000048310020E9
:1031E0000178072902D1408801F0D0BC70477CB536
:1031F0000446062269463B2004F0F6FB684604F0CC
:103200001EFC20806D46A81C04F019FC6080281D5F
:1032100004F015FCA0807CBD1CB504460868009035
:103220008888ADF80400BDF90010204601F008F9C7
:10323000BDF90210A01C01F003F9BDF90410201D16
:1032400001F0FEF806201CBD1CB50446086800907D
:103250008888ADF80400BDF90010204601F0F0F8B0
:10326000BDF90210A01C01F0EBF8BDF90410201DFF
:1032700001F0E6F806201CBD1CB504460868009065
:103280008888ADF80400BDF90010204601F0D8F898
:10329000BDF90210A01C01F0D3F8BDF90410201DE7
:1032A00001F0CEF806201CBD10B5098806F036FCEA
:1032B000022010BD10B5098806F030FC022010BDB8
:1032C00070B50C680546A1B206F028FC210CA81CBC
:1032D00006F024FC042070BD10B5096806F02FFC30
:1032E000042010BD08B56946002002F04DFB08B16E
:1032F000322008BDBDF90000642100EB4000A0F2BF
:10330000663048434FF4887190FBF1F0642804DA8A
:10331000002800DA0020C0B208BD6420FBE70000EE
:1033200038B5044602236A462921054802F0C4FC48
:1033300008B1FDF7A1FDBDF80000208038BD0000F8
:103340002CA3020038B50446032269464020FCF74E
:1033500021FE18B9BDF8000040BA2080BDF8000079
:1033600040BA208038BD7CB5044603216A46072355
:103370000C2004F047FB684604F065FB20806D4696
:10338000A81C04F060FB6080281D04F05CFBA0809A
:103390007CBD7047704770477047704770477047F3
:1033A0001CB5044600200090A8216A4603235C2037
:1033B00004F028FB684604F091FB206004A0012281
:1033C0000068019001A9212006F0F3FC1CBD00005B
:1033D000110000007CB5044606226946432004F033
:1033E00003FB684604F02BFB20806D46A81C04F00C
:1033F00026FB6080281D04F022FBA0807CBD10B558
:10340000FFF7F5FE062010BD10B5FFF7E3FF06201D
:1034100010BD10B5FFF7A7FF062010BD0C4A10B570
:10342000137833B1012B09D00021022B117009D17F
:103430000AE00120107006F03FF903E0962901DD53
:1034400002201070002010BDFFF76AFF022010BD9F
:103450009032002010B500F05DF8022010BD000091
:1034600070B5164C054600202278052A19D2DFE8EF
:1034700002F003080C151B000120207006F030F943
:1034800010E014290EDD02200BE0032020700B4811
:10349000801CFFF757FF06F032F903E0202901DD19
:1034A00004202070002070BD20700448001D00F032
:1034B00023F8D4F802002860042070BD9232002066
:1034C00010B5FFF76DFF042010BD000010B58CB0E3
:1034D000044606F03DFB0748FCF784F801462C2221
:1034E0006846FCF701F821466846FEF7C1FE0CB0BD
:1034F00010BD00001C32002038B504460322694686
:103500004020FCF747FD002803D1BDF8000040BA79
:10351000208038BD1CB50446012269463920FCF7DD
:1035200039FD00280DD1012201A93820FCF732FD18
:10353000002806D19DF804009DF8001040EA012003
:1035400020801CBD10B504460A4841782046FEF78D
:1035500021FB68B10848002101EB410200EB820227
:103560005288A24201D1C8B210BD491C0829F3D328
:10357000FF2010BD60310020D433002070B5094D0C
:10358000094E002404EB440005EB8000717840886C
:10359000FEF700FB20B1641C082CF3D3FF2070BDA4
:1035A000E0B270BDD4330020603100202DE9F0413D
:1035B000124E07460125BD403068FDF775FE002814
:1035C0000DD10F4C2069284207D1384602F0BEF8D1
:1035D0000028E06805D0284304E0A8432061BDE846
:1035E000F081A843E060206928432061A168306829
:1035F000BDE8F0410022FDF713BE0000ECA102007F
:10360000A43100201CB5054AD2E90212CDE900120E
:103610000022694603F021FA1CBD00005CA10200F3
:1036200003484FF6FF71818001210170002070472F
:10363000543100202DE9FC41804600F023FA00249B
:1036400003250127A0F57F412646FF3908D06A46A9
:10365000082103F0DDF918B90198841D86880568F2
:1036600032462B4621464046A9DF042804D00828CC
:1036700004D00B2808D002E0112000E00020002F29
:1036800000D10B20BDE8FC810027A80701D501254A
:10369000E6E73443F5D0002426460325E0E72DE98C
:1036A000FC41804600F0EEF90746A0F57F40FF3868
:1036B0000ED001252A466D1C0026ADB26B460821AE
:1036C000384603F0CFF9040006D0072C24D024E0BC
:1036D00043F20200BDE8FC81019903230A1D0B603F
:1036E0004046891DAADF040004D00C2C08D0052C0C
:1036F00008D008E00821384603F04CFA04460CE0F4
:10370000012600E000240821384603F02FFA00B11A
:103710000324002ECED100E00C242046DAE700007E
:103720001FB504460078012815D12079012812D14F
:10373000608802AA012103F06BF960B902208DF8BC
:1037400000006088ADF80200094901208DF80400EE
:10375000096868468847064808388088A0F57F4190
:10376000FF3903D0BDE81F4005F056B81FBD00006B
:103770005C3100201CB500F085F96A46012103F098
:1037800047F908B100201CBD019800781CBD00005D
:103790002DE9F041084C07464FF6FF7643F203054A
:1037A000324661883846A7DFA84203D16088401CB2
:1037B0006080F5E7BDE8F081543100200146014802
:1037C000FEF7DFB8585000208188A1F57F42FF3A0C
:1037D00003D0008808B101207047002070473EB533
:1037E000027802230C46B3EB520F17D1B0F8011048
:1037F000ADF80010C1788DF802108188ADF8041082
:1038000080798DF8060002AA01A92046FDF7AAFAE0
:10381000032202A96846FBF79EFE08B100203EBDC8
:1038200001203EBD10B50C46FFF78CFEFF280CD0E2
:10383000074900EB400001EB8000416821600189ED
:10384000A180807AA071002010BD052010BD00006D
:10385000D433002070B5018890B010294FD1011DDC
:1038600034226846FBF740FE9DF804004FF6FF76D1
:10387000032134466D46B1EB500F2AD003F088FA8D
:103880009DF8040040080ED001280CD0022820D159
:1038900018E00F99281D1131FDF764F918B100BF28
:1038A000BDF8344015E00EAA0DA9072003F048FA30
:1038B0000028EED10DE00F99281D491CFFF78FFF5E
:1038C0000028EDD10EAA0DA9072003F039FA00282F
:1038D000F1D1BDF80000291D01F0BEFBB4420ED0AD
:1038E000BDF80000214600F07EF8BDF80000ADF8FC
:1038F000360001208DF834000DA8FEF7B3FE10B09D
:1039000070BD0000094A002101EB410332F8233069
:10391000834205D101EB410002EB800040887047F3
:10392000491C0829F0D34FF6FF707047D4330020AC
:1039300010B50D4C18200D4A607000204FF6FF7135
:1039400000EB400302EB8303401C59800828F7D3A7
:10395000FEF7FEF86070182803D0012020700020C8
:1039600010BD032010BD000060310020D4330020C2
:1039700070B504460D46401C00F025FE00280ED010
:103980001022691C601CFBF7E6FD48B15FF00006E1
:1039900005F1110104F11100FDF7E4F8304370BDA9
:1039A0000126F5E7018811B9421892780AB1012081
:1039B0007047491C0829F7D30020704710B50C4602
:1039C0000346FFF7EFFF00280AD0188821888842B5
:1039D00005D10822A11C981CFBF7BDFD08B10020F1
:1039E00010BD012010BD03F075BB10B50446007872
:1039F00088B0002828D12079072825D1608801AA1D
:103A0000072103F005F800281ED103F0C1F91DE0DD
:103A10006088BDF80010884218D004990298FFF71A
:103A2000A7FF98B16088FFF76DFFADF81600002082
:103A30008DF814006088ADF81800BDF80000ADF8EE
:103A40001A0005A8FEF70EFE08B010BD03AA6946CD
:103A5000072003F075F90028DAD1F5E770B50446C0
:103A6000FFF750FF0546204602F0D5FF4FF6FF71E5
:103A700004468D4203D014B9284603F02BFB2046A0
:103A800070BD000010B5FFF75DFDFF2805D00449AB
:103A900000EB400031F8200010BD4FF6FF7010BD64
:103AA000D43300203EB5044603F072F90EE00199CC
:103AB00020464631FFF782FF28B9019920462A3176
:103AC000FFF77CFF10B1BDF808003EBD6A4602A9B1
:103AD000072003F035F90028E9D14FF6FF703EBD0D
:103AE00008B503208DF80000802101236A462920B3
:103AF00006F077F908BD0000124810B500210170EA
:103B0000001D152202704170032181700E49416031
:103B100040F266620121FDF761F908B1FDF7ACF9E9
:103B2000FDF74AF908B1FDF7A7F9084A002108484E
:103B3000FDF714FB002803D0BDE81040FDF79CB949
:103B400010BD0000A4320020D5010200E193020064
:103B500008A3020030B587B001F030FE20B901F0B3
:103B6000FFFD08B1FDF788F901258DF811500024FB
:103B70008DF8124004A9022001F032FE08B1FDF7D1
:103B80007BF91F481D490022016023210171447106
:103B9000857105208DF8000004208DF801000320B8
:103BA0008DF802000621FF208DF804108DF8030027
:103BB0008DF805004FF0804002908DF80C408DF894
:103BC0000D4069460E4801F03FFF08B1FDF754F97A
:103BD00000221146B72006F0FEF805A901221520A3
:103BE00003F008FF9DF81400C0F34010002802D134
:103BF0000320FDF741F907B030BD0000003002405E
:103C00009C32002008B500221146FE2006F0DDF8A7
:103C100043F6982001F0BCFBE7216A4602234020CE
:103C200003F0F0FE9DF80000012220F0040040F0B7
:103C300083008DF800006946E62006F0C6F808BD4E
:103C400038B501F0BBFD20B901F08AFD08B1FDF7E0
:103C500013F900248DF801408DF8024069460A20CE
:103C600001F0BEFD08B1FDF707F90D4801210D4A2D
:103C7000C0E900414FF47A71816001210A48FDF7E3
:103C80006DFA08B1FDF7F8F80748002240F6CD417B
:103C90000068FDF7C5FA002801D0FDF7EDF838BD42
:103CA000B03200202D4602000CA302007047000035
:103CB0000EB50F490020012208700EA06946006869
:103CC00000906B2006F07BF8002810D00AA001229B
:103CD0000068019001A9372006F071F807A00122C1
:103CE0000068029002A90A2006F05DF801200EBDCE
:103CF0009832002080000000020000001600000042
:103D000008B504A00122006800906946202006F052
:103D100050F808BD80000000FFF7CABFFFF7C8BF1A
:103D2000FFF7C6BF024900200870FFF7D9BE0000A8
:103D30009032002000F0F6B8024900200870FFF72A
:103D400061BF000092320020FFF7DABF70B50E4667
:103D5000154604463021FBF7E0FB4FF6FF7020804C
:103D600084F82E5031462046FCF720FE002070BD1E
:103D700010B5044634210648FBF7CFFB04494FF643
:103D8000FF7048862046FCF71FFD002010BD000094
:103D9000F83F002010B520210348FBF7BEFB024985
:103DA000FF20087010BD0000883F002010B50446B9
:103DB0001E210648FBF7B1FB04494FF6FF7048830C
:103DC0002046FCF779FC002010BD0000DA3F0020FF
:103DD0000D4810B50021016041600C4A01210C48DA
:103DE000FDF7BCF908B1FDF747F8094800224FF488
:103DF00000010068FDF714FA002803D0BDE8104068
:103E0000FDF73AB810BD00001C320020397D0200D9
:103E100018A202002DE9F04107464FF45C711C48DE
:103E2000FBF77BFB00201A4DC82100BF00EB4002CE
:103E300005EB4202401CA2F85A110728F6DB00F0FD
:103E40004BFE00F09BFA134E002400BF56F82400EE
:103E5000C06880472855641C072CF7DB002404EB5E
:103E6000440005EB0010E2B239460830FFF76EFF60
:103E700008B1FDF701F8641C072CF0DB0648FDF7DC
:103E80006BF808B1FCF7F8FF0020BDE8F0810000F6
:103E9000204C0020703200201CA202007FB51E4979
:103EA00000231A46D1E90601CDE90201072000905E
:103EB000062001906946184801F0B8FE08B1FCF7E9
:103EC000DBFF154801F0A2FE1420009012200190A3
:103ED000114800231A466946083001F0A7FE08B1D0
:103EE000FCF7CAFF0C48083001F090FE0B4940F285
:103EF00003304FF0A044C1F800074FF40075C4F838
:103F00000C55074E04F5A164304601F0CDFA25604A
:103F1000304601F0C9FA7FBD24A3020024000050FE
:103F2000E093040008B506208DF80000002301226C
:103F300069463820FCF740F808B1002008BD012090
:103F400008BD000030B5A7B004463C2101A8FBF72E
:103F5000E4FA06208DF8070002208DF804003C21C9
:103F600010A8FBF7DAFA012514B1ADF850501594FA
:103F700020211FA8FBF7D1FAA02023908DF87F50B5
:103F80001E2024908DF880504FF4C86025904FF487
:103F90001670269006480090064B1FAA10A901A88B
:103FA000FDF736FB002801D0FCF766FF27B030BDD7
:103FB000FD640200FF6402000EB518211F48FBF7E4
:103FC000ACFA1F4801680878FF2804D018221B4863
:103FD000FBF7AEFA03E01BA11848FBF7C9FA9DF8FE
:103FE000080020F00F00401C20F0F00010308DF889
:103FF00008001248FBF7A8FA82B2104902A87CDF39
:1040000008B1FCF739FF002078DF08B1FCF734FF76
:104010000020009001901021ADF80400ADF80010D0
:104020004FF4C8704021ADF80600ADF802106846A4
:104030007ADF002801D0FCF71FFF0EBD20500020C2
:10404000DC3200204E4152412D414354000000001B
:1040500010B588B02F49002001F052FC08B1FCF7E0
:104060000BFF2D4C201D07C88DE807006946002076
:1040700001F022FC08B1FCF7FFFE142103A8FBF7B6
:104080004CFA9DF8190020F00F00401C20F0F000C1
:1040900010308DF819009DF81A0020F00F00401C18
:1040A00020F0F00010308DF81A009DF81B0020F071
:1040B000FF008DF81B009DF81C0020F00F00401C35
:1040C00020F0F00010308DF81C00002003908DF8D7
:1040D00010000590FFF706F98DF8180003A90F48A6
:1040E000FDF72DFC08B1FCF7C7FE0D4A01210A4877
:1040F000FDF734F808B1FCF7BFFE00224FF4702141
:104100002068FDF78DF8002801D0FCF7B5FE08B057
:1041100010BD0000FD58020014A3020058500020FA
:104120007915020030B50546194889B00C4600687B
:10413000079000235022174907A805F059F808B145
:10414000FCF79AFE6A460121002005F03BF808B111
:10415000FCF792FE1720ADF810004FF4AC5006901B
:1041600001208DF81400684604F0BCFF08B1FCF78C
:1041700083FE204604F0ACFF08B1FCF77DFE284624
:1041800005F06EF8002801D0FCF776FE09B030BDCE
:1041900010A30200D04F002000B591B04021684626
:1041A000FBF7BBF911211A48FBF7B7F94FF0805024
:1041B000036E426E17A11648FBF7B6FF18A16846BA
:1041C000FDF7D8FD1AA106A8FDF7D4FD1AA108A88D
:1041D000FDF7D0FD0E4904A8FDF7CCFD9DF83C008D
:1041E00020F00F00401C20F0F00010308DF83C0053
:1041F0009DF83D0020F0FF008DF83D006846FDF77A
:1042000023FD002801D0FCF737FE11B000BD0000EF
:10421000C83F00202530387825303878000000006D
:104220004D6174696C646520496E632E0000000066
:1042300072657620322E300072657620312E30364F
:10424000000000001CB5044603F050F808B1FCF76C
:1042500013FE24B103F09EF908B1FCF70DFE002017
:10426000009001909DF8000020F07F00303020F099
:1042700080008DF8000007208DF8010010208DF8D7
:1042800002009DF8030020F003008DF803009DF864
:10429000040020F003008DF80400684603F0ACF938
:1042A00008B1FCF7E9FD044803F090F9002801D0BB
:1042B000FCF7E2FD1CBD0000137202002DE9F04185
:1042C0000F4628B10120FEF7B5FB0120BDE8F081C3
:1042D000397961B10026264D01290DD0254C4FF0CA
:1042E00002080229206822D003293CD128E002F0EC
:1042F000D9F90121397134E05FF0000005EB0011BC
:10430000097802290CD0401C80B20228F6D3022082
:10431000FEF7AAFB0120FEF78DFB41F61D50D5E705
:1043200005EB0014606802F0AFF9267019E0014651
:10433000002301221048FEF769FCA4F804800FE076
:1043400002F0A2F90A4922682031498805EB0111DF
:104350004B6823604A60A2880A81A4F804800E702A
:104360003E710028B2D00120FEF764FB0E20ADE7BD
:10437000243A0020D8310020CC3200202DE9F05F13
:104380000A20FBF707FF4FF480664FF0E02742F268
:1043900001044FF0010A4FF0000910B1C7F8806224
:1043A00002E02046FCF768FD0A204FF0020BFBF705
:1043B000F1FEDFF87C8042F2020538B15846FBF787
:1043C000FBFE28B1402088F8000404E0204600E00D
:1043D0002846FCF751FD0A20FBF7DCFE68B198F88F
:1043E00000044009FBF7E8FE48B112488168E1B1DA
:1043F000016841F48061016004E0204600E0284645
:10440000FCF73AFD0C49C1F80090091DC1F8009075
:10441000094904200C3108600848C0F800A24FF494
:104420008031C0F80413BDE8F09FC7F80061E9E7E8
:104430000AE000E02C39002004A5004000A0004064
:104440000170090A41707047F8B51C4C20780028AB
:1044500032D0E068002658B10025607800282BD1C2
:10446000684648DF052805D030B1FCF705FD0AE0B5
:104470000125F2E7012606E0009801F097F821698E
:1044800009B1009888479DB96078002814D16088E8
:10449000ADF800006946A06861DF052803D020B1AF
:1044A000FCF7EAFC04E0012502E0D4E902018847B8
:1044B000002ED2D0002DE6D0F8BD0000043200203E
:1044C0007FB50C46054691F8211094F82000CDE9FF
:1044D000000104F12602D11E2846E36905F000FA26
:1044E000002823D194F8230008BB207B022801D0A8
:1044F00003281CD12269E169914218D16269E26105
:10450000E37B84F82030217E0328C1F3401184F836
:10451000211006D004B029462046BDE8704005F0C1
:104520007BB900912946204605F05FFA7FBD04F172
:104530000C0001AB07C883E8070094F823000021B2
:1045400068B1D5F8C404C5F8C404820701D50120B8
:1045500002E0400705D502208DF8000001E08DF84B
:10456000001084F82410207E4007DFD4D4E9002115
:10457000684690477FBD08B500208DF80000694669
:104580000122052003F036FA9DF8000000F001003A
:1045900008BD08B50020042200906946D00203F04F
:1045A000F7F90098A0F52A415C3901D0002008BD38
:1045B000012008BD28B1012803D0032801D0002024
:1045C0007047012070470021425C0AB1012070470A
:1045D000491C1029F8D300207047800701D0002023
:1045E00070470120704710B5044605F0CDFA42F23D
:1045F0001071072C17D2DFE804F00408160A160C15
:104600001100BDE8104005F0BFBA012002E0022011
:1046100000E00320BDE8104004F090BEBDE810406B
:10462000102003F0FFBF10BD05F0AEBA10B50F4C5F
:104630006068002808DCA068401EA06000280FDC2D
:10464000BDE8104005F0A0BA2078C00709D00020CE
:1046500004F0AFF96068401E60602068401C206074
:1046600010BD012004F0A5F9F7E70000B0320020EA
:104670002DE9F047234D81461F46287A0E46904685
:10468000084302D026B1002104E00520BDE8F087F0
:104690001C491031484604F01FFC04460146002224
:1046A0004846FEF7E9F91FB121464846FDF7BAFF33
:1046B000112C0FD005DC5CB1082C09D00D2C06D1D3
:1046C00006E0862C12D0A4F54050023800D0032416
:1046D0002046DBE73246E9784846FDF76FFA424666
:1046E000A9784846FDF76AFA0024F1E73246E978EE
:1046F0004846FDF763FA4246A9784846FDF75EFA58
:10470000E6E700008C3100202DE9FC4117460C0043
:10471000064604D02078C00705D0012004E000211F
:104720007EDFBDE8FC8102208DF804003046FFF7F3
:10473000A9F90546A0F57F40FF3808D001A80090F0
:104740002B463A462146304600F021F806E0207814
:104750002146C007304603D000F07DF804460BE048
:104760007EDF04004FF00000009007D000220123FC
:104770002946304603F04EFC14B106E00122F6E76C
:104780009DF80410304603F06FFC2046C9E72DE980
:10479000F04F85B090468946834600259A462E46BE
:1047A00001AA072118460E9F02F032F9040008D131
:1047B000029D95F84400183510F0010601D0029DC5
:1047C000343558EA04004FF000080FD175B126B90E
:1047D00005F11200FFF7E6F840B12A4605F1120193
:1047E000584685DF044687F8008021E00CB1052C8F
:1047F0001ED199F80000C0070DD003AB012207219C
:10480000504602F02FF904000AD10721504602F069
:1048100023FA040004D1494658467EDF040007D03D
:104820000721504602F0A2F910B1052800D0032458
:10483000CDF80080387808B1012300E0002344B1AE
:1048400000225146584603F0E5FB05B02046BDE87E
:10485000F08F0122F5E7FEB50F46064602F0D6F8C6
:104860000546A0F57F40FF381ED001AB012207218D
:10487000284602F0F7F804000AD10721284602F082
:10488000EBF9040004D1394630467EDF040007D03E
:104890000721284602F06AF910B1052800D0032448
:1048A000012000905CB102E003240020009000226F
:1048B00001232946304603F0ADFB2046FEBD012210
:1048C000F6E700002DE9F041134D0F4616468046ED
:1048D0002978FDF75FF900281BD04046FFF7D2F892
:1048E0000446A0F57F40FF3813D069784046FDF7B5
:1048F00051F938B133463A4621464046BDE8F041C9
:1049000001F05EBF324639464046BDE8F041FDF752
:104910001BBEBDE8F0810000883100202DE9F04386
:1049200085B08146FDF72AF9002820D06846FDF7BA
:1049300059F800246E4617E006EB44054946A8885E
:10494000FDF728F978B10B4FA888B978FDF722F95F
:104950008046A888F978FDF71DF90146A88801234B
:104960004246FFF785FE641C0098A042E4D805B0DB
:10497000BDE8F0838C3100202DE9F043264CA4F1F2
:1049800010092278D9F8048099F80350404694F829
:1049900001C0D9F8086031E002EB42036168521CA3
:1049A00001EBC301A378D2B2934200D100220B786D
:1049B000022B02D0032B21D11DE003464F6819467C
:1049C00003E0B94203D00B46C969B9B1F9E7A9B10F
:1049D0008B4205D1C06918B9104E0125B56000267B
:1049E0000F68C969D96149B10B683B440B6005E0A8
:1049F0000174C06900E000210028F9D19445CBD1B1
:104A0000C9E9010689F80350404502D00120BDE8FC
:104A1000F0830020FBE70000F0310020001001408F
:104A20002DE9F0412A4F0446002607F11005D7F87A
:104A300004803EE002D02046E4691DE028786968E1
:104A400000EB4002401CC0B201EBC2012870AA7802
:104A5000904200D12E700A784868012A2BD1027C3E
:104A60004ABB8A684260CA6882600A69C260496952
:104A70008161F97801B146604368BA68DFF854C0D3
:104A8000991A21F07F41614502D28268114406E003
:104A9000D11A826821F07F418A4202D9511A0160FD
:104AA00000E006604660012186600174C66104F082
:104AB000FFFC002CBED1287869788842BED1796885
:104AC000414502D00120BDE8F0810020FBE7000055
:104AD000E0310020FFFF7F00F8B504226946002086
:104AE00002F056FF0098A0F52B41CD3910D10024DB
:104AF000084E042504EB440006EB400105EB4000A2
:104B0000062201F5AC7102F043FF641C072CF1DBB7
:104B1000F8BD0000204C0020FEB504460026A0F59C
:104B20007F40FF382FD02046FEF784FD050013D0CC
:104B30000B2D15D0112D11D0A5F5405002381CD0E9
:104B400009208DF800002046FEF79CFFADF802001A
:104B5000ADF8044002950DE0022002E001260CE0D1
:104B600003208DF800002046FEF78CFFADF8020010
:104B7000ADF804406846FDF76FFD03483246817882
:104B80002046FDF71BF8FEBD48310020FEB5044667
:104B90000026FEF784FD0546112818D003DCA5B1D8
:104BA0000C2D06D115E0862D27D0A5F540500238F2
:104BB0001CD009208DF800002046FEF763FFADF8F9
:104BC0000200ADF8044002950DE0012002E001264C
:104BD0000CE007208DF80000ADF804402046FEF7F9
:104BE00051FFADF802006846FDF736FD0448324635
:104BF00041782046FCF7E2FFFEBD0820EAE700000E
:104C000048310020F8B5054600780C4600262042C1
:104C10000FD100208DF800006846FCF755FB28787E
:104C2000204202D12043287001269DF80000FCF7A5
:104C30006FFB3046F8BD00000EB5002001F066FAAB
:104C40003F4A14210820FCF76DFA08B1FCF714F96B
:104C50003C4B3D4A09210020FCF7AAFA08B1FCF7B9
:104C60000BF9FFF7B5F8FFF719F9FEF7E9FFFEF7C3
:104C700043FFFEF76FFFFFF78DF8FFF717F8FEF71A
:104C800003F808B1FCF7F8F830493148FFF74AFA61
:104C900002A9304863DF08B1FCF7EEF8FFF78CF9A2
:104CA0000120FFF7CFFA2C484FF4005101809DF806
:104CB00008108170FFF746F9FFF76EFAFFF7C8F9A1
:104CC0009DF80800FFF754F89DF80800FFF76EF80C
:104CD0009DF80800FFF79EF8FFF75BFC18B900F09D
:104CE0005DF903F0E5FA00208DF804008DF800006E
:104CF000694601A800F09AF89DF8040003F002FD4F
:104D00009DF8040040B1401EC0B203F001FB9DF8C5
:104D1000001001438DF800109DF8000003F0F8FC2E
:104D2000002003F07FFC012003F07CFC04F0FBFA80
:104D30003EDF08B1FCF7A0F8FCF7D4F9F8E7000073
:104D4000603D002099110200B03E00203D24020089
:104D5000E124020008A2020018320020F0B50B3056
:104D6000154D20F007010024144A0FE003688B4220
:104D70000BD38B4205D95E1A43184768C3E9006715
:104D800000E04368136002C004E0021D10680028C0
:104D9000ECD12046002802D1286808B10020F0BDDF
:104DA000064A07481060074A121A22F00702C0E9B3
