:020000040000FA
:1000000018220020150400001D0400001F04000039
:10001000210400002304000025040000000000006B
:1000200000000000000000000000000027040000A5
:1000300029040000000000002B0400002D04000033
:10004000850600002F0400002D0800002F0400008A
:100050002F0400002F0400005D0400002F040000A6
:100060002F0400002F0400002F0400002F040000C4
:100070002F0400002F0400002F0400002F040000B4
:100080002F040000DD0600002F0400002F040000F4
:10009000010700002F0400002F0400002F040000BF
:1000A0002F0400002F0400002F0400002F04000084
:1000B0002F0400002F0400000000000000000000DA
:1000C0002F0400002F0400002F0400002F04000064
:1000D0002F0400002F0400002F0400002F04000054
:1000E0002F0400002F0400002F0400002F04000044
:1000F000000000002F0400000000000000000000CD
:1001000000000000000000000000000000000000EF
:1001100000000000000000000000000000000000DF
:1001200000000000000000000000000000000000CF
:1001300000000000000000000000000000000000BF
:10040000DFF80CD000F018F800480047CD120000CB
:10041000182200200648804706480047FEE7FEE70E
:10042000FEE7FEE7FEE7FEE7FEE7FEE7FEE7FEE7A4
:100430000507000001040000064C074D06E0E068D7
:1004400040F0010394E8070098471034AC42F6D31B
:10045000FFF7DAFF581E0000781E00002DE9F04F6C
:1004600000268FB0DFF8B081B14602964FF4807558
:10047000012437460396284601F006FA38B1D8F829
:100480000403204203D0284601F0F4F926432D1D31
:1004900064007F1CADB2082FEDD34FF4BE7420462C
:1004A00001F0F2F948B1204601F0E4F946F00046C7
:1004B00002AA0221002001F0C7F9584C16F0FF0FE4
:1004C00015D00127002537420DD008EB8501D1F862
:1004D0001005D1F81015C0F3062054F82520C1F3FB
:1004E000014102B190477F006D1C082DEBD3002E17
:1004F0007DDA0020CDF82890411E0DF1080B08AAE6
:10050000CDF82C9042F82010401C91460228F9D3D7
:1005100000252E46A01910F8607F90F9000027F002
:10052000C008401C49D008A9404600F0E7FE88B347
:100530004FEA971A404600F015FD54F820701FB19D
:10054000BAF1030F03D00FE0BAF1030F35D10AA8B7
:100550004FEAD80208F00703815C4FF0010C0CFA57
:1005600003FC41EA0C01815406A8CDF8188001F083
:100570003FF9069900EB8100D0F8000702A9C0F30B
:1005800001400690404600F0B9FE0028069802D0CF
:10059000022802D011E003280FD1BAF1030F08D1CD
:1005A0000698022832D00221404601F0FBF86D1C6B
:1005B000EDB217B151464046B847761C042EA9D378
:1005C000002D20D004AA0221002001F03DF90020D6
:1005D0005A4604A952F8206051F82030B34217D08F
:1005E00000200AAE4FEA090351F8207000E00AE04B
:1005F00042F8207056F8207043F82070401C022802
:10060000F2D3002D84D10FB0BDE8F08F0321CBE7EA
:10061000401C0228DED3F6E7006000406C01002099
:1006200000F01F02012191404009800000F1E0200C
:10063000C0F88012704700F01F020121914040096C
:10064000800000F1E020C0F80011704700F01F02A8
:10065000012191404009800000F1E020C0F8001223
:1006600070474907090E002806DA00F00F0000F174
:10067000E02080F8141D704700F1E02080F800149D
:10068000704700002DE9F0414FF48077384600F0C4
:100690003DFE0124104EA50748B1384600F03DFE4E
:1006A0000120C5F808037470002000F063FC4FF4CB
:1006B0008277384600F02AFE00280BD0384600F03A
:1006C0002CFE0220C5F80803B470BDE8F0410120FB
:1006D00000F050BCBDE8F08158010020074800211F
:1006E000C0F84011C0F84411C0F84811C0F84C11CE
:1006F000C0F80011C0F8041101F0CAB9001001409F
:1007000001F042B930B54FF080500021D0F83021CF
:100710000124082A02D1D0F8343113B1082A09D0B3
:100720000BE04FF08042C2F80C11C2F81011334AAE
:10073000116005E0D0F8343113B1082A04D006E086
:10074000304B2F4A1A6005E0D0F8343113B1082A33
:1007500004D006E02C4BFB221A6005E0D0F83431BF
:1007600013B1082A08D00EE090F8583227480268E2
:1007700063F30302026002E0D0F8340118B9244A9E
:100780004FF4007010602348026842F47002026067
:10079000BFF34F8FBFF36F8F4FF01022D2F80002DC
:1007A000002803DBD2F80402002822DA1A4B1C606E
:1007B0001A480468002CFCD01224C2F800420568D4
:1007C000002DFCD0C2F804420268002AFCD0196057
:1007D00001680029FCD0BFF34F8F0E487C380168B8
:1007E0000F4A01F4E06111430160BFF34F8F00BF76
:1007F000FDE70D490B48086030BD0000380500409A
:10080000488103008C56004018F50040E40E00407B
:100810004096024088ED00E004E5014000E401401C
:100820000400FA050090D003500000200448017F26
:1008300004480029024901D001F019BA01F088B931
:10084000D40100200020004002E008C8121F08C1A7
:10085000002AFAD170477047002001E001C1121F41
:10086000002AFBD17047022000F032B970B5002495
:10087000084D05E0686810F8340000F051FE641C73
:1008800028788442F6D304480068BDE8704000F040
:10089000F9B8000018000020501E000070B50024B8
:1008A000064D06E06868012110F8340000F05CFE97
:1008B000641C28788442F5D3002070BD1800002005
:1008C000F8B515460C460646052A01D20720F8BDA4
:1008D00000F02CFF18B900F0FBFE0028F7D11049FA
:1008E00000204E600C70C1E902500E4D08610DE011
:1008F00006EBC4006968009181788DF801100078DA
:10090000094A694600F07CFE0028E0D1641EE4B28A
:10091000EED2BDE8F840054A0021024800F028B8B0
:1009200018000020501E0000E910000049100000CF
:10093000BFF34F8F05480168054A01F4E061114398
:100940000160BFF34F8F00BFFDE700000CED00E03A
:100950000400FA050EB500210091CDE901106A46A8
:1009600044F20100FFF7E4FF0EBD012000F0B0B833
:10097000074B5B6823B12AB120B10068037C1BB12F
:10098000082070470720704741744261002070477B
:100990003C0000202DE9F04707469846144689465A
:1009A00090074FF0000526D12CB300F0A9FF134E9D
:1009B00006F11000C6F80C800570457080F80290B2
:1009C00044607560357075701420FFF729FE0721AB
:1009D0001420FFF746FE1420FFF72DFE084807609D
:1009E00007211120FFF73DFE0548001F0068B06099
:1009F0000020BDE8F0870720FBE700002C00002066
:100A0000081501402DE9F843DFF87090D9F804305B
:100A10005BB350B3052902D20720BDE8F8834369D0
:100A20001BB3437C012B22D00027044600258846B7
:100A30001646284600F036F8684601F091F9C0B134
:100A4000012101700E4944600968C0E90218C0E93B
:100A500004769DF8000089F80100002000F024F8D9
:100A60001420FFF7F3FD2846D7E70820D5E70F4607
:100A7000DBE70425002000F017F8F4E73C00002035
:100A8000041501400649496839B130B1416921B1C5
:100A900000210174022100F0DBBF08207047000034
:100AA0003C00002000F002B800F008B872B602481E
:100AB0000168491C016070474C0000200349086828
:100AC000401E086000D162B6704700004C00002054
:100AD000094908B5085C0090684600F07BFED0F834
:100AE0000425009B0121994021EA0203C0F8083542
:100AF0001140C0F80C1508BD141E00000249085C26
:100B0000012100F08EBE0000141E00000249085CA6
:100B1000002100F086BE0000141E0000084908B540
:100B2000085C0090684600F055FED0F80405009976
:100B3000C84010F0010000D0012080F0010008BD85
:100B4000141E00007CB50024084E25460122305DAD
:100B5000009500231146019500F0F2FD641C042C61
:100B6000F4D3BDE87C4000F003B80000141E000080
:100B700010B500242046FFF7C1FF641C042CF9D3F4
:100B800010BD10B500242046FFF7C0FF641C042CE4
:100B9000F9D310BD10B50246064B4FF0FF300021CF
:100BA0005C5C944201D1084610BD491C0429F7D36E
:100BB00010BD0000181E00002DE9F0470D468146CB
:100BC000FFF7E8FF0446042838D2DFF878801C4895
:100BD0001D4EA8F1100735B3012D0ED0022D2DD1D9
:100BE00004EB440030444578002D27D0F9680029F3
:100BF00024D02846BDE8F047084704EB4401755C63
:100C00000E44717859B179680E4A01EB81014900AF
:100C10000E3A8068FFF7F6FE08B987F80290B178BF
:100C200008F80410E0E78068FFF72CFF04EB4401AC
:100C3000314418F804008D78A842D5D0BDE8F0877B
:100C40001C1E0000140000202C010020FFF70EBE27
:100C500010B50A2816D100F047F908B1FFF77AFE5F
:100C6000FFF7F4FF08B1FFF775FE07480068FFF7CC
:100C700009FF08B1FFF76EFE0020FFF73FFF0349B1
:100C80000120087010BD0000101E000000000020B0
:100C900070B50023042810D20D4D00EB4004012A4A
:100CA00002D101290CD00022094E00EB4000304453
:100CB00061B1012906D0022906D00723184670BD6C
:100CC0000E30C2B22A55F9E74270F7E78270F5E7B5
:100CD0002C0100202DE9F04106461F4800240F4654
:100CE0004160C0E90262B0071FD50025012211460C
:100CF0002846FFF7CDFF6D1C0446042D02D2002CC0
:100D0000F4D012E08CB97A0804211448FFF7D8FD1A
:100D100004000AD1FFF7C2FD040006D10F48104AB3
:100D20000021001FFFF724FE0446F00701D0FFF763
:100D300009FF74B909480B4A00210C38FFF718FE67
:100D4000040006D10548084A01210838FFF710FEC3
:100D500004462046BDE8F08104000020281E000063
:100D6000F90E000059110000670800002DE9F04756
:100D7000594C05460026607818B100206070FFF7D6
:100D8000F7FE0120554F4FF47A694FF4C87A4FF0BF
:100D90006408182D2CD2DFE805F0890C0C2C3A479A
:100DA00051565A615A619B6969696969898C8F9248
:100DB0009B9B0020FFF7B2FE00284FF0000008D0F8
:100DC000FFF79CFE022D02D14FF4E16006E0484699
:100DD00004E0FFF79BFE022D2ED05046B0FBF8F149
:100DE00025706068414300223868FFF70BFE064615
:100DF00059E00020FFF792FE28B10020FFF77EFEA9
:100E00004FF44870EAE70020FFF780FE14E000206E
:100E1000FFF784FE00284FF0000002D0FFF76EFEBF
:100E2000D5E7FFF773FED8E70020FFF777FE00282D
:100E3000E9D00020FFF762FEC820CFE70020FFF7CF
:100E400047FE257007E000203FE025702BE0607032
:100E50000120FFF73DFE00226168C5E760700120B8
:100E6000FFF736FE606800EB8001BCE77868FFF7AB
:100E700009FE0646D5F1110000D01EB10220FFF791
:100E80003DFE10E001280BD9C82110FB01F1B1FB98
:100E9000F8F16068002241437868FFF7B3FD064629
:100EA0000220FFF733FE3046BDE8F087FFF760FE13
:100EB000CBE7FFF75DFEC6E7FFF75AFE04E0FFF75A
:100EC00057FE0020FFF722FE0120FFF71FFEBCE7C0
:100ED000FFF757FEB9E70000040000201C1E0000C9
:100EE0000A220021FFF7D4BE0249012088600020B9
:100EF000704700000050004000780221FFF75CBE00
:100F000005494FF0FF32082841F8202002D3084459
:100F100080F85820704700006C010020F0B54FF0B9
:100F2000FF3512B10023082601E008230C260C4CE3
:100F300005E000BF54F823707F1C04D05B1CB34253
:100F4000F8D32846F0BD26185DB286F8305044F834
:100F50002310002AF5D1E11881F85800F1E70000CC
:100F60006C0100200249084490F9300070470000ED
:100F70006C01002070B5084C050009D010342168C0
:100F8000002907D008682060496828468847F6E7A6
:100F90000834F4E770BD0000580100202DE9F05F2F
:100FA00026484168F1B3DFF898B00E688146DBF857
:100FB000004087688078E11B21F07F45ED1CB0B9C7
:100FC000DFF880804FF48030C8F84403C8F8040389
:100FD0001120FFF725FB1120FFF72DFB4FF0010A31
:100FE000C8F800A02F2000F0E7F989F802A0B54268
:100FF00000D23546124BE8193C3320F07F40186090
:10100000DBF800105A46091B21F07F41001B20F03D
:101010007F40C91C81420FD9106818602F2000F052
:10102000CBF900E004E0BDE8F05F1120FFF70EBB54
:10103000BDE8F05F00F064BCBDE8F09F2C0000202C
:1010400004150140001001402DE9F0410026012562
:10105000144C22E06068226900EBC607387805FA74
:1010600000F1114217D08A43226100F029FB0246A9
:101070003878E36805FA00F1194002FA00F3994262
:1010800009D17978012901D0012100E000215140E6
:101090007A6802B19047761CF6B220788642D9D39E
:1010A000BDE8F081180000200E4910B50A784C7890
:1010B0000023A24212D0521CD2B20A70022A00D1DE
:1010C0000B70084A0B78183252F8232002608868A7
:1010D000104420F07F408860012010BD0360002094
:1010E00010BD00002C0000202DE9F041124E0746F3
:1010F0000125BD403068FFF7C5FC00280DD10F4C1D
:101100002069284207D1384600F0DAFA0028E06862
:1011100005D0284304E0A8432061BDE8F081A8433E
:10112000E060206928432061A1683068BDE8F04193
:101130000022FFF767BC0000501E000018000020CE
:101140000268134602E08A4204D01268002AFAD1EB
:101150000B600160704700000348017AC90702D0A4
:101160000078FFF703BE7047040000202DE9F0432C
:10117000264CA4F110092278D9F8048099F803507C
:10118000404694F801C0D9F8086031E002EB420310
:101190006168521C01EBC301A378D2B2934200D123
:1011A00000220B78022B02D0032B21D11DE0034635
:1011B0004F68194603E0B94203D00B46C969B9B17B
:1011C000F9E7A9B18B4205D1C06918B9104E0125C4
:1011D000B56000260F68C969D96149B10B683B4405
:1011E0000B6005E00174C06900E000210028F9D11E
:1011F0009445CBD1C9E9010689F80350404502D096
:101200000120BDE8F0830020FBE700003C00002047
:10121000001001402DE9F0412A4F0446002607F155
:101220001005D7F804803EE002D02046E4691DE0B6
:101230002878696800EB4002401CC0B201EBC20193
:101240002870AA78904200D12E700A784868012A46
:101250002BD1027C4ABB8A684260CA6882600A69F4
:10126000C26049698161F97801B146604368BA6832
:10127000DFF854C0991A21F07F41614502D282689B
:10128000114406E0D11A826821F07F418A4202D9D6
:10129000511A016000E00660466001218660017419
:1012A000C66100F0B7FB002CBED12878697888426F
:1012B000BED17968414502D00120BDE8F08100200F
:1012C000FBE700002C000020FFFF7F0000F060FD26
:1012D0000020FFF71BFC064C064F074E0125207827
:1012E0000028FCD0384600F021F83560F7E7000010
:1012F00000000020A086010000050040C20800F0A8
:1013000007030120895C98400840704700F1804045
:101310000068002800D00120704708B500F1804027
:10132000002101600068009008BD000000283ED048
:101330001F49204A096800BF00BF00BF00BF00BFAF
:1013400000BF00BF00BF91422FD000BF00BF00BF51
:1013500000BF00BF00BF00BF00BF00BF00BF00BF95
:1013600000BF00BF00BF00BF00BF00BF00BF00BF85
:1013700000BF00BF00BF00BF00BF00BF00BF00BF75
:1013800000BF00BF00BF00BF00BF00BF00BF00BF65
:1013900000BF00BF00BF00BF00BF00BF00BF00BF55
:1013A00000BF00BF00BF00BF00BF401EC3D17047D9
:1013B000500000200024F40000283ED01F49204A9D
:1013C000096800BF00BF00BF00BF00BF00BF00BF73
:1013D00000BF91422FD000BF00BF00BF00BF00BFC1
:1013E00000BF00BF00BF00BF00BF00BF00BF00BF05
:1013F00000BF00BF00BF00BF00BF00BF00BF00BFF5
:1014000000BF00BF00BF00BF00BF00BF00BF00BFE4
:1014100000BF00BF00BF00BF00BF00BF00BF00BFD4
:1014200000BF00BF00BF00BF00BF00BF00BF00BFC4
:1014300000BF00BF00BF401EC3D170475000002056
:101440000024F40070B50E4C0025207808B18525E5
:1014500013E00021A16061602161E1604FF0E020B4
:10146000D0F80001012610F0010F03D10721002060
:1014700000F03AF8034806602670284670BD000068
:10148000580100201805004070B5154D0446A87895
:1014900038B114B16168012088470020FFF702FBD2
:1014A00015E00020FFF7FEFA24B10D482146103068
:1014B000FFF746FEE86850B94FF48270FFF72DFF42
:1014C00002204107C1F80403064901200860E868CA
:1014D000401CE860BDE870400020FFF7E5BA00005E
:1014E00058010020080000404907090E002806DACC
:1014F00000F00F0202F1E02282F8141D03E000F177
:10150000E02282F8001400F01F02012191404009FE
:10151000800000F1E020C0F88012C0F80011704790
:1015200010B5044600F0D4F928B12046BDE81040BB
:10153000002100F037B9204600F0D6F900280FD07E
:101540002046FFF70FFD074A02EB8001D1F8103566
:1015500023F00103C1F8103501218140C2F80813BE
:1015600010BD0000006000402DE9F0410E468046AD
:1015700000F0AEF9204D0028404616D0FFF7F2FCEF
:10158000284490F858008009032802D001280AD086
:1015900003E0404600F03AF928B103214046BDE897
:1015A000F04100F0FFB80221F8E700F09DF90028B3
:1015B00020D04046FFF7D6FC0446104F4FF4807011
:1015C00007EB840100EB8400D1F8102580B242F0D3
:1015D0000102C1F8102500F04DF9002E0AD0404656
:1015E000FFF7C0FC55F82000002803D00120A040E0
:1015F000C7F80403BDE8F0816C01002000600040E2
:101600002DE9FC41DFF8AC80044608EB040000271C
:1016100090F930001346C0170E46401C01D0082731
:1016200044E0F27819462046FFF778FC0546401C56
:101630003BD0B07868B16846009400F0D9F80099C2
:1016400000EB8100D0F8001721F00201C0F800176C
:1016500007E000217378204600910A46019100F0CE
:1016600088F8F078C0B11448317800EB8500D0F8E4
:101670001025124B1A40C0F810254FF4FE424FF4CB
:10168000403302EA042203EA01410A43D0F810156C
:101690000A43C0F8102509E008EB0500327810F87D
:1016A000581F41EA8211017000E004273846BDE866
:1016B000FC8100006C01002000600040FF80FCFF06
:1016C00010B500F0A3F8002800D0012010BD0000E4
:1016D00070B5144D95F8640008B1082070BD002065
:1016E000411E2A18401CC0B282F830103028F8D3AE
:1016F00000242046FFF704FC641CE4B20C2CF8D351
:1017000007210620FFF7F0FE4FF4BE7000F0B2F89C
:1017100005494FF00040C1F80403012085F864003A
:10172000002070BD6C01002000600040034890F86C
:101730006400002800D00120704700006C010020E8
:101740002DE9FF411C46DDE90A7815460E4668463C
:1017500000F040F846EA450141EA840141EA0722E7
:1017600042EA0841009A00EB8200C0F80017BDE889
:10177000FF812DE9FF411C46DDE90A7815460E463A
:10178000684600F035F846EA450141EA840141EA3D
:10179000072242EA0841009A00EB8200C0F80017D5
:1017A000BDE8FF8113B50C46684600F021F80099AA
:1017B00000EB8101D1F8002722F44032C1F8002764
:1017C000009900EB8100D0F8001741EA0441C0F80D
:1017D00000171CBD0168202902D24FF0A0407047BD
:1017E00001F01F0101600148704700000003005034
:1017F0000168202902D24FF0A040704701F01F017C
:1018000001600148704700000003005001B56846C0
:10181000FFF7EEFFD0F810050099C84000F0010076
:1018200008BD38B501240090684631B1FFF7D2FFFA
:1018300000998C40C0F8084538BDFFF7CBFF0099F0
:101840008C40C0F80C4538BD1CB5094C0144D4E9A6
:101850000034CDE900346C4606E000BF54F8203077
:10186000D3F81035401C08C28142F7D81CBD0000D7
:10187000481E0000034908B50844002101600068C3
:10188000009008BD0060004002494058012800D087
:1018900000207047006000404058002800D0012020
:1018A000704708B5002242504058009008BDD0F85B
:1018B0000403084000D0012070474058002800D0A1
:1018C0000120704708B5002242504058009008BDE2
:1018D0000449084490F93000082801DB01207047D2
:1018E000002070476C0100200449084490F9300042
:1018F000082801D201207047002070476C010020A9
:1019000070B5012670044FF0E0210025C1F8800178
:10191000084C4010C4F84803C4F8080366602F2040
:10192000FFF74AFDA660044C2F20A560FFF744FD99
:10193000A57070BD001001402C00002070B5054658
:10194000C87D0C4600284FF4847128460AD0FFF762
:10195000A8FFD5F81805627EE1688854607E401CB7
:10196000607670BDFFF79DFFD5F8180570BD1FB5F7
:1019700001238DF800308DF808100192D0E9001293
:10198000684690471FBD00002DE9F84F204C002508
:101990006846D4E901B6FFF787FB8046FFF7E6FB10
:1019A0000746A946B8F1000F25D00023009ACC467F
:1019B000606819E007680146974202D9BA1A0260C6
:1019C00014E0C1F800C0D1F80C80D21BC8693B44B8
:1019D0008A46B8F1000F07D0F71827F07F47C1E912
:1019E0000178CAF81C500D460028E3D160602846F3
:1019F000FFF710FC04E02846FFF70CFC00B917B114
:101A00005846FFF7CBFA84F80390BDE8F88F000042
:101A10002C0000200D4B10B5596831B102680C68DC
:101A2000A24204D8A21A0A60C161586010BD0B46D8
:101A300003E00B46C969121B21B10C689442F8D32C
:101A4000A41A0C600260C161D86110BD2C00002096
:101A5000F8B5064600240D462046FFF723F86846F1
:101A600000F07EF968B10570084946609DF80000F5
:101A700048700020FFF718F81420FEF7E7FD204615
:101A8000F8BD04240020FFF70FF8F8E73C00002021
:101A90002DE9F0411D4D6C68002C35D01C48002705
:101AA0000068A968B846401A20F07F462068B04216
:101AB00015D82246361A0744E469107C68B182F8CA
:101AC0001080EB6833B1D2E90501984728B1FEF7E1
:101AD00041FF02E0D2E905108847002CE6D12978C1
:101AE0006878814206D1401CC0B26870022801D1DA
:101AF00085F8018005486978183040F82170BDE804
:101B0000F0411420FEF7A2BDBDE8F0812C000020BA
:101B10000415014070B50C4605464FF48E71FFF771
:101B2000C0FEA18AA068415CA08A401CA082C5F8C2
:101B30001C1570BD1FB500228DF800208DF808100F
:101B4000816801918275D0E90012684690471FBDF7
:101B50002DE9FF470C4605464FF40071FFF7A7FE3D
:101B600001274FF40178002618B34FF492794946C3
:101B70002846FFF791FEE0B149462846FFF791FE5F
:101B8000C5F80883A07E00B96F6002208DF80000C0
:101B9000D5F88004C5F880040390E07D8DF8080036
:101BA000E0680190E6752676D4E900126846904711
:101BB00027E004212846FFF77AFE10B34FF4847122
:101BC0002846FFF769FEE0B121462846FFF7B6FE3A
:101BD000E07D617E884214D1207E38B1617EE2686A
:101BE000E0752069E0602676667607E0A07E00B9A1
:101BF0006F60C5F80883E675617EE2682046FFF7EE
:101C0000B6FE4FF48E7841462846FFF745FE88B170
:101C1000A08AA17D884204D221462846FFF77AFF98
:101C200008E041462846FFF73CFEA17D11B1204661
:101C3000FFF780FF4FF4A27841462846FFF72CFEBD
:101C4000002812D041462846FFF72BFEA07E00B1A7
:101C50002F60E07D002808D0E675617EE26804B060
:101C60002046BDE8F047FFF782BEBDE8FF872DE9BB
:101C7000FF410C464FF4927705463946FFF71DFEAB
:101C80000026C0B139462846FFF71CFE02208DF819
:101C90000000D5F88004C5F880040390D5F83C0511
:101CA0008DF80800E0680190E6752676D4E9001208
:101CB0006846904724E04FF4887739462846FFF776
:101CC000FCFDE8B139462846FFF7FCFDD5F83C0598
:101CD000C1B2E07D884213D1207E60B1E268D5F8C0
:101CE000000220F02000C5F80002207EE075206987
:101CF000E060267601E0E675E2682046FFF737FEF1
:101D00004FF4A27739462846FFF7D7FD68B1394628
:101D10002846FFF7D7FDE07D38B1E675D5F83C05DC
:101D2000E268C1B22046FFF722FE4FF490763146BA
:101D30002846FFF7C2FD00280FD031462846FFF79E
:101D4000C1FDA07D002808D0D5F84C0504B0C1B273
:101D50002046BDE8F041FFF7EDBEBDE8FF81000081
:101D60000A4A10B553789478591CC9B28C4200D1F4
:101D7000002114788C4201D1002010BD0170506800
:101D800003EB430100EBC10010BD00003C0000204C
:101D900010B5FFF757FB08B1FEF7DCFD0020FFF799
:101DA00073FB0023164A05211846FEF7F3FD08B120
:101DB000FEF7D0FD134A40F6CD410320FEF78AFF1F
:101DC00008B1FEF7C7FD0020FFF78AF808B1FEF75B
:101DD000C1FD0D4A01210D48FEF7CAFD08B1FEF70D
:101DE000B9FD0A4800224FF480410068FEF70AFE60
:101DF000002803D0BDE81040FEF7ACBD10BD0000C8
:101E000074000020510C00006B090000101E00003F
:101E1000540000200D0E0F100B0C1819EC000020C0
:101E20000C010020380100200B000300B90B00005A
:101E30000C000300B90B000018000300B90B0000F0
:101E400019000300B90B000000000050000300500F
:101E5000F401002003000000781E000000000020B4
:101E60005400000048080000CC1E00005400002070
:101E7000C42100005808000000000000000000001D
:101E80000000000000000000000000000000000052
:101E90000000000000000000000000000000000042
:101EA0000000000000000000000000000000000032
:101EB0000000000000000000000000000000000022
:0C1EC00000000000000000000090D003B3
:0400000500000401F2
:00000001FF
