:020000040000FA
:1000000008220020150400001D0400001F04000049
:10001000210400002304000025040000000000006B
:1000200000000000000000000000000027040000A5
:1000300029040000000000002B0400002D04000033
:10004000350600002F040000510900002F040000B5
:100050002F0400002F0400005D0400002F040000A6
:100060002F0400002F0400002F0400002F040000C4
:100070002F0400002F0400002F0400002F040000B4
:100080002F0400008D0600002F0400002F04000044
:10009000B10600002F0400002F0400002F04000010
:1000A0002F0400002F0400002F0400002F04000084
:1000B0002F0400002F0400000000000000000000DA
:1000C0002F0400002F0400002F0400002F04000064
:1000D0002F0400002F0400002F0400000000000087
:1000E0000000000000000000000000000000000010
:1000F0000000000000000000000000000000000000
:1001000000000000000000000000000000000000EF
:1001100000000000000000000000000000000000DF
:10040000DFF80CD000F018F800480047E1130000B6
:10041000082200200648804706480047FEE7FEE71E
:10042000FEE7FEE7FEE7FEE7FEE7FEE7FEE7FEE7A4
:10043000B506000001040000064C074D06E0E06828
:1004400040F0010394E8070098471034AC42F6D31B
:10045000FFF7DAFFE41E0000041F00002DE9F0475B
:1004600000268CB0DFF86091B0464FF4807501240F
:1004700037460696284601F04FFA38B1D9F80403FA
:10048000204203D0284601F03DFA26432D1D64008A
:100490007F1CADB2082FEDD34FF4BE74204601F09F
:1004A0003BFA48B1204601F02DFA46F0004606AA74
:1004B0000121002001F012FA444D16F0FF0F15D073
:1004C0000127002437420DD009EB8401D1F8100533
:1004D000D1F81015C0F3042055F82420C1F30141D0
:1004E00002B190477F00641C082CEBD3002E67DA22
:1004F0004FF0FF30CDE9088000263446281910F867
:10050000507F90F9000027F0C008401C44D009A992
:10051000404600F07DFF58B34FEA9719404600F07F
:10052000ABFD55F820701FB1B9F1030F03D00FE0F8
:10053000B9F1030F30D108A84FEAD80208F0070339
:10054000815C4FF0010C0CFA03FC41EA0C01815470
:100550004FF0A04101EB8800D0F8000706A9C0F3D6
:10056000014A404600F054FF18B1BAF1020F03D01F
:1005700012E0BAF1030F0FD1B9F1030F08D1BAF1AC
:10058000020F1BD00221404601F08CF9761CF6B216
:1005900017B149464046B847641C042CAED3002E20
:1005A0000ED06A460121002001F098F906990098C2
:1005B000884205D00690089809909DE70321E2E75C
:1005C0000CB0BDE8F0870000006000406C01002026
:1005D00000F01F02012191404009800000F1E0205D
:1005E000C0F88012704700F01F02012191404009BD
:1005F000800000F1E020C0F80011704700F01F02F9
:10060000012191404009800000F1E020C0F8001273
:1006100070474907090E002806DA00F00F0000F1C4
:10062000E02080F8141D704700F1E02080F80014ED
:10063000704700002DE9F0414FF48077384600F014
:10064000EFFE0124104EA50748B1384600F0EFFE3A
:100650000120C5F808037470002000F015FD4FF468
:100660008277384600F0DCFE00280BD0384600F0D8
:10067000DEFE0220C5F80803B470BDE8F041012099
:1006800000F002BDBDE8F0815801002007480021BC
:10069000C0F84011C0F84411C0F84811C0F84C111E
:1006A000C0F80011C0F8041101F03ABA001001407E
:1006B00001F0B2B9F0B598480023021D0178012578
:1006C000101D4FF08056062907D11478240704D155
:1006D0000478C4F30314032C02D0062904D00FE0DD
:1006E0008F4F8E4C7C670EE01478240708D1047875
:1006F000C4F30314032C06D0042C04D0052C02D020
:10070000062907D00EE0D6F84442864FC4F342349F
:100710003C6002E01478240704D10478C4F3031485
:10072000032C02D0062906D011E07F4C276827F061
:10073000807727600EE01478240708D10478C4F38A
:100740000314032C06D0042C04D0052C02D0062957
:100750000AD011E04FF08044C4F80C31C4F81031D5
:10076000704C241F236002E01478240704D104781D
:10077000C4F30314032C02D0062905D00CE0694F02
:10078000032464373C600AE01478240704D1047819
:10079000C4F30314032C02D006290DD014E0634FD8
:1007A00005243C60614C78342560604C083423603B
:1007B0003F243F1D3C6002E01478240704D10478F4
:1007C000C4F30314052C02D0062957D068E0584919
:1007D0000968584A11605649091D0968121D1160BF
:1007E000534908310968121D116051490C310968DB
:1007F000121D11604E4910310968121D11604C49DB
:1008000014310968121D1160494918310968494AB3
:100810002032116046491C310968121D116044499B
:1008200020310968121D1160414924310968121DE7
:1008300011603F4928310968121D11603C492C3173
:100840000968121D11603A4930310968394A40324D
:100850001160374934310968121D1160344938314B
:100860000968121D116032493C310968121D11607E
:100870002F4940310968121D116002E01178090703
:100880000ED10078C0F30310032803D0042801D050
:10089000052805D1D6F85802274900F04F00086016
:1008A00021487438016841F470010160BFF34F8F33
:1008B000BFF36F8F4FF01021D1F80002002803DB47
:1008C000D1F80402002822DA1C4A15601C4804688A
:1008D000002CFCD01524C1F800420568002DFCD086
:1008E000C1F8044201680029FCD0136001680029A6
:1008F000FCD0BFF34F8F0C48F0380168114A01F467
:10090000E06111430160BFF34F8F00BFFDE70F4966
:100910000D480860F0BD0000E00F00F00DF0ADBA2A
:1009200000C007403C050040FCED00E010560040D0
:100930000404001020C50040E40E004004E501401E
:1009400000E401400400FA050090D00350000020AC
:100950000448017F04480029024901D001F0CFB9C1
:1009600001F03EB9C40100200020004002E008C8A8
:10097000121F08C1002AFAD170477047002001E019
:1009800001C1121F002AFBD17047022000F032B9CA
:1009900070B50024084D05E0686810F8340000F0D8
:1009A00049FE641C28788442F6D304480068BDE8F8
:1009B000704000F0F9B8000018000020DC1E0000B4
:1009C00070B50024064D06E06868012110F8340077
:1009D00000F054FE641C28788442F5D3002070BDDA
:1009E00018000020F8B515460C460646052A01D227
:1009F0000720F8BD00F028FF18B900F0F7FE002826
:100A0000F7D1104900204E600C70C1E902500E4D24
:100A100008610DE006EBC4006968009181788DF8EB
:100A200001100078094A694600F07AFE0028E0D1FA
:100A3000641EE4B2EED2BDE8F840054A0021024847
:100A400000F028B818000020DC1E0000FD11000096
:100A50005D110000BFF34F8F05480168054A01F49E
:100A6000E06111430160BFF34F8F00BFFDE700005D
:100A70000CED00E00400FA050EB500210091CDE96F
:100A800001106A4644F20100FFF7E4FF0EBD0120A9
:100A900000F0B0B8074B5B6823B12AB120B1006801
:100AA000037C1BB1082070470720704741744261E6
:100AB000002070473C0000202DE9F047074698468B
:100AC0001446894690074FF0000526D12CB300F05C
:100AD0005FFF134E06F11000C6F80C8005704570DC
:100AE00080F8029044607560357075701420FFF7CF
:100AF0006FFD07211420FFF78CFD1420FFF773FD15
:100B00000848076007211120FFF783FD0548001FF3
:100B10000068B0600020BDE8F0870720FBE7000018
:100B20002C000020081501402DE9F843DFF87090F3
:100B3000D9F804305BB350B3052902D20720BDE8D1
:100B4000F88343691BB3437C012B22D00027044662
:100B5000002588461646284600F036F8684601F01B
:100B600047F9C0B1012101700E4944600968C0E92C
:100B70000218C0E904769DF8000089F80100002001
:100B800000F024F81420FFF739FD2846D7E70820A5
:100B9000D5E70F46DBE70425002000F017F8F4E75F
:100BA0003C000020041501400649496839B130B1C4
:100BB000416921B100210174022100F091BF082098
:100BC000704700003C00002000F002B800F008B8B8
:100BD00072B602480168491C016070474C00002051
:100BE00003490868401E086000D162B670470000E3
:100BF0004C00002007490B5C4FF0A041D1F80425C0
:100C00000120984020EA0203C1F808351040C1F8DD
:100C10000C057047A41E00000249085C012100F089
:100C200052BE0000A41E00000249085C002100F032
:100C30004ABE0000A41E00000649095C4FF0A04017
:100C4000D0F80405C84010F0010000D0012080F069
:100C500001007047A41E00007CB50024084E254604
:100C60000122305D009500231146019500F0F6FD4C
:100C7000641C042CF4D3BDE87C4000F003B80000F1
:100C8000A41E000010B500242046FFF7C5FF641C19
:100C9000042CF9D310BD10B500242046FFF7C4FF83
:100CA000641C042CF9D310BD10B50246064B4FF05E
:100CB000FF3000215C5C944201D1084610BD491C04
:100CC0000429F7D310BD0000A81E00002DE9F0474D
:100CD0000D468146FFF7E8FF0446042838D2DFF8C6
:100CE00078801C481D4EA8F1100735B3012D0ED099
:100CF000022D2DD104EB440030444578002D27D03F
:100D0000F968002924D02846BDE8F047084704EBDD
:100D10004401755C0E44717859B179680E4A01EB53
:100D2000810149000E3A8068FFF7FEFE08B987F896
:100D30000290B17808F80410E0E78068FFF734FF0C
:100D400004EB4401314418F804008D78A842D5D052
:100D5000BDE8F087AC1E0000140000202C0100202C
:100D6000FFF716BE10B50A2816D100F047F908B1F2
:100D7000FFF782FEFFF7F4FF08B1FFF77DFE07489B
:100D80000068FFF711FF08B1FFF776FE0020FFF7BC
:100D900043FF03490120087010BD0000A01E0000A1
:100DA0000000002070B50023042810D20D4D00EB88
:100DB0004004012A02D101290CD00022094E00EB87
:100DC0004000304461B1012906D0022906D0072332
:100DD000184670BD0E30C2B22A55F9E74270F7E7E7
:100DE0008270F5E72C0100202DE9F04106461F48EE
:100DF00000240F464160C0E90262B0071FD50025FC
:100E0000012211462846FFF7CDFF6D1C0446042D34
:100E100002D2002CF4D012E08CB97A0804211448D4
:100E2000FFF7E0FD04000AD1FFF7CAFD040006D178
:100E30000F48104A0021001FFFF72CFE0446F00760
:100E400001D0FFF709FF74B909480B4A00210C389B
:100E5000FFF720FE040006D10548084A01210838A2
:100E6000FFF718FE04462046BDE8F081040000208C
:100E7000B81E00000D1000006D1200008B0900006C
:100E80002DE9F047594C05460026607818B100203E
:100E90006070FFF7F7FE0120554F4FF47A694FF469
:100EA000C87A4FF06408182D2CD2DFE805F0890CC1
:100EB0000C2C3A4751565A615A619B6969696969B4
:100EC000898C8F929B9B0020FFF7B6FE00284FF085
:100ED000000008D0FFF7A0FE022D02D14FF4E16020
:100EE00006E0484604E0FFF79FFE022D2ED0504654
:100EF000B0FBF8F125706068414300223868FFF7C5
:100F000013FE064659E00020FFF796FE28B10020A8
:100F1000FFF782FE4FF44870EAE70020FFF784FEF7
:100F200014E00020FFF788FE00284FF0000002D0F8
:100F3000FFF772FED5E7FFF777FED8E70020FFF74F
:100F40007BFE0028E9D00020FFF766FEC820CFE72F
:100F50000020FFF74FFE257007E000203FE02570DE
:100F60002BE060700120FFF745FE00226168C5E7B5
:100F700060700120FFF73EFE606800EB8001BCE777
:100F80007868FFF711FE0646D5F1110000D01EB1BA
:100F90000220FFF741FE10E001280BD9C82110FB09
:100FA00001F1B1FBF8F16068002241437868FFF776
:100FB000BBFD06460220FFF737FE3046BDE8F0874E
:100FC000FFF760FECBE7FFF75DFEC6E7FFF75AFECF
:100FD00004E0FFF757FE0020FFF726FE0120FFF791
:100FE00023FEBCE7FFF757FEB9E70000040000202E
:100FF000AC1E00000A220021FFF7D4BE02490120E6
:1010000088600020704700000050004000780221F6
:10101000FFF75CBE05494FF0FF32082841F8202059
:1010200002D3084480F84820704700006C0100207B
:10103000F0B54FF0FF3512B10023082601E0082378
:101040000C260C4C05E000BF54F823707F1C04D024
:101050005B1CB342F8D32846F0BD26185DB286F873
:10106000305044F82310002AF5D1E11881F84800E7
:10107000F1E700006C0100200249084490F93000BB
:10108000704700006C01002070B5084C050009D0C5
:1010900010342168002907D0086820604968284674
:1010A0008847F6E70834F4E770BD000058010020D7
:1010B0002DE9F05F26484168F1B3DFF898B00E687B
:1010C0008146DBF8004087688078E11B21F07F458E
:1010D000ED1CB0B9DFF880804FF48030C8F84403CD
:1010E000C8F804031120FFF773FA1120FFF77BFA09
:1010F0004FF0010AC8F800A02F2000F0E7F989F8A6
:1011000002A0B54200D23546124BE8193C3320F01C
:101110007F401860DBF800105A46091B21F07F4120
:10112000001B20F07F40C91C81420FD91068186055
:101130002F2000F0CBF900E004E0BDE8F05F1120C3
:10114000FFF75CBABDE8F05F00F022BCBDE8F09F9D
:101150002C00002004150140001001402DE9F04151
:1011600000260125144C22E06068226900EBC607C6
:10117000387805FA00F1114217D08A43226100F055
:101180002BFB02463878E36805FA00F1194002FAB1
:1011900000F3994209D17978012901D0012100E0B9
:1011A000002151407A6802B19047761CF6B220784F
:1011B0008642D9D3BDE8F081180000200E4910B551
:1011C0000A784C780023A24212D0521CD2B20A7084
:1011D000022A00D10B70084A0B78183252F82320EB
:1011E00002608868104420F07F408860012010BDB4
:1011F0000360002010BD00002C0000202DE9F0410C
:10120000124E07460125BD403068FFF7CDFC00288F
:101210000DD10F4C2069284207D1384600F0DCFA86
:101220000028E06805D0284304E0A8432061BDE819
:10123000F081A843E060206928432061A1683068FC
:10124000BDE8F0410022FFF76FBC0000DC1E00008B
:10125000180000200268134602E08A4204D0126897
:10126000002AFAD10B600160704700000348017A40
:10127000C90702D00078FFF703BE704704000020C2
:101280002DE9F043264CA4F110092278D9F8048006
:1012900099F80350404694F801C0D9F8086031E04D
:1012A00002EB42036168521C01EBC301A378D2B286
:1012B000934200D100220B78022B02D0032B21D1C4
:1012C0001DE003464F68194603E0B94203D00B46C0
:1012D000C969B9B1F9E7A9B18B4205D1C06918B99B
:1012E000104E0125B56000260F68C969D96149B162
:1012F0000B683B440B6005E00174C06900E000210D
:101300000028F9D19445CBD1C9E9010689F80350E9
:10131000404502D00120BDE8F0830020FBE700003B
:101320003C000020001001402DE9F0412A4F044606
:10133000002607F11005D7F804803EE002D02046D1
:10134000E4691DE02878696800EB4002401CC0B2E7
:1013500001EBC2012870AA78904200D12E700A7861
:101360004868012A2BD1027C4ABB8A684260CA685D
:1013700082600A69C26049698161F97801B1466099
:101380004368BA68DFF854C0991A21F07F4161457B
:1013900002D28268114406E0D11A826821F07F41AE
:1013A0008A4202D9511A016000E0066046600121BC
:1013B00086600174C66100F075FB002CBED12878F0
:1013C00069788842BED17968414502D00120BDE8E4
:1013D000F0810020FBE700002C000020FFFF7F00D1
:1013E00000F01EFD0020FFF71FFC064C064F074EC5
:1013F000012520780028FCD0384600F021F835601F
:10140000F7E7000000000020A08601000005004072
:10141000C20800F007030120895C9840084070472B
:1014200000F180400068002800D00120704708B516
:1014300000F18040002101600068009008BD0000BC
:1014400000283ED01F49204A096800BF00BF00BFE6
:1014500000BF00BF00BF00BF00BF91422FD000BF40
:1014600000BF00BF00BF00BF00BF00BF00BF00BF84
:1014700000BF00BF00BF00BF00BF00BF00BF00BF74
:1014800000BF00BF00BF00BF00BF00BF00BF00BF64
:1014900000BF00BF00BF00BF00BF00BF00BF00BF54
:1014A00000BF00BF00BF00BF00BF00BF00BF00BF44
:1014B00000BF00BF00BF00BF00BF00BF00BF401E95
:1014C000C3D17047500000200024F40000283ED013
:1014D0001F49204A096800BF00BF00BF00BF00BF0E
:1014E00000BF00BF00BF91422FD000BF00BF00BFB0
:1014F00000BF00BF00BF00BF00BF00BF00BF00BFF4
:1015000000BF00BF00BF00BF00BF00BF00BF00BFE3
:1015100000BF00BF00BF00BF00BF00BF00BF00BFD3
:1015200000BF00BF00BF00BF00BF00BF00BF00BFC3
:1015300000BF00BF00BF00BF00BF00BF00BF00BFB3
:1015400000BF00BF00BF00BF00BF401EC3D1704737
:10155000500000200024F40070B50E4C00252078C7
:1015600008B1852513E00021A16061602161E1607F
:101570004FF0E020D0F80001012610F0010F03D158
:101580000721002000F03AF803480660267028463C
:1015900070BD0000580100201805004070B5154DC1
:1015A0000446A87838B114B161680120884700204A
:1015B000FFF70AFB15E00020FFF706FB24B10D48FA
:1015C00021461030FFF746FEE86850B94FF48270AC
:1015D000FFF72DFF02204107C1F80403064901204F
:1015E0000860E868401CE860BDE870400020FFF734
:1015F000EDBA000058010020080000404907090E1C
:10160000002806DA00F00F0202F1E02282F8141D31
:1016100003E000F1E02282F8001400F01F02012133
:1016200091404009800000F1E020C0F88012C0F82D
:101630000011704710B5044600F092F928B1204619
:10164000BDE81040002100F02DB9204600F094F9CB
:1016500000280FD02046FFF70FFD074A02EB80015C
:10166000D1F8103523F00103C1F810350121814074
:10167000C2F8081310BD0000006000402DE9F041E1
:101680008846054600F06CF9234E002828461AD0FB
:10169000FFF7F2FC304490F848008009032802D09C
:1016A00001280ED007E04FF0A040D0F81005E84028
:1016B00010F0010F05D003212846BDE8F04100F0ED
:1016C000F1B80221F8E700F057F9002822D02846A7
:1016D000FFF7D2FC04464FF4807000EB84000F4FFC
:1016E00081B207EB8400D0F8102542F00102C0F867
:1016F0001025084600F006F9B8F1000F0AD0284678
:10170000FFF7BAFC56F82000002803D00120A040C3
:10171000C7F80403BDE8F0816C01002000600040C0
:101720002DE9FC41DFF8A480044608EB0400002703
:1017300090F930001346C0170E46401C01D0082710
:1017400041E0F27819462046FFF772FC0546401C3E
:1017500038D0B07850B14FF0A04000EB8400D0F802
:10176000001721F00201C0F8001707E0002173788C
:10177000204600910A46019100F082F8F078C0B14D
:101780001348317800EB8500D0F81025114B1A4032
:10179000C0F810254FF4F8524FF4403302EA042207
:1017A00003EA01410A43D0F810150A43C0F8102596
:1017B00009E008EB0500327810F8481F41EA821171
:1017C000017000E004273846BDE8FC816C01002070
:1017D00000600040FFE0FCFF4FF0A041D1F8101581
:1017E000C14011F0010000D00120704770B5144DC8
:1017F00095F8540008B1082070BD0020411E2A1839
:10180000401CC0B282F830102028F8D300242046B3
:10181000FFF700FC641CE4B20C2CF8D3072106206F
:10182000FFF7ECFE4FF4BE7000F06CF805494FF086
:101830000040C1F80403012085F85400002070BD69
:101840006C01002000600040034890F8540000281C
:1018500000D00120704700006C01002070B541EA03
:101860004201DDE904564FF0A04441EA830141EA18
:10187000052104EB800041EA0641C0F8001770BD65
:1018800070B541EA4201DDE904564FF0A04441EA57
:10189000830141EA052104EB800041EA0641C0F8DA
:1018A000001770BD4FF0A04202EB8000D0F8002777
:1018B00022F44032C0F80027D0F8002742EA014164
:1018C000C0F80017704701224FF0A043824011B1C9
:1018D000C3F808257047C3F80C25704718B5084BA6
:1018E0006C4601441B68009306E000BF54F82030AA
:1018F000D3F81035401C08C28142F7D818BD00004B
:10190000D81E0000034908B50844002101600068A2
:10191000009008BD0060004002494058012800D0F6
:1019200000207047006000404058002800D001208F
:10193000704708B5002242504058009008BDD0F8CA
:101940000403084000D0012070474058002800D010
:101950000120704708B5002242504058009008BD51
:101960000449084490F93000082801DB0120704741
:10197000002070476C0100200449084490F93000B1
:10198000082801D201207047002070476C01002018
:1019900070B5012670044FF0E0210025C1F88001E8
:1019A000084C4010C4F84803C4F8080366602F20B0
:1019B000FFF78CFDA660044C2F20A560FFF786FD85
:1019C000A57070BD001001402C00002070B50546C8
:1019D000C87D0C4600284FF4847128460AD0FFF7D2
:1019E000A8FFD5F81805627EE1688854607E401C27
:1019F000607670BDFFF79DFFD5F8180570BD1FB567
:101A000001238DF800308DF808100192D0E9001202
:101A1000684690471FBD00002DE9F84F204C002577
:101A20006846D4E901B6FFF7C9FB8046FFF728FCFA
:101A30000746A946B8F1000F25D00023009ACC46EE
:101A4000606819E007680146974202D9BA1A026035
:101A500014E0C1F800C0D1F80C80D21BC8693B4427
:101A60008A46B8F1000F07D0F71827F07F47C1E981
:101A70000178CAF81C500D460028E3D16060284662
:101A8000FFF752FC04E02846FFF74EFC00B917B1FF
:101A90005846FFF70DFB84F80390BDE8F88F00006F
:101AA0002C0000200D4B10B5596831B102680C684C
:101AB000A24204D8A21A0A60C161586010BD0B4648
:101AC00003E00B46C969121B21B10C689442F8D39C
:101AD000A41A0C600260C161D86110BD2C00002006
:101AE000F8B5064600240D462046FFF76DF8684617
:101AF00000F07EF968B10570084946609DF8000065
:101B000048700020FFF762F81420FEF777FD2046AA
:101B1000F8BD04240020FFF759F8F8E73C00002046
:101B20002DE9F0411D4D6C68002C35D01C48002774
:101B30000068A968B846401A20F07F462068B04285
:101B400015D82246361A0744E469107C68B182F839
:101B50001080EB6833B1D2E90501984728B1FEF750
:101B60008BFF02E0D2E905108847002CE6D12978E6
:101B70006878814206D1401CC0B26870022801D149
:101B800085F8018005486978183040F82170BDE873
:101B9000F0411420FEF732BDBDE8F0812C0000209A
:101BA0000415014070B50C4605464FF48E71FFF7E1
:101BB000C0FEA18AA068415CA08A401CA082C5F832
:101BC0001C1570BD1FB500228DF800208DF808107F
:101BD000816801918275D0E90012684690471FBD67
:101BE0002DE9FF470C4605464FF40071FFF7A7FEAD
:101BF00001274FF40178002618B34FF49279494633
:101C00002846FFF791FEE0B149462846FFF791FECE
:101C1000C5F80883A07E00B96F6002208DF800002F
:101C2000D5F88004C5F880040390E07D8DF80800A5
:101C3000E0680190E6752676D4E900126846904780
:101C400027E004212846FFF77AFE10B34FF4847191
:101C50002846FFF769FEE0B121462846FFF7B6FEA9
:101C6000E07D617E884214D1207E38B1617EE268D9
:101C7000E0752069E0602676667607E0A07E00B910
:101C80006F60C5F80883E675617EE2682046FFF75D
:101C9000B6FE4FF48E7841462846FFF745FE88B1E0
:101CA000A08AA17D884204D221462846FFF77AFF08
:101CB00008E041462846FFF73CFEA17D11B12046D1
:101CC000FFF780FF4FF4A27841462846FFF72CFE2D
:101CD000002812D041462846FFF72BFEA07E00B117
:101CE0002F60E07D002808D0E675617EE26804B0D0
:101CF0002046BDE8F047FFF782BEBDE8FF872DE92B
:101D0000FF410C464FF4927705463946FFF71DFE1A
:101D10000026C0B139462846FFF71CFE02208DF888
:101D20000000D5F88004C5F880040390D5F83C0580
:101D30008DF80800E0680190E6752676D4E9001277
:101D40006846904724E04FF4887739462846FFF7E5
:101D5000FCFDE8B139462846FFF7FCFDD5F83C0507
:101D6000C1B2E07D884213D1207E60B1E268D5F82F
:101D7000000220F02000C5F80002207EE0752069F6
:101D8000E060267601E0E675E2682046FFF737FE60
:101D90004FF4A27739462846FFF7D7FD68B1394698
:101DA0002846FFF7D7FDE07D38B1E675D5F83C054C
:101DB000E268C1B22046FFF722FE4FF4907631462A
:101DC0002846FFF7C2FD00280FD031462846FFF70E
:101DD000C1FDA07D002808D0D5F84C0504B0C1B2E3
:101DE0002046BDE8F041FFF7EDBEBDE8FF810000F1
:101DF0000A4A10B553789478591CC9B28C4200D164
:101E0000002114788C4201D1002010BD017050686F
:101E100003EB430100EBC10010BD00003C000020BB
:101E200010B5FFF799FB08B1FEF726FE0020FFF77B
:101E3000B5FB0023164A05211846FEF73DFE08B102
:101E4000FEF71AFE134A40F6CD410320FEF7CCFF01
:101E500008B1FEF711FE0020FFF7CCF808B1FEF73D
:101E60000BFE0D4A01210D48FEF714FE08B1FEF7E6
:101E700003FE0A4800224FF480410068FEF754FE3A
:101E8000002803D0BDE81040FEF7F6BD10BD0000ED
:101E900074000020650D00008F0A0000A01E0000E5
:101EA00054000020111213140D0E0F10EC0000202E
:101EB0000C010020380100200D000300CD0C0000B3
:101EC0000E000300CD0C00000F000300CD0C00003D
:101ED00010000300CD0C000000000050E4010020C1
:101EE00003000000041F0000000000205400000058
:101EF0006C090000581F000054000020B4210000AD
:101F00007C0900000000000000000000000000004C
:101F100000000000000000000000000000000000C1
:101F200000000000000000000000000000000000B1
:101F300000000000000000000000000000000000A1
:101F40000000000000000000000000000000000091
:081F5000000000000090D00326
:0400000500000401F2
:00000001FF
