:020000040000FA
:100000006837002049040000510400001504000076
:1000100055040000570400005904000000000000CF
:100020000000000000000000000000005B04000071
:100030005D040000000000005F0400006104000097
:100040006304000063040000A10A0000F10700003F
:100050006304000063040000AD05000063040000B9
:1000600063040000630400006304000063040000F4
:1000700063040000630400006304000063040000E4
:1000800063040000CD070000630400006304000067
:100090000108000063040000630400006304000022
:1000A00063040000630400006304000063040000B4
:1000B0006304000063040000000000000000000072
:1000C0006304000063040000630400006304000094
:1000D00063040000630400006304000000000000EB
:1000E0000000000000000000000000000000000010
:1000F0000000000000000000000000000000000000
:1001000000000000000000000000000000000000EF
:1001100000000000000000000000000000000000DF
:10040000DFF80CD000F0A0F800480047C11A000047
:1004100068370020094B1EF0040F1CBFEFF3098062
:100420001847EFF308800649064A884201D89042EF
:1004300002D88D464FF00000184700002107000049
:1004400068370020681700200648804706480047A4
:10045000FEE7FEE7FEE7FEE7FEE7FEE7FEE7FEE774
:10046000FEE7FEE7050800000104000000487047B1
:10047000C44E000040EA01039B0703D009E008C90D
:10048000121F08C0042AFAD203E011F8013B00F859
:10049000013B521EF9D27047D2B201E000F8012BA5
:1004A000491EFBD270470022F6E710B513460A46F4
:1004B00004461946FFF7F0FF204610BD421C10F815
:1004C000011B0029FBD1801A704730B5044600207B
:1004D000034600E05B1C934203D2E05CCD5C401B12
:1004E000F8D030BD2DE9F05F0546002092469B46CE
:1004F00088460646814640241BE02846414647463A
:10050000224600F042F853465A46C01A914110D391
:1005100011461846224600F029F82D1A67EB01080B
:100520004F4622460120002100F020F817EB000979
:100530004E41201EA4F10104DFDC484631462A4624
:100540004346BDE8F09F0000064C074D06E0E0681A
:1005500040F0010394E8070098471034AC42F6D30A
:10056000FFF752FFC0540000E0540000202A04DBD3
:10057000203A00FA02F1002070479140C2F12003B6
:1005800020FA03F3194390407047202A04DB203AF5
:1005900021FA02F00021704721FA02F3D040C2F1A3
:1005A0002002914008431946704700002DE9F047AA
:1005B00000268CB0DFF86091B0464FF480750124BE
:1005C00037460696284602F039FE38B1D9F80403BA
:1005D000204203D0284602F027FE26432D1D64004A
:1005E0007F1CADB2082FEDD34FF4BE74204602F04D
:1005F00025FE48B1204602F017FE46F0004606AA46
:100600000121002002F0FCFD444D16F0FF0F15D033
:100610000127002437420DD009EB8401D1F81005E1
:10062000D1F81015C0F3042055F82420C1F301417E
:1006300002B190477F00641C082CEBD3002E67DAD0
:100640004FF0FF30CDE9088000263446281910F815
:10065000507F90F9000027F0C008401C44D009A941
:10066000404602F0F3F958B34FEA9719404601F0BB
:100670001BF855F820701FB1B9F1030F03D00FE03C
:10068000B9F1030F30D108A84FEAD80208F00703E8
:10069000815C4FF0010C0CFA03FC41EA0C0181541F
:1006A0004FF0A04101EB8800D0F8000706A9C0F385
:1006B000014A404602F0CAF918B1BAF1020F03D05C
:1006C00012E0BAF1030F0FD1B9F1030F08D1BAF15B
:1006D000020F1BD00221404602F06EFD761CF6B2DE
:1006E00017B149464046B847641C042CAED3002ECF
:1006F0000ED06A460121002002F082FD0699009882
:10070000884205D00690089809909DE70321E2E70A
:100710000CB0BDE8F0870000006000408C110020A4
:100720000446826906A1012003F006F802F0F0FEFB
:1007300002F0F2FE0028FBD1204600F013F8000082
:10074000484152444641554C543A4552524F523A10
:10075000486172646661756C742050433A25780D67
:100760000A000000BFF34F8F05480168054A01F4F5
:10077000E06111430160BFF34F8F00BFFDE7000050
:100780000CED00E00400FA0500F01F020121914089
:100790004009800000F1E020C0F88012704700F0AE
:1007A0001F02012191404009800000F1E020C0F8C3
:1007B0000011704700F01F020121914040098000A4
:1007C00000F1E020C0F80012704700000748002147
:1007D000C0F84011C0F84411C0F84811C0F84C11DD
:1007E000C0F80011C0F8041103F0E6BA001001408F
:1007F0000149024801F058B8E411002000300040DF
:1008000003F076BAF0B598480023021D017801255F
:10081000101D4FF08056062907D11478240704D103
:100820000478C4F30314032C02D0062904D00FE08B
:100830008F4F8E4C7C670EE01478240708D1047823
:10084000C4F30314032C06D0042C04D0052C02D0CE
:10085000062907D00EE0D6F84442864FC4F342344E
:100860003C6002E01478240704D10478C4F3031434
:10087000032C02D0062906D011E07F4C276827F010
:10088000807727600EE01478240708D10478C4F339
:100890000314032C06D0042C04D0052C02D0062906
:1008A0000AD011E04FF08044C4F80C31C4F8103184
:1008B000704C241F236002E01478240704D10478CC
:1008C000C4F30314032C02D0062905D00CE0694FB1
:1008D000032464373C600AE01478240704D10478C8
:1008E000C4F30314032C02D006290DD014E0634F87
:1008F00005243C60614C78342560604C08342360EA
:100900003F243F1D3C6002E01478240704D10478A2
:10091000C4F30314052C02D0062957D068E05849C7
:100920000968584A11605649091D0968121D11606D
:10093000534908310968121D116051490C31096889
:10094000121D11604E4910310968121D11604C4989
:1009500014310968121D1160494918310968494A62
:100960002032116046491C310968121D116044494A
:1009700020310968121D1160414924310968121D96
:1009800011603F4928310968121D11603C492C3122
:100990000968121D11603A4930310968394A4032FC
:1009A0001160374934310968121D116034493831FA
:1009B0000968121D116032493C310968121D11602D
:1009C0002F4940310968121D116002E011780907B2
:1009D0000ED10078C0F30310032803D0042801D0FF
:1009E000052805D1D6F85802274900F04F000860C5
:1009F00021487438016841F470010160BFF34F8FE2
:100A0000BFF36F8F4FF01021D1F80002002803DBF5
:100A1000D1F80402002822DA1C4A15601C48046838
:100A2000002CFCD01524C1F800420568002DFCD034
:100A3000C1F8044201680029FCD013600168002954
:100A4000FCD0BFF34F8F0C48F0380168114A01F415
:100A5000E06111430160BFF34F8F00BFFDE70F4915
:100A60000D480860F0BD0000E00F00F00DF0ADBAD9
:100A700000C007403C050040FCED00E0105600407F
:100A80000404001020C50040E40E004004E50140CD
:100A900000E401400400FA050090D0037800002033
:100AA0000448017F04480029024901D004F0E3B85A
:100AB00004F052B80C120020002000400FB41CB506
:100AC0000A46521ECDE9000207A9054B6A46069860
:100AD00000F018F8009A002111701CBC5DF814FB9E
:100AE000670F000002E008C8121F08C1002AFAD1EF
:100AF00070477047002001E001C1121F002AFBD19E
:100B0000704700002DE9FF4F8DB00F4605460026C7
:100B100006E025280BD0DDE90F1290476D1C761CEE
:100B200028780028F5D111B03046BDE8F08F0024B8
:100B3000A246A1460122EC4900E0044315F8013F1A
:100B4000203B02FA03F00842F7D128782A2810D077
:100B50006FF02F022878A0F13001092914D80AEB90
:100B60008A0102EB410144F0020400EB010A6D1C12
:100B7000F0E701CF5FEA000A03D544F40054CAF15C
:100B8000000A44F002046D1C28782E2817D115F8AD
:100B9000010F44F004042A280ED06FF02F022878A9
:100BA000A0F1300109290AD809EB890102EB4101C2
:100BB00000EB01096D1CF2E757F8049B6D1C2878C7
:100BC0006C280FD006DC4C2817D068280DD06A2876
:100BD00014D104E0742810D07A280FD10DE044F429
:100BE00000140AE044F4801401E044F440146978ED
:100BF000814202D104F580146D1C6D1C2A786E2A86
:100C00001FD00CDC632A31D004DC002A8BD0582A98
:100C100011D1A3E0642A68D0692A0CD165E0732A57
:100C20002ED004DC6F2A73D0702A04D19BE0752A81
:100C30006FD0782A6ED01046DDE90F129047761CEF
:100C400050E1C4F30250022806D0032809D004283A
:100C500001CF09D0066045E101CFF117C0E900617D
:100C600040E101CF06803DE106703BE117F8040B3F
:100C70008DF8000000208DF80100EB46012003E014
:100C800057F804BB4FF0FF3061074FF0000102D46A
:100C90000DE008F10101884649450FDA8045F8DB8F
:100CA0001BF808100029F4D108E008F1010188467A
:100CB0008142FADB1BF808100029F6D1DDE90F2389
:100CC000AAEB08008146214600F036F9304400EBDB
:100CD000080604E0DDE90F121BF8010B9047B8F19C
:100CE0000108F7D221464846F7E00A21C4F302532F
:100CF0004FF0000B0891022B04D001CFC117032B3A
:100D000009D00AE0FF1D27F00707F7E8020108E015
:100D100032E01FE020E000B2C117042B01D140B245
:100D2000C117031E71F1000307DA4FF0000CD0EB7E
:100D30000C006CEB01012D2302E0230504D52B23CD
:100D40008DF82430012303E0E30701D02023F7E7E7
:100D5000984658E00A2110E010210EE010204FF0D4
:100D6000000B08900CE010214FF0000B44F004043D
:100D70004FF00809089103E008214FF0000B08919B
:100D8000C4F30253022B04D001CF0021032B06D061
:100D900006E0FF1D27F00707F7E8020103E080B235
:100DA000042B00D1C0B24FF0000823072BD5702AC6
:100DB00007D0DDF820C08CF0100C5CEA0B0C05D0DD
:100DC0000EE040238DF82430012308E050EA0103AF
:100DD00006D030238DF824308DF825200223984644
:100DE000DDF820C08CF0080C5CEA0B0C0BD150EA4B
:100DF000010301D1630706D530238DF824304FF06D
:100E00000108A9F10109582A04D038A20B9208AAB6
:100E10000A920BE03AA2F9E75B46089AFFF762FBF9
:100E20000B9B9B5C0A9A521E0A92137050EA0102B5
:100E3000F2D10A98ADEB000000F1200B600702D55B
:100E400024F4803401E04FF00109D94502DDA9EB1B
:100E50000B0000E0002000EB0B0141440890AAEBDE
:100E6000010AE00306D4DDE90F232146504600F0D5
:100E700063F806444FF0000908E009A911F80900D9
:100E8000DDE90F12904709F10109761CC145F4DB39
:100E9000E0030CD5DDE90F232146504600F04CF865
:100EA000064404E0DDE90F1230209047761C0899D3
:100EB000481E08900029F5DC08E00A980A99007895
:100EC000491C0A91DDE90F129047761CBBF1000125
:100ED000ABF1010BF1DC21465046DDE90F2300F0B8
:100EE00019F806446D1C1BE6092801003031323325
:100EF0003435363738396162636465660000000056
:100F0000303132333435363738394142434445463F
:100F1000000000002DE9F041044600251E4617465A
:100F2000880404D405E039462020B0476D1C641EB7
:100F3000F9D52846BDE8F0812DE9F04104460025A9
:100F40001E469046C80301D5302700E020278804BC
:100F500004D505E041463846B0476D1C641EF9D5FE
:100F60002846BDE8F0814A68002A06D00A68531C6A
:100F70000B6010704868401E486070471CB5062121
:100F8000684600F069F8002811D100224FF47A7306
:100F900000F08AF918B1521C92B29A42F8D3062294
:100FA00003496846FFF791FA002800D003201CBDD2
:100FB000A04D000010B5144600F00CF8002808D130
:100FC000204600F012FA18B1BDE81040FFF7D6BF76
:100FD000032010BD2DE9F84380461C480C46C0791B
:100FE00010B10320BDE8F88304F10806B6F5807F50
:100FF00001D90720F6E7164F0025FF213D707D70CF
:10100000B970611CF970C943491C3971D4217971D7
:1010100022464146B81DFFF72DFAD421002005E0F5
:1010200018F80020401C1144C9B2C0B2A042F7D346
:10103000C8433919401C8871CD71F3B2044A242188
:101040000448009501F020FFCCE7000035000020A7
:101050008C100020AC4D000070B505460C46642095
:1010600000F0C3F910B10F48C07908B1032070BD7A
:10107000601CB0F5807F01D9072070BDFF2C0FD018
:10108000C3B2094A2421094801F0ECFE0028F4D13A
:1010900005492246491C2846FFF7ECF9002070BD9F
:1010A000062070BD350000208C100020AC4D0000E3
:1010B000002000F001B8000010B5012802D008B1EE
:1010C000072010BD0A4932220A7001224A70887036
:1010D0004FF47A7203210648FFF76CFF0028F0D125
:1010E000642000F082F908B1002010BD032010BD7B
:1010F0008C0F002070B5124C0546022020704FF472
:101100007A7201212046FFF755FF00280CD10D21EE
:101110002046FFF7A1FF002806D106220949601CDE
:10112000FFF7D3F908B1052070BDD4F80700A17A04
:1011300000BA20F0FF0008432860002070BD0000C6
:101140008C0F0020A64D00001FB50D4801F0AEFE2B
:101150000B4900230C391A46D1E90701CDE90201F8
:101160001B2000901A2001906946054801F034FECA
:10117000002803D1024801F01FFE002004B010BD7A
:10118000AC4D00002DE9F04116461D468F1C4FF472
:1011900080720346974241D828780A3090423DD861
:1011A000274C4022A01C2270264A927962700A467F
:1011B0001946FFF75FF9F9B24FF47A773A462046BD
:1011C000FFF7F8FE00282AD1384600F00EF928B3C0
:1011D00028780A30C1B22046FFF73EFF00281ED112
:1011E00021780B2000291AD16178002917D1A17824
:1011F000FF2914D1E1782379CA43521CD2B2934219
:101200000DD16279D52A01D0D42A08D1D52A05D1A9
:10121000A079412802D1E079800602D00320BDE800
:10122000F081C91E2878CAB2904200D20246044911
:10123000144608313046FFF71DF92C700020EEE708
:101240008C0F00203500002038B5164D29788143D9
:1012500001D0002038BD134C641CE07908B1032094
:1012600038BDFFF771FF0028FAD12079002101F085
:1012700086FF6079002101F082FF642001F0EEFB1F
:101280006846FFF737FF0028EAD1012000F072F826
:101290000028E5D1FF2000F05BF80028E0D1012014
:1012A0002870D6E734000020064801794FF0A040AE
:1012B000D0F81005C84010F0010F01D00020704791
:1012C000012070473500002070B50E4605001FD084
:1012D0001D4C4A2064222070012060700020A07004
:1012E00003212046FFF766FE002810D1642E00D2AD
:1012F0006426304600F079F860B119211248FFF7F2
:10130000ABFE002803D1E079012805D00B2070BD89
:10131000072070BD032070BD207B0A2801D9092059
:1013200070BDA07A2870607A6870E07AA87006496B
:10133000227BEA700D31281DFFF79CF80349207AC3
:101340008871002070BD00008C0F00203500002047
:10135000074932220A7005224A70FF228A70012250
:10136000CA7008714FF47A7205210148FFF722BE56
:101370008C0F002010B5012807D0022805D00328C3
:1013800003D0042801D0072010BD0E4C14214FF4C7
:101390007A7221706070A1700120E07004212046F3
:1013A000FFF708FE0028EFD109212046FFF754FE81
:1013B0000028E9D1A079152801D0052010BD002012
:1013C00010BD00008C0F00201CB510228DF80420E9
:1013D00030228DF800208DF801000A4601AB022171
:1013E0006846FFF7CFFE1CBD704770B50546002468
:1013F00004E0641CA4B2012001F030FBFFF754FFAD
:10140000002801D1AC42F4D370BD000010B5FFF745
:101410004FFE20B1044A4FF4B57100F02BF8BDE83F
:101420001040024801F020BB884D000080841E005F
:1014300070B50D460646144608A1012002F056F983
:1014400002F066F802F068F80028FBD1224629462F
:101450003046BDE8704000F019B800004150505FC0
:101460004552524F523A4552524F523A4661746178
:101470006C0D0A000EB5ADF80010CDE901206A46EA
:10148000002144F20100FFF7D3FF0EBD08B5012390
:101490008DF800309DF80030144B186059609A6048
:1014A0006FF48041401807D001280FD1DA60D86866
:1014B00000889861D86807E01A61186980685861E7
:1014C00018690088986118694068D8611868586878
:1014D0009868D868186958699869D86972B600BF61
:1014E0009DF800000028FBD162B608BD2C12002038
:1014F00000F002B800F008B872B602480168491C52
:10150000016070476000002003490868401E0860C1
:1015100000D162B670470000600000202DE9F04164
:10152000064608680C46411C4FF0A0474FF00105E5
:1015300006D005FA00F1C7F80815206801F032FE60
:101540006068411C02D0002101F023FE307920495F
:1015500001EB4010A169007F00283068C0F8241515
:1015600025D0607D227D31681043C1F86C05D4E937
:1015700000123068C0F80C15C0F8142524E0A068EB
:10158000411C02D0002101F004FEE068411C05D09E
:101590008540C7F80855E06801F004FED4E902125E
:1015A0003068C0F80825C0F81015BDE8F081607DEE
:1015B000217D32680843C2F86C05D4E90012306816
:1015C000C0F81425C0F80C15207D0128D7D0ECE711
:1015D0000C1200200249085C012101F005BE000048
:1015E000984D00007CB50024084E25460122305D50
:1015F000009500231146019501F094FD641C042C14
:10160000F4D3BDE87C4000F003B80000984D000022
:1016100010B500242046FFF7DDFF641C042CF9D32D
:1016200010BD002901DA00207047026811440160F2
:101630000120704770B5461C0D4601240020FFF7BD
:1016400057FF114A10682860D2E900109568081AFF
:101650002B1A701C5B1C98420FD963B10B480C4BC2
:10166000294000681B6802EB810163F39F20C8607A
:101670001068401C1060002401E0881910600020F0
:10168000FFF738FF204670BD4C130020F44D0000DA
:1016900070000020034803C8814201D10120704737
:1016A000002070474C1300200249084490F9300094
:1016B000704700008C1100202DE9F05F264841683A
:1016C000F1B3DFF898B00E688146DBF80040876818
:1016D0008078E11B21F07F45ED1CB0B9DFF88080F8
:1016E0004FF48030C8F84403C8F804031120FFF712
:1016F0004BF81120FFF753F84FF0010AC8F800A08B
:101700002F2001F083FA89F802A0B54200D23546B5
:10171000124BE8193C3320F07F401860DBF80010D2
:101720005A46091B21F07F41001B20F07F40C91C55
:1017300081420FD9106818602F2001F067FA00E08D
:1017400004E0BDE8F05F1120FFF734B8BDE8F05FBA
:1017500002F0D0B8BDE8F09F400000200415014021
:10176000001001400E4910B50A784C780023A242BF
:1017700012D0521CD2B20A70022A00D10B70084A51
:101780000B78183252F8232002608868104420F049
:101790007F408860012010BD0360002010BD000064
:1017A000400000202DE9FE43054600201468029009
:1017B000D5E901871646894636E002A800904B46D7
:1017C00001AA39460294404600F07CFA002820D154
:1017D0002868816800299DF8041003D031B14029A0
:1017E00024D103E0802901D0C0291FD1394600F05F
:1017F000ACFB00280DD102999DF80400641A402822
:1018000009D0C02807D0286882684068824207D182
:101810000420BDE8FE833068001B30600020F8E73C
:10182000894408F108081837002CC6D10B20F0E7CE
:1018300070B50E460446007918494FF4A27501EBC5
:101840004010017F2068A1B14FF4887102F00FF8B9
:101850004FF49071206802F00AF84FF492712068FA
:1018600002F005F82946206802F001F80C492068CA
:1018700009E04FF48E7101F0E9FF2946206801F07C
:10188000E5FF08492068C0F80413206801F071FAE8
:101890003146BDE8704001F050BA00000C12002043
:1018A00010030200800002007FB50C46054691F847
:1018B000211094F82000CDE9000104F12602D11E88
:1018C0002846E36902F0BEFB002823D194F82300E8
:1018D00008BB207B022801D003281CD12269E169C2
:1018E000914218D16269E261E37B84F82030217E65
:1018F0000328C1F3401184F8211006D004B0294612
:101900002046BDE8704002F039BB009129462046D0
:1019100002F01DFC7FBD04F10C0001AB07C883E899
:10192000070094F82300002168B1D5F8C404C5F875
:10193000C404820701D5012002E0400705D502203A
:101940008DF8000001E08DF8001084F82410207E4E
:101950004007DFD4D4E90021684690477FBD0000EE
:101960002DE9F043264CA4F110092278D9F804801F
:1019700099F80350404694F801C0D9F8086031E066
:1019800002EB42036168521C01EBC301A378D2B29F
:10199000934200D100220B78022B02D0032B21D1DD
:1019A0001DE003464F68194603E0B94203D00B46D9
:1019B000C969B9B1F9E7A9B18B4205D1C06918B9B4
:1019C000104E0125B56000260F68C969D96149B17B
:1019D0000B683B440B6005E00174C06900E0002126
:1019E0000028F9D19445CBD1C9E9010689F8035003
:1019F000404502D00120BDE8F0830020FBE7000055
:101A000050000020001001402DE9F0412A4F04460B
:101A1000002607F11005D7F804803EE002D02046EA
:101A2000E4691DE02878696800EB4002401CC0B200
:101A300001EBC2012870AA78904200D12E700A787A
:101A40004868012A2BD1027C4ABB8A684260CA6876
:101A500082600A69C26049698161F97801B14660B2
:101A60004368BA68DFF854C0991A21F07F41614594
:101A700002D28268114406E0D11A826821F07F41C7
:101A80008A4202D9511A016000E0066046600121D5
:101A900086600174C66102F071F9002CBED128780D
:101AA00069788842BED17968414502D00120BDE8FD
:101AB000F0810020FBE7000040000020FFFF7F00D6
:101AC00003F052F90020FFF7BFFB20B113A24FF43F
:101AD000BB71FFF7CFFC02F0AFF880B1042811D042
:101AE000052811D0062814D010A1032001F0FEFD16
:101AF000FFF7DEFA01F010FD0028FBD1EBE7FFF75E
:101B000085FCF7E7124905E012A1032001F0EEFD84
:101B1000F0E717A1032001F0E9FDF0E72E2E5C2E7F
:101B20002E5C2E2E5C6D61696E2E63004150503A22
:101B3000494E464F3A4572726F7220647572696EF3
:101B4000672074616720726561642E0D0A000000D1
:101B5000644F00004150503A494E464F3A4E6F2074
:101B600054616720666F756E642E0D0A00000000D8
:101B70004150503A494E464F3A546167206E6F7457
:101B800020737570706F727465642E0D0A0000000A
:101B900003B5DFB04FF4BA7102465D9160AB5DA949
:101BA000684600F023F818B104A1032001F09EFD5F
:101BB000684600F029F861B000BD00004150503A7D
:101BC000494E464F3A4572726F7220647572696E63
:101BD000672070617273696E672061204E444546CC
:101BE000206D6573736167652E0D0A003EB515465D
:101BF0001C466A4600F042F8002804D122462946D5
:101C00006846FFF7CFFD3EBD70B505460A4801F0B6
:101C100043F80AA10320AA6801F08EFD002406E023
:101C2000286850F82410204600F0A8F8641CA86822
:101C3000A042F5D870BD0000A08601004E46435F6B
:101C40004E4445465F4D53475F5041525345523ACB
:101C5000494E464F3A4E444546206D657373616761
:101C60006520636F6E7461696E73202564207265F0
:101C7000636F72642873290D0A0D0A0030B50B6872
:101C8000302B01D2042030BD2424303BB3FBF4F4CC
:101C900000F10C03641C03EB8405C2E9000505EBAD
:101CA000C4059560036013685C6015680023AB6031
:101CB000926804EB440302EBC302101A0860002090
:101CC00030BD0000F0B50324059D2E68032E3BD3E4
:101CD0001E7806F007060E70072E01D105260E703D
:101CE0001E7806F0C006167013F8016B13F8017B1E
:101CF0000F72F20602D513F8012B0CE02A680624B5
:101D0000062A21D353F8032B12BA13F801CB22F081
:101D1000FF0242EA0C0236074FF0000C07D52E688E
:101D2000641CA64210D313F8016B4E7003E081F8D7
:101D300001C0C1F804C04E78144407EB060E744489
:101D4000D5F800E0A64501D20920F0BD17B1CB605F
:101D50003B4401E0C1F80CC00EB14B6033443AB1D2
:101D60000360426048610448086100202C60F0BDB7
:101D7000C0F800C0F5E70000251F000010B50C46B4
:101D8000024621A1032001F0D7FC20782A4951F80E
:101D900020202AA1032001F0CFFC606848B12FA1C8
:101DA000032001F0A3FC637833A10320626801F0F3
:101DB0004BFCE06848B136A1032001F097FC237A80
:101DC0002DA10320E26801F03FFC394920698842D7
:101DD00013D16469206860B136A10320626801F004
:101DE000ABFCA08824A183B20320226801F02CFC64
:101DF00003E03CA1032001F079FCBDE8104042A1C2
:101E0000032001F073BC00004E46435F4E4445463C
:101E10005F5041525345523A494E464F3A4E44451F
:101E200046207265636F726420256420636F6E7450
:101E3000656E743A0D0A0000184E00004E46435F6E
:101E40004E4445465F5041525345523A494E464FE3
:101E50003A544E463A202573000000004E46435F38
:101E60004E4445465F5041525345523A494E464FC3
:101E70003A49443A0D0A00004E46435F4E444546F7
:101E80005F5041525345523A494E464F3A0D0A006F
:101E90004E46435F4E4445465F5041525345523A89
:101EA000494E464F3A747970653A0D0A00000000B9
:101EB000251F00004E46435F4E4445465F50415249
:101EC0005345523A494E464F3A5061796C6F6164BE
:101ED0002064617461202825642062797465732907
:101EE0003A0D0A004E46435F4E4445465F5041520C
:101EF0005345523A494E464F3A4E6F207061796CC5
:101F00006F61640D0A0000004E46435F4E44454633
:101F10005F5041525345523A494E464F3A0D0A0DD1
:101F20000A00000070B515460B00044609D0286869
:101F30006268904201D2042070BD18462168FEF705
:101F400099FA60682860002070BDD0E901329A4299
:101F500001D304207047036843F822108168491CAC
:101F600081600020704783899B1CFF2B01D90620CC
:101F70007047DBB2AFF300803FB581B00C469DF8EF
:101F800010101546FA2902D9042005B030BDFA21F7
:101F9000ADF800106A46294600F098F90028F4D1FF
:101FA000BDF800002A46C1B204AB1046FFF7EAF8BC
:101FB0000028EAD19DF810202946204600F0C2FCF6
:101FC0000500E2D1204600F0D9FC2088A0F5D441DC
:101FD000823904D0B0F5104F03D00320D5E7052097
:101FE000D3E72846D1E72DE9F04104008AB04FF04D
:101FF0000E000BD02368002B08D0002906D0A2F1D8
:102000000F004FF6F073984203D309200AB0BDE8E1
:10201000F081E0880426D0B14FF00008A4F80480D5
:1020200008888D1C40BA208188780009A07315F8B3
:10203000010BD21F00F00F00E07335F8020B97B2CE
:1020400040BA608135F8020B40BAA0811FE03046EB
:10205000DCE7ADF8047001AA294603A800F0DBF91B
:102060000028D3D1BDF80400E2880544381A87B2AD
:10207000A08803A99042EAD0226800EB800002EB1E
:1020800080001422FEF7F6F9A088401CA080002FE3
:10209000DFD12068A17B807C032902D0022903D0F4
:1020A00004E0062804D001E0042801D00B20ADE7AD
:1020B0004046ABE770B504461949032001F016FB12
:1020C000228918A1032001F037FBE37BA27B20A12A
:1020D000032001F05DFB62892BA1032001F02CFBA2
:1020E000A28933A1032001F027FBA2883B490320EA
:1020F00001F022FB002509E0206805EB850100EBDB
:102100008101284600F0C4F96D1CEDB2A088A842F8
:10211000F2D8BDE8704025A1132001F0E7BA000015
:102120003C5100004E46435F5434545F43435F4686
:10213000494C455F5041525345523A494E464F3AF9
:1021400043434C454E3A202564200D0A0000000010
:102150004E46435F5434545F43435F46494C455FAA
:102160005041525345523A494E464F3A4D61707074
:10217000696E672056657273696F6E3A2025642E0A
:102180002564200D0A0000004E46435F5434545F1E
:1021900043435F46494C455F5041525345523A498B
:1021A0004E464F3A4D4C653A202564200D0A0000FA
:1021B0004E46435F5434545F43435F46494C455F4A
:1021C0005041525345523A494E464F3A4D4C633A6C
:1021D000202564200D0A0D0A000000008051000037
:1021E00010B5D8B004460020ADF84C012B490320AF
:1021F00001F07CFA4FA800F063F8B0208DF83D01A3
:10220000BDF84C01ADF83E010F20ADF8480110AA11
:1022100055A94FA8FFF7A7FE00283DD153AB402298
:10222000694655A800F0B5F8002835D1BDF8000082
:1022300040BAADF8500119E0BDF84C11ADF83E11AF
:10224000F22801D20F2800D90F20ADF8480110AABA
:1022500055A94FA8FFF787FE00281DD153AB402298
:10226000694655A800F095F8002815D154A955A83D
:1022700000F06EFA00280FD1BDF850010028DBD124
:10228000BDF84C2169462046FFF7ADFE044604A187
:10229000132001F02BFA204658B010BDE051000089
:1022A0000D0A000010B50549032001F01FFABDE832
:1022B00010404EF2031000F055BA0000C852000062
:1022C0000021016041608160C16070472DE9F041EB
:1022D00005004FF00E0023D0002921D0002A1FD086
:1022E0000720AB68002613B1AC88002C18D004205E
:1022F0002BB1A888FF2801D9072000E00520AB8872
:102300004FF480771844AB8980B22BB1BB4201D91E
:10231000801C00E0401C80B21388834202D204205B
:10232000BDE8F0811080287801F8010B687801F889
:10233000010B6888000A01F8020BA87801F8010C6B
:10234000A8680C46A8B1A888FF2809D92670A888D3
:102350004C1C000A04F8010B287904F8010B01E079
:1023600020704C1CAA882046A968FEF783F8A8882C
:102370000444A88958B1B84204D9000A2070287BC7
:10238000607004E0B84201D1267000E020700020A7
:10239000C6E72DE9F0411C460B468168054639B178
:1023A0002688A8883718974204D90420BDE8F08110
:1023B0000E20FBE7334402461846FEF75BF8208800
:1023C000A988084420800020F0E7000010B50368C9
:1023D000002280880EE000BF02EB820403EB84043D
:1023E000A4898C4204D102EB820003EB800010BD73
:1023F000521CD2B29042EFD8002010BD30B50C462E
:1024000015461946FFF7E2FF18B1C0E90045002064
:1024100030BD052030BD70B50446108816460D4607
:10242000022812D314212046FEF73DF82878A07424
:102430006878691CFF280AD02082491C228A481B20
:102440001044328880B282420DD2092070BD30889B
:102450000428FAD3B1F80100C91C40BA2082FF2831
:10246000ECD20B2070BD3080A27C0B20042A0BD054
:10247000052A09D0062AF5D1228A082AF2D1204657
:10248000BDE8704000F018B9228A062AF7D070BD66
:1024900010B50C46024623A1032001F04DF9A27CA1
:1024A000042A05D0052A05D0062A2ED02AA102E04A
:1024B000374900E03749032001F03EF9228A36A16E
:1024C000032001F039F9A28941A1032001F034F978
:1024D0004EA10320A26801F02FF9A27B59A103208D
:1024E00001F02AF9E27B6749032001F025F9206811
:1024F00068B1A2886449032001F01EF9A38863A192
:102500000320226801F0A0F805E06949D3E7694992
:10251000032001F0EBF8BDE810401CA1132001F0EE
:10252000E5B800004E46435F5434545F544C565F48
:10253000424C4F434B5F5041525345523A494E46ED
:102540004F3A25642066696C6520436F6E74726F24
:102550006C20544C560D0A004E46435F5434545F71
:10256000544C565F424C4F434B5F5041525345527F
:102570003A494E464F3A547970653A20556E6B6E23
:102580006F776E2028307825303278290D0A0000C8
:10259000E8530000785400004E46435F5434545FC3
:1025A000544C565F424C4F434B5F5041525345523F
:1025B0003A494E464F3A4C656E6774682028696EFA
:1025C000206279746573293A2025640D0A000000A1
:1025D0004E46435F5434545F544C565F424C4F4315
:1025E0004B5F5041525345523A494E464F3A466925
:1025F0006C65204964656E7469666965723A20305D
:102600007825303458200D0A000000004E46435F04
:102610005434545F544C565F424C4F434B5F5041CF
:10262000525345523A494E464F3A4D6178696D755D
:102630006D2066696C652073697A653A202564208F
:102640000D0A00004E46435F5434545F544C565FAD
:10265000424C4F434B5F5041525345523A494E46CC
:102660004F3A526561642061636365737320636FE1
:102670006E646974696F6E3A203078253032582064
:102680000D0A0000185300005C5300004E46435FE3
:102690005434545F544C565F424C4F434B5F50414F
:1026A000525345523A494E464F3A0D0A0000000037
:1026B0002C540000A453000010B531F8022B4EF248
:1026C000021452BA131B8281A24239D008DCBAB379
:1026D000B2F57C5F34D0521CB2F5804F07D12FE0A9
:1026E000012B2DD003F20313B3F5005F28D0827CB9
:1026F000042A04D0052A0AD0062A23D111E031F891
:10270000022B4FF6FA7352BA8260521F06E031F87C
:10271000022B4FF6FC7352BA8260D21E9A420FD23D
:1027200010E051F8032B12BA11F8013B22F0FF021E
:102730001A438260A2F57F42FF3A12F5803F01D32F
:102740000B2010BD0A7882734978C173002010BD38
:102750000A888088824201D20B207047101A0880B4
:102760000020704710B50446A0F56140C6B003389C
:1027700004D022461149032000F0DEFF1048210A50
:10278000017044703FA8FFF79BFDA4208DF8FD0069
:102790000C20ADF8FE000A4841900220ADF800017F
:1027A0006A4643A93FA8FFF7DEFB044605A11320B4
:1027B00000F09CFF46B0204610BD00002C520000E7
:1027C000740000200D0A000070B5C8B00646002055
:1027D0000C46ADF80C01154632A1032000F086FF2F
:1027E0003FA8FFF76DFDB0208DF8FD00BDF80C018E
:1027F000ADF8FE000220ADF808016A4645A93FA8E1
:10280000FFF7B1FB00284BD143AB2A46214645A830
:10281000FFF7BFFD002843D1208840BA801CADF8E7
:10282000100121E0BDF80C11ADF8FE107389F22BF8
:1028300001D2194600E0F221814204D8F22B01D2E4
:10284000184600E0F220ADF808016A4645A93FA805
:10285000FFF789FB002823D143AB2A46214645A830
:10286000FFF797FD00281BD144A945A8FFF770FF8B
:10287000002815D1BDF810010028D3D1BDF80C01F6
:102880002A4660F30F0216482146008843BA3046B4
:10289000FFF7B4FD044613A1132000F027FF2046E4
:1028A00048B070BD4E46435F5434545F484C5F445B
:1028B0004554454354494F4E5F50524F434544554C
:1028C0005245533A494E464F3A4E4445462052658A
:1028D00061642050726F636564757265200D0A0033
:1028E000740000200D0A000010B5C6B01249032084
:1028F00000F0FCFE3FA8FFF7E3FCA4208DF8FD00EC
:102900004FF48060ADF8FE000C4841900720ADF810
:1029100000014FF48070ADF8080102236A4643A914
:102920003FA8FFF729FB044605A1132000F0DEFEB7
:1029300046B0204610BD0000785200003A4E00001C
:102940000D0A000010B50E2320B119B1022A03D2DE
:102950004FF00903184610BD4FF0000303604360B9
:10296000836003D0A2F102028280816082881144D8
:10297000098849BA01804FF0000010BD10B5044627
:1029800002880CA1032000F0D7FEA06858B113A163
:10299000032000F0ABFEA388A268BDE8104018A198
:1029A000032000F051BEBDE810401BA1032000F041
:1029B0009DBE00004E46435F5434545F4150445521
:1029C0003A494E464F3A522D415044552073746156
:1029D0007475733A20253458200D0A004E46435F23
:1029E0005434545F415044553A494E464F3A522D63
:1029F0004150445520646174613A200D0A00000082
:102A00004E46435F5434545F415044553A494E4614
:102A10004F3A0D0A000000004E46435F5434545FA5
:102A2000415044553A494E464F3A522D4150445533
:102A3000206E6F2064617461206669656C6420702B
:102A4000726573656E742E0D0A000000C20800F0F6
:102A500007030120895C9840084070474FF47A7161
:102A6000484300F047B8000000283ED01F49204AE4
:102A7000096800BF00BF00BF00BF00BF00BF00BFAC
:102A800000BF91422FD000BF00BF00BF00BF00BFFA
:102A900000BF00BF00BF00BF00BF00BF00BF00BF3E
:102AA00000BF00BF00BF00BF00BF00BF00BF00BF2E
:102AB00000BF00BF00BF00BF00BF00BF00BF00BF1E
:102AC00000BF00BF00BF00BF00BF00BF00BF00BF0E
:102AD00000BF00BF00BF00BF00BF00BF00BF00BFFE
:102AE00000BF00BF00BF401EC3D170477800002068
:102AF0000024F40000283ED01F49204A096800BF86
:102B000000BF00BF00BF00BF00BF00BF00BF9142B9
:102B10002FD000BF00BF00BF00BF00BF00BF00BF7D
:102B200000BF00BF00BF00BF00BF00BF00BF00BFAD
:102B300000BF00BF00BF00BF00BF00BF00BF00BF9D
:102B400000BF00BF00BF00BF00BF00BF00BF00BF8D
:102B500000BF00BF00BF00BF00BF00BF00BF00BF7D
:102B600000BF00BF00BF00BF00BF00BF00BF00BF6D
:102B700000BF401EC3D17047780000200024F4003D
:102B800000283ED01F49204A096800BF00BF00BF8F
:102B900000BF00BF00BF00BF00BF91422FD000BFE9
:102BA00000BF00BF00BF00BF00BF00BF00BF00BF2D
:102BB00000BF00BF00BF00BF00BF00BF00BF00BF1D
:102BC00000BF00BF00BF00BF00BF00BF00BF00BF0D
:102BD00000BF00BF00BF00BF00BF00BF00BF00BFFD
:102BE00000BF00BF00BF00BF00BF00BF00BF00BFED
:102BF00000BF00BF00BF00BF00BF00BF00BF401E3E
:102C0000C3D17047780000200024F40000283ED093
:102C10001F49204A096800BF00BF00BF00BF00BFB6
:102C200000BF00BF00BF91422FD000BF00BF00BF58
:102C300000BF00BF00BF00BF00BF00BF00BF00BF9C
:102C400000BF00BF00BF00BF00BF00BF00BF00BF8C
:102C500000BF00BF00BF00BF00BF00BF00BF00BF7C
:102C600000BF00BF00BF00BF00BF00BF00BF00BF6C
:102C700000BF00BF00BF00BF00BF00BF00BF00BF5C
:102C800000BF00BF00BF00BF00BF401EC3D17047E0
:102C9000780000200024F40000283ED01F49204A7C
:102CA000096800BF00BF00BF00BF00BF00BF00BF7A
:102CB00000BF91422FD000BF00BF00BF00BF00BFC8
:102CC00000BF00BF00BF00BF00BF00BF00BF00BF0C
:102CD00000BF00BF00BF00BF00BF00BF00BF00BFFC
:102CE00000BF00BF00BF00BF00BF00BF00BF00BFEC
:102CF00000BF00BF00BF00BF00BF00BF00BF00BFDC
:102D000000BF00BF00BF00BF00BF00BF00BF00BFCB
:102D100000BF00BF00BF401EC3D170477800002035
:102D20000024F40000F01F020121914040098000BE
:102D300000F1E020C0F8801170474907090E002813
:102D400006DA00F00F0202F1E02282F8141D03E01F
:102D500000F1E02282F8001400F01F0201219140EE
:102D60004009800000F1E020C0F88012C0F8001196
:102D70007047000B40B270470121B1EB507F01D189
:102D8000012070470020704701790A4A01EB810158
:102D9000006802EBC1024FF0FF31C0F80813D0F811
:102DA00000120021C0F80012C0F80015012082F8BE
:102DB00022007047E41100200179064A01EB8101ED
:102DC000006802EBC1010522C0F80025022081F84D
:102DD00022007047E411002070B506460D460079C8
:102DE0001F4900EB800001EBC00494F8220008B1F9
:102DF000082070BD0020C4E90023A06084F82500ED
:102E000084F82400A87B84F82700687B10B128464A
:102E100001F050F8296840F20C60890001F1A041EE
:102E2000C1F800076968890001F1A041C1F80007F5
:102E3000D5E900123068C0F80815C0F80C25A9685B
:102E4000C0F82415206828B13068297B000B40B2F7
:102E5000FFF773FF012084F82200002070BD0000FE
:102E6000E41100203EB5074D2C68AD6800948DF844
:102E70000110019202958DF802300022694600F09F
:102E80004BF83EBDC84D00003EB500250095069CA0
:102E90008DF8011002958DF8023001920CB12022BC
:102EA00000E00022694600F037F83EBD10B5034649
:102EB0000079184900EB800001EBC004206860B184
:102EC0001868000B41B201F01F020120904049092F
:102ED000890001F1E021C1F880011846FFF754FF95
:102EE00094F8270088B9196840F20230D1F8081523
:102EF000890001F1A041C1F800071968D1F80C154B
:102F0000890001F1A041C1F80007002084F82200E7
:102F100010BD0000E411002030B40379084C03EB2D
:102F2000830304EBC304930702D030BC0620704730
:102F3000006813460A460146204630BC01F05AB9E3
:102F4000E41100202DE9F04105460079164F904626
:102F500007EB40140E46E07E10B10820BDE8F0817A
:102F6000707F20772846FEF7D9FA5FEA0800606094
:102F70003169216003D0317F2846FEF759FC28795A
:102F800007EB4010007F0028286801D0082100E0EE
:102F90000421C0F800150020E0752076A0750121FD
:102FA000E176A076DAE700000C1200202DE9F04768
:102FB000054600793F4E904606EB40140F46207FB1
:102FC00018B10846FFF7D8FE30B1284600F074F873
:102FD00020B11120BDE8F0871020FBE784F81680AF
:102FE000A7600027A78228794FF0010806EB40145C
:102FF0003E46207F0028286825D04FF49079494626
:1030000000F035FC4FF4AC7A5146286800F02FFCF4
:103010002868A17DA268C0F84425C0F84815286832
:10302000C0F808806068F0B94946286800F01AFCCA
:1030300080465146286800F015FC58EA0001F3D09C
:1030400058BBA7750FE04FF48E7A514600F0FEFB97
:103050002868C0F808802146286801F011F96168E5
:103060004FF4807089B13046B4E75146286800F0CB
:10307000E8FB10B9A08A4845F7D1A08A484505D099
:103080002146286801F0FCF800E08146A08AA17D75
:103090008842EAD3A08A484501D10F26D1E751469C
:1030A000286800F0CEFB0028F9D02868C0F80C8012
:1030B000C7E700000C1200200079044901EB401022
:1030C000807D002800D00120704700000C120020F5
:1030D00070B5044600791149002601EB40152068BF
:1030E0002A7FC0F80065686888B1207901EB40103C
:1030F000007F0028206801D0094901E008498C3987
:10310000C0F808132068FFF734FEFFF70BFE2046D7
:1031100000F0B4FBEE766E6070BD00000C12002073
:103120001003020070B541EA4201DDE904564FF098
:10313000A04441EA830141EA052104EB800041EA11
:103140000641C0F8001770BD70B541EA4201DDE9E3
:1031500004564FF0A04441EA830141EA052104EB03
:10316000800041EA0641C0F8001770BD1CB500217F
:1031700000910B4601220191FFF7E6FF1CBD4FF0C5
:10318000A042002302EB800043EA8101C0F800174F
:1031900070471CB500220B46009211460192FFF7C2
:1031A000D3FF1CBD1CB5002100910B4601220191EB
:1031B0001146FFF7C9FF1CBD4FF0A04202EB800093
:1031C000D0F8002722F44032C0F80027D0F80027BA
:1031D00042EA0141C0F8001770474FF0A0420121B8
:1031E0008140C2F80815704701224FF0A043824089
:1031F00011B1C3F808257047C3F80C2570470000CB
:1032000018B5084B6C4601441B68009306E000BFEC
:1032100054F82030D3F81035401C08C28142F7D84A
:1032200018BD0000C44D0000034908B50844002142
:1032300001600068009008BD0060004002494058ED
:10324000012800D00020704700600040004870470F
:10325000C532000030B5184C054689B0207828B139
:103260006078854202D1002009B030BD2022134988
:103270006846FDF7FFF800208DF814000620009046
:103280000820019005200390072002904FF0EB707A
:1032900006900948001DFFF71BFF0DB1002200E05A
:1032A000074A05486946001DFFF74CFE0028DBD1A0
:1032B000012020706570D6E764000020D44D000026
:1032C000494B00002DE9F04FC1B00D004FF0000157
:1032D00040914D984B991C46174601EB000B01D0CD
:1032E0000A2000E00020804600F048FB00287CD146
:1032F0006E46BCB9409840AA3118284600F0C0FD7F
:10330000002872D03846FDF7D9F8C22800D9C2206B
:10331000054640982A4630443946FDF7ABF84098B8
:10332000284440904FF0200A409901EB08023132C6
:103330000DEB01050DEB0206002002E005F801ABE4
:10334000401C4045FAD300275C4508D305F801AB83
:1033500005F801AB05F801AB06F801AB2DE04B9881
:10336000844202D24A98005D02E0211A4C98405CE7
:103370002B46814602460121880022FA00F000F027
:103380000F00092801D9373000E03030C1F1010CBD
:10339000491E03F80C00EFD29D1C05F801ABFDF7A8
:1033A00065F8016811F8090010F03E0F01D0484699
:1033B00000E02E2006F8010B641C7F1C102FC3D3E5
:1033C0000D2030700A20707085F800A04099684682
:1033D00041444331409100F0D7FA30B100F0CEFAC9
:1033E00018B9002040905C459ED341B02046BDE80E
:1033F000F08F2DE9F043C7B000251C469046894662
:103400004E9F459500F0BAFA00287AD1459805AE4E
:10341000311845AA484600F033FD002835D0072F63
:1034200027D2DFE807F004121B35424F5D0040460B
:10343000FDF744F8054645982918FF2919D8304466
:103440002A464146FDF716F813E045982368C0F573
:10345000807130444246FDF731FB09E0606800901E
:1034600045982368C0F5807130444246FDF726FB3D
:103470000546294645A8FEF7D4F8459978B3B1F535
:10348000807F3ED805A800F07FFA47B0BDE8F08302
:10349000D4E90101CDE9000145982368C0F58071A8
:1034A00030444246FDF70AFBE2E7201D07C88DE8DD
:1034B000070045982368C0F5807130444246FDF707
:1034C000FDFAD5E7201D0FC88DE80F004598236849
:1034D000C0F5807130444246FDF7F0FAC8E710E0CD
:1034E00004F1080001AD0FC885E80F006068009086
:1034F00045982368C0F5807130444246FDF7DEFAF6
:10350000B6E70020C1E7000000487047F333000031
:103510000120FFF79FBE00002DE9F04F87B0FEF7B6
:10352000B9F818B1002007B0BDE8F08F454ED6E9D4
:10353000014704EA070006EB8000A146641CC56849
:103540000CE000BFC5F3891000EB9550044404EA79
:10355000070006EB8000A146C568641CA807F1D0EF
:1035600005F003004FF0000B022805D0AA0A01A8BD
:10357000C5F38313002153E004EA070006EB800043
:1035800004F1010A0AEA0704C268381B80004FEA06
:103590009558001DC5F38913804521D929490C315F
:1035A00038B106EB840400F0FF0CA8EB00000C34EB
:1035B00004E00C46002108F0FF0C0846C0B2CDE93B
:1035C0000210CDE9004CD6F81444C5F3C2005946A8
:1035D000A047404511D108F103080AEB98042AE0FE
:1035E000002106EB84000C300090CDE901810391AD
:1035F000C5F3C200D6F81444EAE760F38F1509EA70
:10360000070006EB8000C56016E000BF04EA070C67
:1036100006EB8C0C491CDCF80CC040F804CB641C95
:103620009942F3D3C5F3C2000093D6F8105401AB0E
:103630005946A84700B17460FEF72CF880F00100ED
:1036400071E700004C1300202DE9F8438946074636
:103650001F4CD81C012101EB90001D469046694685
:10366000A668FDF7E7FF002830D01A48016A00205D
:1036700060F38201009867F3C50100EA060204EBDB
:10368000820265F39F51401CD16000EA060204EB00
:103690008202401CC2F80C900090A1683040091AC8
:1036A0008E00361DB54204EB800002D82A46414602
:1036B00009E0324641460C30FCF7DCFEA81B82B222
:1036C000034808EB06010C30FCF7D4FEBDE8F88394
:1036D0004C130020F44D0000034AFF2393600023A5
:1036E0001360536000F088B84C1300202DE9F843B4
:1036F0000F4F88460446002569462846BE68FDF7F8
:1037000099FF002812D00B480021406861F3820025
:10371000009964F3C50001EA060265F3891007EB1E
:10372000820268F39F20491CD0600091BDE8F883B5
:103730004C130020F44D00002DE9F843124D88464B
:1037400004460127914669463846AE68FDF772FF88
:10375000002817D00D480021806861F3820000998D
:1037600064F3C50001EA060267F3891005EB8202E3
:1037700068F39F20491CD0600091314005EB810126
:10378000C1F80C90BDE8F8834C130020F44D000004
:103790002DE9F84F164C8846064602279A46914670
:1037A00069463846A568FDF745FF00281ED0114838
:1037B000C168002060F38201009866F3C50100EA49
:1037C000050267F3891104EB820268F39F21401C14
:1037D000D16000EA050204EB8202401CC2F80C90A2
:1037E0000090284004EB8000C0F80CA0BDE8F88FE2
:1037F0004C130020F44D0000024A02F5826203C21D
:10380000704700004C13002070B506460020FFF7FB
:1038100021FD040008D1FFF719FD0546FFF774FEEE
:1038200032462946FFF758FF204670BD4058002811
:1038300000D00120704708B5002242504058009047
:1038400008BD4058002800D00120704708B500226C
:1038500042504058009008BDD0F80403084000D002
:10386000012070474058002800D00120704708B55B
:10387000002242504058009008BD000070B5034639
:1038800000791B4901EB40101968027F4FF0FF30AF
:10389000002AD1F80C25D1F81465D1F80855D1F8D3
:1038A000104504D0C1F80C05C1F8140503E0C1F8B7
:1038B0001405C1F80C051968C1F80805C1F8100510
:1038C000501C02D01046FFF751FC701C02D030464D
:1038D000FFF74CFC601C02D02046FFF747FC681C39
:1038E00004D02846BDE87040FFF740BC70BD000022
:1038F0000C12002070B5012670044FF0E021002565
:10390000C1F88001084C4010C4F84803C4F808030B
:1039100066602F20FFF77AF9A660044C2F20A5607F
:10392000FFF774F9A57070BD001001404000002041
:1039300070B50546C87D0C4600284FF484712846B2
:103940000AD0FFF783FFD5F81805627EE168885436
:10395000607E401C607670BDFFF778FFD5F81805D3
:1039600070BD1FB501238DF800308DF8081001924D
:10397000D0E90012684690471FBD00000148FFF7DC
:103980009BBB00006800002070B50D460A4601464A
:1039900001240648FCF76EFDEAB204490448FFF72B
:1039A00005FB00B10024204670BD00004C12002031
:1039B0006800002070B5104D0146284600F0C9FC93
:1039C00004280AD018B10D490320FFF78FFE2846BE
:1039D00000F0FCFC0026EC690AE00949F4E72078D5
:1039E000032804D161886068FEF7D2F80834761C99
:1039F000288CB042F3D870BD00000020C84E0000F3
:103A0000144F000070B5002614460D46102A11D33D
:103A1000C078072801D0062070BD3046FDF7D4FCE1
:103A200010B10323324613E0A87BC00000F110015F
:103A3000A14201D9042070BDC0F3870604240FE021
:103A400005EB84012046FDF7BFFC38B1E31C22469C
:103A500005A10320FFF79CFE032070BD241DE4B2E6
:103A6000B442EDD3002070BD4150503A494E464F0C
:103A70003A4661696C656420746F207265616420E8
:103A8000626C6F636B733A2025642D25640D0A0008
:103A900010B54FF480620549FFF7B4FF002803D149
:103AA0000248FFF787FF002010BD0000CC00002077
:103AB0002DE9F041FEF718FF020001D0264927E06A
:103AC000FEF7F0FB020001D024A121E0304D284692
:103AD000FEF786FB020001D02EA119E000263A4F26
:103AE0002C681DE0A07C042801D0A07BB0B9A0897F
:103AF000FEF738FE020001D034A109E0C6EB062033
:103B0000C119FF222846FEF75FFE020006D03DA144
:103B10000320FFF711FE0320BDE8F0811434761C6A
:103B2000A888B042DED82846FEF7C4FA00262C68E2
:103B30000CE0A07C042801D0206828B1A18820686E
:103B4000891E801CFEF724F81434761CA888B04225
:103B5000EFD80020E0E70000A84F00004150503AA5
:103B6000494E464F3A4572726F7220283078255878
:103B70002920647572696E672043432053656C6524
:103B800063742050726F6365647572652E0D0A0050
:103B9000240000204150503A494E464F3A45727237
:103BA0006F722028307825582920647572696E67F5
:103BB00020434320526561642050726F63656475D1
:103BC00072652E0D0A000000CC0400204150503ACE
:103BD000494E464F3A4572726F7220283078255808
:103BE0002920647572696E67204E444546205365EE
:103BF0006C6563742050726F6365647572652E0D19
:103C00000A0000004150503A494E464F3A45727200
:103C10006F722028307825582920647572696E6784
:103C2000204E44454620526561642050726F6365A2
:103C3000647572652E0D0A001FB541F28831684621
:103C4000FDF742FB10B1052004B010BD6846FDF73A
:103C5000CBFB9DF8020000F041F818B1012809D013
:103C60000620F1E707A10320FFF740FD6846FFF7B4
:103C70000FFFE9E70EA10320FFF738FD6846FFF7C5
:103C800017FFE1E74150503A494E464F3A54797098
:103C90006520322054616720506C6174666F726DCC
:103CA0002064657465637465642E200D0A0000004D
:103CB0004150503A494E464F3A547970652034206D
:103CC00054616720506C6174666F726D2064657416
:103CD00065637465642E200D0A000000C108C907E1
:103CE00003D1C0F34110022800D302207047000026
:103CF0002DE9F84F204C00256846D4E901B6FDF7C0
:103D000031FD8046FDF72CFE0746A946B8F1000FAD
:103D100025D00023009ACC46606819E00768014668
:103D2000974202D9BA1A026014E0C1F800C0D1F873
:103D30000C80D21BC8693B448A46B8F1000F07D0FB
:103D4000F71827F07F47C1E90178CAF81C500D46E3
:103D50000028E3D160602846FDF756FE04E02846BF
:103D6000FDF752FE00B917B15846FDF7A5FC84F8DF
:103D70000390BDE8F88F0000400000200D4B10B507
:103D8000596831B102680C68A24204D8A21A0A60CC
:103D9000C161586010BD0B4603E00B46C969121B98
:103DA00021B10C689442F8D3A41A0C600260C1617E
:103DB000D86110BD400000202DE9F0411F4D6C6816
:103DC000002C38D01E4800270068A968B846401A61
:103DD00020F07F462068B04218D82246361A0744A1
:103DE000E469107C80B182F81080EB684BB1D2E9B5
:103DF0000501984740B113A240F24D11FDF73AFB7F
:103E000002E0D2E905108847002CE3D129786878D0
:103E1000814206D1401CC0B26870022801D185F8E9
:103E2000018006486978183040F82170BDE8F041FB
:103E30001420FCF7BFBCBDE8F0810000400000206A
:103E4000041501402E2E5C2E2E5C2E2E5C2E2E5C38
:103E50002E2E5C2E2E5C636F6D706F6E656E7473AC
:103E60005C6C69627261726965735C74696D6572BC
:103E70005C6170705F74696D65722E630000000094
:103E800010B5144602004FF001000CD0084613682C
:103E900006A24FF48071FCF711FE01462046BDE8F2
:103EA0001040FDF7BEBB0021216010BD5B253038FE
:103EB000645D00002DE9F041044640F20C60216889
:103EC000890001F1A041C1F800076168890001F192
:103ED000A041C1F800072068FFF77FF96068FFF78D
:103EE0007CF9216840F20D60890001F1A041C1F820
:103EF00000076168890001F1A041C1F800070420B2
:103F0000FEF73EFE00274FF0A04601252179D6F8A6
:103F10001005C84010F0010F02D0002F1DD010E096
:103F2000217805FA01F0C6F80C050420FEF728FEFA
:103F30002068FFF752F90420FEF722FE7F1C092FAC
:103F4000E4DB20798540C6F80C550420FEF718FE06
:103F50006068BDE8F041FFF740B9BDE8F081014677
:103F60000320CA0701D04FF402408A0701D548F266
:103F70000120490701D548F2022070472DE9FC5F76
:103F80000C4605461F4693464FF0000A4FF48271D7
:103F90002046FFF750FC4FF492712046FFF74BFC90
:103FA0004FF48E712046FFF746FC4FF48471204693
:103FB000FFF741FC002685F8266085F82360012F75
:103FC0000ED00120C4F80002012020622060286881
:103FD00040B140F28620A860A868C4F804031AE043
:103FE0000220EFE705F1260905F12308CDE9007667
:103FF0005B464A464146204600F024F80028F5D1A9
:1040000095F8230038B1D4F8C404C4F8C40410B13E
:10401000FFF7A5FF82465046BDE8FC9F30B51C78EF
:10402000039D944206D2095DC0F81C151878401C07
:10403000187005E0012115B1C161002030BD41615A
:10404000012030BD2DE9FF4F81B0044608780E9E57
:1040500090460F4618B998F80010B14201D10121DD
:1040600000E0002189464FF48E7B4FF4927160B1DD
:104070002046FFF7E0FB59462046FFF7DCFB4FF4F4
:1040800084712046FFF7D7FB4DE08A462046FFF7B4
:10409000CDFB012540BB59462046FFF7C7FB98B131
:1040A00059462046FFF7C7FB51462046FFF7BEFBA7
:1040B000D0B90F9800904346324620460499FFF746
:1040C000ADFF00283ED02EE04FF4847B59462046B9
:1040D000FFF7ACFB38B359462046FFF7ACFB51461F
:1040E0002046FFF7A3FB30B151462046FFF7A3FB64
:1040F00065613D7017E098F8002004994046B2428F
:1041000011D2D4F818358B540178701E491CC9B2ED
:1041100088F80010814203D10220C4F8000201E0B7
:10412000B14200D02562B9F1000F0ED04FF4827574
:1041300029462046FFF77AFB38B129462046FFF78B
:104140007AFB002005B0BDE8F08F0120FAE72DE9E9
:10415000FC5F0C4605461E4692464FF000094FF4A0
:10416000827120460C9FFFF766FB4FF49271204648
:10417000FFF761FB4FF48E712046FFF75CFB4FF4B5
:1041800084712046FFF757FB0020C4F8000285F831
:10419000260085F8230001202062A06005F1260397
:1041A0009B463246514620460097FFF737FF286866
:1041B00030B140F28620A860A868C4F8040316E075
:1041C00005F1230853465A4641462046CDE900678B
:1041D000FFF738FF0028F5D195F8230038B1D4F85F
:1041E000C404C4F8C40410B1FFF7B9FE81464846C0
:1041F000BDE8FC9FF8B504464FF0FF30C1F8080356
:1042000094F8240020B1A068C1F804031120F8BD7F
:1042100043F38000401C84F82400180701D50620D1
:10422000F8BDA36192E8610004F10C0787E8610022
:10423000907884F820005068E0615078C1F88805D3
:104240001078002501280ED008B9980601D5012064
:1042500000E0002084F82100009093785268204606
:10426000FFF775FF06E084F82150937852682046E6
:10427000FFF784FE21680029D2D184F82450F8BDCC
:1042800070B50C4605464FF48E71FFF7DFFAA18A30
:10429000A068415CA08A401CA082C5F81C1570BDB6
:1042A0001FB500228DF800208DF80810816801915B
:1042B0008275D0E90012684690471FBD0021018435
:1042C000C0F81210C182016041608160C160704716
:1042D0002DE9F0410C780470B1F8012053BA438005
:1042E000CD7805714A68CE7912BA22F0FF023243C6
:1042F00082600E7A06734F7A4773498949BA018200
:10430000D8B284EA132180F088004140C2F307400C
:1043100080EA1260C2F307235840D2B250408D4267
:1043200001D1864203D003490220FFF7DFF90020C4
:10433000BDE8F081F05000004AB1808A0A44103094
:10434000521E824203DA102901D301207047002057
:10435000704738B50D460446FFF7B0FF29462046A2
:10436000FFF7B6FF002805D1287B05F10C02E128F4
:1043700001D00B2038BD50780109A174507800F0AD
:104380000F01E1749078C100A182D0780109A17574
:10439000D07800F00F01E175A07C012801D0062043
:1043A00038BD1020ADF80000A18A80B210318142E2
:1043B0000AD06A462946204600F086FB0028EFD145
:1043C000BDF800000028EFD1002038BD2DE9F041F4
:1043D000044638A10320FFF789F9228C41A103206C
:1043E000FFF7AAF94CA10320FFF780F9227854A126
:1043F0000320FFF7A1F962885FA10320FFF79CF972
:1044000022796BA10320FFF797F977A10320A26817
:10441000FFF792F9227B82A10320FFF78DF9627BDF
:104420008DA10320FFF788F9228A99A10320FFF7C5
:1044300083F9A6A10320FFF759F9A27CB0A10320BC
:10444000FFF77AF9E27CBBA10320FFF775F9A28A96
:10445000C5A10320FFF770F9A27DD0A10320FFF7CB
:104460006BF9E27DDBA10320FFF766F90025022747
:104470002AE2E069E6A110F835200320FFF75CF995
:10448000E06910F83500032810D006DC00280ED0B3
:10449000012808D0022804D107E0FD2808D0FE2812
:1044A00007D0E6A1EFE1EDA1EDE1EBE112E215E2CB
:1044B00012E215E24E46435F5432545F504152536C
:1044C00045523A494E464F3A54797065203220544D
:1044D000616720636F6E74656E74733A0D0A0D0A1E
:1044E000000000004E46435F5432545F5041525327
:1044F00045523A494E464F3A4E756D626572206F8D
:104500006620544C5620626C6F636B733A202564AE
:104510000D0A0D0A000000004E46435F5432545FFE
:104520005041525345523A494E464F3A496E74658E
:10453000726E616C20646174613A0D0A00000000C3
:104540004E46435F5432545F5041525345523A49AC
:104550004E464F3A202020204D616E75666163748F
:10456000757265722049443A20202020202030783E
:10457000253032780D0A00004E46435F5432545FB6
:104580005041525345523A494E464F3A202020203E
:1045900053657269616C206E756D62657220706121
:1045A000727420313A203078253034780D0A0000BA
:1045B0004E46435F5432545F5041525345523A493C
:1045C0004E464F3A20202020436865636B20627975
:1045D000746520303A2020202020202020203078B0
:1045E000253032780D0A00004E46435F5432545F46
:1045F0005041525345523A494E464F3A20202020CE
:1046000053657269616C206E756D626572207061B0
:10461000727420323A2030782530386C780D0A00D8
:104620004E46435F5432545F5041525345523A49CB
:104630004E464F3A20202020436865636B20627904
:10464000746520313A20202020202020202030783E
:10465000253032780D0A00004E46435F5432545FD5
:104660005041525345523A494E464F3A202020205D
:10467000496E7465726E616C20627974653A2020AF
:104680002020202020203078253032780D0A0000AC
:104690004E46435F5432545F5041525345523A495B
:1046A0004E464F3A202020204C6F636B2062797475
:1046B00065733A20202020202020202020203078E0
:1046C000253034780D0A0D0A000000004E46435F85
:1046D0005432545F5041525345523A494E464F3A34
:1046E0004361706162696C69747920436F6E7461B3
:1046F000696E657220646174613A0D0A0000000001
:104700004E46435F5432545F5041525345523A49EA
:104710004E464F3A202020204D616A6F7220766508
:104720007273696F6E206E756D6265723A202564D2
:104730000D0A00004E46435F5432545F50415253BD
:1047400045523A494E464F3A202020204D696E6F1F
:10475000722076657273696F6E206E756D62657218
:104760003A2025640D0A00004E46435F5432545FE0
:104770005041525345523A494E464F3A202020204C
:104780004461746120617265612073697A653A20C1
:1047900020202020202025640D0A00004E46435F83
:1047A0005432545F5041525345523A494E464F3A63
:1047B0002020202052656164206163636573733A31
:1047C0002020202020202020202030782530325822
:1047D0000D0A00004E46435F5432545F504152531D
:1047E00045523A494E464F3A20202020577269746C
:1047F00065206163636573733A20202020202020A8
:1048000020203078253032580D0A0D0A00000000B3
:104810004E46435F5432545F5041525345523A49D9
:104820004E464F3A544C5620626C6F636B20307882
:10483000253032583A200D0A000000004E46435FF2
:104840005432545F5041525345523A494E464F3AC2
:10485000556E6B6E6F776E0D0A0D0A004E46435F04
:104860005432545F5041525345523A494E464F3AA2
:104870004C6F636B20436F6E74726F6C0D0A0D0A80
:104880000000000017A10320FEF730FFE06907EBEE
:10489000C5061EA1825B0320FEF74EFFE069805B28
:1048A00068B124A10320FEF721FFE069042101EB98
:1048B000C501835B425827A10320FEF7C5FE2BA14B
:1048C0000320FEF713FF6D1C208CA8423FF6D1ADEC
:1048D000BDE8F0812CA1D6E735A1D4E73DA1D2E710
:1048E00044A1D0E74E46435F5432545F5041525387
:1048F00045523A494E464F3A4D656D6F72792043A5
:104900006F6E74726F6C0D0A0D0A00004E46435FA5
:104910005432545F5041525345523A494E464F3AF1
:10492000202020204C656E6774683A2025640D0AAB
:10493000000000004E46435F5432545F50415253D2
:1049400045523A494E464F3A202020204461746136
:104950003A0D0A004E46435F5432545F5041525361
:1049600045523A494E464F3A0D0A00004E46435FC3
:104970005432545F5041525345523A494E464F3A91
:104980000D0A0D0A000000004E46435F5432545F8A
:104990005041525345523A494E464F3A4E4445468D
:1049A000204D6573736167650D0A0D0A00000000F4
:1049B0004E46435F5432545F5041525345523A4938
:1049C0004E464F3A50726F70726965746172790D1C
:1049D0000A0D0A004E46435F5432545F5041525311
:1049E00045523A494E464F3A4E756C6C0D0A0D0AC7
:1049F000000000004E46435F5432545F5041525312
:104A000045523A494E464F3A5465726D696E61742B
:104A10006F720D0A0D0A00002DE9F0474FF00009F2
:104A2000C3F800900D46C3F80490144611881E4642
:104A300080460122FFF780FC0B2770B32188685C59
:104A400030702088401C81B221803278032A06D041
:104A500001DC22B91EE0FD2A01D0FE2A1ED040460C
:104A60000122FFF769FCC0B12188685CFF281AD0D9
:104A700070802088401C208072885AB1404621886E
:104A8000FFF75AFC48B1208828447060208871885C
:104A9000084420800020BDE8F08702E0A4F80090E0
:104AA000F8E73846F7E703224046FFF745FC0028C1
:104AB000F7D02188681C0844008840BAFF28F0D34A
:104AC00070802088C01CD6E71CB504466B46FFF7F3
:104AD000A3FF002815D19DF8000002280CD003DCAC
:104AE00030B101280ED107E0FD280BD0FE2809D1F6
:104AF000BDF8021021B905E0BDF80210032901D06C
:104B00000B201CBD032806D001DC20B918E0FD28CD
:104B100001D0FE2814D0208C218B884206D1042499
:104B200008490220FEF7E2FD20461CBDE16901EBC9
:104B3000C000DDE90012C0E90012208C401C208476
:104B400000201CBD9C5000000078012801D10149C3
:104B500088707047640000202DE9FF470C46054629
:104B60004FF40071FEF778FE01274FF4017800261C
:104B700018B34FF4927949462846FEF762FEE0B139
:104B800049462846FEF762FEC5F80883A07E00B9B4
:104B90006F6002208DF80000D5F88004C5F880040D
:104BA0000390E07D8DF80800E0680190E6752676B8
:104BB000D4E900126846904727E004212846FEF712
:104BC0004BFE10B34FF484712846FEF73AFEE0B175
:104BD00021462846FEF7ACFEE07D617E884214D176
:104BE000207E38B1617EE268E0752069E06026765B
:104BF000667607E0A07E00B96F60C5F80883E675A9
:104C0000617EE2682046FEF7ACFE4FF48E784146A6
:104C10002846FEF716FE88B1A08AA17D884204D2FC
:104C200021462846FFF72CFB08E041462846FEF7C0
:104C30000DFEA17D11B12046FFF732FB4FF4A278A3
:104C400041462846FEF7FDFD002812D04146284681
:104C5000FEF7FCFDA07E00B12F60E07D002808D0AB
:104C6000E675617EE26804B02046BDE8F047FEF7D5
:104C700078BEBDE8FF872DE9FF410C464FF49277DF
:104C800005463946FEF7EEFD0026C0B139462846F6
:104C9000FEF7EDFD02208DF80000D5F88004C5F880
:104CA00080040390D5F83C058DF80800E068019079
:104CB000E6752676D4E900126846904724E04FF462
:104CC000887739462846FEF7CDFDE8B139462846B3
:104CD000FEF7CDFDD5F83C05C1B2E07D884213D189
:104CE000207E60B1E268D5F8000220F02000C5F80F
:104CF0000002207EE0752069E060267601E0E6751E
:104D0000E2682046FEF72DFE4FF4A277394628468A
:104D1000FEF7A8FD68B139462846FEF7A8FDE07DFC
:104D200038B1E675D5F83C05E268C1B22046FEF719
:104D300018FE4FF4907631462846FEF793FD002882
:104D40000FD031462846FEF792FDA07D002808D0FE
:104D5000D5F84C0504B0C1B22046BDE8F041FFF7DC
:104D60009FBABDE8FF81000010B5FCF73BFC0020B6
:104D7000FEF74AFD002805D0BDE8104002A25821E8
:104D8000FCF778BB10BD00002E2E5C2E2E5C2E2E64
:104D90005C6D61696E2E6300111213140D0E0F10FD
:104DA0000000FF00FF0000FF06FAD50300300040BE
:104DB000000000001F0000001F000000000040066F
:104DC000070000000000005001000000000000008B
:104DD00000000000FFFFFFFFFFFFFFFFFFFFFFFFDF
:104DE000FFFFFFFF00000000000000000000D601F0
:104DF0000701000029000000010000000100000080
:104E0000010000000100000001000000010000009E
:104E10000100000002000000945000006C500000EF
:104E2000FC4F00001450000030500000885000007B
:104E300054500000605000000000D2760000850150
:104E400001004040404040404040404141414141DC
:104E50004040404040404040404040404040404052
:104E600040400502020202020202020202020202A3
:104E700002022020202020202020202002020202E6
:104E8000020202909090909090101010101010104C
:104E9000101010101010101010101010100202023C
:104EA0000202028888888888880808080808080894
:104EB0000808080808080808080808080802020284
:104EC00002400000424E00004150503A494E464FC9
:104ED0003A4572726F7220647572696E67207061F4
:104EE0007273696E672061207461672E2050726949
:104EF0006E74696E67207768617420636F756C6487
:104F0000277665206265656E20726561642E0D0AE4
:104F10000D0A00004150503A494E464F3A4E6F74C8
:104F200020656E6F756768206D656D6F727920748E
:104F30006F20726561642077686F6C6520746167AB
:104F40002E205072696E74696E67207768617427CD
:104F50007665206265656E20726561642E0D0A0DAE
:104F60000A0000004150503A494E464F3A446563AA
:104F70006C617265642062756666657220666F7228
:104F80002054325420697320746F20736D616C6CEF
:104F900020746F2073746F72652074616720646180
:104FA00074612E0D0A0000004150503A494E464FA0
:104FB0003A4572726F72202830782558292064751E
:104FC00072696E67204E44454620546167204170E7
:104FD000706C69636174696F6E2053656C6563748E
:104FE0002050726F6365647572652E0D0A000000B3
:104FF0004F766572666C6F770D0A00004D656469C7
:10500000612D747970652028524643203230343641
:10501000290D0A004162736F6C7574652055524901
:1050200020285246432033393836290D0A00000023
:105030004E464320466F72756D2065787465726EBA
:10504000616C207479706520284E46432052544488
:10505000290D0A00556E6368616E6765640D0A006C
:1050600052657365727665640D0A00004E464320F2
:10507000466F72756D2077656C6C2D6B6E6F776EF9
:1050800020747970650D0A00556E6B6E6F776E0D2A
:105090000A000000456D7074790D0A004E46435FAA
:1050A0005432545F5041525345523A5741524E493F
:1050B0004E473A5761726E696E6721204E6F7420B9
:1050C000656E6F756768206D656D6F7279202074ED
:1050D0006F20696E7365727420616C6C206F66203E
:1050E00074686520626C6F636B73210D0A000000A9
:1050F0004E46435F5432545F5041525345523A57E3
:1051000041524E494E473A5761726E696E6721208F
:10511000424343206F66207468652073657269613D
:105120006C206E756D626572206973206E6F7420DD
:10513000636F7272656374210D0A00004E46435F0F
:105140005434545F43435F46494C455F504152538A
:1051500045523A494E464F3A4361706162696C6903
:10516000747920436F6E7461696E65722046696C54
:105170006520636F6E74656E743A200D0A0000003E
:105180004E46435F5434545F43435F46494C455F4A
:105190005041525345523A494E464F3A436170612D
:1051A00062696C69747920436F6E7461696E6572AF
:1051B0002046696C6520636F6E7461696E7320258B
:1051C000642046696C6520436F6E74726F6C205466
:1051D0004C5620626C6F636B2873292E0D0A0000F9
:1051E0004E46435F5434545F484C5F4445544543F6
:1051F00054494F4E5F50524F434544555245533AE0
:10520000494E464F3A4361706162696C6974792016
:10521000436F6E7461696E657220526561642050DF
:10522000726F636564757265200D0A004E46435FB8
:105230005434545F484C5F444554454354494F4EA1
:105240005F50524F434544555245533A494E464F9D
:105250003A46696C6520284944203D202534582968
:105260002053656C6563742050726F63656475725A
:1052700065200D0A000000004E46435F5434545F21
:10528000484C5F444554454354494F4E5F50524F3C
:10529000434544555245533A494E464F3A4E44458C
:1052A0004620546167204170706C69636174696F56
:1052B0006E2053656C6563742050726F636564750E
:1052C0007265200D0A0000004E46435F5434545F5F
:1052D000484C5F444554454354494F4E5F50524FEC
:1052E000434544555245533A494E464F3A436170FF
:1052F0006162696C69747920436F6E7461696E656F
:10530000722053656C6563742050726F63656475B9
:105310007265200D0A0000004E46435F5434545F0E
:10532000544C565F424C4F434B5F50415253455291
:105330003A494E464F3A5772697465206163636516
:10534000737320636F6E646974696F6E3A2030788E
:1053500025303278200D0A0D0A0000004E46435FCA
:105360005434545F544C565F424C4F434B5F504152
:10537000525345523A494E464F3A4E4445462066AE
:10538000696C6520636F6E74656E742070726573EE
:10539000656E742E204C656E6774683A2025642013
:1053A0000D0A00004E46435F5434545F544C565F20
:1053B000424C4F434B5F5041525345523A494E463F
:1053C0004F3A4E4445462066696C6520636F6E74A3
:1053D000656E74206973206E6F74207072657365DA
:1053E0006E74200D0A0000004E46435F5434545F33
:1053F000544C565F424C4F434B5F504152534552C1
:105400003A494E464F3A547970653A204E444546E3
:105410002046696C6520436F6E74726F6C20283073
:105420007825303278290D0A000000004E46435F8F
:105430005434545F544C565F424C4F434B5F504181
:10544000525345523A494E464F3A547970653A2084
:10545000457874656E646564204E4445462046690F
:105460006C6520436F6E74726F6C20283078253025
:105470003278290D0A0000004E46435F5434545FD1
:10548000544C565F424C4F434B5F50415253455230
:105490003A494E464F3A547970653A2050726F70CF
:1054A000726965746172792046696C6520436F6E1C
:1054B00074726F6C2028307825303278290D0A00FC
:1054C000E0540000000000207C000000E40A00001E
:1054D0005C5500007C000020EC360000F40A00005F
:1054E00000000000000000000000000000000000BC
:1054F00000000000000000000A0000007C00002006
:1055000000000000C40E002000000A00000000009F
:105510000000000000000000000D0E000000000070
:10552000000000000000000000000000000000007B
:10553000000000000000000000000000000000006B
:1055400000000000000000000020004000000000FB
:0C555000F04F0000000000000090D003AD
:0400000500000401F2
:00000001FF
