:020000040001F9
:10800000583E002089810100A3810100A581010063
:108010000000000000000000000000000000000060
:10802000000000000000000000000000A781010027
:108030000000000000000000A9810100AB810100E8
:10804000AD810100AD81010065880100518601000C
:108050009D86010000000000F1840100AD81010057
:10806000AD810100AD8101002D870100AD810100CE
:10807000AD810100AD810100AD810100AD81010044
:10808000AD81010031860100AD810100AD810100AB
:10809000AD860100AD810100B5860100AD81010012
:1080A000AD810100AD810100000000000000000072
:1080B00000000000000000000000000000000000C0
:1080C0000348854600F0B6F900480047E1C50100C5
:1080D000583E0020401E00BF00BF00BF00BF00BFD1
:1080E00000BF00BF00BF00BF00BF00BF00BFF1D195
:1080F00070470000401E00BF00BF00BF00BF00BFB0
:1081000000BF00BF00BF00BF00BF00BF00BFF1D174
:1081100070470000401E00BF00BF00BF00BF00BF8F
:1081200000BF00BF00BF00BF00BF00BF00BFF1D154
:1081300070470000401E00BF00BF00BF00BF00BF6F
:1081400000BF00BF00BF00BF00BF00BF00BFF1D134
:1081500070470000056885F308884068FF2464B212
:10816000EFF30585002D01D1A646004725460646BA
:1081700021273FBAF0B40024002500260027F0B4E0
:10818000F92040B2004700000321094802680A4371
:108190000260084802680A430260074880470748AF
:1081A0000047FEE7FEE7FEE7FEE7FEE7FEE700002A
:1081B0002405004054050040D9860100C18001001B
:1081C00030B50B46014600202022012409E00D466F
:1081D000D5409D4205D31D469540491B25469540F7
:1081E00040191546521E002DF1DC30BD70B500243B
:1081F0002546002801DA01244042002901DA012540
:108200004942FFF7DDFFAC4200D04042002C00D0D5
:10821000494270BD38B50446C0681821401E484325
:10822000A16840183C214843616840183C214843FC
:108230002168451860690C2148432169401869216B
:10824000C900401A3021FFF7D1FF114A50434219AB
:10825000084600921A2902DB0E49511800910C21A0
:10826000FFF7C4FF0C4A5043009A801800900B4857
:1082700006E0491E425C074B5A43009BD21800920D
:108280000029F6DC2146684600F09AF8009838BDCF
:10829000801F8607805101008033E10100FF01004B
:1082A00003460B439B0703D009E008C9121F08C00F
:1082B000042AFAD203E00B780370401C491C521EBA
:1082C000F9D27047D2B201E00270401C491EFBD2C5
:1082D00070470022F6E710B513460A4604461946D1
:1082E000FFF7F0FF204610BD10B5044605E00B78FF
:1082F0000370401C002B00D0491C521EF7D22046B0
:1083000010BD421C0178401C0029FBD1801A704727
:1083100030B504460020034600E05B1C934203D2C4
:10832000E05CCD5C401BF8D030BD03460A7802709B
:10833000401C491C002AF9D1184670470321001D32
:10834000401E037812021A43491EF9D510467047A1
:10835000F0B51FB40646002082B0054640240191C6
:1083600000901BE0019922460F46304600F084F849
:10837000049A059B801A994110D31046194622464B
:1083800000F06AF8361A8F41019722460120002139
:10839000009F00F061F838184D4100902046641E9F
:1083A0000028DFDC019B00982946324607B0F0BD6B
:1083B00010B5024900F004F810BD00002C36002072
:1083C00070B50C4600683C21FFF7FAFE21603C21A5
:1083D000FFF7F6FE61601821FFF7F2FE0546A16087
:1083E0000721001DFFF7ECFEA1610F48A900081846
:1083F0000E49FFF7E5FE0246443288086261E061FB
:108400003B2802D3910700D0401C0021084B0A46AC
:108410002161995C814203D8401A521C2261F8E71D
:10842000401CE060204670BD6C0B0000B5050000EC
:108430000CFF0100064C0125064E05E0E36807CC61
:108440002B430C3C98471034B442F7D3FFF73CFE63
:10845000BC000200DC00020010B5202A04DB01464B
:10846000203A9140002010BD914020239C1A0346E1
:10847000E3401943904010BD10B5202A04DB0846A4
:10848000203AD040002110BD0B46D340D0402024DC
:10849000A21A91400843194610BD70B58C18057892
:1084A000401C6B075B0F01D10378401C2A1106D1D9
:1084B0000278401C03E006780E70401C491C5B1ECD
:1084C000F9D12B0705D40023521E0DD40B70491C83
:1084D000FAE70378401CCB1A921C03E01D780D705C
:1084E000491C5B1C521EF9D5A142D8D3002070BD97
:1084F000F8B50024FF2501350126274600942846BB
:1085000005F030F8002808D031484068304204D0E7
:10851000304800212818344301602D1D76007F1C4F
:10852000ADB2042FEBD3FF207D3005F01BF80028FF
:1085300007D029480021016040070443274800690B
:108540000090274E200712D00127002527420AD08D
:108550002448AA00111808690969C004C00E8903DB
:10856000B258890F90477F006D1C042DEED3002C6C
:108570001DDA3046203014214156491C17D0077DA2
:10858000BC06A40E204602F015F880003558002DD8
:108590000DD0BE090121A140134AA0008018006837
:1085A000009A8003800F114202D0022802D0F8BD49
:1085B0000328FCD1032E05D1022807D00221204632
:1085C00004F0B0FF31462046A847F8BD0321F6E786
:1085D00000630040006000407C61004000050050E6
:1085E0008C35002000650040000700508307FF2203
:1085F000DB0E9A408907090E994000280BDA000724
:10860000000F0838830808489B001818C369934373
:108610000B43C3617047830804489B001B1818680C
:10862000904308431860704700ED00E000E400E06C
:1086300010B506490020086048608860C86003499A
:1086400040390860486006F065FE10BD40110140E9
:1086500070B5104C0E4D2068002804D1FF200E4943
:10866000CE3001F00FFBFF20093000262E502146AE
:10867000284606F003FF002808D1A079FF2801D082
:1086800004F060FF667121680020884770BD00001B
:1086900000300040C4350020C0FF010010B50021AB
:1086A000014804F05BFE10BD0040004010B506F02C
:1086B000C7FD10BD10B507484068002807D08047A7
:1086C000002803D00022114600F0C6FF10BD03F0C1
:1086D0007FFD10BDF827002010B503F0E3FD002852
:1086E00005D00E490C484860C8130D4988610D48F3
:1086F000018CC9B201290ED1818C09070BD1018DE2
:108700000906090F042906D1808D0006000F02D149
:1087100005490120886010BDDFFF07C0000500404B
:10872000006C0040C00F00F000060040F0B53B496F
:108730008BB0002008603A4D064604460620604390
:108740004719FF374137295D387E002930D080072F
:108750002ED060004019FF3081300190C1880A316D
:1087600009B2C1801A20385E814221DB081A01B2A9
:108770002C4AA0001058426908A89047020017D060
:108780000198798BC0880126401A0199C8806846F3
:108790000472427208A90A30FFF782FD02A922483A
:1087A00000F0D6FF002803D00022114600F054FF4D
:1087B000641C072CC2DB00206946087002F04EFAE8
:1087C0000446012809D0684636DF02280CD000286C
:1087D00003D00022114600F03FFF002E0DD01348B9
:1087E000C178002902D008E072B6F6E70121C17015
:1087F00000210F4A084601F0B7F8012C0BD062B6F1
:108800006846007837DF022805D0002803D0002210
:10881000114600F021FF0BB0F0BD000040A1004068
:10882000682F00209C26002010FD0100E830002069
:1088300075E2010008B50023009313460A4601467D
:10884000014804F0FDFD08BDC426002008B50093D2
:1088500013460A460146024804F0FAFD08BD00002E
:10886000C4260020F0B53C4D012185B049022846C0
:1088700004F08CFE01270026384C002823D0FF216D
:108880002531284604F07DFE00281CD0FF2025302D
:108890002E508120324980008860607D002800D100
:1088A0006F600221684601702E49086808600390D5
:1088B000E17C68460172E0680190E67406CC684687
:1088C000083C90471DE00421284604F05FFE002884
:1088D00017D0FF210931284604F053FE002810D09C
:1088E00005F062FCE07C217D88420AD1607D002891
:1088F00000D16F6081201A4980008860207D05F0DA
:1089000083FCFF211D31284604F03BFE00280DD0DA
:10891000A07C218A884202D906F042FF06E0FF21AE
:108920001D316E50002801D006F062FFFF21453155
:10893000284604F026FE00280CD0FF2045302E509B
:10894000607D002800D02F60E07C002802D0207DD0
:1089500005F05AFC05B0F0BD00200040F4350020C1
:1089600000230040802400400FB410B504A9074B39
:1089700002AA039800F058F8044602A9002000F06B
:108980008DFA204610BC08BC04B018479D8E01002B
:1089900030B47446641E2578641CAB4200D21D4678
:1089A000635D5B00E31830BC184702E008C8121F83
:1089B00008C1002AFAD170477047002001E001C1C8
:1089C000121F002AFBD1704710B5154C00290FD09B
:1089D000012006F09FF8012100220904206801F01F
:1089E000E9F8002803D00022114600F035FE10BD42
:1089F000206801F01DF90B480078012804D00328F5
:108A000004D0052805D108E0022000E0042006F08B
:108A100081F8002006F07EF810BD0620F7E7000080
:108A200000FE0100E4260020FFB591B00F46054688
:108A3000002606E025280AD0149A139990476D1C49
:108A4000761C28780028F5D1304615B0F0BD0024FA
:108A500000940121F34A029400E004436D1C2B783A
:108A60000846203B98401042F7D128782A280ED09B
:108A7000022128780246303A092A15D8009A0A239A
:108A80005A43303A80180C436D1C0090F1E701CF37
:108A90000090002805DA012040030443009840427A
:108AA0000090022004436D1C28782E2815D1042044
:108AB000044368786D1C2A280AD101CF6D1C0290EE
:108AC0000BE002990A225143303940186D1C029084
:108AD0002878014630390929F3D928786C2810D034
:108AE00006DC4C281AD068280ED06A2817D104E07A
:108AF000742813D07A2812D110E0012040050443D5
:108B00000CE00121090501E0032109050C43697806
:108B1000814203D10120000524186D1C6D1C2878AA
:108B200003906E281ED00CDC632831D004DC0028B2
:108B30008AD0582811D1B2E064287BD069280CD1A2
:108B400078E073282DD004DC6F2870D0702804D111
:108B5000A7E075286CD078286BD0149A13999047A9
:108B6000761C62E06002400F022807D003280AD07A
:108B7000042838680AD006603F1D56E03868F117AF
:108B800006604160F8E738680680F5E70670F3E7AD
:108B90003878694608740020487404A803900120BE
:108BA00003E0386803900020C0433F1D61070FD5E4
:108BB000002101E00199491C029A0191914213DAC6
:108BC0008142F7DB019A0399895C0029F2D10BE01D
:108BD000002101E00199491C01918142FADB019ACF
:108BE0000399895C0029F5D101990098139A401ADC
:108BF00000902146149B00F03BF90199801946181A
:108C000007E0039803990078491C0391149A13997B
:108C100090470198401E0190401CF2D12146149BC0
:108C2000139A009800F014F986196D1C09E741E0C9
:108C300033E034E00A200021049005916002410FE6
:108C4000022905D001CFC2179446032905D007E0B9
:108C5000FF1DFF08FF0003CF06E000B2C2179446D5
:108C6000042902D140B2C1178C46002261469445C6
:108C700006DA0A460021404291418C462D2102E04D
:108C8000210504D52B216A461176012103E0E10775
:108C900001D02021F7E7019154E00A200BE01020D9
:108CA00009E01020049000210420044308200591CD
:108CB000029003E008200021059104906002410F1A
:108CC000022905D001CF00229446032906D006E0F0
:108CD000FF1DFF08FF0003CF8C4603E080B204298C
:108CE00000D1C0B20021019121072BD50399702931
:108CF00006D0049A1021059B4A401A4305D00EE085
:108D000040216A461176012108E06146014306D000
:108D100030216A4611760399517602210191049A15
:108D20000821059B4A401A430CD16146014301D1F9
:108D3000610707D530216A46117601210191029918
:108D4000491E02910399582904D037A103910FA914
:108D50000F910DE039A1F9E76146059B049AFFF7F1
:108D6000F7FA039B8C469B5C0F9A521E0F9213706E
:108D700061460143F0D10F9807A9081A20300390EB
:108D8000600704D5012000048443029801E001201B
:108D900002900399884201DD401A00E0002041184A
:108DA0000290019809180098401A0090E00306D438
:108DB0002146149B139A009800F05AF88619002057
:108DC000049008E006A9085C149A13999047049847
:108DD000401C761C049001998842F3DBE0030CD51B
:108DE0002146149B139A009800F042F8861904E07B
:108DF000149A302013999047761C0299481E0290CD
:108E00000029F5DC08E00F980F990078491C0F91B4
:108E1000149A13999047761C0399481E03900029D1
:108E2000F1DCFBE6092801003031323334353637C6
:108E300038396162636465660000000030313233A6
:108E40003435363738394142434445460000000046
:108E5000F8B5044600251E461746880404D405E0EC
:108E600039462020B0476D1C641EF9D52846F8BD50
:108E7000FFB50446002581B01E46C80301D5302742
:108E800000E02027880404D505E038460399B04760
:108E90006D1C641EF9D5284605B0F0BD0A68531C48
:108EA0000B60107070470000407918214843024958
:108EB0004018012181717047DC350020F0B589B080
:108EC00004463A49684681838477394A07A90120D4
:108ED000A0DF002803D00022114600F0BDFB1C21BA
:108EE0006846FFF7F6F9684684700022C27431497B
:108EF000018001248480417B0A252943EF273940E2
:108F000041738273C27304744474294E827430882E
:108F1000B21C694601F0A6FB002803D000221146CE
:108F200000F09AFB23496846491C01800721818093
:108F3000417B02200143F7200140394068464173DC
:108F400084730025C573057304744574184A8574C9
:108F500030880A32694601F085FB002803D00022E0
:108F6000114600F079FB13496846891C01801421E1
:108F70008180417B02200143F7200140394068464F
:108F800041738473C573057304744574084A85740A
:108F900030881232694601F065FB002803D00022B8
:108FA000114600F059FB09B0F0BD0000012000009F
:108FB000362D002010700000F0B589B00446012164
:108FC0004903684681838477694A07A90120A0DFA5
:108FD000002803D00022114600F03EFB1C21684609
:108FE000FFF777F96846847000250721C5740903E7
:108FF000018001248480417B0227394318200143EA
:109000006846417305738473C57304744474584A85
:10901000847410886946921C01F024FB002803D058
:109020000022114600F018FB5249684601808480F6
:10903000417BF720394301401020014368464173CA
:1090400005738573C5734A4E04744574847432463F
:1090500030881232694601F005FB002803D0002257
:10906000114600F0F9FA43496846491E01808480A0
:10907000417BF7203943014010200143684641738A
:1090800005738573C57304744574394A84743088D4
:109090000A32694601F0E6FA002803D000221146A0
:1090A00000F0DAFA33496846491C018007218180C3
:1090B000417B0220014308273943EF2001406846E5
:1090C000417305738473C5730474447485742848AC
:1090D000274A00881A32694601F0C4FA002803D0F2
:1090E0000022114600F0B8FA22496846891C018026
:1090F00014218180417B022631433943EF20014016
:109100006846417304738473C5730474447485742E
:109110001748174A00882232694601F0A3FA00284E
:1091200003D00022114600F097FA12496846C91C84
:10913000018014218180417BEF203143394301407C
:109140006846417304738473C573047444748574EE
:109150000748074A00882A32694601F083FA002846
:1091600003D00022114600F077FA09B0F0BD0000EC
:10917000542D002002700000F0B507460D4604464D
:109180002037B87B21210902411889B06846018047
:109190008570A21C69460120A0DF002803D00022B0
:1091A000114600F059FA1C2101A8FFF792F8684611
:1091B00085710025C575B87B712109024118684683
:1091C000818005210181417C0A200143EF2001407B
:1091D00068464174057401268674C6740675467522
:1091E00085756088221D01A901F03CFA002803D092
:1091F0000022114600F030FAB97B392040020918EC
:109200006846818014210181417CF52001401020B5
:1092100001436846417406748574C57405754575C7
:109220008675224660880C3201A901F01BFA0028DD
:1092300003D00022114600F00FFAB87B7321090217
:1092400041186846818007210181417CFD20014051
:1092500008200143EF20014068464174057485747D
:10926000C67405754675857522466088143201A955
:1092700001F0F8F9002803D00022114600F0ECF9C3
:10928000B87B75210902411868468180142101814B
:10929000417CF5200140102001436846417406746A
:1092A0008574C574057545758675224660882432B7
:1092B00001A901F0D7F9002803D00022114600F0DF
:1092C000CBF9B87B1D2189024118684681801121A4
:1092D0000181417C02200143E7200140684641743E
:1092E00005748674C5740675457585752246608853
:1092F0001C3201A901F0B6F9002803D00022114662
:1093000000F0AAF909B0F0BD10B541791822514317
:10931000134A0B2489180368E401CA791B199A605F
:1093200002680123136208220A74FF221D324A8256
:10933000036800249C5042790A4B92009A58091DF8
:10934000002A0AD00368032424021B190A699A60C0
:1093500080220A61016809194A6006F059FA10BDB5
:10936000DC35002094270020F7B584B0002516884E
:1093700007461580406B1446002813D003780598E3
:10938000032E51D30221017021881122491C89B278
:10939000218042542188491C89B22180435420886D
:1093A000401C2080386B00281DD005462088059978
:1093B00002461232B24237D811220A5420881022B3
:1093C000401C80B220800A542088401C20800F203E
:1093D0002A5C2388401ECA54228840B2521C228034
:1093E0000028F5DA0025384620300290807B0028DE
:1093F00006D033462246059902F0A0FF050014D19D
:109400000298407B002806D032462146059800F09D
:10941000BEFF050009D1B878002823D005988646FC
:109420002088001DB04202D90C2007B0F0BD68466C
:1094300079DF0028F9D12188032072465054208812
:109440001921401C80B22080115420887146401C94
:1094500080B2208041186846008806F039FA2188D9
:1094600040182080F878002817D0218803230A4666
:10947000FB56C91C0598B142D6D8022181542188D7
:109480000122491C89B2218042542188491C89B299
:10949000218043542088401C20807868002817D001
:1094A00021880023C3560A46C91C0598B142BBD87F
:1094B0000221815421880A22491C89B22180425408
:1094C0002188491C89B2218043542088401C208077
:1094D000388900280AD000943846019606220221D5
:1094E0000830059B06F08DFA05009ED1388A0028C9
:1094F0000AD0009438460196072203211030059BBC
:1095000006F07FFA050090D1388B00280AD000942D
:1095100038460196152214211830059B06F071FA81
:10952000050082D1386A002806D0334622460599C4
:1095300001F0CAFA0500D8D1786A002806D033466F
:109540002246059903F02CF90500CED10298007B44
:10955000002807D0334622463846059905F092FA8E
:109560000500C2D13878002807D033462246384655
:10957000059903F045FA0500B7D1284655E70000E4
:1095800070B50B4D6868002803D10AA1A12000F036
:1095900079FB002406E06968E000085C012103F023
:1095A00061FB641C28788442F5D3002070BD000064
:1095B000B42700205254455C6E52465F4C6962727B
:1095C00061726965735C6E524635313832325F784C
:1095D0007841415C6170705F627574746F6E2E6368
:1095E00000000000F8B515460C460646052A01D2D3
:1095F0000720F8BD03F030FC002803D103F002FC83
:109600000028F6D1104900204E600C70C8608D60B3
:1096100008610E4D0DE0E0006968801900918178C5
:109620006A46517000780A4A694603F07DFB0028BB
:10963000DFD12046641EE4B20028ECD1054A0021A7
:10964000024800F03FFAF8BDB4270020F8FE010000
:1096500071B80100B1AD010010B5C82003F0B8FA2F
:1096600035DF10BD014B1B68184700008434002013
:1096700013B501A97DDF002803D000221146FFF7B2
:10968000EBFF684680881CBD10B502880E49102A81
:1096900010D0112A10D008460088392A10D0552A37
:1096A00007D1132176DF002803D000221146FFF7EF
:1096B000D3FF10BD808801E00020C043088010BDAA
:1096C000132176DFEFE700008C26002070470000B2
:1096D00038B50C46054618211348FEF7FAFD172C3D
:1096E00000D31724224629460F48FEF7FDFD00232C
:1096F00018220D490D4804F0A3FB002803D00022D6
:109700001146FFF7A9FF6946112008700648FEF7C9
:10971000F8FD82B2044968467CDF002803D00022AD
:109720001146FFF799FF38BDD42C00209026002069
:10973000426800211170426851704268917040681F
:10974000C1700846704708B56A4600F011F808BDB8
:1097500070B50D46040003D10449322000F092FA9E
:1097600022892946204600F055F870BD68000200A5
:10977000F7B588B0040003D125496D2000F082FAC6
:109780000998002803D122496E2000F07BFA206856
:1097900000902589A07A02900026694667680E73BA
:1097A00001F07EFA0446012809D003A836DF02281A
:1097B0002AD0002803D000221146FFF74DFFB878C9
:1097C000002823D038782D1D009968434518384665
:1097D000029901F0C5FA2888291D82B20A980280F0
:1097E0000998FEF75DFD012C0BD062B66846007B40
:1097F00037DF022805D0002803D000221146FFF7EA
:109800002BFF30460BB0F0BD72B6D8E70426EAE76E
:1098100068000200F7B584B004460598002803D11B
:109820002C49382000F02EFA002C03D12949392088
:1098300000F028FA20680290A57A208901906468D7
:1098400000206946087001F02BFA0646012809D06D
:10985000684636DF022811D0002803D000221146C6
:10986000FFF7FAFEA078A8420CD1E078002807D0D4
:109870002946204601F074FA042704E072B6F1E7A5
:10988000042715E0002701986178001D4843029ADB
:10989000491C8018A278C9B2521CA270A94200D1FA
:1098A00000216170069902C0069A0599FEF7F8FC3E
:1098B000012E0BD062B66846007837DF022805D04B
:1098C000002803D000221146FFF7C6FE384607B035
:1098D000F0BD00006800020038B50C46A2680C23F9
:1098E0005A43064B09789D58054A126A009202466F
:1098F000204608302369A84738BD00007435002091
:109900007027002010B5064914230A785A435118CD
:10991000091DFFF7E1FF042005F03AFA10BD000031
:10992000A834002070B50F4B05241D785E78AE4238
:1099300015D01D781C789E88B44201DA641C00E0C2
:1099400000241C705C88DE686C43A41904609B686A
:10995000E800C418A4880C80185800241060204621
:1099600070BD0000C8270020F7B53B4C82B060886E
:109970000F4681426ED80020694608703849374E3C
:109980004868C005C00D18D0103840B2002807DA6A
:109990000207120F083A920892005118C96904E0B0
:1099A0008108304A8900891809688007C00EC140C3
:1099B0000806850F012D01D10AE00425684636DF2F
:1099C00002280CD0002803D000221146FFF744FEE5
:1099D00022786078A188884203DA401C02E072B6DF
:1099E000F6E70020C0B2904207D0667860788842DF
:1099F00001DA401C00E000206070012D0BD062B63F
:109A00006846007837DF022805D0002803D00022FE
:109A10001146FFF721FE1148864219D0A068F500D3
:109A200004994151029900290CD0002F0AD0608876
:109A30003A464643E0683018FEF732FCA068281822
:109A4000878002E0002128188180002005B0F0BD49
:109A50000420FBE70920F9E7C8270020FFFF0000EA
:109A600000ED00E000E400E00EB504E06846818807
:109A7000029A0098904702AA01A96846FFF752FF90
:109A80000028F3D00EBD000030B5CB0008339DB2E6
:109A900093070024002B01D0072030BD044B9A60AF
:109AA0005219DA605C701C7058809980002030BDBB
:109AB000C827002002494968016000207047000063
:109AC00000150140094B9B68002B07D0002A07D0E6
:109AD000002805D00068037C002B03D008207047C5
:109AE000072070474174426100207047D82700204A
:109AF00010B50446082904D0002211461046FFF78D
:109B0000ABFD21686068884710BD00001CB501915D
:109B10000090034A08216846FFF726FF1CBD00009D
:109B2000F19A0100FFB59007002581B014460E465A
:109B3000002832D11B4F002C31D004F0DFFA0498FA
:109B400078610320387033461821224600204B43A9
:109B5000BC601834C10089180D704D708E704C6057
:109B60001C19401C0328F5DBFD607D7001240E48A4
:109B7000BD702405046003211420FEF737FD0B4857
:109B800004600B4C0198A06003211120FEF72EFD0C
:109B900060683861002005B0F0BD0720FBE7BD60BC
:109BA000FBE70000D827002080E200E000E100E0B1
:109BB00000150140FEB50D461B491746896804464D
:109BC00000292AD0002C28D0052D01D20720FEBD67
:109BD0006069002821D0607C012820D0002605F093
:109BE000D3FEC0001049019089684018694605F00D
:109BF000F5FE002815D0012101700C494460496828
:109C00000830E2C008490198896841186846007820
:109C1000487005F057FB0020FEBD0820FEBD2E4613
:109C2000DDE70420FEBD0000D8270020001501401C
:109C3000F8B5134D0446A96800291CD0002C1AD091
:109C40006069002817D00026267405F09DFEC70025
:109C5000A8686946381805F0C1FE00280DD0022119
:109C600001704460A868391868460078487005F0AB
:109C700029FB3046F8BD0820F8BD0420F8BD0000DF
:109C8000D827002010B5C82002F0A2FF35DF10BD94
:109C90003EB50E480178002916D10121017000243B
:109CA0000A4669466B20009405F0E8FF012201A9ED
:109CB0006C20019405F0E2FF05A0006802900122EB
:109CC00002A90A2005F0CAFF3EBD0000CC260020F4
:109CD00016000000F0B50546007D002493B00E4646
:109CE00000280DD00120014668461031039401730D
:109CF000717B4173817BF92001406846891C817327
:109D00001C2104A8FEF7E5FA6946087C02210843F5
:109D1000694608742A7DEF21002A02D010221043E0
:109D200000E008406A461074059407940894287D62
:109D3000002800D003A8099001270A9410469771C3
:109D4000304A82800094B27B0270F27B427080784D
:109D5000F9221040F722801C1040EF2108404108F2
:109D6000490068468170317B017214210BA8FEF70F
:109D7000B0FA01A80B9068460C908786C4860787C6
:109D800002A80F90A888AB1D0BAA04A9A2DF002887
:109D900035D1B068002830D0684687711A49818073
:109DA0000094317C01700020014668464170807843
:109DB000F9210840F721801C0840EF2108404108A4
:109DC00049006846817011A8B16800F0B8FB0646EA
:109DD00014210BA8FEF77DFA01A80B9068460C90A1
:109DE0008686C486068711A80F902A46E8880E3218
:109DF0000BA9A3DF002802D100E0EC81002013B002
:109E0000F0BD0000192A00000829000010B501F07B
:109E1000F9FB04460C480D49408A88420ED0214681
:109E2000094800F027FA002808D00949884205D0DF
:109E3000082803D000221146FFF70EFC002C02D1A7
:109E4000202004F059FD10BD0C2D0020FFFF000064
:109E500002300000F0B50C4693B01F216A46118015
:109E6000072600279180002809D0C17849070DD521
:109E700002A9FFF779FA002809D102AD01E0002517
:109E80001780002C0ED0E078002802D0304613B0A6
:109E9000F0BD01AA0AA92046FFF766FA0028F6D10C
:109EA0000AAA02E068460022878068468088C3B21A
:109EB00068460088C1B2284672DFE8E770B50D46F3
:109EC00004991646040042D0002E40D04248002299
:109ED0004271C3600161242231464048FEF7E0F937
:109EE00000F0D0F83D493431084610380160203187
:109EF000816038215C38FEF7ECF938482178383831
:109F00000170A1788170E178C170617841706269F7
:109F1000216942610161E268A168C2608160014615
:109F2000E369A269CB618A61616A002919D001469F
:109F3000AC310246B83241628A60636A1B880B808A
:109F4000616A436A898899800021436A06E00E208D
:109F500070BD666AB668765C5654491C9E888E420F
:109F6000F7D8A16A00291CD01C4AAC3211460C3922
:109F70008A608162A36A9B888B80A16A836A098850
:109F800019800021836A04E0A66AB668765C56549C
:109F9000491C9E888E42F7D82C210A5D0F4918393A
:109FA0000A73216A002909D00B4914310162226A1F
:109FB00052884A80216A026A0988118061680029F2
:109FC00004D00549891D4160616841600348294604
:109FD0003838FFF73FFF70BDF426002050330020D3
:109FE00010B502881A4C102A17D00021112A17D058
:109FF000192A11D1807900280ED1607901281BD04F
:10A0000002281FD003281FD0042805D12171E2683F
:10A010000846002A00D0904710BD8088208110BDDE
:10A020006170808821898842F9D1012005E0216989
:10A030000029F4D0884710BD022000F02BF800283A
:10A04000F5D110BD0320F8E7032020710420F4E7C8
:10A05000F426002010B5022801D003280ED1084CA8
:10A06000207800280AD000202070607900F012F8D3
:10A07000002803D02169002900D0884710BD0000C6
:10A08000F426002010B507210148FEF722F910BD83
:10A090000C270020F0B5754C87B06071002606A82B
:10A0A000069603F0CFFC0127082806D000286FD1C0
:10A0B0000698002802D02770D4E00696FFF7E2FF4A
:10A0C0006B4D6878002802D06079012805D0A87807
:10A0D00000280AD06079022807D1E168002903D05E
:10A0E000E7700820884700E0E6706079012808D111
:10A0F0006878002809D05D48193003F02FFC00284B
:10A1000003D06079022802D00CE002206071A878A8
:10A11000002805D05548193003F020FC002801D153
:10A1200003206071287B002804D16079032801D1C5
:10A1300004206071287E002804D16079042801D1B0
:10A1400066712671E16800290AD06079032801D080
:10A15000042805D12878002802D06078002818D07B
:10A16000A67018216846FEF7B4F868460670019696
:10A1700006720396607901280FD0022816D03C4E53
:10A18000243637465C3F03281CD004285ED13BE0D0
:10A1900069E0A77007208847E3E73448183001904A
:10A1A0006846077046820682277152E02F481830B1
:10A1B00001906846077029894182A988018202209E
:10A1C000207146E0A88A69464882288A0882284881
:10A1D000243005F09BFC002805D02878002802D008
:10A1E0006078002801D003202FE002206946087221
:10A1F00004200396F8701E4800213838FFF72AFE25
:10A20000002830D1052020E0A88B69460882288CE0
:10A2100048821748243005F079FC002805D02878BA
:10A22000002802D06078002801D004200DE0022030
:10A230006946087204200396F8700D4800213838EA
:10A24000FFF708FE00280ED1062020716079002853
:10A2500003D0684673DF002805D1E168002901D0EA
:10A2600020798847002007B0F0BD0000F4260020C8
:10A270005033002073B586B004002FD06A46217C8D
:10A28000127F0020914227D00025012668460095C4
:10A290000680458007A80190E188608A6A46A4DFAD
:10A2A000002819D16846007F2074608A0D498842D1
:10A2B00016D0207D002813D00295039504950595AE
:10A2C000E188684601818672418881810490019805
:10A2D0000590608A02A9A6DF08B070BD0E20FBE7DA
:10A2E0000820F9E7FFFF000038B50D4604001AD03A
:10A2F000002D18D0286820600020C0436082287993
:10A300002075FF2020740121684681700749018073
:10A31000221D69460120A0DF002803D129462046DE
:10A32000FFF7D8FC38BD0E2038BD00000F18000024
:10A3300038B5002824D0002922D00A88102A1AD043
:10A34000112A1AD0502A1BD1027D002A18D0CA889F
:10A350004389891D9A4213D10A8B022A10D10268BF
:10A36000002A0DD0CB7E8C7E19022143C907C90F6C
:10A3700007D0002106E0898801E00021C94341821D
:10A3800038BD01216B4619706946904738BD7CB5D0
:10A39000054608880C460930904201D90C207CBD46
:10A3A000684671DF0028FAD1218808206854208887
:10A3B0001B21401C80B220802954208800A9401C09
:10A3C00080B22080401906220131FDF769FF208804
:10A3D0006946801D80B220800978002900D00121C3
:10A3E00029542088401C208000207CBD7FB5044675
:10A3F0000121684681714A4981804A4A01A90120A8
:10A40000A0DF00287ED1228825463C35002A09D0CD
:10A4100044482B46801C00904348616800F0D2F805
:10A4200000287BD12289002A0AD03E482B460A30D8
:10A4300000903D48E168401F00F0C4F800286DD14D
:10A44000228A002A0AD037482B461230009036481C
:10A450006169001F00F0B6F800285FD1228B002A46
:10A460000AD030482B461A3000902F48E169801EF0
:10A4700000F0A8F8002851D1228C002A0AD02948DF
:10A480002B46223000902848616AC01E00F09AF8DE
:10A49000002843D1228D002A0AD022482B462A3098
:10A4A00000902148E16A401E00F08CF8002835D168
:10A4B000216B00290ED002A804F068FE19482B4633
:10A4C000323000901848082202A9801F00F07AF864
:10A4D000002823D1606B00280BD012492B463A315B
:10A4E0000091027901681048401C00F06BF80028C8
:10A4F00014D1A16B002910D002A803F083FA0948F7
:10A50000423000E00AE0009007482B46072202A9EB
:10A51000273000F057F8002800D1002004B070BDAB
:10A520000A18000014270020292A000070B50446EC
:10A530000D460846FDF7E5FE2080656070BD0A788F
:10A540000270497841700220704710B5FDF702FE95
:10A5500010BD00000022D243830004490428CA50E1
:10A5600002D3081820300274704700008C35002098
:10A57000F0B50025ED43002A02D00023042601E0B7
:10A58000042305260A4C04E09F00E7597F1C04D0F1
:10A590005B1CB342F8D32846F0BD5DB22618357572
:10A5A0009E00A151002AF6D1E11820310874F2E78B
:10A5B0008C35002002490918142008567047000005
:10A5C0008C350020FFB58FB01E4615460F0004D114
:10A5D000002211461046FFF73FF8002D04D100225B
:10A5E00011461046FFF738F81C216846FDF771FE4A
:10A5F00068460178022001436846017000240194F6
:10A60000039404940594012108A806948170684677
:10A610000F99018407943178017771784177807FB1
:10A62000F9210840F721801C0840EF21084041082B
:10A63000490068468177142109A8FDF74AFE08A859
:10A64000099007A80A9068468585C4850586044850
:10A650000D9709AA69460088189BA2DF13B0F0BDC8
:10A6600014270020F7B58878012592B00C46002801
:10A6700017D008A98877208869468887002607961A
:10A68000207C07A904F06DFB07A9607C013104F070
:10A6900068FBA07B00286846807F05D0082108431E
:10A6A00004E008A88577E6E7F7210840694688773F
:10A6B000E17B002902D01021084301E0EF2108408E
:10A6C00069468877217B002901D0284301E04008B2
:10A6D000400069468877F927E17C3840002901D09D
:10A6E000022100E0012149000843694688771C21C6
:10A6F0006846FDF7EEFD607BC10601D4800610D5EB
:10A700000E960EA9A07C013104F02BFB012001461E
:10A7100008A810310176817E3940891C81760EA807
:10A720000590617B68460170142109A8FDF7D1FDF1
:10A730000FA8099007A80A90A18868460186A0681A
:10A74000002804D0E08869468885A0680D9060697B
:10A75000002844D00896018868460181606908AEE7
:10A76000418868464181606908A940680496019063
:10A770006069007B04F0F5FA6069711C407B04F0AD
:10A78000F0FA6069807A002808A8807802D0082151
:10A79000084301E0F721084008A988706169C97A77
:10A7A000002902D01021084301E0EF21084008A948
:10A7B00088706169097A002901D0284301E04008C6
:10A7C000400008A9887061693840897B002901D060
:10A7D000022100E001214900084308A98870A0690E
:10A7E000002800D0039009AA6946149B1298A2DFA2
:10A7F00015B0F0BDF8B53E481422017851430C184D
:10A80000E0680C2148433A492769CC314018058952
:10A8100041890091241D466803F0BAF90146384683
:10A82000FDF7CEFC002932D000200099A2884D43CC
:10A830006188AE198918CD1900222E4900280A61B5
:10A8400009D003F0A5F96188884222D0B54202D12F
:10A85000A08800281DD0A06803281AD003F098F91A
:10A86000A188CA1901461046FDF7AAFC214C8808A8
:10A87000E06003F08DF901462846FDF7A1FC0029B0
:10A8800011D00020B5422FD000280ED02CE001209E
:10A89000CBE703F07DF901463846FDF791FC1549F9
:10A8A0004861032021E00120ECE7ADB2B7B203F02C
:10A8B0006FF901463846FDF783FC064603F068F958
:10A8C00001462846FDF77CFC864201D1781B09E051
:10A8D00003F05EF9064603F05BF901462846FDF7F2
:10A8E0006FFC701A80082061022004F051FAF8BD54
:10A8F000A83400207027002010B5074814220178E2
:10A90000514308180079042802D000F06BF810BDFC
:10A91000012004F03DFA10BDA834002010B5002835
:10A920000DD0017D00290AD0C1698160027B0168D8
:10A9300012018B18011D1022184605F0F7F810BD02
:10A9400010B50B481422017851430818094AC188F0
:10A9500011620079012806D0032801D0042801D112
:10A96000FFF748FF10BD012004F012FA10BD0000EF
:10A97000A83400207027002014225043054A0021EB
:10A9800080180171C18002220161C26041610181B0
:10A9900070470000A8340020F8B5104C069E65787A
:10A9A0000A2D19D027787D190A2D00D30A3D1427C6
:10A9B0007D432D1928716A6103C92961E860EB8024
:10A9C0002E816078401C607005480078002801D115
:10A9D000FFF7B6FF0020F8BD0420F8BDA834002022
:10A9E0007027002010B50D4C142120784843011920
:10A9F0000020091DFEF770FF2078FFF7BDFF60788B
:10AA0000401E60702078401CC0B220700A2801D11E
:10AA100000202070002004F0BBF910BDA8340020F5
:10AA2000F8B52348C16800293ED00E6821494C681A
:10AA30000769C078E11B0D022D0AED1C002814D116
:10AA400001201D4A000450601B4A403A50601B49D7
:10AA5000400008601A4908601A49012008602F2048
:10AA6000FDF768FB12490120C870B54200D2354697
:10AA7000E81900020F4B000A403318600D4A516874
:10AA8000001B091B0902090A0002000AC91C8142B5
:10AA900009D9506818602F20FDF74CFB01200749A9
:10AAA000400480390860F8BD03F028FBF8BD0000C1
:10AAB000D8270020001501404013014080E200E04B
:10AAC00000E100E000100140F8B506461088144689
:10AAD0008446801D0D46984201D90C20F8BD32886D
:10AAE0000720062AFAD31927FF01184BBA4201D9C9
:10AAF0009A42F3D171880629F0D3B94201D999421B
:10AB0000ECD19A4203D0994201D08A42E6D805217D
:10AB10006046295420881221401C80B2208029548C
:10AB20002088401C80B220804119308804F0D0FE7B
:10AB30002188401880B220804119708804F0C8FE36
:10AB40002188401820800020F8BD0000FFFF000091
:10AB50000C214843064910B5012240188272911E0B
:10AB60000181FF21C1720721FDF7B3FB10BD000079
:10AB70007834002070B50C4605462C212046FDF7A0
:10AB8000A8FBA8792060687960602879A060E878DF
:10AB9000E060A878206128880249401860610020A0
:10ABA000206270BD94F8FFFF02788A7102794A71C1
:10ABB000027A0A71027BCA70027C8A70808A024A19
:10ABC00080180880704700006C070000FFB589B04E
:10ABD0000E46174604462021129DFDF77AFB04AA73
:10ABE0003146286803F004FA6846007EFF2803D047
:10ABF00015A11E20FFF746F8286820602673E7811C
:10AC00000C982082002E1AD0761EF1B26A4628686F
:10AC100003F0EEF96846007AB04203D00AA12D2075
:10AC2000FFF730F8019900984018606003CD401894
:10AC30006168401AA060012020750DB0F0BD0121AF
:10AC400009032868F0E700002E2E5C6C6F675F63D5
:10AC50006F6E74726F6C6C65722E63000E4948687B
:10AC6000C005C00D16D0103840B2002807DA020720
:10AC7000120F083A920892005118C96904E081083D
:10AC8000064A8900891809688007C00EC140080675
:10AC9000800F70470420704700ED00E000E400E002
:10ACA0000E494868C005C00D16D0103840B20028C3
:10ACB00007DA0207120F083A920892005118C96980
:10ACC00004E08108064A8900891809688007C00ED7
:10ACD000C1400806800F70470420704700ED00E077
:10ACE00000E400E010B5134C207900071FD4606920
:10ACF000401C6061E068002801D0042004E001F0FD
:10AD0000F5FA002803D0022004F036FA10BD2069BD
:10AD1000002809D06068C10701D00320F4E70121B1
:10AD2000084360600020EFE7FFF7E6FD10BD04F088
:10AD300017FA10BD7027002010B5084841680A07AF
:10AD400008D48A0702D5012211434160022004F091
:10AD500013FA10BD04F004FA10BD000070270020A3
:10AD600002788378521C5B1ED2B283708A4200D173
:10AD700000220270704770B50546087828700C46AE
:10AD8000481C03F0ABF96880E01C03F0ACF9686084
:10AD900070BD70B50546087828700C46481C03F055
:10ADA0009DF96880E01C03F099F9A88070BD00004F
:10ADB000F8B500260124154D23E06968F000471816
:10ADC000387821462A698140114218D08A432A6185
:10ADD00002F002F83A782146EB68914019400346A8
:10ADE000934099420BD17978012901D0012100E0EB
:10ADF00000217B684140002B01D010469847761C0B
:10AE0000F6B228788642D8D3F8BD0000B4270020D7
:10AE100010B5100003D000221146FEF71DFC0020E3
:10AE200010BD000010B50446FEF72EFC2046FFF7CB
:10AE3000D7F8204600F044FD204603F0A7FA20464C
:10AE400003F0EAFA204603F0DDFC208830280FDA10
:10AE500013280DDA01280BD0102802D0112807D1B1
:10AE600002E0A188012001E0A188002003F0C6FDD6
:10AE70002088112805D174DF024800F0E7FF03F0B5
:10AE8000F3FF10BD8026002010B5044602F0B2FF8B
:10AE90002046FFF7DFF810BD002806D0FF21017023
:10AEA00041708170C17000207047014870470000F8
:10AEB0000E800000F0B585B0050031D02348002495
:10AEC0000460447284722046FFF742FE1F4824212A
:10AED0003038FDF7FEF9204602F04CFD1C49FF20FA
:10AEE00008706021684681800127C7801948184989
:10AEF0000090C91D684602F0D5FE00280ED1144E00
:10AF0000761E3770287800280CD069468888C98852
:10AF1000484381B23046083002F0D4FD05B0F0BDA0
:10AF20000D48FBE70A48002102AAC01D02F09EFD61
:10AF3000002808D10548002368381C2202A902F025
:10AF40005BFE0028EAD03470E8E70000843400207B
:10AF5000612700205DAF01000E800000FFB50746AD
:10AF600054488FB00068189D1E46002842D0602DBE
:10AF700040D86846FFF790FF002803D00022114612
:10AF8000FEF76AFB002468460470047121460DAA8E
:10AF900049480696059502F069FD002806D1082269
:10AFA0000DA93846FDF7B4F9002825D06846807809
:10AFB000FF281FD010982027032820D03D481C21AF
:10AFC0006838301AFDF7FCF8012500282DD03948E3
:10AFD0001C214C38301AFDF7F3F800283AD0354FD1
:10AFE0002421303FF01BFDF7EBF800284AD0402029
:10AFF0006946087113B0F0BD68468470DAE7602DC9
:10B0000003D040206946087101E06846077169462F
:10B010000879032108436946087104A8029001A930
:10B020006846119AFEF71EFBE4E704A80290119807
:10B03000002808D168468178284688401E4908398A
:10B0400049680842D6D06846807804F093FC684688
:10B05000077125E004A802906846077144701548FE
:10B060000A940C300B9058380790684680781C2161
:10B070004843104968394018089007A806901820DE
:10B0800005900DE03021684601714470C570094893
:10B090000C38807A800703D438462421FDF719F94B
:10B0A000109869460228087901D00221B2E72843A6
:10B0B000B2E70000843400206827002070B50646FF
:10B0C00018480D46007800280ED01749002E0ED0E3
:10B0D000002D0CD02868002809D0144C21680029C4
:10B0E00007D011480A3870BD0F48801F70BD084650
:10B0F00070BD20600522691D201DFDF7D1F828795B
:10B10000A072207A0221400840000843FB22104030
:10B110002072E0790123184308431040E0710020B9
:10B12000307070BD602700200E8000008434002045
:10B1300010B50E4900234A788C78A24212D0521CD6
:10B14000D2B24A70022A00D14B704A78074B920063
:10B1500018339A580260086910180002000A086142
:10B16000012010BD0360002010BD0000D827002082
:10B1700002490148086070470C0003005007005066
:10B1800038B5044601204006844204D3FF2009A1BB
:10B190009E30FEF777FD04F0A3FC04F0BFFC2146CF
:10B1A000684604F09AFB04226946212004F076FDEB
:10B1B00038BD00002E2E5C7370695F736C6176651C
:10B1C0005F6D7832355F666C6173685F6D656D6F5A
:10B1D00072792E6300000000F7B50646174990000B
:10B1E0000D5817498CB04018032109024018406DD2
:10B1F0000B902878142803D312A18920FEF742FD72
:10B20000002030706F780D980124C01B04902A78BC
:10B2100005A90B9802F002FF0006000E0BD0EA69A8
:10B22000301905A990473078401C3070E019C4B23D
:10B230000498A042EBDC20460FB0F0BD9C26002015
:10B24000682F00202E2E5C73656E737469636B5FCC
:10B2500073656E736F725F636F6E74726F6C6C6523
:10B26000722E630010B5002803D0112802D0FEF71B
:10B2700049FB10BD0248082241681143416010BDDE
:10B2800070270020F0B587B0334E6D4669463348CD
:10B29000FEF759FA042839D068460478062060433E
:10B2A0008019FF304130077EF8070FD0A91C2C4AC7
:10B2B000A0001058C26902A8904730214C43A3193E
:10B2C0000246184602A9083003F00CF8B807DDD58D
:10B2D000684642780078A91C40018019FF309530FB
:10B2E00004F090FC044603F03BF968464078A04225
:10B2F000CCD069461948FEF726FA0028F9D000207C
:10B3000003F0FAFA012003F071FBBFE7002568465D
:10B310000572FFF7A3FC0446012809D002A836DF16
:10B32000022817D0002803D000221146FEF794F916
:10B330000C48012CC5700BD062B66846007A37DF26
:10B34000022805D0002803D000221146FEF784F918
:10B3500007B0F0BD72B6EBE7682F002010FD0100CA
:10B360009C260020E830002010B51C4C2178204697
:10B370004068012906D0022929D0032912D10007EB
:10B3800017D513E0000711D4154814220178514352
:10B390000818C188A28B891A0904090CC18002D03F
:10B3A00003F0A2FE10BDFFF71DFB10BD01F0B6F9C2
:10B3B00010BD6069401C606100F098FF002803D058
:10B3C000207803F0E5FC10BDFFF796FA10BD607819
:10B3D000044980000858804710BD000070270020F5
:10B3E000A834002018FE010010B528DFFFF73AFF4F
:10B3F00010BD10B529DFFFF735FF10BDF8B50546C4
:10B400000C46000504D0FF200DA1AE30FEF73AFC3B
:10B41000200504D0FF200AA1AF30FEF733FCE0176F
:10B42000000D00190613002401273F0304E02846FD
:10B43000FFF7A6FEED19641CB442F8DBF8BD00006E
:10B440002E2E5C7370695F736C6176655F6D783208
:10B45000355F666C6173685F6D656D6F72792E63C1
:10B460000000000010B5012100684903FFF7C6FF86
:10B4700010BD10B5012109030020FFF7BFFF10BD6B
:10B4800010B5002823D0124B0022001F196803E0DA
:10B49000814203D80A4649680029F9D1002A0AD016
:10B4A0001368841A9C4204D1006818181060104672
:10B4B00002E0506000E01860002907D002680B1A13
:10B4C000934203D10B68D21802604968416010BDF5
:10B4D0000C2800207CB50446062269463B2002F079
:10B4E00057FD684602F08DFD20806D46A81C02F0D5
:10B4F00088FD6080281D02F084FDA0807CBD1CB505
:10B50000044606226846FCF7CBFE68460021415EF1
:10B51000204600F059FE68460221415EA01C00F062
:10B5200053FE68460421415E201D00F04DFE0620BA
:10B530001CBD1CB5044606226846FCF7B1FE6846F1
:10B540000021415E204600F03FFE68460221415E38
:10B55000A01C00F039FE68460421415E201D00F069
:10B5600033FE06201CBD1CB5044606226846FCF7C7
:10B5700097FE68460021415E204600F025FE6846A1
:10B580000221415EA01C00F01FFE68460421415EBE
:10B59000201D00F019FE06201CBD08B50B786A4678
:10B5A000137049785170118804F08EF9022008BD9B
:10B5B00008B50B786A46137049785170118804F009
:10B5C00083F9022008BD38B5044604226846FCF71A
:10B5D00067FE68460188204604F076F9684641888F
:10B5E000A01C04F071F9042038BD38B504460422CB
:10B5F0006846FCF755FE2046009904F076F90420D1
:10B6000038BD000010B5402001F0BCFA41004018E0
:10B610000749401864214843E421FCF7E7FD64280A
:10B6200004DA002800DA0020C0B210BD6420FBE775
:10B6300072FCFFFF1CB5044600200090022301AA03
:10B640002921064801F0FCFE002803D00022114603
:10B65000FEF702F86846808820801CBDC4260020C2
:10B6600038B50446032269464020FDF7E3F8002878
:10B6700003D16846008840BA20806846008840BAF6
:10B68000208038BD7CB5044603216A4607230C2080
:10B6900002F08EFC684602F0BBFC20806D46A81CC0
:10B6A00002F0B6FC6080281D02F0B2FCA0807CBDD8
:10B6B0007047704770477047704770477047000089
:10B6C0001CB5044600200090A8216A4603235C2094
:10B6D00002F06EFC684602F006FD206004A00068DF
:10B6E0000190012201A9212004F0C0FA1CBD000034
:10B6F000110000007CB5044606226946432002F092
:10B7000047FC684602F07DFC20806D46A81C02F0D4
:10B7100078FC6080281D02F074FCA0807CBD10B510
:10B72000FFF7D8FE062010BD10B5FFF7E3FF062097
:10B7300010BD10B5FFF7A6FF062010BD10B50D4ACD
:10B740001378002B06D0012B09D00021022B117099
:10B7500009D10AE00120107003F0B8FE03E0962939
:10B7600001DD02201070002010BDFFF763FF0220F2
:10B7700010BD0000BC26002010B500F061F80220CA
:10B7800010BD000070B5184A0446157800202B0043
:10B79000FDF7FEF80504090D161C190001201070B4
:10B7A00003F0AAFE10E014290EDD02200BE00320B6
:10B7B00010700D48801CFFF753FF03F0ADFE03E04F
:10B7C000202901DD04201070002070BD1070064893
:10B7D000001D00F027F804490422891C2046FCF7CC
:10B7E0005FFD042070BD0000BE26002010B5FFF7ED
:10B7F00067FF042010BD000010B58CB0044604F0B3
:10B800007DF80748FCF7D4FD01462C226846FCF77A
:10B8100047FD21466846FFF7C7F90CB010BD000090
:10B820008426002038B50446032269464020FDF7EF
:10B8300001F8002803D16846008840BA208038BD4E
:10B840001CB50446012269463920FCF7F3FF0028A5
:10B850000CD1012201A93820FCF7ECFF002805D10A
:10B860006946087809790002084320801CBD000061
:10B87000F8B50746104E0125BD403068FEF7D8F9EF
:10B8800000280DD10D4C2069284207D1384601F01F
:10B89000A3FA0028E06804D0284303E0A84320610D
:10B8A000F8BDA843E0602069002228432061A16818
:10B8B0003068FEF77FF9F8BDF8FE0100B4270020DC
:10B8C00010B501460148FEF733FD10BD0C2D0020D8
:10B8D00070B51B4C207900072ED41A481422017829
:10B8E00051430D182E6902F053F90146E8882A8960
:10B8F000761E80188019FCF763FC21690025002959
:10B9000009D06169814206D1E56060680121084380
:10B91000606000200AE000F0E9FC002802D002206C
:10B92000E56003E02069002803D0032003F024FC35
:10B9300070BDFEF7E1FF70BD03F012FC70BD0000AA
:10B9400070270020A834002008B503206A46107034
:10B9500080210123292004F0A7F908BD10B514485F
:10B96000002101701422001D0270417003218170BA
:10B9700010494160104A0121FDF734FE002803D030
:10B9800000221146FDF768FEFDF7FAFD002803D0FE
:10B9900000221146FDF760FE084A00210848FEF724
:10B9A00091F8002803D000221146FDF755FE10BD86
:10B9B000E4260020C98901006606000001F20100AA
:10B9C00000FE010030B587B001F046FA002807D12B
:10B9D00001F018FA002803D000221146FDF73CFEC2
:10B9E0000125684645740024847404A9204601F0AA
:10B9F00061FA002803D000221146FDF72DFE1D48F4
:10BA00001B49016003210171447184710C22684655
:10BA100002700B2242708570FF22C2700171427168
:10BA2000012080070290684604734473002269462F
:10BA3000104801F0C9FA002803D000221146FDF792
:10BA40000BFE00221146B72004F028F905A90122B7
:10BA5000152002F0A5FA6846007D8006C00F04D1CB
:10BA6000002211460320FDF7F7FD07B030BD0000AE
:10BA700000300040D026002008B500221146FE20EC
:10BA800004F004F90F2001F0A3F8E7216A4602232D
:10BA9000402002F08DFA6946087881210843FB2195
:10BAA000084002210843694608700122E62004F09C
:10BAB000EDF808BD38B501F0CFF9002807D101F045
:10BAC000A1F9002803D000221146FDF7C5FD00248E
:10BAD0006846447084706946162001F0EBF900282E
:10BAE00003D000221146FDF7B7FD0F480121046085
:10BAF00041607D21C90081600C4A01210C48FDF79D
:10BB0000E1FF002803D000221146FDF7A5FD0848FB
:10BB1000002208490068FEF74DF8002803D00022F3
:10BB20001146FDF799FD38BDD8260020D5C3010088
:10BB3000FCFD0100CD0C0000704700000EB50F4960
:10BB4000002008700EA000680090012269466B205A
:10BB500004F094F8002810D00AA000680190012297
:10BB600001A9372004F08AF807A00068029001229A
:10BB700002A90A2004F072F801200EBDCC26002094
:10BB800080000000020000001600000008B504A0BC
:10BB90000068009001226946202004F067F808BD83
:10BBA0008000000010B5FFF7C9FF10BD10B5FFF70A
:10BBB000C5FF10BD10B5FFF7C1FF10BD10B503499B
:10BBC00000200870FFF7C0FE10BD0000BC2600205A
:10BBD00010B500F02BF910BD10B503490020087016
:10BBE000FFF74AFF10BD0000BE26002010B5FFF78A
:10BBF000CDFF10BD70B50E46154604463021FCF74A
:10BC000068FB0020C04320802E2005553146204689
:10BC1000FDF7B2FA002070BD10B504463421064885
:10BC2000FCF757FB00200449C04348862046FDF737
:10BC3000C3F9002010BD0000542D002010B52021B4
:10BC40000348FCF746FB0249FF20087010BD0000C6
:10BC50004C2C002010B504461E210648FCF739FB89
:10BC600000200449C04348832046FDF727F90020FF
:10BC700010BD0000362D002010B50E4800210160D7
:10BC800041600D4A01210D48FDF71CFF002803D03B
:10BC900000221146FDF7E0FC084801210022C905F9
:10BCA0000068FDF787FF002803D000221146FDF74A
:10BCB000D3FC10BD8426002041E1010000FD0100FD
:10BCC000F8B50646372109012E48FCF702FB002093
:10BCD0002C4CC821062242431219FF324132401C2B
:10BCE00051830728F6DB00F05DFC0A2032DF0028D4
:10BCF00003D000221146FDF7AFFC01210A2033DFFB
:10BD0000002803D000221146FDF7A6FC0A202EDFF2
:10BD1000002803D000221146FDF79EFC1A4800219E
:10BD200041608160042101611849012008601849BF
:10BD300000044860174F0025A8003858C0688047A5
:10BD400060556D1C072DF7DB002530206843001976
:10BD5000EAB231460830FFF74DFF002803D0002239
:10BD60001146FDF779FC6D1C072DEEDB0A48FDF747
:10BD7000DFFC002803D000221146FDF76DFC0020F7
:10BD8000F8BD0000682F002000A5004000A2004080
:10BD900000A300409C26002010FD010038B51F487C
:10BDA0001D4901600024042101714471234622468B
:10BDB000214601F081FA002803D000221146FDF748
:10BDC0004BFC164801F038FA01F046F8002807D17C
:10BDD00001F018F8002803D000221146FDF73CFCC2
:10BDE0006846447084706946032001F063F80028B7
:10BDF00003D000221146FDF72FFC0A4908480860CD
:10BE0000FF242D34204600F0E3FE07490820886017
:10BE1000204600F0DDFE38BD00400040C426002072
:10BE2000030300000C0700500005005008B5062071
:10BE300069460870002301223820FCF707FD00281E
:10BE400001D0002008BD012008BD000030B5A7B01A
:10BE50000446382101A8FCF73CFA06216846C17166
:10BE60000221017138210FA8FCF733FA0125002CBB
:10BE700002D010A88581149424211DA8FCF729FA6A
:10BE800020A80570A02021901E20229020A80573D4
:10BE90001920800124904B20C00025900748009075
:10BEA000074B1DAA0FA901A8FEF708F8002803D028
:10BEB00000221146FDF7D0FB27B030BDA9D8010004
:10BEC000ABD8010000B58BB0012168464184182130
:10BED00001842D4807902D4907A801F0E3FE1821A1
:10BEE0002B48FCF7F6F900231822284901A801F095
:10BEF00083FE002809D168460079FF2805D0182262
:10BF000001A92348FCF7F0F90FE022A12048FCF733
:10BF10000CFA002318221E491C4801F021FF0028BA
:10BF200003D000221146FDF797FB694611200870E7
:10BF30001748FCF7E6F982B2154968467CDF00280D
:10BF400003D000221146FDF787FB002078DF002890
:10BF500003D000221146FDF77FFB0020099010223C
:10BF600069460A908A844022CA840885FF2091305D
:10BF7000488509A87ADF002803D000221146FDF782
:10BF80006BFB0BB000BD0000CD9601009026002099
:10BF9000D42C00204E4152412D414354000000005A
:10BFA00010B5264C88B0A16860680590069105A878
:10BFB00000F0C8FD2248012142688903FF231B02CB
:10BFC0009A43114341600121016014216846FCF746
:10BFD00080F969461120487388730020C873401C9B
:10BFE0000007000F103008740020009008710290C4
:10BFF000FFF708FB694608731248FEF775F9002839
:10C0000003D000221146FDF727FB0F4A01210B4800
:10C01000FDF758FD002803D000221146FDF71CFB58
:10C020000F21002209042068FDF7C4FD002803D079
:10C0300000221146FDF710FB08B010BD04FD010001
:10C04000007500400C2D00200D9E01007CB50546BA
:10C05000184800260C460661174B482217490D2048
:10C0600002F0E0FE002803D000221146FDF7F4FAAA
:10C070001B20C001019000960120694608706846A7
:10C0800060DF002803D000221146FDF7E5FA2046C4
:10C0900002F0A8FE002803D000221146FDF7DCFACA
:10C0A000284602F0D7FE002803D000221146FDF7F3
:10C0B000D3FA7CBD4005004011EE01008C2C00201D
:10C0C00000B591B040216846FCF703F911211748EB
:10C0D000FCF7FFF81648036A426A16A11348FCF7FA
:10C0E00043FC17A16846FEF721FA19A106A8FEF73E
:10C0F0001DFA19A108A8FEF719FA0C4904A8FEF7C1
:10C1000015FA0120014608A81031017700200146E8
:10C1100008A841776846FEF769F9002803D0002295
:10C120001146FDF799FA11B000BD0000242D002042
:10C1300040000010253038782530387800000000A5
:10C140004D6174696C646520496E632E00000000C7
:10C1500072657620312E300072657620312E3037B0
:10C16000000000001FB56946087303A8FEF7A2FE91
:10C17000002803D000221146FDF76EFA01A8052120
:10C180000130FCF7A6F869464879E12140084000F3
:10C190000840DF210C30084069464871072088714B
:10C1A0001020C87106480090012008710548FEF76C
:10C1B00085FF002803D000221146FDF74DFA1FBD70
:10C1C00011AE0100982600200170091241707047DD
:10C1D000F8B51E4C2078002837D02069002807D0F9
:10C1E0000026E068002805D00025002E04D013E0CA
:10C1F0000126F6E70125F8E7684651DF052806D055
:10C20000002806D000221146FDF726FA04E0012698
:10C2100002E0216900988847002D12D160886946A4
:10C220000880A06861DF052806D0002806D000221B
:10C230001146FDF711FA04E0012502E0E168A0686B
:10C240008847002ED8D0002DCFD0F8BDF827002089
:10C2500008B500216846017069460122052001F0F9
:10C260009FFE68460078C007C00F08BD08B50020D3
:10C27000042200906946D00201F036FE034900987E
:10C28000884201D1012008BD002008BD5DAA000040
:10C29000002805D0012803D0032801D000207047D2
:10C2A000012070471048018CC9B2012917D1818C37
:10C2B000090714D1018D09060A0F03D1828D1206D8
:10C2C000120F0ED0090F012903D1828D1206120F11
:10C2D00007D0032903D1808D0006000F01D0002074
:10C2E0007047012070470000C00F00F070B50E4885
:10C2F0001422017851430C18256901F049FC0146CC
:10C30000E08822896D1E80184019FBF759FF074904
:10C310004A69824206D3824202D10869002801D0CC
:10C32000002070BD012070BDA834002070270020BF
:10C33000800701D0002070470120704730B5158874
:10C34000EC1C9C4201D90C2030BD02244C551388B2
:10C350001C255B1C9BB21380CD5413885B1C9BB2C5
:10C360001380012807D0022807D0032807D004280B
:10C3700007D0072030BD002004E0012002E0CC54AB
:10C3800001E00320C8541088401C1080002030BDFC
:10C3900010B5044603F0CCFA0B492300FCF7F8FA79
:10C3A000070508070A070C10070003F0C1FA10BDC3
:10C3B000012002E0022000E0032002F061FD10BD38
:10C3C000102002F099FA10BD1027000010B503F0FC
:10C3D000AFFA10BD10B50E4C6068002807DCA068ED
:10C3E000401EA060002801DC03F0A2FA10BD2078F6
:10C3F000C00709D0002002F0AFFB6068401E6060FB
:10C400002068401C206010BD012002F0A5FBF7E76A
:10C41000D8260020F8B52C49C8680A690C780F792D
:10C4200089688646944600913EE00099E2005518DE
:10C430002A7836E0182353436968521CC918AB7830
:10C44000D2B2934200D100220B78022B02D0032BF0
:10C4500027D123E04E680346014603E0B14204D0F1
:10C460000B46C96900291CD0F8E7002919D08B4276
:10C4700008D1C069002805D1144F0126BE600026EE
:10C48000B44601270E68C969D961002909D00B6833
:10C490009B190B6005E00174C06900E000210028D1
:10C4A000F9D169789142C5D12146641EE4B20029D0
:10C4B000BBD1054962460A61C8600F71704501D061
:10C4C0000120F8BD0020F8BDD82700200010014051
:10C4D000F8B5044631480026C168009107784EE05F
:10C4E0002E48F90080680D1843E0002C02D0204649
:10C4F000E4691FE02878182141436A68401CC0B2F3
:10C5000051182870AA78904200D12E700A78486895
:10C51000012A30D1027C002A2DD18A684260CA6883
:10C5200082600A69C260496981611C4909790029F0
:10C5300000D04660194943680A699C46991A090265
:10C54000174B090A994202D28268891807E06146AE
:10C55000511A09028268090A8A4202D9511A0160F5
:10C5600000E006604660012186600174C66102F049
:10C57000B1FE002CB9D1287869788842BAD1384602
:10C580007F1EFFB20028ABD10448C16800988142E9
:10C5900001D00120F8BD0020F8BD0000D827002000
:10C5A000FFFF7F0038B504226946002001F09CFCA3
:10C5B0000949009888420ED1084D002420460621E2
:10C5C00048434119FF310622001D593101F08CFC0E
:10C5D000641C072CF2DB38BDCDAB0000682F0020B7
:10C5E0000EB5474A14210820FDF74EFA002803D063
:10C5F000C82000F0EDFA35DF424B434A0921002004
:10C60000FDF790FA002803D0C82000F0E1FA35DFEA
:10C61000FFF732FBFFF7C2FBFFF74CFAFFF79EF97B
:10C62000FFF7D0F9FFF70AFBFFF786FA01F0B6FA39
:10C63000002803D0C82000F0CBFA35DF3349344856
:10C64000FFF704FD02A9334863DF002803D0C820A8
:10C6500000F0BEFA35DFFFF735FC0120FFF782FD61
:10C6600001212D48490301806946097A8170FFF74D
:10C67000EDFBFFF725FDFFF793FC6946087AFFF70E
:10C68000CBFA6946087AFFF7E5FA6946087AFFF7B8
:10C6900017FBFFF7EBFD002803D100F09FF901F035
:10C6A000F3FE0021684601710170694601A800F09F
:10C6B000ABF86846007902F091F9684600790028E5
:10C6C00007D0401EC0B201F029FF6A46117801432D
:10C6D00011706846007802F089F9002002F00CF928
:10C6E000012002F009F902F0BFFB48DF002803D067
:10C6F000C82000F06DFA35DFFDF7B6F9F5E7000068
:10C70000142800200D9B01006429002025AE0100A3
:10C7100089AE0100F0FC01008026002010B504481D
:10C720000822416891434160007802F031FB10BD5E
:10C7300070270020F0B50B30C108C900144F002647
:10C74000144A0FE003688B420BD38B4205D95C1A65
:10C750004318456830C3083B00E04368136002C0DB
:10C7600004E0021D10680028ECD13046002803D1F7
:10C770003868002801D00020F0BD064A0648106045
:10C78000064A121AD208D20044C001203860D7E706
:10C79000102800200C2800205C360020583600208D
:10C7A00070B5144682880E4605462088111D411832
:10C7B000921C994201D8FE2A01D90C2070BD521C4E
:10C7C00032542088FF21401C80B2208031542088C0
:10C7D000401C80B220808119288803F079F82188D4
:10C7E000401880B22080AA88002A09D0A9680029B0
:10C7F00008D08019FBF754FD2088A98840182080B4
:10C80000002070BD072070BDF3B5002489B0074635
:10C81000264625466946284600F018F868464078BE
:10C82000FF280BD068460078002801D0012605E0DB
:10C83000641C6D1CEDB2E4B2642DEBD3642C00D10A
:10C8400001263C700A9806700BB0F0BD034A400107
:10C8500010B58018202201F047FB10BD0420000015
:10C8600070B588B014460D46064602F01DF8B04279
:10C8700004D200202870012008B070BD69463046FF
:10C88000FFF7E4FF02A9023122460E462846FBF7D5
:10C890002BFD3046FBF735FDA04203D83046FBF7B1
:10C8A00030FD0446E0B2E7E730B50D46044689B0F6
:10C8B00008212846FBF70DFD01F0F6FFA04209D341
:10C8C00069462046FFF7C2FF00A908222846023128
:10C8D000FBF7E6FC09B030BDF0B591B00C4605465B
:10C8E0001E46174620216846FBF7F3FC002D01D0B9
:10C8F000002100E0FF21684601704470082239469B
:10C90000801CFBF7CDFC02A8152231460230FBF754
:10C91000EBFC0C49600144186D46202208A9204612
:10C9200001F0E2FA08A84078FF2803D006A13820D9
:10C93000FDF7A8F920222946204603F0F7F811B0A8
:10C94000F0BD0000042000002E2E5C6D6574616453
:10C950006174615F6C6F675F636F6E74726F6C6C34
:10C9600065722E6300000000F0B591B01C46160001
:10C970000F4616D0012814D1601EC5B2694628465C
:10C98000FFF764FF002069460870134968014018EA
:10C990002022694603F0CAF8642C02D3012002F079
:10C9A00025F8102F15D012DC002F10D0012F0ED13A
:10C9B000002E0CD00EA801F061FF152108A801F08F
:10C9C00061FF08AB0EAA21460020FFF785FF11B0DA
:10C9D000F0BD00F003F8FAE70420000038B50121AB
:10C9E00009034C002046FEF709FD0448009004228C
:10C9F0006946204603F09AF838BD00005DAA0000A1
:10CA0000F8B50F46017814460546012902D1687829
:10CA1000002806D02088821C9A422DD8012902D0F5
:10CA200006E00720F8BD69784118891C994223D88F
:10CA3000181A801E86B2684606802188B81C08181D
:10CA400069467DDF0028EDD12878022805D16946A6
:10CA50000988B14201D809210AE00821012805D13D
:10CA60006878B04202D86A46108001E068460680C5
:10CA700068460088FE2801D90C20F8BD2288401C99
:10CA8000B8542088401C80B22080395420886946E0
:10CA9000401C20800988401820800020F8BD00003C
:10CAA000F0B507468BB0002009903020394641434D
:10CAB0001A480E183521895D083600290AD0B900B8
:10CAC0000818032109024018446D002C02D0607D33
:10CAD000002802D000200BB0F0BDA06901903A46BA
:10CAE000142102A8FEF778FB0546207D002801D01E
:10CAF000012D0BD02A4602A9304601F0D5FB0028B3
:10CB000006D001200990012DE7D160750998E2E770
:10CB10002046019901F0B2FBF8E70000682F0020E1
:10CB20003FB585B00023009301256C460193A570A5
:10CB3000218008A902910392A3806946A6DF09B06B
:10CB400030BD000010B501788A074178920F49077F
:10CB5000C90E406811438207540E0C438103890FAC
:10CB600003D00321090408400443002000F020F80A
:10CB700003494868FF22120210402043486010BD5C
:10CB80000075004010B500F013F8064A012111604D
:10CB9000054800230468002CFCD00360034880682B
:10CBA000516010BD007000400071004000750040F1
:10CBB00010B5064902024B68FF242402A3431A431E
:10CBC0004A60002800D00120086010BD00750040B8
:10CBD00031B5054C04E0401E00902046FBF78AFA70
:10CBE00000980028F7D138BDE703000070B50D4666
:10CBF0000446032905D0012D03D015491920FDF75E
:10CC000041F8A007C20EFF209040A907090E9140ED
:10CC1000002C0BDA2207120F083A93080D4A9B00EA
:10CC20009B18DA6982430A43DA6107E0A3080A4ADB
:10CC30009B009B181A6882430A431A60E106C90EDA
:10CC400001208840054908600549086070BD000062
:10CC500018FF010000ED00E000E400E080E200E0E9
:10CC600000E100E0F3B581B00646202804D3FF20A0
:10CC700027497830FDF706F8304600F0A1FE00287D
:10CC800004D1FF2022497930FCF7FCFF304600F048
:10CC9000A1FE01241F4F0028304616D0FDF78AFC64
:10CCA000C0192030007C8009032802D0012805D05B
:10CCB00006E019480069B440204201D1022100E099
:10CCC0000321304600F02EFCFEBD00F08FFE002850
:10CCD000FAD03046FDF76EFC05468100C81D0F4AAC
:10CCE000F93089180A6980B222430A610C49401858
:10CCF0000021016002980028E6D03046FDF75AFC7A
:10CD0000800038580028DFD00648AC404460FEBDA3
:10CD10006CFF01008C3500200005005000650040CC
:10CD20000060004000630040FEB515460E46044614
:10CD3000202804D3FF2023495030FCF7A3FF00270D
:10CD4000204600F03DFE002801D0082738E0F278A8
:10CD500029462046FDF70CFC0546401C2FD0B07834
:10CD6000002807D01848A10009180868022290433B
:10CD7000086007E000217378204600910A4601917F
:10CD800000F0A2FBF078002810D01048AA0010187C
:10CD9000317802690E4B1A400261E206D20C890713
:10CDA000890B0A4301690A43026109E009483278A4
:10CDB00040192030017C92011143017400E00427E6
:10CDC0003846FEBD6CFF01000007005000650040C2
:10CDD000FFE0FCFF8C35002010B50446202804D36A
:10CDE000FF200649C030FCF74DFF05480069E040D0
:10CDF000C007C00F00D0012010BD00006CFF010073
:10CE00000005005070B5124D687D002801D0082043
:10CE100070BD0F4900202039421E0B18401CC0B2C3
:10CE20001A752028F9D300242046FDF793FB641CD3
:10CE3000E4B2052CF8D303210620FFF7D7FE01202A
:10CE40000449C007486001206875002070BD0000DB
:10CE5000AC350020006300400248407D002800D02F
:10CE600001207047AC35002010B50446202804D3BB
:10CE7000FF200E490D30FCF705FF204600F096FD1F
:10CE8000002804D1FF2009490E30FCF7FBFE2046A4
:10CE900000F0ACFD002804D0FF2004490F30FCF75F
:10CEA000F1FE01200249A040C86010BD6CFF0100E6
:10CEB00000050050FEB50D460446202803D32A493C
:10CEC000C220FCF7DFFE2948407D012803D0264917
:10CED000C320FCF7D7FE002D03D12349C420FCF763
:10CEE000D1FE0026204600F061FD002801D0082672
:10CEF00036E0A87800281DD0012200212046FDF749
:10CF000037FB411C14D0830019482A781818697817
:10CF10000369184F3B4003610369E706FF0C920762
:10CF2000920BC907C90A3B430A431343036107E055
:10CF3000042615E00D490120C04320390919087560
:10CF40006A780120A0400C49012A0BD0C86000215A
:10CF500000910B46012201912046114600F0B4FADF
:10CF60003046FEBD8860F2E76CFF0100AC35002062
:10CF700000650040FFE0ECFF0005005010B50446DE
:10CF8000202804D3FF200E490430FCF77BFE204606
:10CF900000F00CFD002804D1FF2009490530FCF702
:10CFA00071FE204600F022FD002804D0FF20044935
:10CFB0000630FCF767FE01200249A040886010BDE2
:10CFC0006CFF010000050050FEB507460C46407995
:10CFD0001821424B4143CE183179002901D0082055
:10CFE000FEBD002C02D13E49000144183260207B76
:10CFF00001250128207804D8294681403948C1609C
:10D0000001E000F09FFA2178374A01208900891851
:10D0100008606578FF2D06D03249A840C8602846D0
:10D0200000F076FA01E00025ED43A078FF2808D053
:10D03000002300931A4619460193029000F056FA15
:10D0400002E00020C0430290E078FF2804D000F006
:10D0500079FAE07800F05CFA7879182148431F49A2
:10D06000E278401882713968052000022378081898
:10D07000029A8360C5600261A2684262627B237B80
:10D08000002A00D00122012B04D0022B04D0032B54
:10D0900006D103E0022302E0042300E006231A4342
:10D0A00042657A7918235A430C4B6579D218D571A9
:10D0B0003268002A04D0032304221B02C9184A60E4
:10D0C000012505603068002804D0042021793856F5
:10D0D000FFF78CFD002070713571FEBDC435002056
:10D0E0002CFE01000005005000070050FFB505466A
:10D0F0000F46407918214843394981B044182079B6
:10D100001646002804D1FF2036492030FCF7BAFD2E
:10D11000002F06D1002E04D0FF2032492130FCF729
:10D12000B1FD0498002807D10A98002804D0FF20F8
:10D130002C492230FCF7A6FD6079002802D011208E
:10D1400005B0F0BD0A983043FAD0A0790122FF283B
:10D1500003D0114681402448C1602D68E7602672E3
:10D16000049820610A9860720021A172206800284A
:10D1700005D06271032204201202AA189060FF20D9
:10D1800009302950002E01D03A7800E0E2790523D9
:10D190001B02EB18DA61012E01D97A7803E00A9AB2
:10D1A000012A01D9E279DA612268002A05D0032137
:10D1B000042009026918486010E006460F46A85985
:10D1C0000028FCD0AF512146284602F057F900282C
:10D1D000F5D1A079FF2801D000F0B4F90020AFE725
:10D1E000C4350020C0FF01000005005070B50446A2
:10D1F000407918210E4D4843285C002804D14F2067
:10D200000C49C000FCF73EFD206801214161052367
:10D21000206800221B02C018026003232268881EB7
:10D220001B02D2189060607918225043295470BDB7
:10D23000DC3500201400020070B504464079182146
:10D240001A4D4843285C012804D0992018498000D1
:10D25000FCF718FDFF220532216800208850216864
:10D26000121D8850FF2221681D328850FF2221683C
:10D270002532885061790F4A89005158002906D01B
:10D2800001220323216852021B02C9184A600522A9
:10D2900021681302C9180A606179182302225943D0
:10D2A0006A54617959434919487070BDDC350020D2
:10D2B0001400020094270020F8B504460D4640797A
:10D2C0001821214E4143715C002901D00820F8BD8E
:10D2D000002D02D11D4D01014D191D4F80003A5006
:10D2E0006079391D80000B506079091D80000C5059
:10D2F0002946204602F030F9296816488A00164966
:10D30000521810606A68920051180860216805225E
:10D3100012028918A8684862216809CD89188860B6
:10D32000CB606079083D80003858002804D0042084
:10D33000297B2056FFF75AFC6079182201215043BF
:10D3400031540020F8BD0000DC3500203CFE010017
:10D35000942700200C06000000070050F3B585B0AC
:10D36000054606981821484332494618FF21341DC6
:10D370002531284600F000F90746E189284600F0EB
:10D38000FBF801460020FF222532A850FF221D3263
:10D39000A850FF220932A850121FA850384608434F
:10D3A00046D0002F01D0052105E02078002801D0CB
:10D3B000022100E00321069887001F48C05901F0B0
:10D3C000DFFD1D49A078091F002817D00020B0708C
:10D3D0001A484DC8009001A84CC06068019060894F
:10D3E00002900920C0012A18506C5064800701D5B2
:10D3F000022000E004206A46107313E0608922894D
:10D40000904215D300200090019002900390B070DC
:10D410002078002800D001206A46107060680190D2
:10D42000608902900448C9590838C2596846904733
:10D4300007B0F0BDDC3500209C27002060FE010015
:10D440007CB5069C00250195009402F0D1F87CBDC6
:10D450007CB5069C01250195009402F0C9F87CBDBD
:10D4600070B5044640791821124D4843285C0028C5
:10D4700003D111491148FCF705FC6079104980007F
:10D480000858002806D02079C106C90E012088401E
:10D490000C4908602046FFF7A9FE2068FF30FF30E6
:10D4A000023001680021016060791822504329543C
:10D4B00070BD0000DC3500201400020055020000A1
:10D4C0009427002080E100E030B552000A43990023
:10D4D000039C0A432102049D0A4329040A4302498A
:10D4E00080004018026030BD0007005030B5520087
:10D4F0000A439900039C0A432102049D0A4329041C
:10D500000A43024980004018026030BD0007005005
:10D510001CB5002100910B46012201911146FFF735
:10D52000E5FF1CBD820006481018026803231B0497
:10D530009A430260026809040A43026070470000CF
:10D5400000070050012181400148816070470000C0
:10D5500000050050012181400148816070470000B2
:10D5600000050050034940180068012800D0002041
:10D5700070470000006000404058002800D00120A3
:10D5800070474058002800D0012070470322120243
:10D5900080184068084000D00120704730B58BB03B
:10D5A000841D142104A8FAF794FE2078012847D19D
:10D5B000244D61886A8928460024007F91421FD14A
:10D5C000099409A90A94FFF76FF96846818C0174E0
:10D5D000090A417408A881796846817408A8C1794C
:10D5E0006846C17408A8017A6846017508A8417A9E
:10D5F0006846417508A8817A68468175072006E06B
:10D600006A8A91421CD104A91422FFF729F9012248
:10D61000009401940294694603940A708C80002857
:10D6200000D000E000228A710C81488104A8039098
:10D63000688BA8DF002803D000221146FCF70CF805
:10D640000BB030BD362D002010B58AB0841D1421DA
:10D650006846FAF73EFE207801283DD160881F4CCD
:10D660006188884206D101F003F901466A4601202B
:10D67000117017E0618B884204D11421684600F0D4
:10D680008FF80FE0618C884204D16846142101F0C4
:10D69000F9F807E0618D88421ED168461421FBF736
:10D6A000E7FFC0B2002101230591069107916A4668
:10D6B000089113751183002800D000E000239376B1
:10D6C0009183D0830892608E05A9A8DF002803D03B
:10D6D00000221146FBF7C0FF0AB010BD542D0020F8
:10D6E000F0B589B00D4604468E1D142104A8FAF742
:10D6F000F0FD0027009701970297039731782046A5
:10D70000203001290CD0022931D17288A388294602
:10D7100022319A422DD1B27E807B01F03DF82FE07C
:10D720007188A288914205D1807B142204A900F05F
:10D73000C9FF07E0A28B914219D1807B142204A972
:10D7400000F066FF012269460A708F80002800D031
:10D7500000E000228A7148810F8104A8039020888C
:10D76000A8DF002803D000221146FBF775FF09B09F
:10D77000F0BDA38A9A42FAD1B27E807B00F0D2FF3C
:10D78000022168460170878020886946A8DF00284A
:10D7900003D000221146FBF75FFF00F0E1FEE6E751
:10D7A0001CB50446072903D20EA15520FCF76AFADE
:10D7B000684601F063F8684600882070000A6070CF
:10D7C00068468078A0706846C078E0706846007946
:10D7D000207168464079607168468079A0710720A1
:10D7E0001CBD00002E2E5C73656E737469636B5FE5
:10D7F000636F6E74726F6C5F736572766963652EAA
:10D800006300000030B5851D8BB0002101910291AD
:10D81000C28B68468280C18006A80290214C29886C
:10D82000608E01AAA5DF002803D000221146FBF775
:10D8300013FF28886188884204D10298007801F09B
:10D840005BF823E0618B884217D102984178037816
:10D850000A021A4369468A8182788A73C278CA7337
:10D8600002790A7442794A74807988748888072812
:10D870000CD103A801F09EF808E0618C884205D124
:10D8800068468088C1B2029801F098F82888618DB6
:10D89000884204D1684681880298FBF719FF0BB0D3
:10D8A00030BD0000542D0020704710B5002808D866
:10D8B0000420FCF7EFFB002803D000221146FBF701
:10D8C000CBFE10BD10B54179182251430F4A89187B
:10D8D000FF2205324A82036800249C5042790C4B97
:10D8E00092009A58091D002A0AD0036803242402D2
:10D8F0001B190A699A6002220A61016809194A60C3
:10D900000268012111620068416110BDDC35002010
:10D91000942700207FB50E46144605462021FAF7CD
:10D92000D8FC6A463146206800F062FB6846007AFF
:10D93000B04203D004A13D20FCF7A4F920686E4654
:10D9400001C50FCE0FC57FBD2E2E5C6C6F675F6368
:10D950006F6E74726F6C6C65722E63000021425C96
:10D96000002A01D001207047491C0629F7D3002066
:10D970007047000070B505461C200B4968434418E9
:10D98000204611300621FAF7A4FC20461021FAF7B0
:10D99000A0FCFF2121740020A176C04320832846EB
:10D9A00001F0E8FF70BD00001C3400200349091895
:10D9B00014200856401C00D0012070478C350020F0
:10D9C0000349081814214156C817401C704700002D
:10D9D0008C3500200449081814214156042901DB24
:10D9E00001207047002070478C350020044908183A
:10D9F00014214156042901D20120704700207047AC
:10DA00008C35002070B50D00044604D1002211466B
:10DA10001046FBF721FE002C04D1002211461046CF
:10DA2000FBF71AFE2878207069886170090AA170D6
:10DA3000A988E170090A2171E8886071000AA07163
:10DA400070BD000007490979490701D408207047D3
:10DA5000002804D0044949780160002070470E2056
:10DA60007047000070270020A834002070B5134BC9
:10DA70001B795B0701D4082070BD002817D0002A4D
:10DA800015D00368022B10D20C240D4D5C432E5987
:10DA9000002E0AD0466860190489458940686143B0
:10DAA000654371182818884203D8072070BD0E20DE
:10DAB00070BD13600020516070BD00007027002011
:10DAC00074350020FEB5044626480E46007940070E
:10DAD00001D40820FEBD002C25D02068022836D2B3
