:020000040000FA
:10000000E8230020150400001D0400001F04000068
:10001000210400002304000025040000000000006B
:1000200000000000000000000000000027040000A5
:1000300029040000000000002B0400002D04000033
:100040002F0400001D0500006D0800002F040000B3
:100050002F0400002F0400002F0400002F040000D4
:100060002F0400002F0400002F0400002F040000C4
:100070002F0400002F0400002F0400002F040000B4
:100080002F0400002F0400002F0400002F040000A4
:10009000790500002F0400002F0400002F04000049
:1000A0002F0400002F0400002F0400002F04000084
:1000B0002F0400002F0400000000000000000000DA
:1000C0002F0400002F0400002F0400002F04000064
:1000D0002F0400002F0400002F0400000000000087
:1000E0000000000000000000000000000000000010
:1000F0000000000000000000000000000000000000
:1001000000000000000000000000000000000000EF
:1001100000000000000000000000000000000000DF
:10040000DFF80CD000F03CF800480047850A0000F7
:10041000E82300200648804706480047FEE7FEE73D
:10042000FEE7FEE7FEE7FEE7FEE7FEE7FEE7FEE7A4
:10043000D10500000104000040EA01039B0703D03E
:1004400009E008C9121F08C0042AFAD203E011F813
:10045000013B00F8013B521EF9D27047D2B201E0D5
:1004600000F8012B491EFBD270470022F6E710B5B9
:1004700013460A4604461946FFF7F0FF204610BD12
:10048000064C074D06E0E06840F0010394E80700E1
:1004900098471034AC42F6D3FFF7B6FF8C19000032
:1004A000AC19000000F01F020121914040098000BA
:1004B00000F1E020C0F88012704700F01F02012117
:1004C00091404009800000F1E020C0F880117047A1
:1004D00000F01F02012191404009800000F1E0205E
:1004E000C0F80011704700F01F020121914040093F
:1004F000800000F1E020C0F8001270474907090EA3
:10050000002806DA00F00F0000F1E02080F8141D4A
:10051000704700F1E02080F80014704770B5144C6B
:10052000D4F80001002628B1D4F80403C00701D094
:10053000C4F80061D4F80C010E4D40B1D4F80403A6
:10054000000704D5C4F80C61E86800B18047D4F80E
:10055000100100280BD0D4F80403C00607D5C4F856
:100560001061A868002802D0BDE87040004770BD47
:1005700000100040040000207CB5144C206A01905B
:100580002078002821D00120FFF797FF656800261A
:1005900066600120FFF79CFFA169002915D0E807DC
:1005A00003D08DF8006068468847A80705D501206C
:1005B0008DF80000A16968468847680705D50220C4
:1005C0008DF80000A169684688477CBD04000020C2
:1005D000F0B598480023021D01780125101D4FF049
:1005E0008056062907D11478240704D10478C4F36F
:1005F0000314032C02D0062904D00FE08F4F8E4C39
:100600007C670EE01478240708D10478C4F303143F
:10061000032C06D0042C04D0052C02D0062907D0C8
:100620000EE0D6F84442864FC4F342343C6002E008
:100630001478240704D10478C4F30314032C02D0E3
:10064000062906D011E07F4C276827F080772760C5
:100650000EE01478240708D10478C4F30314032CA3
:1006600006D0042C04D0052C02D006290AD011E0B3
:100670004FF08044C4F80C31C4F81031704C241F82
:10068000236002E01478240704D10478C4F303142F
:10069000032C02D0062905D00CE0694F03246437EF
:1006A0003C600AE01478240704D10478C4F30314EE
:1006B000032C02D006290DD014E0634F05243C60C2
:1006C000614C78342560604C083423603F243F1D22
:1006D0003C6002E01478240704D10478C4F30314C6
:1006E000052C02D0062957D068E058490968584AB5
:1006F00011605649091D0968121D116053490831DE
:100700000968121D116051490C310968121D1160F0
:100710004E4910310968121D11604C4914310968A5
:10072000121D1160494918310968494A2032116087
:1007300046491C310968121D11604449203109687D
:10074000121D1160414924310968121D11603F4991
:1007500028310968121D11603C492C310968121DAD
:1007600011603A4930310968394A403211603749DD
:1007700034310968121D1160344938310968121D7D
:10078000116032493C310968121D11602F49403116
:100790000968121D116002E0117809070ED1007876
:1007A000C0F30310032803D0042801D0052805D185
:1007B000D6F85802274900F04F00086021487438E5
:1007C000016841F470010160BFF34F8FBFF36F8F79
:1007D0004FF01021D1F80002002803DBD1F8040209
:1007E000002822DA1C4A15601C480468002CFCD042
:1007F0001524C1F800420568002DFCD0C1F8044260
:1008000001680029FCD0136001680029FCD0BFF307
:100810004F8F0C48F0380168114A01F4E061114330
:100820000160BFF34F8F00BFFDE70F490D4808601F
:10083000F0BD0000E00F00F00DF0ADBA00C00740C1
:100840003C050040FCED00E01056004004040010A0
:1008500020C50040E40E004004E5014000E40140F2
:100860000400FA050090D003400000200448017FF6
:1008700004480029024901D000F05BBF00F0CABE65
:10088000900000200020004002E008C8121F08C1AC
:10089000002AFAD170477047002001E001C1121F01
:1008A000002AFBD17047006890FAA0F000BA00BAA5
:1008B00070470000BFF34F8F05480168054A01F4F7
:1008C000E06111430160BFF34F8F00BFFDE70000FF
:1008D0000CED00E00400FA050EB500210091CDE911
:1008E00001106A4644F20100FFF7E4FF0EBD00006C
:1008F0000249085C012100F05CBB00008419000083
:100900007CB50024084E25460122305D0095002369
:100910001146019500F030FB641C042CF4D3BDE8B3
:100920007C4000F003B800008419000010B50024DA
:100930002046FFF7DDFF641C042CF9D310BD0068CE
:1009400090FAA0F000BA704710B50F4C40F21310A7
:10095000C4F800020E490D480969C07C88470E4959
:100960000C4808600021C4F810110120C4F81000E0
:10097000D4F81021002AFBD0C4F8101140F217114E
:10098000C4F80012606010BD00100040B0000020EC
:100990000400002092030020041500404FF0804026
:1009A0000021C0F800110121C0F80010D0F800119A
:1009B0000029FBD07047000010B51CA08AB0006869
:1009C00008901BA01BA100680990D1E90001CDE9A6
:1009D0000601182219496846FFF72EFD00208DF800
:1009E000140003208DF813000124154801908DF8A0
:1009F00008408DF80140684600F010F9002812D137
:100A000008A800F0D7F900280DD109A800F0E4F9F2
:100A1000002808D1082106A800F0F0F9002802D12A
:100A20000848047000200AB010BD0000E7E7E7E7BF
:100A3000C2C2C2C2E7C2C3C4C5C6C7C86C190000DF
:100A40001D0B00004400002010B50D4C012020704B
:100A50006070A070E070FFF753FF2178112000F064
:100A60009DFA6178122000F099FAA178132000F025
:100A700095FAE178BDE81040142000F08FBA00002C
:100A800000000020FFF7E0FFFFF796FF08B1FFF737
:100A900023FFFFF783FF00F0D5F908B1FFF71CFF34
:100AA0000A480178427841EA42018278C07892008F
:100AB00042EAC00001430648417100F001FA08B162
:100AC000FFF70AFF20BF40BF20BFFBE70000002068
:100AD000440000200D4910B54FF4705008600C49D7
:100AE0000020487000F05CFC24210A48FFF7BDFCA0
:100AF000084809210A38FFF7B8FC1420FFF7DDFC8D
:100B000005490320C1F80002002010BD08F501408E
:100B100004000020BE0300200010004010B5007843
:100B200000285ED0012814D002285AD12D4800F0A8
:100B300005F90028FAD02B482B4C407900F00F0023
:100B400001280AD0022810D004283AD0082813D14E
:100B50003FE0BDE8104000F049B8207818B100210E
:100B60002170112006E00121FAE7607838B30021F6
:100B70006170122000F012FA2178112000F00EFAB4
:100B80006178122000F00AFAA178132000F006FA2A
:100B9000E178142000F002FA124801212538017092
:100BA00021786278E37841EA4201A278920042EA31
:100BB000C30211434171BDE8104000F081B9012129
:100BC000D6E7A07818B10021A1701320D2E7012147
:100BD000FAE7E07818B10021E1701420CAE701219A
:100BE000FAE710BD6900002000000020094810B598
:100BF000007860B10120FFF760FC074800218162A6
:100C0000016241620120FFF763FC002010BD082053
:100C100010BD000004000020F001002070B50500A8
:100C200076D03C4C207818B1FFF754FF00286DD1E6
:100C30006868A061182229463748FFF7FDFB0025A8
:100C4000656024213548FFF710FC344809210A3833
:100C5000FFF70BFC00F00EFE00F0A2FB2E49002077
:100C6000183101F5947200BF00EB800303EB4013D1
:100C70000B4442F82030401C0828F5DB28490020AE
:100C800001F5947200EB800303EB40130B4442F830
:100C90002030401C0828F5DB224904200860214848
:100CA00008380560204840F20221C0F80012204AAE
:100CB0001E491160111D08601C48001D091D0860B7
:100CC0001948001D091D0860091D1A4808601748C9
:100CD000F038091D08601748001D091D0860091D2E
:100CE000154808600C4E707C00F003010120FFF7EE
:100CF00005FCB07C00F003011420FFF7FFFB14207B
:100D0000FFF7E6FB657001202070002070BDFFE753
:100D10000E20FBE704000020B0000020BE030020EE
:100D20001C02002010A5004000A00040001100405F
:100D300060F5014040A100400010004070B505463C
:100D40001A48007860B36DB3194CA06A60B30120F3
:100D5000FFF7B3FB606A54F820100A782A7054F841
:100D600020104978697054F820108978A97054F8D7
:100D700020100979297154F82010681D491DFFF7CA
:100D80005BFB606A401C6062082801D3002060623F
:100D9000A06A401EA0620120FFF79AFB002070BDF0
:100DA000082070BD0E2070BD052070BD040000201D
:100DB00044030020074910B54A780AB1112010BD3C
:100DC00030B100688862012000F02CFD002010BDC9
:100DD0000E2010BD04000020074910B54A780AB162
:100DE000112010BD30B10068C862022000F01AFD69
:100DF000002010BD0E2010BD0400002010B50C46D0
:100E00000F49497809B1112010BD18B1092C03D33D
:100E1000072010BD0E2010BD014609482246303083
:100E2000FFF70AFB0648C4F108022830FF210474CA
:100E3000D1408174042000F0F5FC002010BD0000BA
:100E40000400002070B51948417809B1112070BD27
:100E5000174C4FF0FF31C4F808130025C4F81051A7
:100E60001449816040F21711C4F800121021C4F82F
:100E70000413042141700D480F4A2830817C116011
:100E80000D49C07C28390860091F0C480860012002
:100E90009434FFF707FB0120FFF71AFB256765670E
:100EA000E567012044F8900C002070BD040000208C
:100EB0000010004001100000301500409203002097
:100EC0002DE9F041284F0646387840B156B13078C8
:100ED00068B120280BD8254D297829B109E00820D0
:100EE000BDE8F0810E20FBE7E97C884201D90920AA
:100EF000F6E71F4CA06A082801D30420F0E76878C1
:100F000018B9F07808B1287D18B30120FFF7D5FA99
:100F1000206A2522314654F82000FFF78DFA7278B6
:100F20001448815C491C01F003018154206A54F883
:100F30002020401C08281171206201D3002020626B
:100F4000A06A401CA0620120FFF7C2FA687810B1C5
:100F500007E00620C4E7287C18B9787808B900F0C3
:100F600097FA0020BCE7000004000020B000002039
:100F7000F0010020B403002070B541EA4201DDE930
:100F800004564FF0A04441EA830141EA052104EBF5
:100F9000800041EA0641C0F8001770BD01224FF001
:100FA000A043824011B1C3F808257047C3F80C254F
:100FB000704701224FF0A043824011B1C3F80825C9
:100FC0007047C3F80C2570474058002800D0012016
:100FD000704708B5002242504058009008BDD0F834
:100FE0000403084000D0012070474058002800D07A
:100FF0000120704708B5002242504058009008BDBB
:101000002DE9F05F544800220127006818B15348C9
:10101000806A082803D3BDE8F05FFFF795BCDFF8CE
:10102000389109F10809D9F800004C4909F1040385
:101030007A311C6801EB80062C3935884878AC423F
:1010400005D1B478B4EB500F01D10122002740083C
:10105000B07018688B4630804148424C017D31B1F8
:101060009BF80110C90702D0FFF76EFC5EE03E4B13
:1010700040F21B11C3F800123A49384D0078096953
:101080004FF0000A2C35A0B3012844D1A5F5C0705B
:10109000836AB3F1000E2DD0436A50F823C09CF848
:1010A0000180D9F800C0E04524D196F803C0BCF116
:1010B000010F0DD162B95B1C4362082B01D3C0F84C
:1010C00024A0AEF101028262626842F00102626015
:1010D0000122F270426A50F822006061007888476D
:1010E00061690878287011F8052BA81CFFF7A4F98E
:1010F00006E009E086F803A00020884785F800A0F4
:101100009BF80100687006E0002088479BF800000B
:10111000287085F801A005206070D9F800001349F7
:1011200008601248283805601148A060002F10D0D0
:10113000B178D9F80000C0B200F066F9002808D0F4
:10114000606840F004006060BDE8F05F1420FFF7C5
:10115000CAB9BDE8F09F000000140040440300201D
:10116000B000002004000020001000402C150040BA
:1011700075110000094910B540F21710C1F80002BE
:10118000084C07482169C07C884708490648086020
:101190000748A0600420607010BD000000100040EF
:1011A000B00000200400002092030020041500403D
:1011B0000110000070B5164A40F21310C2F8000288
:1011C000144C606A14490860144B091D98898238D0
:1011D00008601348012140F80C1F0021C0F83411A9
:1011E000C0F838110F4D4FF4E050286050142D1DF9
:1011F0002860C2F80C11187810B9216900208847BE
:101200000A49094808600A48A0600320607070BD60
:10121000001000400400002040A50040B000002065
:1012200000A0004004F50140920300200415004096
:101230007112000010B50C4C606840F00100606055
:1012400000F0CEF90948806A30B11420FFF74BF95D
:10125000BDE8104000F01CB900206070BDE81040EF
:101260001420FFF740B9000004000020F001002026
:101270002DE9F04740494FF4E05008603F4AD2F86A
:101280000C31DFF8FC9000273E4CB9F80E004E14EC
:10129000DFF8F4800125DBB33C4B1B68C3B365600A
:1012A0000E60D8F8041041F00101C8F80410D8F815
:1012B0001C10401A401CC8F8200000F091F999F861
:1012C000000080B109F2E220007860B13048006887
:1012D0000021C0B200F098F828B1D8F8040040F01E
:1012E0000400C8F804002B48806A50B199F8100037
:1012F000012806D01420FFF7F6F8BDE8F04700F00B
:10130000C7B888F80170BDE8F0471420FFF7EBB8C4
:10131000D8F81CC0BCF1010CC8F81CC00BD2656029
:101320000E60401CC8F82000D8F8040040F002000D
:10133000C8F80400E5E740F21B111746C2F8001296
:10134000D8F81400D8F810100078884710491248CF
:10135000283908601148C8F80800022088F8010000
:1013600025600548001F0660D4F84401002800D01D
:101370003D60BDE8F087000008F501400010004026
:10138000B000002000A00040040000200014004035
:101390002C150040F001002070030020B511000062
:1013A0000549002008624862886201F5AA71086256
:1013B0004862886270470000F001002070B5054661
:1013C000C87D0C4600284FF4847128460AD0FFF7E8
:1013D00000FED5F81805627EE1688854607E401CE6
:1013E000607670BDFFF7F5FDD5F8180570BD1FB527
:1013F00001238DF800308DF808100192D0E9001219
:10140000684690471FBD00002DE9F0411E4C07467D
:101410000E46A06A082835D2A4F525722046137816
:101420000025006A02F2E221012B03D0537843B178
:10143000D27C02E00A78202A24D854F820301A708E
:1014400002E054F82020157054F82000891C10F890
:10145000052BFEF7F1FF206A54F820104F700B495E
:10146000096854F82020917054F82010401C082876
:101470000E71206200D32562A06A401CA062012088
:10148000BDE8F0810020FBE7440300204815004040
:101490002DE9F05F3D4C4FF00109C4F820903C4825
:1014A000DFF8F0B0A0F5A076416A3B4D4FF0110A8D
:1014B00050F821106161307806F5307810B10128BC
:1014C00041D110E0087821698847616908F102007C
:1014D0000A7988F80020002288F8012011F8052BED
:1014E000FEF7AAFF15E0C87800B3307DF0B1002701
:1014F0000A7888F800200A7987F0010343EA42025B
:1015000088F8012011F8052B08F10200FEF794FF7E
:1015100077B140F21B10C5F80002C5F804A3F089AA
:10152000E0610220C4F808B060700CE00127DFE73A
:1015300040F21310C5F800021020C5F80403174844
:10154000A06084F801906069154A41781160407884
:101550004C4609FA00F0111D08600C48104928306B
:101560002439C07C0860091FC1F800800120FEF703
:1015700099FF0120FEF7ACFF0020C5F80401C5F873
:101580000801C5F810012C60BDE8F09F04000020A0
:10159000F0010020B51100000010004035120000DD
:1015A0002C15004070B50C4605464FF48E71FFF7C0
:1015B00010FDA18AA068415CA08A401CA082C5F8E9
:1015C0001C1570BD1FB500228DF800208DF8081085
:1015D000816801918275D0E90012684690471FBD6D
:1015E00010B50B4CA06A002811D00120FEF765FF52
:1015F000A06A401EA062606A401C6062082801D395
:1016000000206062BDE810400120FEF761BF10BD00
:10161000F00100202DE9FF470C4605464FF400710C
:10162000FFF7DDFC01274FF40178002618B34FF4D3
:10163000927949462846FFF7C7FCE0B1494628465B
:10164000FFF7C7FCC5F80883A07E00B96F600220D1
:101650008DF80000D5F88004C5F880040390E07D83
:101660008DF80800E0680190E6752676D4E900124E
:101670006846904727E004212846FFF7B0FC10B3E6
:101680004FF484712846FFF79FFCE0B121462846BD
:10169000FFF794FEE07D617E884214D1207E38B150
:1016A000617EE268E0752069E0602676667607E094
:1016B000A07E00B96F60C5F80883E675617EE268B8
:1016C0002046FFF794FE4FF48E7841462846FFF7F8
:1016D0007BFC88B1A08AA17D884204D2214628469D
:1016E000FFF760FF08E041462846FFF772FCA17D46
:1016F00011B12046FFF766FF4FF4A2784146284615
:10170000FFF762FC002812D041462846FFF761FC33
:10171000A07E00B12F60E07D002808D0E675617ED4
:10172000E26804B02046BDE8F047FFF760BEBDE8C0
:10173000FF872DE9FF410C464FF492770546394665
:10174000FFF753FC0026C0B139462846FFF752FC8C
:1017500002208DF80000D5F88004C5F880040390BD
:10176000D5F83C058DF80800E0680190E67526760E
:10177000D4E900126846904724E04FF48877394650
:101780002846FFF732FCE8B139462846FFF732FC1D
:10179000D5F83C05C1B2E07D884213D1207E60B10E
:1017A000E268D5F8000220F02000C5F80002207E93
:1017B000E0752069E060267601E0E675E268204683
:1017C000FFF715FE4FF4A27739462846FFF70DFCC8
:1017D00068B139462846FFF70DFCE07D38B1E67563
:1017E000D5F83C05E268C1B22046FFF700FE4FF491
:1017F000907631462846FFF7F8FB00280FD0314697
:101800002846FFF7F7FBA07D002808D0D5F84C0547
:1018100004B0C1B22046BDE8F041FFF7D3BEBDE839
:10182000FF81000010B50446C00704D00F48FFF741
:101830003AF80F490860A00706D50C48001DFFF7CD
:1018400032F80B49091D086060070DD507480830BC
:10185000FFF775F806490831086004480C30FFF7B7
:101860006EF803490C31086010BD00002C00002008
:101870001C15004010B500F043F81B481B49027AC4
:101880000A601B4940235AB1012A04D0022A04D01D
:10189000032A06D104E0302200E0FA224A6200E086
:1018A0004B6202781AB1012A03D1124A00E0124AAF
:1018B0000A610E4B427A24331A600C4B2C331C1FE6
:1018C000022A02D0012A05D009E04FF6FF721A6001
:1018D0000A4A03E0FF221A6040F207122260C07C2D
:1018E0000969BDE810400847B0000020101500400D
:1018F000040000204119000015190000211001000A
:1019000002480349807A086070470000B000002058
:101910000C150040084A074911600849497C491ED6
:10192000090441EA0021014341F08070111D086063
:101930007047000000010100141500402C00002039
:1019400007490648086007480749407C401E41EAAD
:1019500000400349091D08607047000006000300AD
:10196000141500402C0000202000000101000000A0
:101970000000000001020000FA0003000001022044
:1019800000000000111213140D0E0F10AC1900000E
:10199000000000204400000088080000F01900004A
:1019A00044000020A423000098080000000000006C
:1019B0000000000000000000000000000000000027
:1019C0000000000000000000000000000000000017
:1019D0000000000000000000E7E7E7E7C2C2C2C263
:1019E000E7C2C3C4C5C6C7C80805FF020090D0033C
:0400000500000401F2
:00000001FF
